:020000040800F2
:10000000500C002089010008E50D0008C70A00080F
:10001000290D000859050008072900080000000004
:10002000000000000000000000000000E71E0008C3
:100030005D05000800000000411C0008D9200008F0
:10004000A3010008A3010008A3010008A301000800
:10005000A3010008A3010008F9050008A301000896
:100060002D0600086106000895060008A301000897
:10007000A3010008A3010008A3010008A3010008D0
:10008000A3010008A3010008A3010008A3010008C0
:10009000A3010008A3010008A3010008A3010008B0
:1000A000A3010008A3010008A3010008A3010008A0
:1000B000A30100083D210008A3010008A3010008D6
:1000C000A3010008A3010008A3010008A301000880
:1000D000A3010008692600088D260008A301000876
:1000E000A3010008A3010008A301000800F002F822
:1000F00000F03AF80AA090E8000C82448344AAF188
:100100000107DA4501D100F02FF8AFF2090EBAE885
:100110000F0013F0010F18BFFB1A43F0010318473B
:10012000C8370000E8370000103A24BF78C878C10B
:10013000FAD8520724BF30C830C144BF04680C60ED
:10014000704700000023002400250026103A28BF35
:1001500078C1FBD8520728BF30C148BF0B60704739
:100160001FB51FBD10B510BD00F033F81146FFF7E5
:10017000F7FF03F06FF800F051F803B4FFF7F2FF58
:1001800003BC02F01DFC00000948804709480047F5
:10019000FEE7FEE7FEE7FEE7FEE7FEE7FEE7FEE737
:1001A000FEE7FEE704480549054A064B7047000094
:1001B000DD200008ED00000850060020500C002053
:1001C0005008002050080020704770477047704763
:1001D0007047754600F028F8AE460500694653465C
:1001E00020F00700854618B020B5FFF7DBFFBDE81B
:1001F00020404FF000064FF000074FF000084FF08E
:10020000000B21F00701AC46ACE8C009ACE8C0091E
:10021000ACE8C009ACE8C0098D4670470446AFF3AE
:1002200000802046FFF7A9FF00487047F005002036
:1002300021B1826842F00102826003E0826822F00C
:10024000010282607047000010B5044612488442E3
:1002500008D10121401501F031FD0021601501F0A8
:100260002DFD17E00D48844208D10121001501F051
:1002700025FD0021201501F021FD0BE008488442F6
:1002800008D10121C80301F019FD00214FF40040FD
:1002900001F014FD10BD00000024014000280140C1
:1002A000003C0140014600208A6802F004020AB1C5
:1002B000012000E0002070470146C86C80B2704702
:1002C0000246002013680B400BB1012000E0002023
:1002D0007047014600208A6802F008020AB1012036
:1002E00000E000207047000030B5024600200023E7
:1002F00050680F4C20400D790C6844EA05242043D7
:10030000506090680B4C2040D1E902542C434D7949
:1003100044EA450420439060D06A20F470000C7CCD
:10032000641EE4B2234340EA0350D06230BD0000B3
:10033000FFFEF0FFFDF7F1FFF0B504460D4600208B
:100340000021092D11DDE068A5F10A0606EB46073C
:10035000072606FA07F18843A5F10A0606EB4606CA
:1003600003FA06F10843E0600CE0206905EB45075D
:10037000072606FA07F1884305EB450603FA06F15E
:1003800008432061072A0FDA606B561E06EB8607CA
:100390001F2606FA07F18843561E06EB860605FA65
:1003A00006F10843606322E00D2A0FDA206BD61FA6
:1003B00006EB86071F2606FA07F18843D61F06EBD1
:1003C000860605FA06F10843206310E0E06AA2F110
:1003D0000D0606EB86071F2606FA07F18843A2F1F1
:1003E0000D0606EB860605FA06F10843E062F0BD4D
:1003F000816841F008018160704721B1826842F450
:10040000A002826003E0826822F4A002826070474A
:10041000816841F0040181607047000000B587B039
:1004200001214FF4017001F039FC4FF4004001F05C
:1004300009FC8020ADF8040000208DF8070001A918
:10044000174800F030FA1748FFF7FEFE0020029030
:100450008DF80C008DF80D004FF460200490002002
:10046000059001208DF8180002A90E48FFF73CFF07
:1004700001210C48FFF7DCFE0A48FFF7B9FF00BF77
:100480000848FFF726FF0028FAD10648FFF7C0FF0B
:1004900000BF0448FFF706FF0028FAD107B000BDEF
:1004A0000008014000240140052001490870704700
:1004B0003100002010B500200549087001200549D1
:1004C0000870054883884288012102F0A7FB10BD0F
:1004D0005E0000205F000020AE370008184800785A
:1004E000002826DD17480088401C80B21549088086
:1004F0001549164A127831F81210884208DB00209C
:10050000104908800E480078401E0D49087015E01B
:100510000F480E49097830F811000A4909888842C5
:1005200003DC00200B49086008E00120094908604D
:1005300004E0002003490880064908607047000075
:100540005F00002066000020D23800085E00002016
:10055000DC3800089001214200BFFEE77047000030
:1005600070B504461C48007803281AD10A2094FB71
:10057000F0F0C5B22B4640F26F1240F24A2105203E
:1005800002F076FB0A2094FBF0F100FB1140C5B2AB
:100590002B4640F26F1240F26221052002F068FB08
:1005A00019E00A2094FBF0F0C5B22B4640F25B1232
:1005B00040F24A21052002F05BFB0A2094FBF0F197
:1005C00000FB1140C5B22B4640F25B1240F26221A3
:1005D000052002F04DFB70BD3100002010B504462F
:1005E00004F14000C3B240F26F1240F21511052031
:1005F00002F02EFB10BD000010B50A2002F034FA04
:100600000121084800F022FA012807D106480068B5
:1006100008B9012000E0002003490860012000F033
:1006200053F810BD000801409401234210B50A2080
:1006300002F01AFA0421084800F008FA38B907480D
:10064000006808B9012000E0002004490860042087
:1006500000F03AF810BD00000018014094812142DA
:1006600010B50A2002F000FA0821084800F0EEF95F
:1006700038B90748006808B9012000E000200449A3
:100680000860082000F020F810BD000000180140AC
:100690009401234210B50A2002F0E6F9102108481F
:1006A00000F0D4F938B90748006808B9012000E023
:1006B000002004490860102000F006F810BD00007A
:1006C00000180140948121420149086070470000F0
:1006D000140401400848007820F00100401C06493D
:1006E000087007200549087000200549087001209E
:1006F00004490870704700003000002031000020DD
:100700005E0000205F0000200848007820F0010013
:10071000401C06490870052005490870002005495D
:100720000870012004490870704700003000002064
:10073000310000205E0000205F00002010B5074857
:100740000078032806DC054909780D31C8B202F0AB
:10075000B3FA02E003200149087010BD4A000020EE
:1007600009480078401CC0B207490870032806DC1D
:1007700000200649087001200549087002E00320A6
:1007800001490870704700004A0000205E00002008
:100790005F00002030B5044604254FF4302000F0FF
:1007A0006FF80546042D17D10C48006940F002008F
:1007B0000A49086108464461006940F04000086148
:1007C0004FF4302000F05CF805460448006941F61B
:1007D000FD71084001490861284630BD00200240F3
:1007E00004200B49C96801F0010109B101200EE0A4
:1007F0000749C96801F0040109B1022007E0044972
:10080000C96801F0100109B1032000E0042070471D
:10081000002002400348006940F08000014908615F
:10082000704700000020024070B504460D460426C3
:10083000F00200F025F80646042E11D1094800699F
:1008400040F00100074908612580F00200F018F827
:1008500006460448006941F6FE71084001490861F6
:10086000304670BD002002400248034948600348FA
:10087000486070472301674500200240AB89EFCDF7
:1008800000B502460423FFF7ABFF034603E0FFF782
:10089000A7FF0346521E012B01D1002AF7D102B94E
:1008A0000523184600BD2DE9F0410246002500262B
:1008B000002000230024002791F803C00CF00F054E
:1008C00091F803C00CF0100CBCF1000F03D091F8AC
:1008D00002C04CEA050591F800C0BCF1000F31D010
:1008E000146800202BE04FF0010C0CFA00F3B1F873
:1008F00000C00CEA03069E4220D183004FF00F0C8B
:100900000CFA03F7BC4305FA03FC4CEA040491F823
:1009100003C0BCF1280F06D14FF0010C0CFA00FC0B
:10092000C2F814C00AE091F803C0BCF1480F05D129
:100930004FF0010C0CFA00FCC2F810C0401C082853
:10094000D1D31460B1F800C0BCF1FF0F34DD54689E
:1009500000202EE000F1080C4FF0010808FA0CF31B
:10096000B1F800C00CEA03069E4221D183004FF08B
:100970000F0C0CFA03F7BC4305FA03FC4CEA040421
:1009800091F803C0BCF1280F05D100F1080C08FA5A
:100990000CF8C2F8148091F803C0BCF1480F07D1DD
:1009A00000F1080C4FF0010808FA0CF8C2F81080AA
:1009B000401C0828CED35460BDE8F081F0B50A464B
:1009C000002300240021002500F00046B6F1004F6E
:1009D00002D11D4EF16901E01B4E7168C0F3034561
:1009E00083B200F44016B6F5401F08D121F07061C3
:1009F000154E766826F07066134F7E6012E000F4A4
:100A00008016B6F5801F06D1032606FA05F4A14329
:100A100041F0706106E0460D360103FA06F6B14377
:100A200041F0706122B1460D360103FA06F63143FA
:100A300000F00046B6F1004F02D1034EF16101E033
:100A4000014E7160F0BD0000000001400246002030
:100A500093680B400BB1012000E00020704741611A
:100A60007047000010B504460723012221460948BB
:100A7000FFF762FC01210748FFF7BFFC00BF02211E
:100A80000448FFF71DFC0028F9D00248FFF714FCCA
:100A900010BD0000002401402DE9F04107460C463E
:100AA0000025002608E03846FFF7DCFF05446420F7
:100AB00002F000F8701CC6B2A642F4DBB5FBF4F0FD
:100AC00080B2BDE8F08100BFFEE7000010B5094824
:100AD0000078032806D1084883884288012102F063
:100AE0009DF805E0054883884288012102F096F8C8
:100AF00010BD000031000020803800084438000894
:100B000010B50020214908700120214908702148B2
:100B10000078032813D120480078012804DD1E48FE
:100B20000078401E1C4908701B480078FFF718FD2C
:100B30001A4883884288012102F070F825E016489F
:100B40000078012817DD14480078401E124908700B
:100B5000084600780A2804DC0846007810498870A6
:100B600006E00D4800780A21C1EB40000C4988706E
:100B700001200C49087008480078FFF7F1FC0A488A
:100B800083884288012102F049F810BD5E000020F0
:100B90005F000020310000205400002008380008C9
:100BA0004C0000204B000020CC37000810B509484D
:100BB0000078032806D1084883884288012102F082
:100BC0002DF805E0054883884288012102F026F8C7
:100BD00010BD0000310000208A3800084E3800089F
:100BE00010B50020214908700120214908702148D2
:100BF0000078032813D120480078082804DA1E481A
:100C00000078401C1C4908701B480078FFF7A8FCBE
:100C10001A4883884288012102F000F825E016482E
:100C200000780F2817DA14480078401C1249087021
:100C3000084600780A2804DC0846007810498870C5
:100C400006E00D4800780A21C1EB40000C4988708D
:100C500001200C49087008480078FFF781FC0A4819
:100C600083884288012101F0D9FF10BD5E00002079
:100C70005F000020310000205400002012380008DE
:100C80004C0000204B000020D637000808B5012199
:100C90000D2001F003F810208DF8030003208DF8DB
:100CA00002001020ADF8000069460B48FFF7FBFD7D
:100CB00010210948FFF7D3FE01210848FFF77EFE07
:100CC0001B20ADF8000069460548FFF7ECFD1B212D
:100CD0000348FFF7C4FE08BD0008014000023000D1
:100CE000000C014010B50E480078012816D10020F4
:100CF0000B4908700B49087802F0E8FC094948786C
:100D000002F0E4FC0749887802F0E0FC0549C87865
:100D100002F0DCFC0349087902F0D8FC10BD0000A9
:100D20004B0000204C00002000BFFEE710B5034838
:100D300083884288012101F071FF10BD58380008F6
:100D400010B500200C49087001200C4908700C48AF
:100D500083884288012101F061FF0A480078012858
:100D600004DD08480078401E0649087005480078F0
:100D7000FFF734FC10BD00005E0000205F00002083
:100D8000E03700085500002010B5034883884288EA
:100D9000012101F043FF10BD6238000810B50020AA
:100DA0000C49087001200C4908700C48838842885F
:100DB000012101F033FF0A480078042804DA0848CA
:100DC0000078401C0649087005480078FFF706FCCB
:100DD00010BD00005E0000205F000020EA37000820
:100DE00055000020704710B54FF4A06000F03AF8AD
:100DF00010BD000070B5002100230F22C47804B399
:100E0000154C246804F4E064C4F5E064210AC1F1DF
:100E10000403CA40447804FA03F18478144021435F
:100E200009010E4C0678A155047804F01F05012431
:100E3000AC4005786D11AD0005F1E025C5F8004125
:100E400009E0047804F01F050124AC40044D067845
:100E5000761145F8264070BD0CED00E000E400E09E
:100E600080E100E002490143024A1160704700003E
:100E70000000FA050CED00E010B511B3144A107033
:100E8000144A1288521C92B2124B1A80124B104C08
:100E9000247833F814309A4202DB00220D4B1A807A
:100EA0000E4A0B4B1B7832F813200A4B1B889A42D0
:100EB00003DD00220A4B1A6008E00122084B1A6089
:100EC00004E00022034B1A80054B1A6010BD00009D
:100ED0006400002062000020BA380008C63800080C
:100EE0008081214210B50020744908704FF4E16000
:100EF00073490880012073490870022072494870C4
:100F00007048007888700020C8707048007820F021
:100F100001006E4908700E2001F0CEFE684800887E
:100F200002F00AF967480078FFF71AFB68488388DF
:100F30004288012101F072FE01F0E2FD654A0021C4
:100F4000654801F0C5FF624A6449654801F0C0FF89
:100F5000644A6549654801F0BBFF654A65496648D2
:100F600001F0B6FF654A6649664801F0B1FF664A7E
:100F70006649674801F0ACFF664A6749674801F077
:100F8000A7FF8EE001F052FF65480078022817D0D5
:100F900001204A4908704D48007820F00100401CAB
:100FA0004A49087000204849C8704848007820F035
:100FB0000800464908700846007820F020000870B4
:100FC00001F0A4FC41480078C0F3001050B13F4844
:100FD000007820F010003D49087001203749087062
:100FE000FFF780FE39480078C0F34000002858D051
:100FF0003648007820F002003449087049480078EB
:10100000EE281DD100204849087007204749087084
:10101000474883884288012101F000FE00202A49C8
:10102000C8702A48007820F008002849087008464F
:10103000007820F02000087001202049087030E07E
:1010400038480078A02812D120480078C0F3C000AA
:1010500068B11E48007820F0200020301B4908703D
:1010600000203149087001203049087019E02D48EE
:101070000078A12815D115480078C0F3C00080B1D0
:1010800012480078C0F3401058B11048007820F0A2
:1010900020000E49087000202349087001202349D0
:1010A00008700A48007800F0010000283FF46AAF99
:1010B00002F03AF801F0BAFE10BD00004B0000202B
:1010C00052000020540000204C000020300000207E
:1010D000A43700089A37000809200008B11B00084F
:1010E000B51B0008AE370008A9040008B5040008C5
:1010F000C2370008CD25000801260008B8370008CF
:101100003525000869250008D6370008AD0B000812
:10111000E10B0008CC370008CD0A0008010B0008DD
:1011200031000020590000205E0000205F000020F8
:101130001C38000810B54FF4E1604D4908800120CB
:101140004C4908704C48007820F001004A4908706A
:101150004FF6FF714FF4784001F0B2FF062001F026
:10116000ABFD4348008801F0E7FF424800780A21C0
:1011700090FBF1F0C4B2234640F25D1240F24521EB
:10118000052001F075FD3B4800780A2190FBF1F243
:1011900001FB1200C4B2234640F25D1240F25D2111
:1011A000052001F065FD354883884288012101F062
:1011B00035FD01F0A5FC324A3249334801F088FE82
:1011C0002E4A3249324801F083FE324A32493348CE
:1011D00001F07EFE324A3349334801F079FE334A4A
:1011E0003349344801F074FE334A3449344801F03D
:1011F0006FFE344A3449354801F06AFE2DE001F0B3
:1012000015FE01F083FB1C480078C0F3C00070B1EC
:1012100001202F4908602F49C1F890012E48154A36
:10122000127830F812102D4801F0DFF805E00020A8
:10123000274908602749C1F890010F480078C0F39A
:10124000001050B10C48007820F010000A490870D6
:10125000012023490870FFF745FD0748007800F09A
:1012600001000028CBD001F05FFF01F0DFFD10BDD1
:10127000520000205400002030000020A437000855
:101280009A3700080520000809200008B11B000853
:10129000B51B0008AE370008A9040008B504000813
:1012A000C2370008CD25000801260008B83700081D
:1012B0003525000869250008D6370008AD0B000861
:1012C000E10B0008CC370008CD0A0008010B00082C
:1012D0008481214200802142340000200008004027
:1012E0004B00002010B50020134908701348007807
:1012F00020F00100114908700D2001F0DDFC01F023
:10130000FFFB0F4A00210F4801F0E2FD0E4A0F4992
:101310000F4801F0DDFD01F007FF01E001F086FD5F
:101320000648007800F001000028F7D001F0FCFE2C
:1013300001F07CFD10BD00004A00002030000020BC
:1013400094380008090700089E3800083D07000887
:101350006107000810B50020734908704FF4E16080
:1013600072490880012072490870724948707048BB
:10137000007888700020C8706F48007820F0010065
:101380006D4908700C2001F097FC6848008801F056
:10139000D3FE67480078FFF7E3F8684883884288FF
:1013A000012101F03BFC01F0ABFB654A00216548DF
:1013B00001F08EFD614A6449644801F089FD644A88
:1013C0006449654801F084FD644A6549654801F057
:1013D0007FFD654A6549664801F07AFD654A6649C0
:1013E000664801F075FD664A6649674801F070FD80
:1013F0008EE001F01BFD65480078072817D001201A
:10140000494908704C48007820F00100401C4A49C6
:10141000087000204749C8704748007820F008004D
:10142000454908700846007820F02000087001F057
:101430006DFA41480078C0F3001050B13E48007882
:1014400020F010003C490870012037490870FFF770
:1014500049FC39480078C0F34000002858D036488D
:10146000007820F002003449087049480078EE28DE
:101470001DD1002047490870072047490870474898
:1014800083884288012101F0C9FB00202949C870E6
:101490002948007820F0080027490870084600789D
:1014A00020F02000087001201F49087030E0384803
:1014B0000078A02812D120480078C0F3C00068B19D
:1014C0001D48007820F0200020301B4908700020C3
:1014D0003049087001203049087019E02C48007824
:1014E000A12815D114480078C0F3C00080B112487B
:1014F0000078C0F3401058B10F48007820F0200069
:101500000D49087000202349087001202249087005
:101510000948007800F0010000283FF46AAF01F0AC
:1015200003FE01F083FC10BD4B00002052000020A0
:10153000540000204C00002030000020A437000898
:101540009A37000809200008B11B0008B51B0008E5
:10155000AE370008A9040008B5040008C237000827
:10156000CD25000801260008B837000835250008F9
:1015700069250008D6370008AD0B0008E10B00080C
:10158000CC370008CD0A0008010B0008310000200C
:10159000590000205E0000205F0000201C38000879
:1015A00010B50020734908704FF4E160724908805B
:1015B000012072490870724948707048007888703C
:1015C0000020C8706F48007820F001006D49087055
:1015D0000D2001F071FB6848008801F0ADFD6748FF
:1015E0000078FEF7BDFF684883884288012101F03A
:1015F00015FB01F085FA654A0021654801F068FC99
:10160000614A6449644801F063FC644A644965487E
:1016100001F05EFC644A6549654801F059FC654A81
:101620006549664801F054FC654A6649664801F020
:101630004FFC664A6649674801F04AFC8EE001F0BB
:10164000F5FB65480078012817D00120494908704A
:101650004C48007820F00100401C4A4908700020E6
:101660004749C8704748007820F00800454908708D
:101670000846007820F02000087001F047F9414842
:101680000078C0F3001050B13E48007820F0100000
:101690003C490870012037490870FFF723FB39489F
:1016A0000078C0F34000002858D03648007820F079
:1016B00002003449087049480078EE281DD1002006
:1016C000474908700720474908704748838842887F
:1016D000012101F0A3FA00202949C87029480078A7
:1016E00020F00800274908700846007820F0200004
:1016F000087001201F49087030E038480078A028A1
:1017000012D120480078C0F3C00068B11D480078AD
:1017100020F0200020301B4908700020304908705C
:1017200001203049087019E02C480078A12815D113
:1017300014480078C0F3C00080B112480078C0F3AC
:10174000401058B10F48007820F020000D49087073
:1017500000202349087001202249087009480078B8
:1017600000F0010000283FF46AAF01F0DDFC01F059
:101770005DFB10BD4B0000205200002054000020F3
:101780004C00002030000020A43700089A370008E1
:1017900009200008B11B0008B51B0008AE3700087F
:1017A000A9040008B5040008C2370008CD250008C8
:1017B00001260008B837000835250008692500080B
:1017C000D6370008AD0B0008E10B0008CC37000845
:1017D000CD0A0008010B000831000020590000204C
:1017E0005E0000205F0000201C38000810B52A4869
:1017F000007820F0010028490870052001F04EFA19
:10180000562340F249220221012001F021FA32231D
:1018100040F249220821012001F01AFA2E2340F259
:1018200049220E21012001F013FA332340F249220C
:101830001421012001F00CFA01F062F9174A00218D
:10184000174801F045FB174A0021174801F040FBFB
:10185000164A0021164801F03BFB11E001F0E6FAC0
:101860000D480078C0F3001050B10B48007820F00C
:1018700010000949087001200E490870FFF732FA7C
:101880000548007800F001000028E7D001F04CFC8A
:1018900001F0CCFA10BD00003000002040370008F5
:1018A000A13300084A370008ED3300085437000818
:1018B000A13400084B00002010B52648007820F025
:1018C0000100244908700B2001F0F6F901F018F925
:1018D000214A0021214801F0FBFA214A0021214838
:1018E00001F0F6FA204A0021204801F0F1FA204ADE
:1018F0000021204801F0ECFA1F4A00211F4801F0A6
:10190000E7FA1CE001F092FA1D480078052806D09D
:101910001048007820F00100401C0E4908700D4866
:101920000078C0F3001050B10A48007820F0100091
:1019300008490870012013490870FFF7D3F90548DA
:10194000007800F001000028DCD001F0EDFB01F090
:101950006DFA10BD300000207237000839340008DD
:101960005E3700086D340008683700086D330008E2
:101970007C370008ED3400082C370008E91E000809
:10198000310000204B00002010B54FF4E1605149B8
:10199000088001205049087050490870504800786C
:1019A00020F001004E4908700F2001F085F94948E8
:1019B000008801F0C1FB48480078FEF7D1FD474898
:1019C0000078FEF70BFE474883884288012101F02A
:1019D00025F901F095F8444A0021444801F078FACD
:1019E000404A4349434801F073FA434A4349444853
:1019F00001F06EFA434A4449444801F069FA444A06
:101A00004449454801F064FA444A4549454801F0D3
:101A10005FFA454A4549464801F05AFA454A46495F
:101A2000464801F055FA464A4649474801F050FAFF
:101A300044E001F0FBF945480078032810D028481D
:101A4000007820F00100401C254908700846007805
:101A500020F0080008700846007820F02000087088
:101A600000F054FF1E480078C0F3C00058B10621B2
:101A70000720FFF711F83649088000F00BFD012020
:101A8000344908600AE000203249083908603249C8
:101A9000C1F880012F49086030490870104800786B
:101AA000C0F3001050B10E48007820F010000C492F
:101AB000087001202A490870FFF714F908480078D7
:101AC00000F001000028B4D001F02EFB01F0AEF9C7
:101AD00010BD0000520000205400002055000020DE
:101AE00030000020A43700089A37000809200008B9
:101AF000B11B0008B51B0008AE370008A904000898
:101B0000B5040008FE370008CD25000801260008AE
:101B1000F437000835250008692500081238000848
:101B2000AD0B0008E10B000808380008CD0A0008DA
:101B3000010B0008EA370008890D00089D0D000818
:101B4000E03700082D0D0008410D0008310000208D
:101B5000560000208C812142008021425800002044
:101B60004B00002010B5002001F098F80D480078D7
:101B700020F001000B49087000F0C2FF0A4A002162
:101B80000A4801F0A5F901E001F050F90548007894
:101B900000F001000028F7D001F0C6FA01F046F984
:101BA00010BD00003000002036370008D5060008C0
:101BB0007047000010B5002019490870012019492C
:101BC0000870194883884288012101F027F81748D6
:101BD00083884288012101F021F815480078032804
:101BE0000BD11448007820F008001249087008460C
:101BF000007820F02000087010E000200E49C87026
:101C00000C48007820F008000A490870084600785F
:101C100020F02000087001200849087010BD000065
:101C20005E0000205F0000201C380008A437000878
:101C300031000020300000204C0000204B0000202C
:101C40007047000001460020034A506820F44040DD
:101C500008435060704700000010024029B1064A56
:101C6000D2690243044BDA6104E0034AD269824339
:101C7000014BDA61704700000010024029B1064AAA
:101C800012690243044B1A6104E0034A1269824359
:101C9000014B1A61704700000010024029B1064A4A
:101CA00092690243044B9A6104E0034A92698243B9
:101CB000014B9A61704700000010024029B1064AAA
:101CC000D2680243044BDA6004E0034AD2688243DC
:101CD000014BDA60704700000010024030B500216F
:101CE0000022002400232D4D6D6805F00C0121B168
:101CF000042905D0082923D105E0294D056022E0FB
:101D0000274D05601FE0254D6D6805F47012234DC9
:101D10006D6805F48034022505EB92421CB9214D13
:101D2000554305600BE01D4D6D6805F400351DB190
:101D30001C4D5543056002E0194D5543056002E016
:101D4000174D056000BF00BF144D6D6805F0F00130
:101D50000909154D6B5C0568DD4045600F4D6D68E8
:101D600005F4E061090A104D6B5C4568DD40856053
:101D70000A4D6D6805F46051C90A0B4D6B5C4568EE
:101D8000DD40C560054D6D6805F44041890B074D88
:101D90006B5CC568B5FBF3F5056130BD0010024012
:101DA00000127A0000093D001400002024000020E9
:101DB00030B503460C461546002207E0184600F0F1
:101DC00008F824F812009B1C501C82B2AA42F5DBD2
:101DD00030BD0146088870472DE9F05F80468A468D
:101DE0001746B8F1006F02D33348804501D3BDE8F0
:101DF000F09FFEF739FDA8F1006B4FEA9B25CBF36E
:101E00004809C9F50074A74200DC3C464DE04FF09C
:101E1000006101EB85208A142849FFF7C9FF0026DD
:101E20000BE009EB0600254931F810004FF6FF7171
:101E3000884200D003E0701C86B2A642F1DB00BFEE
:101E4000A6421BDA4FF0006101EB8520FEF7A2FCF1
:101E5000002608E03AF8160006EB0901174A22F8B6
:101E60001100701C86B2A642F4DB4FF0006101EB5A
:101E700085208A14114900F023F804E022465146D7
:101E8000404600F01DF8A74200D10FE06D1C4FF056
:101E900000090AEB440AA044381B87B2B7F5007F5B
:101EA00002DD4FF4007400E03C46B0E700BFFEF7EF
:101EB000B1FC00BF9BE70000000001087C0000208F
:101EC0002DE9F04105460E461746002407E036F896
:101ED00014102846FEF7A8FCAD1C601C84B2BC425E
:101EE000F5DBBDE8F081704710B5062007490870A2
:101EF00000200749087001200649087006488388B9
:101F00004288012100F08AFE10BD0000310000204F
:101F10005E0000205F0000202C37000810B500F0A4
:101F200001F810BD0CB50020019000903348006806
:101F300040F480303149086000BF3048006800F448
:101F4000003000900198401C0190009818B9019849
:101F5000B0F5A06FF1D12948006800F4003010B14D
:101F60000120009001E0002000900098012843D15A
:101F70002348006840F010002149086008460068C6
:101F800020F0030008600846006840F00200086086
:101F90001A48406819494860084640684860084641
:101FA000406840F4806048600846406820F47C1037
:101FB00048600846406840F4E810486008460068F9
:101FC00040F08070086000BF0C48006800F00070AE
:101FD0000028F9D00948406820F00300074948600C
:101FE0000846406840F00200486000BF034840686F
:101FF00000F00C000828F9D10CBD000000100240D0
:10200000002002407047000010B501201F490870F1
:102010001F4908701F4883884288012100F0FEFD97
:102020001D4883884288012100F0F8FD1B48007894
:10203000032814D11A48007820F008000830184905
:1020400008700846007820F02000203008701548FD
:10205000008818B94FF4E1601249088013E00120AC
:10206000114908701149C8700D48007820F0080027
:1020700008300B4908700B48008818B94FF4E1602C
:102080000849088000BF00BF10BD00005E000020AE
:102090005F0000209A370008263800083100002031
:1020A00030000020520000204B0000204C00002097
:1020B000042808D14FF0E021096941F004014FF0F4
:1020C000E022116107E04FF0E021096921F00401ED
:1020D0004FF0E022116170477047000010B51348BF
:1020E000006840F001001149086008464068104946
:1020F00008400E494860084600680E4908400B49F0
:1021000008600846006820F480200860084640689F
:1021100020F4FE0048604FF41F008860FFF7FEFEC9
:102120004FF000600449086010BD0000001002403C
:102130000000FFF8FFFFF6FE08ED00E010B50121FA
:102140001F4800F0DEF8002839D001211C4800F0BB
:10215000C9F81C480078032807D11B480078C0F351
:10216000C0011A480078FEF787FE19480088401C15
:1021700080B217490880C82808DB00200880124870
:10218000007820F0100010300F490870FEF7A6F913
:102190000D480078C0F3401088B10E480088401CFC
:1021A00080B20C490880B0F57A7F08DB00200880F7
:1021B0000548007820F00400001D0349087010BD98
:1021C00000040040310000203000002055000020B5
:1021D0002E0000202C0000207FB505460C46012172
:1021E0000220FFF73BFDADF80850ADF80440002099
:1021F000ADF80A00ADF8060001A90E4800F0F8F8A5
:10220000012211460B4800F08DF81D208DF80000CA
:1022100002208DF8010003208DF8020001208DF8C6
:1022200003006846FEF7E6FD0121024800F05DF874
:102230007FBD00000004004030B589B005460C4663
:1022400001210420FFF70AFD01210820FFF726FDE8
:102250004FF48070ADF8200018208DF82300032083
:102260008DF8220008A91748FEF71DFBADF818509D
:10227000ADF814400020ADF81A00ADF8160005A91D
:10228000114800F0B5F87020ADF804000120ADF859
:1022900006000020ADF80A000220ADF80C0001A9EC
:1022A000094800F049F80821074800F095F8012195
:1022B000054800F00BF80121034800F016F809B0BA
:1022C00030BD0000000C01400008004021B1028830
:1022D00042F08002028004E002884FF67F731A40C9
:1022E00002807047CA430282704721B1028842F0DF
:1022F0000102028004E002884FF6FE731A40028059
:10230000704730B50246002000230024158A05EAF4
:102310000103958905EA010413B10CB1012000E025
:10232000002030BD1AB183890B43838102E0838989
:102330008B4383817047000070B500240022002386
:10234000058C4FF6FF6635400584028C8388848BAC
:102350004FF68F752C404FF6FC752C400D882C43A2
:102360004FF6FF552A400D894FF6FF7606EA052500
:102370002A434D8806EA05252A43154DA84202D076
:10238000144DA8421DD14FF2FF752A404D894FF6DA
:10239000FF7606EA05252A434FF6FF352A408D8849
:1023A00006EA05252A434EF6FF752B404DF6FF75CC
:1023B0002B408D8906EA05152B43CD8906EA0515C4
:1023C0002B4383808483CD888587028470BD000081
:1023D000002C0140003401400A460021818B4FF659
:1023E000F77319401143818370478187704700005C
:1023F000002202881D4B98420ED01D4B98420BD0F4
:10240000B0F1804F08D01B4B984205D01A4B984230
:1024100002D01A4B984204D14FF68F731A404B8862
:102420001A43174B984207D0164B984204D04FF6E8
:10243000FF431A40CB881A4302808B8883850B8820
:1024400003850A4B98420BD0094B984208D00E4B9B
:10245000984205D00D4B984202D00D4B984201D1C5
:102460000B7A03860123838270470000002C014011
:10247000003401400004004000080040000C00400F
:1024800000100040001400400040014000440140A2
:102490000048014010B521480088B0F57A6F03DA92
:1024A0001E48008864281ADC1D480088401C80B241
:1024B0001B49088042F2107188422EDB08461849F9
:1024C00008801848007840BB012016490870002099
:1024D000154908600121042000F01EFD1DE00020C8
:1024E0000F4908800F49087010481149097830F8E1
:1024F0001100103009490988884202DC01200A498C
:1025000008600A480A49097830F811000349098827
:10251000884202DB00200449086010BD56000020FC
:10252000600000205800002084812142A838000863
:102530005400002010B509480078032806D1084847
:1025400083884288012100F069FB05E00548838803
:102550004288012100F062FB10BD00003100002024
:102560006C3800083038000810B500201149087098
:1025700001201149087011480078032806D110483D
:1025800083884288012100F049FB05E00D488388DB
:102590004288012100F042FB0B4800883C2804DD02
:1025A000094800883C38084908800748008800F03E
:1025B000C3FD10BD5E0000205F0000203100002040
:1025C000F4370008B83700085200002010B5094859
:1025D0000078032806D1084883884288012100F04A
:1025E0001DFB05E0054883884288012100F016FBA9
:1025F00010BD000031000020763800083A3800088D
:1026000010B50020124908700120124908701248C4
:102610000078032806D1114883884288012100F000
:10262000FDFA05E00E4883884288012100F0F6FAA1
:102630000C480088B0F5616F04DA0A4800883C3025
:10264000084908800748008800F076FD10BD0000AA
:102650005E0000205F00002031000020FE370008EF
:10266000C23700085200002010B540F2255106483C
:1026700000F085F830B1044800F03CF9C4B22046BF
:1026800000F0A2F910BD00000038014010B540F282
:102690002551064800F073F830B1044800F02AF9DB
:1026A000C4B2204600F062FC10BD000000440040AF
:1026B00021B1828942F40052828104E082894DF680
:1026C000FF731A408281704710B504462048844247
:1026D00009D101218803FFF7F1FA00214FF480406E
:1026E000FFF7ECFA32E01B48844209D1012148048B
:1026F000FFF7C4FA00214FF40030FFF7BFFA25E0DE
:102700001548844209D101218804FFF7B7FA002156
:102710004FF48020FFF7B2FA18E01048844209D144
:102720000121C804FFF7AAFA00214FF40020FFF7A7
:10273000A5FA0BE00A48844208D101210805FFF7F9
:102740009DFA00214FF48010FFF798FA10BD0000A9
:10275000003801400044004000480040004C004068
:102760000050004002460020B1F5007F00D100BFBC
:1027700013880B400BB1012000E00020704770B5BA
:102780000246002400230025002040F66A16B142CC
:1027900000D100BFC1F3421501F01F03012606FA64
:1027A00003F3012D02D19689334006E0022D02D1B8
:1027B000168A334001E0968A33400C12012606FA4D
:1027C00004F41688344013B10CB1012000E000205D
:1027D00070BDF0B50346002400260025002040F619
:1027E0006A17B94200D100BF1846C1F3421401F084
:1027F0001F06012707FA06F5012C01D10C3004E071
:10280000022C01D1103000E014301AB107682F43B8
:10281000076002E00768AF430760F0BD2DE9F047AD
:1028200086B005460E460024A24600BFA1460027FA
:10283000B08900B100BF2F462C8A4CF6FF700440CF
:10284000F08804432C82AC894EF6F3100440B08823
:1028500031890843718908430443AC81AC8A4FF63F
:10286000FF400440B0890443AC8201A8FFF736FA68
:102870001F48874202D1DDF810A001E0DDF80CA06E
:10288000A88900F4004040B10AEBCA0000EB0A102E
:1028900031684900B0FBF1F807E00AEBCA0000EB31
:1028A0000A1031688900B0FBF1F86420B8FBF0F041
:1028B00004012009642101FB1089A88900F400406B
:1028C00040B1322000EBC900B0FBF1F000F007008E
:1028D000044308E0322000EB09106421B0FBF1F062
:1028E00000F00F0004432C8106B0BDE8F087000023
:1028F0000038014001468888C0F308007047C1F3E2
:1029000008028280704700BFFEE7000010B524482F
:102910000078C0F34010002840D021480078C0F370
:10292000800000283AD01E48007820F004001C499E
:1029300008701C480088002805DD1A480088401EE1
:102940001849088026E0022017490870032017491B
:1029500008704FF4E1601349088015488388428865
:10296000012100F05BF9134883884288012100F0BF
:1029700055F90B48007820F02000094908700846F6
:10298000007820F00800087000200B49C870012072
:102990000A4908700348008800F0CEFB10BD000013
:1029A00030000020520000205E0000205F00002068
:1029B0001C380008A43700084C0000204B00002001
:1029C000014600BF704700001349097839B9AA28A9
:1029D00020D111490978491C0F4A11701AE00E499B
:1029E000097802290ADA0C490978491E0B4A505421
:1029F00009490978491C084A11700BE00021064A70
:102A00001170552806D10649097821F00201891C68
:102A1000034A117070470000650000205900002033
:102A20003000002010B56FF00400FFF741FB0A48AA
:102A300000680A49B0FBF1F00949087008460078BF
:102A400000EB4001C1EBC0104FF6FF7101EAC0007E
:102A50000449088010BD00000000002000127A0028
:102A6000280000202A0000200146114A12884A430B
:102A70004FF0E0235A6100229A611A46126942F02F
:102A800001021A6100BF4FF0E022106900F001025C
:102A90001AB100F48032002AF5D04FF0E02212691A
:102AA00022F001024FF0E0231A6100229A61704780
:102AB0002A0000200146114A12784A434FF0E023D1
:102AC0005A6100229A611A46126942F001021A61A3
:102AD00000BF4FF0E022106900F001021AB100F4CB
:102AE0008032002AF5D04FF0E022126922F0010274
:102AF0004FF0E0231A6100229A61704728000020FD
:102B000000200149087070476D0000200020144922
:102B10000880144840780880084600884FF6FF7106
:102B200001EA00200E4908800E4880780988084490
:102B30000B49088000200C4908800A48C0780880AA
:102B4000084600884FF6FF7101EA00200649088018
:102B50000448007909880844034908807047000048
:102B6000680000207C0400206A0000202DE9F04766
:102B700082460C4615461E46DDE90989089FAA20B3
:102B800000F08AFA712000F087FA504600F084FACB
:102B9000201200F081FAE0B200F07EFA281200F074
:102BA0007BFAE8B200F078FA301200F075FAF0B271
:102BB00000F072FA381200F06FFAF8B200F06CFA16
:102BC0004FEA282000F068FA08F0FF0000F064FAED
:102BD0004FEA292000F060FA09F0FF0000F05CFAEB
:102BE00000F060FABDE8F0872DE9FE4F04460D467F
:102BF00016461F46DDE90D9ADDF8308006498DE85E
:102C0000000709782144C8B23B4632462946FFF7FF
:102C1000ADFFBDE8FE8F00006C000020FEB504464D
:102C20000F4615461E464FB120898DE86100E388A6
:102C3000A28861882078FFF7D7FF08E020898DE817
:102C40006100E388A28861882078FFF78FFFFEBDCE
:102C5000F8B505460E4617461C46002000908DF834
:102C600000406B463A463146284600F031F8F8BD40
:102C7000F8B505460E4617461C460A2C0DDA00200C
:102C8000009004F13000C0B28DF800006B463A4667
:102C90003146284600F01CF800BFF8BD10B50446C8
:102CA000AA2000F0F9F9702000F0F6F9204600F0B3
:102CB000F3F900F0F7F910BD10B50446034909789F
:102CC0002144C8B2FFF7EAFF10BD00006C000020ED
:102CD0002DE9F04104460D4616461F464FF0000808
:102CE000AA2000F0D9F9062C1CD2DFE804F0030773
:102CF0000B0F1317532000F0CFF913E06E2000F0F4
:102D0000CBF90FE0542000F0C7F90BE06F2000F082
:102D1000C3F907E0552000F0BFF903E0982000F068
:102D2000BBF900BF00BF281200F0B6F9E8B200F00E
:102D3000B3F9301200F0B0F9F0B200F0ADF9052CA3
:102D40001AD1242000F0A8F9812000F0A5F905206F
:102D500000F0A2F911490988081200F09DF90F4905
:102D6000087800F099F90E490988081200F094F9E2
:102D70000B49087800F090F907E017F8080000F018
:102D80008BF908F1010000F0FF0817F8080000288F
:102D9000F3D100F087F9BDE8F08100006E0000205B
:102DA0007000002000B5FFF7B1FE00222EE002EB1C
:102DB00042001A4901EB8000806840881849098860
:102DC000884221DC02EB4200144901EB800080685C
:102DD000C08813490988884216DB02EB42000F497C
:102DE00001EB8000806880880E49098888420BDCEE
:102DF00002EB4200094901EB800080680089094923
:102E00000988884200DB05E0501CC2B20648007801
:102E10008242CCDB00BF104600BD000088040020C9
:102E2000680000206A0000206D00002010B500F04E
:102E300097F873281FD122480078E0B90120204973
:102E40000870FFF7AFFF1F490870084600781E4959
:102E5000097888420FDA1B48007800EB40001B49D4
:102E600051F8200038B11749097801EB4101174AA0
:102E700052F82100804700F073F872281ED11048E4
:102E8000007801281AD100200D4908700D480078FB
:102E90000D490978884211DA0A48007800EB4000B1
:102EA0000A4901EB8000406840B10649097801EB0E
:102EB0004101064A02EB81014868804710BD0000CD
:102EC00078000020790000206D0000208804002098
:102ED00010B50F4B1B781E2B19DA0D4B1B7803EB2B
:102EE00043030C4C44F82300094B1B7803EB4303CA
:102EF00004EB83035960064B1B7803EB430304EB9D
:102F000083039A60024B1B785B1C014C237010BD3D
:102F10006D0000208804002070B505460C46AA20EC
:102F200000F0BAF8302000F0B7F8284600F0B4F806
:102F3000204600F0B1F8A02000F0AEF800F0B2F8A2
:102F400070BD10B50446AA2000F0A6F8322000F0AB
:102F5000A3F8204600F0A0F800F0A4F810BD00008F
:102F600001480078704700007C0400204749097838
:102F70000A2975D2DFE801F0050D343C444C546059
:102F80006C79AA2804D141490978491C3F4A11703B
:102F900079E0732807D13D490978491C3B4A1170F3
:102FA0003B4908701BE0722806D10021374A117096
:102FB0007221384A117012E0E42805D10421334A05
:102FC0001170334908700AE030B900212F4A11709E
:102FD0007421304A117002E000212C4A117052E035
:102FE0002C49487029490978491C284A11704AE03F
:102FF0002849887025490978491C244A117042E003
:103000002449C87021490978491C204A11703AE0C6
:10301000204908711D490978491C1C4A117032E089
:10302000CC2805D119490978491C184A117002E0C9
:103030000021164A117026E0332805D1134909787A
:10304000491C124A117002E00021104A11701AE066
:10305000C32806D10D490978491C0C4A117003E0B8
:103060000DE00021094A11700DE03C2806D1002135
:10307000064A117006490978064A117003E00021DA
:10308000024A117000BF00BF704700007A000020A4
:103090007B0000207C04002010B50446204600F090
:1030A0002DFB10BD10B5CC20FFF7F6FF3320FFF746
:1030B000F3FFC320FFF7F0FF3C20FFF7EDFF10BD4B
:1030C00070B504460D460C4804800C480580AA20C3
:1030D000FFF7E2FF4020FFF7DFFF2012FFF7DCFFE2
:1030E000E0B2FFF7D9FF2812FFF7D6FFE8B2FFF7EB
:1030F000D3FFFFF7D7FF70BD6E00002070000020E7
:103100000A2803D10A21074A117009E018B90021E1
:10311000044A117004E0142802D11421014A1170EC
:10312000704700006C00002000BF02480078722841
:10313000FBD170477C04002070B5044644480078F9
:10314000032840D14FF4167094FBF0F0C5B22B4623
:10315000F8224FF4C4710520FFF78AFD3C2094FB50
:10316000F0F00A2190FBF1F201FB1200C5B22B46F0
:10317000F8224FF4D0710520FFF77AFD3A23F822A8
:103180004FF4DC710520FFF763FD3C2094FBF0F168
:1031900000FB11400A2190FBF1F0C5B22B46F8224A
:1031A0004FF4E8710520FFF763FD0A2094FBF0F16E
:1031B00000FB1140C5B22B46F8224FF4F4710520F4
:1031C000FFF756FD42E04FF4167094FBF0F0C5B2E5
:1031D0002B4640F25B12E6210520FFF749FD3C201B
:1031E00094FBF0F00A2190FBF1F201FB1200C5B252
:1031F0002B4640F25B12FE210520FFF739FD3A23F2
:1032000040F25B124FF48B710520FFF721FD3C204B
:1032100094FBF0F100FB11400A2190FBF1F0C5B2E4
:103220002B4640F25B124FF497710520FFF720FD0B
:103230000A2094FBF0F100FB1140C5B22B4640F28E
:103240005B124FF4A3710520FFF712FD70BD000063
:103250003100002008B500200090FDF717FDFDF7B4
:10326000C2FDFFF7DFFB4FF4165000F0DBF94FF41F
:10327000E13000F085F900214FF4E150FEF7DCFF6A
:1032800040F6B8313448FFF7B0F800F049F9FF20B4
:10329000FFF757FE462140F2E730FEF79DFFFDF7AE
:1032A000BDF84FF47A70FFF7DFFB4FF47A70FFF749
:1032B000DBFBFA20FFF7D8FB0120284908702849DA
:1032C00008700520274908704FF6FF714FF47840C9
:1032D000FFF7F6FE012269462348FEF769FDBDF8B7
:1032E00000007B2803D10020FFF70AFF0AE0BDF8A9
:1032F0000000962803D11420FFF702FF02E00A2005
:10330000FFF7FEFE27E017480078092821D2DFE802
:1033100000F00B0E1114171A081D0500FEF722FC11
:1033200018E0FEF763FA15E0FDF7DCFF12E0FEF7A8
:1033300037F90FE0FDF7D6FD0CE0FEF725FB09E0BD
:10334000FDF7F8FE06E0FEF7B7FA03E0FEF702F835
:1033500000E000BF00BFD6E7000800405E0000208C
:103360005F0000203100002000F8000810B50220A6
:1033700007490870002007490870012006490870B5
:103380000648838842880121FFF748FC10BD0000F1
:10339000310000205E0000205F0000206837000838
:1033A00008B5002000900C48007820F00100401C77
:1033B000094908700520094908700020084908706B
:1033C0000120084908700A20FFF79AFE0122694689
:1033D0000548FEF701FD08BD300000203100002047
:1033E0005E0000205F00002000F8000808B57B2088
:1033F00000900C48007820F00100401C094908703A
:103400000520094908700020084908700120084972
:1034100008700020FFF774FE012269460548FEF798
:10342000DBFC08BD30000020310000205E000020E1
:103430005F00002000F8000810B507200749087059
:103440000020074908700120064908700648838853
:1034500042880121FFF7E2FB10BD0000310000208F
:103460005E0000205F0000207237000810B50120C8
:1034700007490870002007490870012006490870B4
:103480000648838842880121FFF7C8FB10BD000071
:10349000310000205E0000205F0000205E37000841
:1034A00008B5962000900C48007820F00100401CE0
:1034B000094908700520094908700020084908706A
:1034C0000120084908701420FFF71AFE01226946FE
:1034D0000548FEF781FC08BD3000002031000020C7
:1034E0005E0000205F00002000F8000810B50320F7
:1034F0000749087000200749087001200649087034
:103500000648838842880121FFF788FB10BD000030
:10351000310000205E0000205F0000207C370008A2
:1035200010B5002415E0AA20FFF7B6FD0020FFF734
:10353000B3FDFFF7B7FD0520FFF796FAFFF710FD83
:10354000742801D1FF2406E0C820FFF78DFA601C23
:10355000C4B20A2CE7DB00BFFF2C0BD009E0064801
:103560000068C0430549C1F890014FF4FA70FFF7B5
:103570007BFAF4E710BD00009001214200002142D7
:1035800010B586B0044601210420FEF787FB012117
:103590004804FEF763FB0420ADF8140018208DF8F2
:1035A000170005A91D48FDF77EF90820ADF81400A5
:1035B00048208DF8170005A91848FDF774F9184838
:1035C000FFF782F826208DF8000003208DF8010017
:1035D0008DF8020001208DF803006846FDF70AFC13
:1035E00001940020ADF80800ADF80A00ADF80C0019
:1035F000ADF810000C20ADF80E0001A90848FFF747
:103600000DF9012240F225510548FFF7E2F80121AA
:103610000348FFF74DF806B010BD00000008014058
:103620000044004010B586B00446012144F2040075
:10363000FEF734FB2348FFF747F84FF40070ADF86E
:10364000140003208DF8160018208DF8170005A926
:103650001D48FDF728F94FF48060ADF814004820AC
:103660008DF8170005A91848FDF71DF925208DF8DC
:10367000000003208DF8010002208DF802000120D7
:103680008DF803006846FDF7B5FB01940020ADF806
:103690000800ADF80A00ADF80C00ADF810000C20E1
:1036A000ADF80E0001A90748FFF7B8F8012240F273
:1036B00025510448FFF78DF801210248FEF7F8FF75
:1036C00006B010BD003801400008014010B50446A6
:1036D00000BF80210848FFF745F80028F9D02146AF
:1036E0000548FFF70CF900BF40210348FFF73AF8FF
:1036F0000028F9D010BD00000038014010B5044684
:1037000000BF80210848FFF72DF80028F9D0214696
:103710000548FFF7F4F800BF40210348FFF722F8FF
:103720000028F9D010BD00000044004011007902CB
:1037300010001B0347001100000000001F03570288
:1037400005004100EE00F5006A0105003601EE00BB
:10375000EA016A0105002B02EE00DF026A01110096
:10376000E301F400CF0246011100E3015801CF024A
:10377000AA011100E3019700CF02E9001100E30163
:10378000BB01CF020D0211006B02D501FF023B020B
:1037900011008402060008033F0012001E01D90137
:1037A0005F011A021200A201D901E3011A021200FC
:1037B0002702D90168021A02120091005801C800BC
:1037C0008F0112007A015801B1018F011200D4015A
:1037D00058010B028F011200BD025801F4028F0143
:1037E000130091006A01C800A10113007A016A0167
:1037F000B101A10113003301F6006A012D0113008C
:103800001C02F60053022D011300D40169010B02C2
:10381000A0011300BD026901F402A0010C001E0109
:10382000D9015F011A020C00A201D901E3011A02B9
:103830000C0091005801C8008F010C007A0158015A
:10384000B1018F010C00D40158010B028F010C0053
:10385000BD025801F4028F010F0091006A01C800F7
:10386000A1010F007A016A01B101A1010F0033012A
:10387000F6006A012D010F001C02F60053022D0113
:103880000F00D40169010B02A0010F00BD02690104
:10389000F402A0010D0018001100600052000D009C
:1038A0006601FE01BC014D02000074051005AC0468
:1038B0004804E4031C035402F2010000D007A00FE7
:1038C000A00FE80388130000E803D007B80BE80353
:1038D000FA006E009A01E803F203C20B6400900143
:1038E000F401E803B80B00000839000800000020CC
:1038F0007C00000028010008843900087C000020BA
:10390000D40B00004401000800A24A04000000009B
:10391000000000000102030406070809000000007F
:103920000102030401020304060708090204060851
:103930000000000000000000000000000000A406DD
:1039400008076C07D0077F08E3084709AB09F609A9
:10395000410A000055010100AA000000000000001B
:103960000000000000000000000000000000000057
:10397000000000000000FFFF000000000000000049
:043980000000000043
:04000005080000ED02
:00000001FF
