:020000040800F2
:100000005008002089010008990D000863080008C5
:10001000950D0008F5040008932600080000000074
:10002000000000000000000000000000F91C0008B3
:10003000F904000800000000611B0008991F000877
:10004000A3010008A3010008A3010008A301000800
:10005000A3010008A301000855050008A30100083A
:1000600089050008BD050008F1050008A301000886
:10007000A3010008A3010008A3010008A3010008D0
:10008000A3010008A3010008A3010008A3010008C0
:10009000A3010008A3010008A3010008A3010008B0
:1000A000A3010008A3010008A3010008A3010008A0
:1000B000A3010008FD1F0008A3010008A301000818
:1000C000A3010008A3010008A3010008A301000880
:1000D000A3010008F523000819240008A301000863
:1000E000A3010008A3010008A301000800F002F822
:1000F00000F03AF80AA090E8000C82448344AAF188
:100100000107DA4501D100F02FF8AFF2090EBAE885
:100110000F0013F0010F18BFFB1A43F0010318473B
:100120001C3300003C330000103A24BF78C878C16B
:10013000FAD8520724BF30C830C144BF04680C60ED
:10014000704700000023002400250026103A28BF35
:1001500078C1FBD8520728BF30C148BF0B60704739
:100160001FB51FBD10B510BD00F033F81146FFF7E5
:10017000F7FF02F0ADFE00F051F803B4FFF7F2FF15
:1001800003BC02F0D7FA000009488047094800473D
:10019000FEE7FEE7FEE7FEE7FEE7FEE7FEE7FEE737
:1001A000FEE7FEE704480549054A064B7047000094
:1001B0009D1F0008ED00000850020020500800209C
:1001C000500400205004002070477047704770476B
:1001D0007047754600F028F8AE460500694653465C
:1001E00020F00700854618B020B5FFF7DBFFBDE81B
:1001F00020404FF000064FF000074FF000084FF08E
:10020000000B21F00701AC46ACE8C009ACE8C0091E
:10021000ACE8C009ACE8C0098D4670470446AFF3AE
:1002200000802046FFF7A9FF00487047EC0100203E
:1002300021B1826842F00102826003E0826822F00C
:10024000010282607047000010B5044612488442E3
:1002500008D10121401501F0C1FC0021601501F019
:10026000BDFC17E00D48844208D10121001501F0C2
:10027000B5FC0021201501F0B1FC0BE008488442D8
:1002800008D10121C80301F0A9FC00214FF400406E
:1002900001F0A4FC10BD0000002401400028014032
:1002A000003C0140014600208A6802F004020AB1C5
:1002B000012000E000207047014600208A6802F01B
:1002C00008020AB1012000E00020704730B5024664
:1002D0000020002350680F4C20400D790C6844EA40
:1002E00005242043506090680B4C2040D1E9025413
:1002F0002C434D7944EA450420439060D06A20F4B1
:1003000070000C7C641EE4B2234340EA0350D062C8
:1003100030BD0000FFFEF0FFFDF7F1FF816841F006
:10032000080181607047816841F004018160704775
:1003300000B587B001214FF4017001F03FFC4FF48C
:10034000004001F00FFC1020ADF8040000208DF8F3
:10035000070001A9174800F0A5F91748FFF774FF37
:10036000002002908DF80C008DF80D004FF46020F5
:1003700004900020059001208DF8180002A90E4875
:10038000FFF7A4FF01210C48FFF752FF0A48FFF7CF
:10039000C5FF00BF0848FFF78FFF0028FAD10648C5
:1003A000FFF7C1FF00BF0448FFF77CFF0028FAD128
:1003B00007B000BD00080140002401400748007854
:1003C00020F00100401C054908700846007820F024
:1003D00008000870052002490870704730000020AE
:1003E00031000020062001490870704731000020CC
:1003F000062001490870704731000020062001499D
:10040000087070473100002010B50121002002F073
:1004100017FC034883884288012102F093FA10BD3B
:100420003C33000810B50121002002F009FC03480C
:1004300083884288012102F085FA10BD3C33000810
:1004400010B50121002002F0FBFB0348838842889D
:10045000012102F077FA10BD3C33000810B50121EC
:10046000002002F0EDFB034883884288012102F05E
:1004700069FA10BD3C33000818480078002826DDD2
:1004800017480088401C80B2154908801549164A53
:10049000127831F81210884208DB002010490880D9
:1004A0000E480078401E0D49087015E00F480E49AF
:1004B000097830F811000A490988884203DC0020D5
:1004C0000B49086008E001200949086004E00020A9
:1004D0000349088006490860704700005B0000205F
:1004E00060000020263400085A0000203034000844
:1004F0009001214200BFFEE770473EB504464E2002
:1005000040F2851140F29112CDE900210290611D67
:10051000C8B240F2D1234E2240F2851102F0BAF95E
:100520000A2094FBF0F0C5B22B46DB224FF4047195
:10053000052002F031FA0A2094FBF0F100FB114093
:10054000C5B22B46DB224FF40A71052002F024FAD3
:100550003EBD000010B50A2002F040F90121084814
:1005600000F074F9012807D10648006808B9012095
:1005700000E0002003490860012000F053F810BD9E
:10058000000801409401234210B50A2002F026F928
:100590000421084800F05AF938B90748006808B93A
:1005A000012000E0002004490860042000F03AF82F
:1005B00010BD0000001801409481214210B50A20AE
:1005C00002F00CF90821084800F040F938B9074852
:1005D000006808B9012000E00020044908600820F4
:1005E00000F020F810BD00000018014094012342E3
:1005F00010B50A2002F0F2F81021084800F026F9A0
:1006000038B90748006808B9012000E00020044913
:100610000860102000F006F810BD0000001801402E
:100620009481214201490860704700001404014090
:1006300010B50748007820F00100401C04490870FC
:100640000520044908700121002002F0F9FA10BDCC
:10065000300000203100002010B507480078032842
:1006600006DC054909780D31C8B202F0B9F902E09B
:1006700003200149087010BD4A00002010B5084849
:100680000078401CC0B206490870032804DC012130
:10069000002002F0D5FA02E003200149087010BDE5
:1006A0004A0000202DE9F0410246002500260020E6
:1006B00000230024002791F803C00CF00F0591F8E7
:1006C00003C00CF0100CBCF1000F03D091F802C075
:1006D0004CEA050591F800C0BCF1000F31D0146858
:1006E00000202BE04FF0010C0CFA00F3B1F800C031
:1006F0000CEA03069E4220D183004FF00F0C0CFA47
:1007000003F7BC4305FA03FC4CEA040491F803C068
:10071000BCF1280F06D14FF0010C0CFA00FCC2F816
:1007200014C00AE091F803C0BCF1480F05D14FF0A6
:10073000010C0CFA00FCC2F810C0401C0828D1D3F0
:100740001460B1F800C0BCF1FF0F34DD5468002024
:100750002EE000F1080C4FF0010808FA0CF3B1F894
:1007600000C00CEA03069E4221D183004FF00F0C1B
:100770000CFA03F7BC4305FA03FC4CEA040491F8B5
:1007800003C0BCF1280F05D100F1080C08FA0CF8E1
:10079000C2F8148091F803C0BCF1480F07D100F1F2
:1007A000080C4FF0010808FA0CF8C2F81080401C41
:1007B0000828CED35460BDE8F0810000F0B50A46A9
:1007C000002300240021002500F00046B6F1004F70
:1007D00002D11D4EF16901E01B4E7168C0F3034563
:1007E00083B200F44016B6F5401F08D121F07061C5
:1007F000154E766826F07066134F7E6012E000F4A6
:100800008016B6F5801F06D1032606FA05F4A1432B
:1008100041F0706106E0460D360103FA06F6B14379
:1008200041F0706122B1460D360103FA06F63143FC
:1008300000F00046B6F1004F02D1034EF16101E035
:10084000014E7160F0BD0000000001400246002032
:1008500093680B400BB1012000E00020704741611C
:10086000704700BFFEE7000010B503488388428848
:10087000012102F067F810BDDC33000810B5034811
:1008800083884288012102F05DF810BDDC33000846
:1008900010B5034883884288012102F053F810BD47
:1008A000DC33000810B5034883884288012102F038
:1008B00049F810BDDC33000810B50348838842882E
:1008C000012102F03FF810BDDC33000810B5012112
:1008D000002002F0B5F9174883884288012102F010
:1008E00031F815480078012804DD13480078401ECF
:1008F00011490870104800780A2190FBF1F0C4B249
:10090000234640F25D1240F24521052002F044F8F2
:10091000094800780A2190FBF1F201FB1200C4B2F1
:10092000234640F25D1240F25D21052002F034F8CA
:1009300010BD0000643300085400002010B50121F0
:10094000002002F07DF9134883884288012101F0DC
:10095000F9FF11480078012817DD0F480078401E84
:100960000D490870084600780A2804DC084600781B
:100970000A49887006E0084800780A21C1EB400067
:100980000649887001200649087003480078FFF77F
:10099000B4FD10BD64330008540000204C0000205A
:1009A0004B00002010B50121002002F049F9134846
:1009B00083884288012101F0C5FF11480078012891
:1009C00017DD0F480078401E0D4908700846007872
:1009D0000A2804DC084600780A49887006E00848BE
:1009E00000780A21C1EB40000649887001200649C1
:1009F000087003480078FFF780FD10BD64330008DD
:100A0000540000204C0000204B00002010B50121B4
:100A1000002002F015F9134883884288012101F073
:100A200091FF11480078012817DD0F480078401E1B
:100A30000D490870084600780A2804DC084600784A
:100A40000A49887006E0084800780A21C1EB400096
:100A50000649887001200649087003480078FFF7AE
:100A60004CFD10BD64330008540000204C000020F1
:100A70004B00002010B50121002002F0E1F80D48E4
:100A800083884288012101F05DFF0B48007801282E
:100A900004DD09480078401E0749087006480078C0
:100AA0004030C3B240F25D1240F25121052001F006
:100AB00063FF10BD643300085400002010B50348E4
:100AC00083884288012101F03DFF10BDD233000828
:100AD00010B5034883884288012101F033FF10BD1F
:100AE000D233000810B5034883884288012101F001
:100AF00029FF10BDD233000810B50348838842880F
:100B0000012101F01FFF10BDD233000810B50348CA
:100B100083884288012101F015FF10BDD2330008FF
:100B200010B50121002002F08BF817488388428815
:100B3000012101F007FF154800780A2804DA13485C
:100B40000078401C11490870104800780A2190FB79
:100B5000F1F0C4B2234640F25D1240F24521052077
:100B600001F01AFF094800780A2190FBF1F201FB1D
:100B70001200C4B2234640F25D1240F25D2105200E
:100B800001F00AFF10BD00005A3300085400002095
:100B900010B50121002002F053F8134883884288E1
:100BA000012101F0CFFE114800780F2817DA0F4815
:100BB0000078401C0D490870084600780A2804DCBB
:100BC000084600780A49887006E0084800780A213B
:100BD000C1EB4000064988700120064908700348AF
:100BE0000078FFF78AFC10BD5A330008540000203B
:100BF0004C0000204B00002010B50121002002F025
:100C00001FF8134883884288012101F09BFE114898
:100C100000780F2817DA0F480078401C0D4908703B
:100C2000084600780A2804DC084600780A498870DB
:100C300006E0084800780A21C1EB400006498870A8
:100C400001200649087003480078FFF756FC10BDE4
:100C50005A330008540000204C0000204B000020B4
:100C600010B50121002001F0EBFF13488388428872
:100C7000012101F067FE114800780F2817DA0F48AC
:100C80000078401C0D490870084600780A2804DCEA
:100C9000084600780A49887006E0084800780A216A
:100CA000C1EB4000064988700120064908700348DE
:100CB0000078FFF722FC10BD5A33000854000020D2
:100CC0004C0000204B00002010B50121002001F055
:100CD000B7FF0D4883884288012101F033FE0B489D
:100CE0000078042804DA09480078401C0749087095
:100CF000064800784030C3B240F25D1240F2512104
:100D0000052001F039FE10BD5A33000854000020C0
:100D100008B501210D2000F051FF10208DF80300CF
:100D200003208DF8020001210748FFF747FD1B2033
:100D3000ADF8000069460548FFF7B4FC1B210348E5
:100D4000FFF78DFD08BD000000023000000C0140DF
:100D500010B50E480078012816D100200B49087004
:100D60000B49087802F088FA0949487802F084FAB9
:100D70000749887802F080FA0549C87802F07CFAC1
:100D80000349087902F078FA10BD00004B000020FA
:100D90004C00002000BFFEE7704710B54FF4A06084
:100DA00000F03AF810BD000070B5002100230F22BA
:100DB000C47804B3154C246804F4E064C4F5E0641A
:100DC000210AC1F10403CA40447804FA03F184788B
:100DD0001440214309010E4C0678A155047804F013
:100DE0001F050124AC4005786D11AD0005F1E0252B
:100DF000C5F8004109E0047804F01F050124AC4067
:100E0000044D0678761145F8264070BD0CED00E0E3
:100E100000E400E080E100E002490143024A116081
:100E2000704700000000FA050CED00E010B511B3AA
:100E3000144A1070144A1288521C92B2124B1A8033
:100E4000124B104C247833F814309A4202DB002203
:100E50000D4B1A800E4A0B4B1B7832F813200A4BAD
:100E60001B889A4203DD00220A4B1A6008E0012227
:100E7000084B1A6004E00022034B1A80054B1A60ED
:100E800010BD00005E0000205C0000200E34000851
:100E90001A3400088081214210B500206A49087088
:100EA0004FF4E16069490880012069490870022017
:100EB000684948706648007888700020C8706648A5
:100EC000007820F00100644908704FF6FF714FF47C
:100ED000784001F07BFF5D48008801F0B3FF5C487B
:100EE0000078FFF70AFB5D4883884288012101F002
:100EF00029FD5B4883884288012101F023FD01F030
:100F000093FC584A0021584801F076FE534A0021CC
:100F1000564801F071FE564A0021564801F06CFE19
:100F2000554A5649564801F067FE4D4A55495648BC
:100F300001F062FE554A5649564801F05DFE564A98
:100F40005649574801F058FE564A5749574801F04C
:100F500053FE574A5749584801F04EFE574A5849E0
:100F6000584801F049FE01F065FF61E001F0F2FD33
:100F70005548007802281ED00120334908703648B1
:100F8000007820F00100401C3349087000203149EE
:100F9000C8703148007820F008002F4908704B488D
:100FA00083884288012101F0CDFC4948838842882A
:100FB000012101F0C7FC01F06FFB27480078C0F366
:100FC000001050B12448007820F010002249087029
:100FD00001201D490870FFF7BBFE1F480078C0F3D1
:100FE000400028B31C48007820F002001A4908701D
:100FF00038480078EE281BD10121042001F020FEA2
:10100000324883884288012101F09CFC144883887F
:101010004288012101F096FC00200E49C8700E485C
:10102000007820F008000C4908700120064908707B
:101030000948007800F00100002897D001F0FAFE7E
:1010400001F088FD10BD00004B0000205200002080
:10105000540000204C00002030000020F632000830
:1010600032330008EC3200087D300008B52F00084C
:101070000033000865300008283300080D1E000802
:10108000ED1E0008391A0008DD1A00083C3300087C
:10109000E50300082504000846330008A5230008DE
:1010A000B9230008503300085523000869230008BD
:1010B0005A330008D10A0008910B00086433000875
:1010C0007D0800083D09000831000020A033000819
:1010D0008C3300085500002010B54FF4E1604E49F4
:1010E000088001204D4908704D48007820F001002B
:1010F0004B4908704FF6FF714FF4784001F066FEDF
:10110000062001F06DFC4448008801F09BFE434836
:1011100000780A2190FBF1F0C4B2234640F25D1240
:1011200040F24521052001F037FC3C4800780A21B7
:1011300090FBF1F201FB1200C4B2234640F25D12B3
:1011400040F25D21052001F027FC36488388428863
:10115000012101F0F7FB01F067FB334A33493448C2
:1011600001F04AFD2F4A3349334801F045FD334A27
:101170003349344801F040FD334A3449344801F0E2
:101180003BFD344A3449354801F036FD344A35498F
:10119000354801F031FD354A3549364801F02CFD1E
:1011A00001F048FE2DE001F0D5FC01F075FA1C4875
:1011B0000078C0F3C00070B101202F4908602F49AA
:1011C000C1F890012E48154A127830F812102D48B7
:1011D00001F06BF805E00020274908602749C1F8B5
:1011E00090010F480078C0F3001050B10C4800780F
:1011F00020F010000A490870012023490870FFF709
:10120000A7FD0748007800F001000028CBD001F0CE
:1012100011FE01F09FFC10BD520000205400002080
:10122000300000203233000828330008E51D000894
:10123000C11E0008251A0008B11A00083C33000836
:10124000BD0300080904000846330008A523000870
:10125000B92300085033000855230008692300080B
:101260005A330008BD0A0008210B00086433000847
:1012700069080008CD0800088481214200802142CD
:1012800034000020000800404B00002010B5002072
:10129000134908701348007820F0010011490870C4
:1012A0000D2001F09DFB01F0BFFA0F4A00210F480D
:1012B00001F0A2FC0E4A0F490F4801F09DFC01F01D
:1012C000B9FD01E001F046FC0648007800F001009D
:1012D0000028F7D001F0AEFD01F03CFC10BD00008D
:1012E0004A00002030000020FA33000831060008D0
:1012F00004340008590600087D06000810B50020D7
:10130000694908704FF4E160684908800120684924
:101310000870684948706648007888700020C87076
:101320006548007820F00100634908704FF6FF71AE
:101330004FF4784001F04AFD5C48008801F082FDDE
:101340005B480078FFF7D9F85C4883884288012120
:1013500001F0F8FA5A4883884288012101F0F2FA34
:1013600001F062FA574A0021574801F045FC574AFC
:101370000021574801F040FC504A0021554801F037
:101380003BFC554A5549564801F036FC4C4A5549F4
:10139000554801F031FC554A5549564801F02CFC9E
:1013A000554A5649564801F027FC564A564957486F
:1013B00001F022FC564A5749574801F01DFC574A94
:1013C0005749584801F018FC01F034FD61E001F084
:1013D000C1FB5548007807281ED00120324908700B
:1013E0003548007820F00100401C33490870002087
:1013F0003049C8703048007820F008002E49087045
:101400004A4883884288012101F09CFA4848838831
:101410004288012101F096FA01F03EF92648007851
:10142000C0F3001050B12448007820F01000224989
:10143000087001201C490870FFF78AFC1E480078DC
:10144000C0F3400028B31C48007820F002001A497D
:10145000087038480078EE281BD10121042001F0E3
:10146000EFFB324883884288012101F06BFA14486F
:1014700083884288012101F065FA00200D49C87077
:101480000D48007820F008000B490870012006493B
:1014900008700948007800F00100002897D001F09A
:1014A000C9FC01F057FB10BD4B000020520000208A
:1014B000540000204C0000203000002000330008C1
:1014C00032330008EC3200087D300008F6320008A4
:1014D000B52F00086530000828330008491E0008B1
:1014E000191F0008611A0008091B00083C33000896
:1014F000F10300084104000846330008A523000852
:10150000B923000850330008552300086923000858
:101510005A330008E50A0008F90B00086433000894
:1015200091080008A509000831000020A033000838
:10153000963300085500002010B500206949087056
:101540004FF4E160684908800120684908706849E3
:1015500048706648007888700020C8706548007838
:1015600020F00100634908704FF6FF714FF4784096
:1015700001F02CFC5C48008801F064FC5B480078BA
:10158000FEF7BBFF5C4883884288012101F0DAF94D
:101590005A4883884288012101F0D4F901F044F9C6
:1015A000554A0021564801F027FB564A002156486B
:1015B00001F022FB554A0021554801F01DFB554A18
:1015C0005549564801F018FB4C4A5549554801F019
:1015D00013FB554A5549564801F00EFB554A5649EA
:1015E000564801F009FB564A5649574801F004FB9A
:1015F000564A5749574801F0FFFA574A5749584841
:1016000001F0FAFA01F016FC61E001F0A3FA554886
:10161000007801281ED00120324908703548007832
:1016200020F00100401C3349087000203049C87088
:101630003048007820F008002E4908704A48838816
:101640004288012101F07EF94848838842880121BF
:1016500001F078F901F020F826480078C0F3001076
:1016600050B12448007820F0100022490870012071
:101670001C490870FFF76CFB1E480078C0F340005F
:1016800028B31C48007820F002001A490870384836
:101690000078EE281BD10121042001F0D1FA324854
:1016A00083884288012101F04DF9144883884288DB
:1016B000012101F047F900200D49C8700D4800785C
:1016C00020F008000B4908700120064908700948FD
:1016D000007800F00100002897D001F0ABFB01F08A
:1016E00039FA10BD4B0000205200002054000020A9
:1016F0004C00002030000020EC320008323300089B
:101700007D300008F6320008B52F000800330008CD
:101710006530000828330008851E0008451F0008B2
:10172000891A0008351B00083C330008FD03000837
:101730005D04000846330008A5230008B92300080B
:101740005033000855230008692300085A33000865
:10175000F90A0008610C000864330008A5080008B5
:101760000D0A000831000020A03300088233000871
:101770005500002010B51B48007820F001001949E1
:101780000870012001F01EF901F04EF8164A002100
:10179000164801F031FA164A0021164801F02CFAD9
:1017A00011E001F0D7F90F480078C0F3001050B1F4
:1017B0000C48007820F010000A49087001200E49FA
:1017C0000870FFF7C5FA0748007800F0010000280C
:1017D000E7D001F02FFB01F0BDF91A2001F000F96C
:1017E00010BD000030000020D8320008CD2F0008C6
:1017F000E2320008353000084B00002010B51F48C9
:10180000007820F001001D4908701A2001F0E8F866
:1018100001F00AF81A4A00211A4801F0EDF91A4AB3
:1018200000211A4801F0E8F9194A0021194801F08D
:10183000E3F9194A0021194801F0DEF901F0FAFA3A
:1018400011E001F087F90D480078C0F3001050B1A5
:101850000A48007820F0100008490870012010495B
:101860000870FFF775FA0548007800F001000028BD
:10187000E7D001F0DFFA01F06DF910BD3000002073
:10188000EC3200087D300008F6320008B52F000861
:101890000A3300089530000814330008FD2F0008B3
:1018A0004B00002010B54FF4E16042490880012050
:1018B000414908704148007820F001003F49087014
:1018C0004FF6FF714FF4784001F080FA052001F0E7
:1018D00087F83848008801F0B5FA3748007840307A
:1018E000C3B240F25D1240F25121052001F044F8EC
:1018F000334883884288012101F024F800F094FFE6
:10190000304A3149314801F077F92D4A30493148A0
:1019100001F072F9304A3149314801F06DF9314A2C
:101920003149324801F068F9314A3249324801F010
:1019300063F9324A3249334801F05EF9324A334999
:10194000334801F059F901F075FA27E001F002F986
:1019500000F0A2FE19480078C0F3C00030B10120A9
:101960002C4908602C49C1F88C0107E00020294966
:1019700008602949C1F88001284908600F480078AB
:10198000C0F3001050B10D48007820F010000B4952
:101990000870012022490870FFF7DAF9074800783B
:1019A00000F001000028D1D001F044FA01F0D2F893
:1019B00010BD000052000020540000203000002024
:1019C0003233000828330008E51D0008C11E000856
:1019D000251A0008B11A00083C330008BD030008AE
:1019E0000904000846330008A5230008B9230008AD
:1019F0005033000855230008692300085A330008B3
:101A00000D0B0008C90C000864330008B908000871
:101A1000750A000898012142008021428C812142F0
:101A20004B0000200348007820F0080001490870AE
:101A3000704700003000002000200649C8700648AA
:101A4000007820F00800044908700120034908705C
:101A5000704700004C000020300000204B000020A8
:101A600000200649C8700648007820F008000449A4
:101A70000870012003490870704700004C000020E6
:101A8000300000204B00002000200649C8700648A6
:101A9000007820F00800044908700120034908700C
:101AA000704700004C000020300000204B00002058
:101AB00010B50121002001F0C3F806488388428850
:101AC000012100F03FFF044883884288012100F093
:101AD00039FF10BDA03300083233000810B50121D2
:101AE000002001F0ADF8064883884288012100F00B
:101AF00029FF044883884288012100F023FF10BD9C
:101B0000A03300083233000810B50121002001F095
:101B100097F8064883884288012100F013FF0448A3
:101B200083884288012100F00DFF10BDA03300081A
:101B30003233000810B50121002001F081F8064879
:101B400083884288012100F0FDFE04488388428892
:101B5000012100F0F7FE10BDA03300083233000869
:101B60007047000001460020034A506820F44040BE
:101B700008435060704700000010024029B1064A37
:101B8000D2690243044BDA6104E0034AD26982431A
:101B9000014BDA61704700000010024029B1064A8B
:101BA00012690243044B1A6104E0034A126982433A
:101BB000014B1A61704700000010024029B1064A2B
:101BC00092690243044B9A6104E0034A926982439A
:101BD000014B9A61704700000010024029B1064A8B
:101BE000D2680243044BDA6004E0034AD2688243BD
:101BF000014BDA60704700000010024030B5002150
:101C00000022002400232D4D6D6805F00C0121B148
:101C1000042905D0082923D105E0294D056022E0DB
:101C2000274D05601FE0254D6D6805F47012234DAA
:101C30006D6805F48034022505EB92421CB9214DF4
:101C4000554305600BE01D4D6D6805F400351DB171
:101C50001C4D5543056002E0194D5543056002E0F7
:101C6000174D056000BF00BF144D6D6805F0F00111
:101C70000909154D6B5C0568DD4045600F4D6D68C9
:101C800005F4E061090A104D6B5C4568DD40856034
:101C90000A4D6D6805F46051C90A0B4D6B5C4568CF
:101CA000DD40C560054D6D6805F44041890B074D69
:101CB0006B5CC568B5FBF3F5056130BD00100240F3
:101CC00000127A0000093D001400002024000020CA
:101CD00030B503460C461546002207E0184600F0D2
:101CE00008F824F812009B1C501C82B2AA42F5DBB3
:101CF00030BD014608887047704710B500F002F803
:101D000010BD00000CB50020019000903348006821
:101D100040F480303149086000BF3048006800F46A
:101D2000003000900198401C0190009818B901986B
:101D3000B0F5A06FF1D12948006800F4003010B16F
:101D40000120009001E0002000900098012843D17C
:101D50002348006840F010002149086008460068E8
:101D600020F0030008600846006840F002000860A8
:101D70001A48406819494860084640684860084663
:101D8000406840F4806048600846406820F47C1059
:101D900048600846406840F4E8104860084600681B
:101DA00040F08070086000BF0C48006800F00070D0
:101DB0000028F9D00948406820F00300074948602E
:101DC0000846406840F00200486000BF0348406891
:101DD00000F00C000828F9D10CBD000000100240F2
:101DE000002002400748007820F00800083005492C
:101DF00008700548008818B94FF4E160024908806E
:101E000070470000300000205200002001200A49E5
:101E1000C8700A48007820F00800083007490870A8
:101E20000120074908700748008818B94FF4E1609D
:101E300004490880704700004C000020300000205A
:101E40004B0000205200002001200A49C8700A48B7
:101E5000007820F008000830074908700120074981
:101E600008700748008818B94FF4E16004490880F9
:101E7000704700004C000020300000204B00002084
:101E80005200002001200A49C8700A48007820F05A
:101E90000800083007490870012007490870074802
:101EA000008818B94FF4E1600449088070470000C9
:101EB0004C000020300000204B0000205200002089
:101EC00010B50121002000F0BBFE0648838842883F
:101ED000012100F037FD044883884288012100F089
:101EE00031FD10BD28330008AA33000810B50121C8
:101EF000002000F0A5FE064883884288012100F0FA
:101F000021FD044883884288012100F01BFD10BD9B
:101F100028330008AA33000810B50121002000F082
:101F20008FFE064883884288012100F00BFD04489B
:101F300083884288012100F005FD10BD2833000888
:101F4000AA33000810B50121002000F079FE0648F0
:101F500083884288012100F0F5FC04488388428888
:101F6000012100F0EFFC10BD28330008AA3300085F
:101F7000042808D14FF0E021096941F004014FF035
:101F8000E022116107E04FF0E021096921F004012E
:101F90004FF0E022116170477047000010B5134800
:101FA000006840F001001149086008464068104987
:101FB00008400E494860084600680E4908400B4931
:101FC00008600846006820F48020086008464068E1
:101FD00020F4FE0048604FF41F008860FFF78DFE7C
:101FE0004FF000600449086010BD0000001002407E
:101FF0000000FFF8FFFFF6FE08ED00E010B501213C
:102000001F4800F0DEF8002839D001211C4800F0FC
:10201000C9F81C480078032807D11B480078C0F392
:10202000C0011A480078FEF701FF19480088401CDB
:1020300080B217490880C82808DB002008801248B1
:10204000007820F0100010300F490870FEF714FAE5
:102050000D480078C0F3C00088B10E480088401CCD
:1020600080B20C490880B0F57A7F08DB0020088038
:102070000548007820F00400001D0349087010BDD9
:1020800000040040310000203000002054000020F7
:102090002E0000202C0000207FB505460C460121B3
:1020A0000220FFF76BFDADF80850ADF804400020AA
:1020B000ADF80A00ADF8060001A90E4800F0F8F8E6
:1020C000012211460B4800F08DF81D208DF800000C
:1020D00002208DF8010003208DF8020001208DF808
:1020E00003006846FEF760FE0121024800F05DF83B
:1020F0007FBD00000004004030B589B005460C46A5
:1021000001210420FFF73AFD01210820FFF756FDC9
:102110004FF48070ADF8200018208DF823000320C4
:102120008DF8220008A91748FEF7BCFAADF8185040
:10213000ADF814400020ADF81A00ADF8160005A95E
:10214000114800F0B5F87020ADF804000120ADF89A
:1021500006000020ADF80A000220ADF80C0001A92D
:10216000094800F049F80821074800F095F80121D6
:10217000054800F00BF80121034800F016F809B0FB
:1021800030BD0000000C01400008004021B1028871
:1021900042F08002028004E002884FF67F731A400A
:1021A00002807047CA430282704721B1028842F020
:1021B0000102028004E002884FF6FE731A4002809A
:1021C000704730B50246002000230024158A05EA36
:1021D0000103958905EA010413B10CB1012000E067
:1021E000002030BD1AB183890B43838102E08389CB
:1021F0008B4383817047000070B5002400220023C8
:10220000058C4FF6FF6635400584028C8388848BED
:102210004FF68F752C404FF6FC752C400D882C43E3
:102220004FF6FF552A400D894FF6FF7606EA052541
:102230002A434D8806EA05252A43154DA84202D0B7
:10224000144DA8421DD14FF2FF752A404D894FF61B
:10225000FF7606EA05252A434FF6FF352A408D888A
:1022600006EA05252A434EF6FF752B404DF6FF750D
:102270002B408D8906EA05152B43CD8906EA051505
:102280002B4383808483CD888587028470BD0000C2
:10229000002C0140003401400A460021818B4FF69A
:1022A000F77319401143818370478187704700009D
:1022B000002202881D4B98420ED01D4B98420BD035
:1022C000B0F1804F08D01B4B984205D01A4B984272
:1022D00002D01A4B984204D14FF68F731A404B88A4
:1022E0001A43174B984207D0164B984204D04FF62A
:1022F000FF431A40CB881A4302808B8883850B8862
:1023000003850A4B98420BD0094B984208D00E4BDC
:10231000984205D00D4B984202D00D4B984201D106
:102320000B7A03860123838270470000002C014052
:10233000003401400004004000080040000C004050
:1023400000100040001400400040014000440140E3
:102350000048014010B5034883884288012100F0FD
:10236000F1FA10BDC833000810B50121002000F0BB
:1023700067FC0A4883884288012100F0E3FA084894
:1023800000883C2804DD064800883C380449088061
:102390000348008800F056FD10BD000050330008CF
:1023A0005200002010B5034883884288012100F0C4
:1023B000C9FA10BDBE33000810B50121002000F09D
:1023C0003FFC0A4883884288012100F0BBFA084894
:1023D0000088B0F5616F04DA054800883C30044994
:1023E00008800348008800F02DFD10BD463300082A
:1023F0005200002010B540F22551064800F085F843
:1024000030B1044800F03CF9C4B2204600F096F91F
:1024100010BD00000038014010B540F225510648BB
:1024200000F073F830B1044800F02AF9C4B2204635
:1024300000F022FC10BD00000044004021B1828960
:1024400042F40052828104E082894DF6FF731A4003
:102450008281704710B504462048844209D1012189
:102460008803FFF7BBFB00214FF48040FFF7B6FB6A
:1024700032E01B48844209D101214804FFF78EFB5A
:1024800000214FF40030FFF789FB25E01548844216
:1024900009D101218804FFF781FB00214FF480203E
:1024A000FFF77CFB18E01048844209D10121C804E1
:1024B000FFF774FB00214FF40020FFF76FFB0BE0E8
:1024C0000A48844208D101210805FFF767FB002173
:1024D0004FF48010FFF762FB10BD00000038014090
:1024E0000044004000480040004C004000500040C4
:1024F00002460020B1F5007F00D100BF13880B40D9
:102500000BB1012000E00020704770B502460024A6
:1025100000230025002040F66A16B14200D100BF1A
:10252000C1F3421501F01F03012606FA03F3012D42
:1025300002D19689334006E0022D02D1168A33403B
:1025400001E0968A33400C12012606FA04F416883C
:10255000344013B10CB1012000E0002070BDF0B593
:102560000346002400260025002040F66A17B942E1
:1025700000D100BF1846C1F3421401F01F06012725
:1025800007FA06F5012C01D10C3004E0022C01D130
:10259000103000E014301AB107682F43076002E0E2
:1025A0000768AF430760F0BD2DE9F04786B00546E8
:1025B0000E460024A24600BFA1460027B08900B104
:1025C00000BF2F462C8A4CF6FF700440F08804436D
:1025D0002C82AC894EF6F3100440B0883189084350
:1025E000718908430443AC81AC8A4FF6FF40044034
:1025F000B0890443AC8201A8FFF700FB1F48874263
:1026000002D1DDF810A001E0DDF80CA0A88900F4EB
:10261000004040B10AEBCA0000EB0A1031684900E3
:10262000B0FBF1F807E00AEBCA0000EB0A103168D2
:102630008900B0FBF1F86420B8FBF0F00401200938
:10264000642101FB1089A88900F4004040B13220C8
:1026500000EBC900B0FBF1F000F00700044308E014
:10266000322000EB09106421B0FBF1F000F00F0004
:1026700004432C8106B0BDE8F0870000003801401B
:1026800001468888C0F308007047C1F308028280C1
:10269000704700BFFEE7000010B520480078C0F387
:1026A000C000002839D01D480078C0F38000002801
:1026B00033D01A48007820F00400184908701848F0
:1026C0000088002805DD16480088401E144908804F
:1026D0001FE00121032000F0B3FA4FF4E16010493C
:1026E0000880104883884288012100F02BF90E48A9
:1026F00083884288012100F025F90848007820F0FD
:1027000008000649087000200849C87001200849DF
:1027100008700348008800F095FB10BD30000020D1
:1027200052000020A0330008323300084C00002083
:102730004B000020014600BF704700001349097894
:1027400039B9AA2820D111490978491C0F4A1170BA
:102750001AE00E49097802290ADA0C490978491E5B
:102760000B4A505409490978491C084A11700BE07A
:102770000021064A1170552806D10649097821F032
:102780000201891C034A1170704700005F0000209D
:10279000550000203000002010B56FF00400FFF756
:1027A000E7FB0A4800680A49B0FBF1F009490870E4
:1027B0000846007800EB4001C1EBC0104FF6FF71F6
:1027C00001EAC0000449088010BD0000000000209C
:1027D00000127A00280000202A0000200146114A39
:1027E00012884A434FF0E0235A6100229A611A4648
:1027F000126942F001021A6100BF4FF0E022106935
:1028000000F001021AB100F48032002AF5D04FF036
:10281000E022126922F001024FF0E0231A61002247
:102820009A6170472A000020002001490870704713
:10283000690000200020144908801448407808806E
:10284000084600884FF6FF7101EA00200E49088013
:102850000E488078098808440B49088000200C49FC
:1028600008800A48C0780880084600884FF6FF7143
:1028700001EA0020064908800448007909880844D4
:1028800003490880704700006400002078000020A1
:10289000660000202DE9F04782460C4615461E468C
:1028A000DDE90989089FAA2000F07CFA712000F078
:1028B00079FA504600F076FA201200F073FAE0B28E
:1028C00000F070FA281200F06DFAE8B200F06AFA2F
:1028D000301200F067FAF0B200F064FA381200F03B
:1028E00061FAF8B200F05EFA4FEA282000F05AFAD6
:1028F00008F0FF0000F056FA4FEA292000F052FAE3
:1029000009F0FF0000F04EFA00F052FABDE8F0873F
:102910002DE9FE4F04460D4616461F46DDE90D9A89
:10292000DDF8308006498DE8000709782144C8B2F7
:102930003B4632462946FFF7ADFFBDE8FE8F00005B
:1029400068000020FEB504460F4615461E464FB1EE
:1029500020898DE86100E388A28861882078FFF7EC
:10296000D7FF08E020898DE86100E388A2886188AC
:102970002078FFF78FFFFEBDF8B505460E461746D7
:102980001C46002000908DF800406B463A463146C8
:10299000284600F031F8F8BDF8B505460E46174652
:1029A0001C460A2C0DDA0020009004F13000C0B261
:1029B0008DF800006B463A463146284600F01CF878
:1029C00000BFF8BD10B50446AA2000F0EBF9702056
:1029D00000F0E8F9204600F0E5F900F0E9F910BD53
:1029E00010B50446034909782144C8B2FFF7EAFF4D
:1029F00010BD0000680000202DE9F04104460D469E
:102A000016461F464FF00008AA2000F0CBF9062C0E
:102A10001CD2DFE804F003070B0F1317532000F05C
:102A2000C1F913E06E2000F0BDF90FE0542000F072
:102A3000B9F90BE06F2000F0B5F907E0552000F080
:102A4000B1F903E0982000F0ADF900BF00BF2812F3
:102A500000F0A8F9E8B200F0A5F9301200F0A2F9F0
:102A6000F0B200F09FF9052C1AD1242000F09AF959
:102A7000812000F097F9052000F094F911490988A8
:102A8000081200F08FF90F49087800F08BF90E4911
:102A90000988081200F086F90B49087800F082F9DD
:102AA00007E017F8080000F07DF908F1010000F0D8
:102AB000FF0817F808000028F3D100F079F9BDE805
:102AC000F08100006A0000206C00002000B5FFF7D4
:102AD000B1FE00222EE002EB42001A4901EB800019
:102AE0008068408818490988884221DC02EB42004E
:102AF000144901EB80008068C08813490988884226
:102B000016DB02EB42000F4901EB800080688088F1
:102B10000E49098888420BDC02EB4200094901EBAF
:102B200080008068008909490988884200DB05E047
:102B3000501CC2B2064800788242CCDB00BF10466F
:102B400000BD00008400002064000020660000201A
:102B50006900002010B500F089F873281FD12248C1
:102B60000078E0B9012020490870FFF7AFFF1F4946
:102B70000870084600781E49097888420FDA1B4819
:102B8000007800EB40001B4951F8200038B117498C
:102B9000097801EB4101174A52F82100804700F003
:102BA00065F872281ED11048007801281AD100203B
:102BB0000D4908700D4800780D490978884211DAEE
:102BC0000A48007800EB40000A4901EB80004068A9
:102BD00040B10649097801EB4101064A02EB810147
:102BE0004868804710BD0000740000207500002078
:102BF000690000208400002010B50F4B1B781E2BAD
:102C000019DA0D4B1B7803EB43030C4C44F82300FB
:102C1000094B1B7803EB430304EB83035960064B1A
:102C20001B7803EB430304EB83039A60024B1B788E
:102C30005B1C014C237010BD690000208400002043
:102C400070B505460C46AA2000F0ACF8302000F024
:102C5000A9F8284600F0A6F8204600F0A3F8FF20C7
:102C600000F0A0F800F0A4F870BD00000148007862
:102C70007047000078000020474909780A2975D27A
:102C8000DFE801F0050D343C444C54606C79AA280F
:102C900004D141490978491C3F4A117079E07328F1
:102CA00007D13D490978491C3B4A11703B490870DE
:102CB0001BE0722806D10021374A11707221384A70
:102CC000117012E0E42805D10421334A1170334910
:102CD00008700AE030B900212F4A11707421304A7F
:102CE000117002E000212C4A117052E02C4948700A
:102CF00029490978491C284A11704AE028498870F6
:102D000025490978491C244A117042E02449C870B9
:102D100021490978491C204A11703AE0204908717C
:102D20001D490978491C1C4A117032E0CC2805D194
:102D300019490978491C184A117002E00021164A05
:102D4000117026E0332805D113490978491C124A2D
:102D5000117002E00021104A11701AE0C32806D158
:102D60000D490978491C0C4A117003E00DE000215F
:102D7000094A11700DE03C2806D10021064A117065
:102D800006490978064A117003E00021024A1170D1
:102D900000BF00BF704700007600002077000020D1
:102DA0007800002010B50446204600F07DFA10BDE2
:102DB00010B5CC20FFF7F6FF3320FFF7F3FFC32059
:102DC000FFF7F0FF3C20FFF7EDFF10BD70B50446A4
:102DD0000D460C4804800C480580AA20FFF7E2FF4E
:102DE0004020FFF7DFFF2012FFF7DCFFE0B2FFF724
:102DF000D9FF2812FFF7D6FFE8B2FFF7D3FFFFF79E
:102E0000D7FF70BD6A0000206C00002018B90021B7
:102E1000074A11700AE00A2803D10A21044A1170F6
:102E200004E0462802D14621014A11707047000093
:102E30006800002000BF024800787228FBD170476C
:102E40007800002070B504464FF4167094FBF0F043
:102E5000C5B22B4640F20522D5210520FFF79CFD87
:102E60003C2094FBF0F00A2190FBF1F201FB1200F0
:102E7000C5B22B4640F20522ED210520FFF78CFD5F
:102E80003A2340F2052240F205110520FFF774FDB8
:102E90003C2094FBF0F100FB11400A2190FBF1F083
:102EA000C5B22B4640F2052240F21D110520FFF766
:102EB00073FD0A2094FBF0F100FB1140C5B22B46D4
:102EC00040F2052240F235110520FFF765FD70BD87
:102ED00008B500200090FDF71BFFFDF75EFFFFF730
:102EE0005BFC4FF4165000F073F94FF4E13000F042
:102EF0001DF900214FF4E150FFF7FEF84FF4C861CF
:102F00002948FFF7D2F900F0E1F8462140F2E73016
:102F1000FFF7C2F8FDF70CFA01210020FFF790FE41
:102F20000620224908704FF47A70FFF757FC4FF4DF
:102F30007A70FFF753FC4FF47A70FFF74FFC0122D1
:102F400069461B48FEF7C4FEBDF8000018B10A2010
:102F5000FFF75CFF02E00020FFF758FF23E0134873
:102F6000007808281DD2DFE800F0070A0D101316BC
:102F70000419FEF7FFFB15E0FEF788F912E0FEF7F3
:102F8000DBFA0FE0FDF788FF0CE0FEF78BFC09E0B1
:102F9000FEF7A2F806E0FEF731FC03E0FEF7AEF91B
:102FA00000E000BF00BFDAE7000800403100002069
:102FB00000F8000810B50220034908700121002024
:102FC000FFF73EFE10BD00003100002010B509489B
:102FD000007820F00100401C0649087007200649CF
:102FE000087001210020FFF72BFE0020FFF70EFFE5
:102FF00010BD0000300000203100002010B50A484C
:10300000007820F00100401C07490870042007499F
:10301000087001210020FFF713FE054883884288CD
:103020000121FFF78FFC10BD30000020310000208F
:103030001433000810B50948007820F00100401C46
:103040000649087007200649087001210020FFF793
:10305000F7FD0A20FFF7DAFE10BD00003000002067
:103060003100002010B5072003490870012100201D
:10307000FFF7E6FD10BD00003100002010B5012073
:103080000349087001210020FFF7DAFD10BD0000A0
:103090003100002010B50A48007820F00100401CE3
:1030A0000749087003200749087001210020FFF735
:1030B000C7FD0548838842880121FFF743FC10BD06
:1030C00030000020310000200A33000810B5002431
:1030D00015E0AA20FFF766FE0020FFF763FEFFF76A
:1030E00067FE0520FFF77AFBFFF7C0FD742801D1CA
:1030F000FF2406E0C820FFF771FB601CC4B20A2C55
:10310000E7DB00BFFF2C0BD009E006480068C04396
:103110000549C1F88C014FF4FA70FFF75FFBF4E743
:1031200010BD00008C8121420080214210B586B084
:10313000044601210420FEF741FD01214804FEF769
:103140001DFD0420ADF8140018208DF8170005A906
:103150001D48FDF7A7FA0820ADF8140048208DF8A7
:10316000170005A91848FDF79DFA1848FFF772F9EE
:1031700026208DF8000003208DF801008DF8020054
:1031800001208DF803006846FDF70EFE0194002033
:10319000ADF80800ADF80A00ADF80C00ADF810006D
:1031A0000C20ADF80E0001A90848FFF7FDF9012237
:1031B00040F225510548FFF7D2F901210348FFF7F6
:1031C0003DF906B010BD0000000801400044004079
:1031D00010B586B00446012144F20400FEF7EEFC6F
:1031E0002348FFF737F94FF40070ADF814000320BF
:1031F0008DF8160018208DF8170005A91D48FDF759
:1032000051FA4FF48060ADF8140048208DF8170093
:1032100005A91848FDF746FA25208DF8000003207F
:103220008DF8010002208DF8020001208DF80300C6
:103230006846FDF7B9FD01940020ADF80800ADF82F
:103240000A00ADF80C00ADF810000C20ADF80E002F
:1032500001A90748FFF7A8F9012240F225510448C7
:10326000FFF77DF901210248FFF7E8F806B010BD2D
:10327000003801400008014010B5044600BF80211D
:103280000848FFF735F90028F9D021460548FFF72F
:10329000FCF900BF40210348FFF72AF90028F9D0C4
:1032A00010BD00000038014010B5044600BF802169
:1032B0000848FFF71DF90028F9D021460548FFF717
:1032C000E4F900BF40210348FFF712F90028F9D0C4
:1032D00010BD0000004400400200B500DF005701AF
:1032E00045010200C701DF006C0245011B005600CA
:1032F000F600330150011B0056008A013301E90139
:103300001B00560060003301BB001B00A801D40164
:103310003C023B021B006B02D501FF023B021B007B
:103320008402060008033F001B009501FF01D00145
:1033300038021B000B02FF01470238021B00830208
:10334000FF01C00238021B00A0000202C2003702C7
:103350001B006101040281013A021B009501A501D5
:10336000DA01E9011B007902A401C102E9010C00A4
:10337000BD021501F00248010C00CE01140101024A
:1033800049011A005600F600330150011A00560098
:103390008A013301E9011A00560060003301BB00C5
:1033A0001A009501FF01D00138021A000B02FF013B
:1033B000470238021A008302FF01C00238021A00D5
:1033C000A0000202C20037021A006101040281015A
:1033D0003A021A009501A501DA01E9011A00790201
:1033E000A401C102E9010500BD021501F002480176
:1033F0000500CE011401010249010D001800110061
:10340000600052000D006601FE01BC014D0200008B
:10341000D007A00FA00FE80388130000E803D0072F
:10342000B80BE803FA006E009A01E803F203C20B3E
:1034300064009001F401E803B80B00005C3400085C
:10344000000000207800000028010008D4340008A3
:1034500078000020D80700004401000800A24A04B8
:103460000000000000000000010203040607080934
:10347000000000000102030401020304060708091A
:103480000204060800000000000000000000000028
:103490000000A40608076C07D0077F08E308470967
:1034A000AB09F609410A000055010100AA0000001D
:1034B000000000000000000000000000000000000C
:1034C000000000000000FFFF0000000000000000FE
:0434D00000000000F8
:04000005080000ED02
:00000001FF
