:020000040800F2
:10000000500C002089010008950C0008170A000810
:10001000F10B00084D050008EF2400080000000067
:100020000000000000000000000000007B1B000832
:100030005105000800000000D5180008751D0008D3
:10004000A3010008A3010008A3010008A301000800
:10005000A3010008A301000895050008A3010008FA
:10006000C9050008FD05000831060008A3010008C5
:10007000A3010008A3010008A3010008A3010008D0
:10008000A3010008A3010008A3010008A3010008C0
:10009000A3010008A3010008A3010008A3010008B0
:1000A000A3010008A3010008A3010008A3010008A0
:1000B000A3010008D91D0008A3010008A30100083E
:1000C000A3010008A3010008A3010008A301000880
:1000D000A30100085122000875220008A3010008AE
:1000E000A3010008A3010008A301000800F002F822
:1000F00000F03AF80AA090E8000C82448344AAF188
:100100000107DA4501D100F02FF8AFF2090EBAE885
:100110000F0013F0010F18BFFB1A43F0010318473B
:1001200080320000A0320000103A24BF78C878C1A5
:10013000FAD8520724BF30C830C144BF04680C60ED
:10014000704700000023002400250026103A28BF35
:1001500078C1FBD8520728BF30C148BF0B60704739
:100160001FB51FBD10B510BD00F033F81146FFF7E5
:10017000F7FF02F009FE00F051F803B4FFF7F2FFB9
:1001800003BC02F0FBF9000009488047094800471A
:10019000FEE7FEE7FEE7FEE7FEE7FEE7FEE7FEE737
:1001A000FEE7FEE704480549054A064B7047000094
:1001B000791D0008ED00000850060020500C0020BA
:1001C0005008002050080020704770477047704763
:1001D0007047754600F028F8AE460500694653465C
:1001E00020F00700854618B020B5FFF7DBFFBDE81B
:1001F00020404FF000064FF000074FF000084FF08E
:10020000000B21F00701AC46ACE8C009ACE8C0091E
:10021000ACE8C009ACE8C0098D4670470446AFF3AE
:1002200000802046FFF7A9FF00487047F005002036
:1002300021B1826842F00102826003E0826822F00C
:10024000010282607047000010B5044612488442E3
:1002500008D10121401501F07BFB0021601501F060
:1002600077FB17E00D48844208D10121001501F009
:100270006FFB0021201501F06BFB0BE00848844266
:1002800008D10121C80301F063FB00214FF40040B5
:1002900001F05EFB10BD0000002401400028014079
:1002A000003C0140014600208A6802F004020AB1C5
:1002B000012000E0002070470146C86C80B2704702
:1002C0000246002013680B400BB1012000E0002023
:1002D0007047014600208A6802F008020AB1012036
:1002E00000E000207047000030B5024600200023E7
:1002F00050680F4C20400D790C6844EA05242043D7
:10030000506090680B4C2040D1E902542C434D7949
:1003100044EA450420439060D06A20F470000C7CCD
:10032000641EE4B2234340EA0350D06230BD0000B3
:10033000FFFEF0FFFDF7F1FFF0B504460D4600208B
:100340000021092D11DDE068A5F10A0606EB46073C
:10035000072606FA07F18843A5F10A0606EB4606CA
:1003600003FA06F10843E0600CE0206905EB45075D
:10037000072606FA07F1884305EB450603FA06F15E
:1003800008432061072A0FDA606B561E06EB8607CA
:100390001F2606FA07F18843561E06EB860605FA65
:1003A00006F10843606322E00D2A0FDA206BD61FA6
:1003B00006EB86071F2606FA07F18843D61F06EBD1
:1003C000860605FA06F10843206310E0E06AA2F110
:1003D0000D0606EB86071F2606FA07F18843A2F1F1
:1003E0000D0606EB860605FA06F10843E062F0BD4D
:1003F000816841F008018160704721B1826842F450
:10040000A002826003E0826822F4A002826070474A
:10041000816841F0040181607047000000B587B039
:1004200001214FF4017001F083FA4FF4004001F014
:1004300053FA1020ADF8040000208DF8070001A940
:10044000174800F0D8F91748FFF7FEFE0020029089
:100450008DF80C008DF80D004FF460200490002002
:10046000059001208DF8180002A90E48FFF73CFF07
:1004700001210C48FFF7DCFE0A48FFF7B9FF00BF77
:100480000848FFF726FF0028FAD10648FFF7C0FF0B
:1004900000BF0448FFF706FF0028FAD107B000BDEF
:1004A00000080140002401400620014908707047FF
:1004B0003100002010B501217F2002F00BFB034822
:1004C00083884288012102F087F910BD5C32000860
:1004D00018480078002826DD17480088401C80B2A4
:1004E000154908801549164A127831F812108842C9
:1004F00008DB0020104908800E480078401E0D4996
:10050000087015E00F480E49097830F811000A49C3
:100510000988884203DC00200B49086008E00120BC
:100520000949086004E00020034908800649086082
:10053000704700005E000020640000208A3300083D
:100540005D000020943300089001214200BFFEE7C7
:1005500070473EB504468F204FF4E0714FF4C072EF
:10056000CDE90021029004F11E01C8B240F2AF2390
:100570008F224FF4E07102F0D7F83EBD10B504466B
:1005800004F14000C3B240F219221146042002F0E7
:100590003DF910BD10B50A2002F044F801210848C9
:1005A00000F0FCF9012807D10648006808B90120CD
:1005B00000E0002003490860012000F053F810BD5E
:1005C000000801409401234210B50A2002F02AF8E5
:1005D0000421084800F0E2F938B90748006808B972
:1005E000012000E0002004490860042000F03AF8EF
:1005F00010BD0000001801409481214210B50A206E
:1006000002F010F80821084800F0C8F938B9074886
:10061000006808B9012000E00020044908600820B3
:1006200000F020F810BD00000018014094012342A2
:1006300010B50A2001F0F6FF1021084800F0AEF9CD
:1006400038B90748006808B9012000E000200449D3
:100650000860102000F006F810BD000000180140EE
:100660009481214201490860704700001404014050
:1006700010B50748007820F00100401C04490870BC
:1006800005200449087001217F2002F023FA10BDE3
:10069000300000203100002010B507480078032802
:1006A00006DC054909780D31C8B202F0E3F802E032
:1006B00003200149087010BD4A00002010B5084809
:1006C0000078401CC0B206490870032804DC0121F0
:1006D0007F2002F0FFF902E003200149087010BDFD
:1006E0004A00002030B5044604254FF4302000F0C5
:1006F0006FF80546042D17D10C48006940F0020040
:100700000A49086108464461006940F040000861F8
:100710004FF4302000F05CF805460448006941F6CB
:10072000FD71084001490861284630BD00200240A3
:1007300004200B49C96801F0010109B101200EE054
:100740000749C96801F0040109B1022007E0044922
:10075000C96801F0100109B1032000E004207047CE
:10076000002002400348006940F080000149086110
:10077000704700000020024070B504460D46042674
:10078000F00200F025F80646042E11D10948006950
:1007900040F00100074908612580F00200F018F8D8
:1007A00006460448006941F6FE71084001490861A7
:1007B000304670BD002002400248034948600348AB
:1007C000486070472301674500200240AB89EFCDA8
:1007D00000B502460423FFF7ABFF034603E0FFF733
:1007E000A7FF0346521E012B01D1002AF7D102B9FF
:1007F0000523184600BD2DE9F041024600250026DC
:10080000002000230024002791F803C00CF00F05FE
:1008100091F803C00CF0100CBCF1000F03D091F85C
:1008200002C04CEA050591F800C0BCF1000F31D0C0
:10083000146800202BE04FF0010C0CFA00F3B1F823
:1008400000C00CEA03069E4220D183004FF00F0C3B
:100850000CFA03F7BC4305FA03FC4CEA040491F8D4
:1008600003C0BCF1280F06D14FF0010C0CFA00FCBC
:10087000C2F814C00AE091F803C0BCF1480F05D1DA
:100880004FF0010C0CFA00FCC2F810C0401C082804
:10089000D1D31460B1F800C0BCF1FF0F34DD54684F
:1008A00000202EE000F1080C4FF0010808FA0CF3CC
:1008B000B1F800C00CEA03069E4221D183004FF03C
:1008C0000F0C0CFA03F7BC4305FA03FC4CEA0404D2
:1008D00091F803C0BCF1280F05D100F1080C08FA0B
:1008E0000CF8C2F8148091F803C0BCF1480F07D18E
:1008F00000F1080C4FF0010808FA0CF8C2F810805B
:10090000401C0828CED35460BDE8F081F0B50A46FB
:10091000002300240021002500F00046B6F1004F1E
:1009200002D11D4EF16901E01B4E7168C0F3034511
:1009300083B200F44016B6F5401F08D121F0706173
:10094000154E766826F07066134F7E6012E000F454
:100950008016B6F5801F06D1032606FA05F4A143DA
:1009600041F0706106E0460D360103FA06F6B14328
:1009700041F0706122B1460D360103FA06F63143AB
:1009800000F00046B6F1004F02D1034EF16101E0E4
:10099000014E7160F0BD00000000014002460020E1
:1009A00093680B400BB1012000E0002070474161CB
:1009B0007047000010B5044607230122214609486C
:1009C000FFF7BAFC01210748FFF717FD00BF02211E
:1009D0000448FFF775FC0028F9D00248FFF76CFCCB
:1009E00010BD0000002401402DE9F04107460C46EF
:1009F0000025002608E03846FFF7DCFF05446420A8
:100A000001F036FE701CC6B2A642F4DBB5FBF4F072
:100A100080B2BDE8F08100BFFEE7000010B50348DA
:100A200083884288012101F0D7FE10BD10330008F1
:100A300010B501217F2002F04DF81D4883884288BF
:100A4000012101F0C9FE1B48007803280FD11A4884
:100A50000078012804DD18480078401E1649087007
:100A6000154909781431C8B2FFF773FD1FE0124829
:100A70000078012817DD10480078401E0E490870E4
:100A8000084600780A2804DC084600780B4988707C
:100A900006E0094800780A21C1EB40000749887048
:100AA00001200749087004480078FFF752FD10BD87
:100AB0007A32000831000020540000204C00002051
:100AC0004B00002010B5034883884288012101F0C3
:100AD00083FE10BD1A33000810B501217F2001F0FC
:100AE000F9FF1D4883884288012101F075FE1B48EB
:100AF000007803280FD11A480078082804DA18482B
:100B00000078401C16490870154909781431C8B29C
:100B1000FFF71FFD1FE0124800780F2817DA104872
:100B20000078401C0E490870084600780A2804DC4A
:100B3000084600780B49887006E0094800780A21C9
:100B4000C1EB40000749887001200749087004483C
:100B50000078FFF7FEFC10BD843200083100002051
:100B6000540000204C0000204B00002008B501215B
:100B70000D2000F0DDFE10208DF8030003208DF81D
:100B8000020001210748FFF7C1FE1B20ADF800005D
:100B900069460548FFF72FFE1B210348FFF707FFB3
:100BA00008BD000000023000000C014010B50E48E6
:100BB0000078012816D100200B4908700B490878ED
:100BC00002F0EAFA0949487802F0E6FA074988781B
:100BD00002F0E2FA0549C87802F0DEFA0349087922
:100BE00002F0DAFA10BD00004B0000204C0000209B
:100BF00000BFFEE710B5034883884288012101F059
:100C0000EBFD10BD2433000810B501217F2001F059
:100C100061FF0A4883884288012101F0DDFD084810
:100C20000078012804DD06480078401E0449087059
:100C300003480078FFF7A2FC10BD00008E320008C8
:100C40005500002010B5034883884288012101F037
:100C5000C3FD10BD2E33000810B501217F2001F027
:100C600039FF0A4883884288012101F0B5FD084810
:100C70000078042804DA06480078401C044908700B
:100C800003480078FFF77AFC10BD00009832000896
:100C900055000020704710B54FF4A06000F03AF8FE
:100CA00010BD000070B5002100230F22C47804B3EA
:100CB000154C246804F4E064C4F5E064210AC1F131
:100CC0000403CA40447804FA03F1847814402143B1
:100CD00009010E4C0678A155047804F01F05012483
:100CE000AC4005786D11AD0005F1E025C5F8004177
:100CF00009E0047804F01F050124AC40044D067897
:100D0000761145F8264070BD0CED00E000E400E0EF
:100D100080E100E002490143024A1160704700008F
:100D20000000FA050CED00E010B511B3144A107084
:100D3000144A1288521C92B2124B1A80124B104C59
:100D4000247833F814309A4202DB00220D4B1A80CB
:100D50000E4A0B4B1B7832F813200A4B1B889A4221
:100D600003DD00220A4B1A6008E00122084B1A60DA
:100D700004E00022034B1A80054B1A6010BD0000EE
:100D80006200002060000020723300087E330008FB
:100D90008081214210B50020584908704FF4E1606D
:100DA0005749088001205749087002205649487069
:100DB0005448007888700020C8705448007820F0AB
:100DC0000100524908700D2001F054FD4C48008884
:100DD00001F096FF4B480078FFF7BBFB01F06EFC7B
:100DE0004B4A00214B4801F051FE4B4A00214B4831
:100DF00001F04CFE4A4A00214A4801F047FE4A4AA7
:100E000000214A4801F042FE494A0021494801F0C8
:100E10003DFE494A49494A4801F038FE494A4A4993
:100E20004A4801F033FE4A4A4A494B4801F02EFE37
:100E30004A4A4B494B4801F029FE4B4A4B494C4822
:100E400001F024FE4FE001F0CFFD4A48007802286F
:100E500012D00120294908702C48007820F00100A8
:100E6000401C2A49087000202749C870274800788C
:100E700020F008002549087001F03CFB2348007869
:100E8000C0F3001050B12148007820F010001F4935
:100E90000870012019490870FFF788FE1B48007888
:100EA000C0F34000F8B11948007820F0020017495B
:100EB000087031480078EE2815D10121042001F096
:100EC00009FE2E4883884288012101F085FC00201C
:100ED0000D49C8700D48007820F008000B490870D3
:100EE0000120064908700948007800F00100002838
:100EF000A9D001F0FDFE01F077FD10BD4B000020F0
:100F000052000020540000204C000020300000203F
:100F10000C3200089D2F000816320008752E0008BC
:100F200020320008752F00082A320008C52F00085B
:100F300048320008691C00085C320008A904000857
:100F4000B5040008703200080122000815220008CC
:100F500066320008B1210008C5210008843200086B
:100F6000C50A0008D90A00087A3200081D0A0008DC
:100F7000310A00083100002058000020DE3200084D
:100F800010B54FF4E1604E49088001204D490870CA
:100F90004D48007820F001004B4908704FF6FF7172
:100FA0004FF4784001F05CFE062001F063FC4448F9
:100FB000008801F0A5FE434800780A2190FBF1F07B
:100FC000C4B2234640F25D1240F24521052001F0F3
:100FD0002DFC3C4800780A2190FBF1F201FB120045
:100FE000C4B2234640F25D1240F25D21052001F0BB
:100FF0001DFC364883884288012101F0EDFB01F099
:101000005DFB334A3349344801F040FD2F4A3349F0
:10101000334801F03BFD334A3349344801F036FD93
:10102000334A3449344801F031FD344A34493548B3
:1010300001F02CFD344A3549354801F027FD354A89
:101040003549364801F022FD01F052FE2DE001F055
:10105000CBFC01F04FFA1C480078C0F3C00070B11F
:1010600001202F4908602F49C1F890012E48154AE8
:10107000127830F812102D4801F005F805E0002034
:10108000274908602749C1F890010F480078C0F34C
:10109000001050B10C48007820F010000A49087088
:1010A000012023490870FFF781FD0748007800F010
:1010B00001000028CBD001F01BFE01F095FC10BD13
:1010C000520000205400002030000020523200085E
:1010D00048320008651C0008691C000895180008C3
:1010E000A91800085C320008A9040008B50400082B
:1010F000703200080122000815220008663200083C
:10110000B1210008C521000884320008C50A000882
:10111000D90A00087A3200081D0A0008310A0008BE
:1011200084812142008021423400002000080040D8
:101130004B00002010B500201349087013480078B8
:1011400020F00100114908700D2001F093FB01F01F
:10115000B5FA0F4A00210F4801F098FC0E4A0F49DA
:101160000F4801F093FC01F0C3FD01E001F03CFCED
:101170000648007800F001000028F7D001F0B8FD23
:1011800001F032FC10BD00004A00002030000020B9
:101190004C33000871060008563300089906000811
:1011A000BD06000810B50020584908704FF4E160F2
:1011B00057490880012057490870574948705548D9
:1011C000007888700020C8705448007820F0010032
:1011D000524908700B2001F04DFB4D48008801F08A
:1011E0008FFD4C480078FFF7B4F901F067FA4C4ADC
:1011F00000214C4801F04AFC4B4A00214B4801F0C9
:1012000045FC4B4A00214B4801F040FC4A4A002172
:101210004A4801F03BFC4A4A00214A4801F036FCAA
:10122000494A4A494A4801F031FC4A4A4A494B482E
:1012300001F02CFC4A4A4B494B4801F027FC4B4A31
:101240004B494C4801F022FC4B4A4C494C4801F0B8
:101250001DFC4FE001F0C8FB4A480078072812D077
:1012600001202A4908702D48007820F00100401C18
:101270002A49087000202849C8702848007820F0C2
:1012800008002649087001F035F924480078C0F3B9
:10129000001050B12148007820F010001F4908705C
:1012A00001201A490870FFF781FC1C480078C0F340
:1012B0004000F8B11948007820F002001749087082
:1012C00031480078EE2815D10121042001F002FCFC
:1012D0002E4883884288012101F07EFA00200E49C1
:1012E000C8700E48007820F008000C4908700120F2
:1012F000064908700948007800F001000028A9D0CC
:1013000001F0F6FC01F070FB10BD00004B00002066
:1013100052000020540000204C000020300000202B
:101320000C3200089D2F000816320008752E0008A8
:1013300020320008752F00082A320008C52F000847
:1013400048320008691C00085C320008A904000843
:10135000B5040008703200080122000815220008B8
:1013600066320008B1210008C52100088432000857
:10137000C50A0008D90A00087A3200081D0A0008C8
:10138000310A00083100002058000020DE32000839
:1013900010B50020584908704FF4E16057490880A3
:1013A000012057490870574948705548007888709F
:1013B0000020C8705448007820F00100524908709D
:1013C0000C2001F057FA4D48008801F099FC4C4878
:1013D0000078FFF7BEF801F071F94C4A00214C4843
:1013E00001F054FB4B4A00214B4801F04FFB4B4AA4
:1013F00000214B4801F04AFB4A4A00214A4801F0CB
:1014000045FB4A4A00214A4801F040FB494A4A4903
:101410004A4801F03BFB4A4A4A494B4801F036FB37
:101420004A4A4B494B4801F031FB4B4A4B494C4827
:1014300001F02CFB4B4A4C494C4801F027FB4FE094
:1014400001F0D2FA4A480078012812D001202A4936
:1014500008702D48007820F00100401C2A490870CF
:1014600000202849C8702848007820F00800264944
:10147000087001F03FF824480078C0F3001050B124
:101480002148007820F010001F49087001201A49F7
:101490000870FFF78BFB1C480078C0F34000F8B1E0
:1014A0001948007820F00200174908703148007888
:1014B000EE2815D10121042001F00CFB2E48838871
:1014C0004288012101F088F900200E49C8700E48B9
:1014D000007820F008000C490870012006490870C7
:1014E0000948007800F001000028A9D001F000FCB4
:1014F00001F07AFA10BD00004B00002052000020DD
:10150000540000204C000020300000200C32000865
:101510009D2F000816320008752E000820320008A2
:10152000752F00082A320008C52F0008483200082D
:10153000691C00085C320008A9040008B504000812
:1015400070320008012200081522000866320008E7
:10155000B1210008C521000884320008C50A00082E
:10156000D90A00087A3200081D0A0008310A00086A
:101570003100002058000020DE32000810B5194864
:10158000007820F0010017490870062001F064F986
:1015900001F094F8144A0021144801F077FA144A33
:1015A0000021144801F072FA11E001F01DFA0D4813
:1015B0000078C0F3001050B10A48007820F0100005
:1015C0000849087001200C490870FFF7EFFA054838
:1015D000007800F001000028E7D001F089FB01F05D
:1015E00003FA10BD30000020F83100089D2E0008DD
:1015F00002320008252F00084B00002010B51E48BD
:10160000007820F001001C4908700E2001F032F92A
:1016100001F054F8194A0021194801F037FA194A23
:101620000021194801F032FA184A0021184801F047
:101630002DFA184A0021184801F028FA11E001F0AB
:10164000D3F90D480078C0F3001050B10A48007873
:1016500020F0100008490870012010490870FFF7B9
:10166000A5FA0548007800F001000028E7D001F055
:101670003FFB01F0B9F910BD300000200C3200082A
:101680009D2F000816320008752E00082A32000827
:10169000C52F000834320008ED2E00084B00002052
:1016A00010B54FF4E1605349088001205249087099
:1016B000524908705248007820F0010050490870E3
:1016C0000E2001F0D7F84B48008801F019FB4A4979
:1016D00009781431C8B2FEF73CFF48480078FEF79D
:1016E0004DFF00F0EBFF474A0021474801F0CEF9DB
:1016F000464A0021464801F0C9F9464A00214648B9
:1017000001F0C4F9454A0021454801F0BFF9454AB6
:101710000021454801F0BAF9444A4549454801F0DD
:10172000B5F9454A4549464801F0B0F9454A4649A8
:10173000464801F0ABF9464A4649474801F0A6F948
:10174000464A4749474801F0A1F9474A47494848AE
:1017500001F09CF9474A4849484801F097F93DE0B3
:1017600001F042F94648007803280BD0244800785D
:1017700020F00100401C224908700846007820F043
:101780000800087000F0B6FE1D480078C0F3C000E5
:1017900058B106210420FFF727F93A49088000F0E4
:1017A000C7FC01203849086008E000203649091DBF
:1017B00008603649C1F88001334908601048007854
:1017C000C0F3001050B10E48007820F010000C4912
:1017D000087001202E490870FFF7E8F908480078E2
:1017E00000F001000028BBD001F082FA01F0FCF803
:1017F00010BD0000520000205400002055000020C1
:10180000300000200C3200089D2F0008163200081E
:10181000752E000820320008752F00082A320008B3
:10182000C52F000848320008691C00085C32000817
:10183000A9040008B504000870320008012200085D
:101840001522000866320008B1210008C5210008F1
:1018500084320008C50A0008D90A00087A32000854
:101860001D0A0008310A000898320008450C0008DB
:10187000590C00088E320008F50B0008090C00080E
:1018800031000020560000208C812142008021423E
:101890004B0000200348007820F008000149087040
:1018A000704700003000002010B501217F2001F0BA
:1018B00011F9064883884288012100F08DFF044811
:1018C00083884288012100F087FF10BDDE320008C6
:1018D000523200087047000001460020034A506859
:1018E00020F4404008435060704700000010024060
:1018F00029B1064AD2690243044BDA6104E0034A83
:10190000D2698243014BDA61704700000010024047
:1019100029B1064A12690243044B1A6104E0034AE2
:1019200012698243014B1A617047000000100240A7
:1019300029B1064A92690243044B9A6104E0034AC2
:1019400092698243014B9A61704700000010024087
:1019500029B1064AD2680243044BDA6004E0034A24
:10196000D2688243014BDA607047000000100240E9
:1019700030B500210022002400232D4D6D6805F0B4
:101980000C0121B1042905D0082923D105E0294DF6
:10199000056022E0274D05601FE0254D6D6805F4C8
:1019A0007012234D6D6805F48034022505EB9242D8
:1019B0001CB9214D554305600BE01D4D6D6805F4C4
:1019C00000351DB11C4D5543056002E0194D5543CE
:1019D000056002E0174D056000BF00BF144D6D6843
:1019E00005F0F0010909154D6B5C0568DD404560A7
:1019F0000F4D6D6805F4E061090A104D6B5C456898
:101A0000DD4085600A4D6D6805F46051C90A0B4DD3
:101A10006B5C4568DD40C560054D6D6805F440416F
:101A2000890B074D6B5CC568B5FBF3F5056130BDEF
:101A30000010024000127A0000093D00140000204E
:101A40002400002030B503460C461546002207E06E
:101A5000184600F008F824F812009B1C501C82B2B3
:101A6000AA42F5DB30BD0146088870472DE9F05FDA
:101A700080468A461746B8F1006F02D33348804546
:101A800001D3BDE8F09FFEF797FEA8F1006B4FEA87
:101A90009B25CBF34809C9F50074A74200DC3C46FE
:101AA0004DE04FF0006101EB85208A142849FFF7D3
:101AB000C9FF00260BE009EB0600254931F81000AC
:101AC0004FF6FF71884200D003E0701C86B2A64238
:101AD000F1DB00BFA6421BDA4FF0006101EB85206D
:101AE000FEF700FE002608E03AF8160006EB0901B2
:101AF000174A22F81100701C86B2A642F4DB4FF0A0
:101B0000006101EB85208A14114900F023F804E0FC
:101B100022465146404600F01DF8A74200D10FE092
:101B20006D1C4FF000090AEB440AA044381B87B231
:101B3000B7F5007F02DD4FF4007400E03C46B0E7EB
:101B400000BFFEF70FFE00BF9BE70000000001088A
:101B50007C0000202DE9F04105460E461746002482
:101B600007E036F814102846FEF706FEAD1C601C90
:101B700084B2BC42F5DBBDE8F081704710B500F0DF
:101B800001F810BD0CB500200190009033480068AA
:101B900040F480303149086000BF3048006800F4EC
:101BA000003000900198401C0190009818B90198ED
:101BB000B0F5A06FF1D12948006800F4003010B1F1
:101BC0000120009001E0002000900098012843D1FE
:101BD0002348006840F0100021490860084600686A
:101BE00020F0030008600846006840F0020008602A
:101BF0001A484068194948600846406848600846E5
:101C0000406840F4806048600846406820F47C10DA
:101C100048600846406840F4E8104860084600689C
:101C200040F08070086000BF0C48006800F0007051
:101C30000028F9D00948406820F0030007494860AF
:101C40000846406840F00200486000BF0348406812
:101C500000F00C000828F9D10CBD00000010024073
:101C6000002002407047000010B50121022000F062
:101C700031FF2F480078032826D12E480078C0F382
:101C8000C00060B12B48007820F008002949087096
:101C9000294883884288012100F09EFD13E02548F1
:101CA000007820F008000830224908702348838813
:101CB0004288012100F090FD2148008818B94FF4B6
:101CC000E1601F49088031E01A480078C0F3C00085
:101CD00090B100201B49C8701648007820F0080019
:101CE00014490870012018490870134883884288F5
:101CF000012100F071FD18E001201349087011491D
:101D0000C8700C48007820F00800083009490870B5
:101D10000A4883884288012100F05EFD0848008857
:101D200018B94FF4E1600649088000BF00BF10BD3C
:101D30003100002030000020DE3200084832000868
:101D4000520000204C0000204B000020042808D145
:101D50004FF0E021096941F004014FF0E0221161E8
:101D600007E04FF0E021096921F004014FF0E02283
:101D7000116170477047000010B51348006840F0CB
:101D800001001149086008464068104908400E49A2
:101D90004860084600680E4908400B49086008463C
:101DA000006820F4802008600846406820F4FE00A7
:101DB00048604FF41F008860FFF7E0FE4FF00060BE
:101DC0000449086010BD0000001002400000FFF848
:101DD000FFFFF6FE08ED00E010B501211F4800F0FE
:101DE000DEF8002839D001211C4800F0C9F81C4851
:101DF0000078032807D11B480078C0F3C0011A48B7
:101E00000078FEF791FF19480088401C80B21749FE
:101E10000880C82808DB002008801248007820F0DD
:101E2000100010300F490870FEF752FB0D48007883
:101E3000C0F3C00088B10E480088401C80B20C4935
:101E40000880B0F57A7F08DB00200880054800781C
:101E500020F00400001D0349087010BD000400407C
:101E60003100002030000020550000202E0000200E
:101E70002C0000207FB505460C4601210220FFF70B
:101E800037FDADF80850ADF804400020ADF80A0069
:101E9000ADF8060001A90E4800F0F8F8012211463D
:101EA0000B4800F08DF81D208DF8000002208DF801
:101EB000010003208DF8020001208DF80300684620
:101EC000FEF7F0FE0121024800F05DF87FBD000042
:101ED0000004004030B589B005460C4601210420BD
:101EE000FFF706FD01210820FFF722FD4FF4807067
:101EF000ADF8200018208DF8230003208DF8220073
:101F000008A91748FEF777FCADF81850ADF8144053
:101F10000020ADF81A00ADF8160005A9114800F030
:101F2000B5F87020ADF804000120ADF806000020DF
:101F3000ADF80A000220ADF80C0001A9094800F034
:101F400049F80821074800F095F80121054800F0FC
:101F50000BF80121034800F016F809B030BD00006D
:101F6000000C01400008004021B1028842F08002CC
:101F7000028004E002884FF67F731A4002807047A7
:101F8000CA430282704721B1028842F001020280F6
:101F900004E002884FF6FE731A400280704730B5A5
:101FA0000246002000230024158A05EA01039589D2
:101FB00005EA010413B10CB1012000E0002030BD9E
:101FC0001AB183890B43838102E083898B43838128
:101FD0007047000070B5002400220023058C4FF6E6
:101FE000FF6635400584028C8388848B4FF68F759D
:101FF0002C404FF6FC752C400D882C434FF6FF55B6
:102000002A400D894FF6FF7606EA05252A434D88BA
:1020100006EA05252A43154DA84202D0144DA842D0
:102020001DD14FF2FF752A404D894FF6FF7606EA23
:1020300005252A434FF6FF352A408D8806EA0525F7
:102040002A434EF6FF752B404DF6FF752B408D89C8
:1020500006EA05152B43CD8906EA05152B43838037
:102060008483CD888587028470BD0000002C0140E8
:10207000003401400A460021818B4FF6F773194066
:1020800011438183704781877047000000220288D6
:102090001D4B98420ED01D4B98420BD0B0F1804F93
:1020A00008D01B4B984205D01A4B984202D01A4BCD
:1020B000984204D14FF68F731A404B881A43174B3E
:1020C000984207D0164B984204D04FF6FF431A406F
:1020D000CB881A4302808B8883850B8803850A4B43
:1020E00098420BD0094B984208D00E4B984205D02D
:1020F0000D4B984202D00D4B984201D10B7A0386CA
:102100000123838270470000002C0140003401400D
:102110000004004000080040000C00400010004097
:1021200000140040004001400044014000480140CC
:1021300010B51A480088B0F57A6F04DA174800889D
:10214000B0F5FA7F0DDC1648007830BB0120144949
:1021500008700020134908600121042000F0BAFC37
:102160001BE000200E4908700F481049097830F82C
:102170001100103809490988884202DB0120094909
:10218000086009480949097830F8110003490988AD
:10219000884202DC00200349086010BD5600002080
:1021A0005F0000209081214260330008540000202D
:1021B00010B5034883884288012100F00DFB10BD53
:1021C000FC32000810B501217F2000F083FC0A4892
:1021D00083884288012100F0FFFA084800883C28E3
:1021E00004DD064800883C3804490880034800881C
:1021F00000F086FD10BD000066320008520000208D
:1022000010B5034883884288012100F0E5FA10BD2B
:102210000633000810B501217F2000F05BFC0A485E
:1022200083884288012100F0D7FA08480088B0F579
:10223000616F04DA054800883C300449088003488F
:10224000008800F05DFD10BD7032000852000020D3
:1022500010B540F22551064800F085F830B1044829
:1022600000F03CF9C4B2204600F08CF910BD00002B
:102270000038014010B540F22551064800F073F8CF
:1022800030B1044800F02AF9C4B2204600F03EFC08
:1022900010BD00000044004021B1828942F4005288
:1022A000828104E082894DF6FF731A408281704773
:1022B00010B504462048844209D101218803FFF764
:1022C00047FB00214FF48040FFF742FB32E01B4800
:1022D000844209D101214804FFF71AFB00214FF481
:1022E0000030FFF715FB25E01548844209D1012194
:1022F0008804FFF70DFB00214FF48020FFF708FB57
:1023000018E01048844209D10121C804FFF700FBFE
:1023100000214FF40020FFF7FBFA0BE00A4884424B
:1023200008D101210805FFF7F3FA00214FF48010CE
:10233000FFF7EEFA10BD00000038014000440040F5
:1023400000480040004C0040005000400246002081
:10235000B1F5007F00D100BF13880B400BB1012005
:1023600000E00020704770B50246002400230025DD
:10237000002040F66A16B14200D100BFC1F34215F9
:1023800001F01F03012606FA03F3012D02D19689FD
:10239000334006E0022D02D1168A334001E0968ACE
:1023A00033400C12012606FA04F41688344013B1A7
:1023B0000CB1012000E0002070BDF0B50346002400
:1023C00000260025002040F66A17B94200D100BF60
:1023D0001846C1F3421401F01F06012707FA06F55B
:1023E000012C01D10C3004E0022C01D1103000E0AE
:1023F00014301AB107682F43076002E00768AF4343
:102400000760F0BD2DE9F04786B005460E46002472
:10241000A24600BFA1460027B08900B100BF2F46E9
:102420002C8A4CF6FF700440F08804432C82AC895F
:102430004EF6F3100440B08831890843718908438F
:102440000443AC81AC8A4FF6FF400440B08904439A
:10245000AC8201A8FFF78CFA1F48874202D1DDF851
:1024600010A001E0DDF80CA0A88900F4004040B104
:102470000AEBCA0000EB0A1031684900B0FBF1F822
:1024800007E00AEBCA0000EB0A1031688900B0FBD4
:10249000F1F86420B8FBF0F004012009642101FB8D
:1024A0001089A88900F4004040B1322000EBC90037
:1024B000B0FBF1F000F00700044308E0322000EB2D
:1024C00009106421B0FBF1F000F00F0004432C81EF
:1024D00006B0BDE8F087000000380140014688885A
:1024E000C0F308007047C1F308028280704700BF44
:1024F000FEE7000010B51C480078C0F3C00090B3A0
:1025000019480078C0F3800068B31748007820F0BD
:1025100004001549087015480088002805DD134897
:102520000088401E1149088019E00121032000F0B5
:10253000D1FA4FF4E1600D4908800D488388428844
:10254000012100F049F90848007820F00800064908
:10255000087000200749C870012007490870034827
:10256000008800F0CDFB10BD30000020520000209C
:10257000DE3200084C0000204B000020014600BF66
:10258000704700001349097839B9AA2820D11149A8
:102590000978491C0F4A11701AE00E49097802297E
:1025A0000ADA0C490978491E0B4A5054094909783E
:1025B000491C084A11700BE00021064A1170552889
:1025C00006D10649097821F00201891C034A1170DD
:1025D00070470000630000205800002030000020F9
:1025E00010B56FF00400FFF7B1FB0A4800680A4914
:1025F000B0FBF1F0094908700846007800EB400193
:10260000C1EBC0104FF6FF7101EAC0000449088019
:1026100010BD00000000002000127A0028000020F9
:102620002A0000200146114A12884A434FF0E02355
:102630005A6100229A611A46126942F001021A6137
:1026400000BF4FF0E022106900F001021AB100F45F
:102650008032002AF5D04FF0E022126922F0010208
:102660004FF0E0231A6100229A6170472A0000208F
:102670000146114A12784A434FF0E0235A61002282
:102680009A611A46126942F001021A6100BF4FF0C6
:10269000E022106900F001021AB100F48032002A31
:1026A000F5D04FF0E022126922F001024FF0E02352
:1026B0001A6100229A617047280000200020014919
:1026C000087070476D0000200020144908801448ED
:1026D00040780880084600884FF6FF7101EA002024
:1026E0000E4908800E488078098808440B49088004
:1026F00000200C4908800A48C078088008460088F5
:102700004FF6FF7101EA002006490880044800796D
:1027100009880844034908807047000068000020C9
:102720007C0400206A0000202DE9F04782460C4618
:1027300015461E46DDE90989089FAA2000F07CFAAB
:10274000712000F079FA504600F076FA201200F07D
:1027500073FAE0B200F070FA281200F06DFAE8B2F5
:1027600000F06AFA301200F067FAF0B200F064FA92
:10277000381200F061FAF8B200F05EFA4FEA282051
:1027800000F05AFA08F0FF0000F056FA4FEA29204C
:1027900000F052FA09F0FF0000F04EFA00F052FA91
:1027A000BDE8F0872DE9FE4F04460D4616461F464C
:1027B000DDE90D9ADDF8308006498DE800070978DB
:1027C0002144C8B23B4632462946FFF7ADFFBDE87B
:1027D000FE8F00006C000020FEB504460F46154633
:1027E0001E464FB120898DE86100E388A288618888
:1027F0002078FFF7D7FF08E020898DE86100E388A3
:10280000A28861882078FFF78FFFFEBDF8B50546E6
:102810000E4617461C46002000908DF800406B467F
:102820003A463146284600F031F8F8BDF8B505467D
:102830000E4617461C460A2C0DDA0020009004F1C3
:102840003000C0B28DF800006B463A46314628464B
:1028500000F01CF800BFF8BD10B50446AA2000F037
:10286000EBF9702000F0E8F9204600F0E5F900F0FF
:10287000E9F910BD10B50446034909782144C8B2EE
:10288000FFF7EAFF10BD00006C0000202DE9F041C9
:1028900004460D4616461F464FF00008AA2000F0D9
:1028A000CBF9062C1CD2DFE804F003070B0F13173B
:1028B000532000F0C1F913E06E2000F0BDF90FE0E5
:1028C000542000F0B9F90BE06F2000F0B5F907E0F3
:1028D000552000F0B1F903E0982000F0ADF900BFF9
:1028E00000BF281200F0A8F9E8B200F0A5F93012F4
:1028F00000F0A2F9F0B200F09FF9052C1AD12420C3
:1029000000F09AF9812000F097F9052000F094F981
:1029100011490988081200F08FF90F49087800F072
:102920008BF90E490988081200F086F90B490878DE
:1029300000F082F907E017F8080000F07DF908F1CF
:10294000010000F0FF0817F808000028F3D100F09C
:1029500079F9BDE8F08100006E00002070000020D1
:1029600000B5FFF7B1FE00222EE002EB42001A494B
:1029700001EB80008068408818490988884221DC82
:1029800002EB4200144901EB80008068C0881349C3
:102990000988884216DB02EB42000F4901EB8000F8
:1029A000806880880E49098888420BDC02EB42006F
:1029B000094901EB8000806800890949098888423B
:1029C00000DB05E0501CC2B2064800788242CCDB36
:1029D00000BF104600BD00008804002068000020F1
:1029E0006A0000206D00002010B500F089F87328FF
:1029F0001FD122480078E0B9012020490870FFF774
:102A0000AFFF1F490870084600781E4909788842C0
:102A10000FDA1B48007800EB40001B4951F82000FA
:102A200038B11749097801EB4101174A52F82100E2
:102A3000804700F065F872281ED110480078012800
:102A40001AD100200D4908700D4800780D49097809
:102A5000884211DA0A48007800EB40000A4901EB8D
:102A60008000406840B10649097801EB4101064AFF
:102A700002EB81014868804710BD0000780000200B
:102A8000790000206D0000208804002010B50F4B55
:102A90001B781E2B19DA0D4B1B7803EB43030C4CF0
:102AA00044F82300094B1B7803EB430304EB830337
:102AB0005960064B1B7803EB430304EB83039A60D6
:102AC000024B1B785B1C014C237010BD6D00002075
:102AD0008804002070B505460C46AA2000F0ACF82A
:102AE000302000F0A9F8284600F0A6F8204600F0B3
:102AF000A3F8FF2000F0A0F800F0A4F870BD0000DB
:102B000001480078704700007C040020474909789C
:102B10000A2975D2DFE801F0050D343C444C5460BD
:102B20006C79AA2804D141490978491C3F4A11709F
:102B300079E0732807D13D490978491C3B4A117057
:102B40003B4908701BE0722806D10021374A1170FA
:102B50007221384A117012E0E42805D10421334A69
:102B60001170334908700AE030B900212F4A117002
:102B70007421304A117002E000212C4A117052E099
:102B80002C49487029490978491C284A11704AE0A3
:102B90002849887025490978491C244A117042E067
:102BA0002449C87021490978491C204A11703AE02B
:102BB000204908711D490978491C1C4A117032E0EE
:102BC000CC2805D119490978491C184A117002E02E
:102BD0000021164A117026E0332805D113490978DF
:102BE000491C124A117002E00021104A11701AE0CB
:102BF000C32806D10D490978491C0C4A117003E01D
:102C00000DE00021094A11700DE03C2806D1002199
:102C1000064A117006490978064A117003E000213E
:102C2000024A117000BF00BF704700007A00002008
:102C30007B0000207C04002010B50446204600F0F4
:102C4000C3FA10BD10B5CC20FFF7F6FF3320FFF715
:102C5000F3FFC320FFF7F0FF3C20FFF7EDFF10BDAF
:102C600070B504460D460C4804800C480580AA2027
:102C7000FFF7E2FF4020FFF7DFFF2012FFF7DCFF46
:102C8000E0B2FFF7D9FF2812FFF7D6FFE8B2FFF74F
:102C9000D3FFFFF7D7FF70BD6E000020700000204B
:102CA0000A2803D10A21074A117009E018B9002146
:102CB000044A117004E0462802D14621014A1170ED
:102CC000704700006C00002010B5AA20FFF7B4FF89
:102CD0003020FFF7B1FF0020FFF7AEFF0020FFF725
:102CE000ABFF0020FFF7A8FFFFF7ACFF10BD00000F
:102CF00000BF024800787228FBD170477C04002096
:102D000070B504464FF4167094FBF0F0C5B22B4634
:102D100040F21922B9210420FFF788FD3C2094FBE2
:102D2000F0F00A2190FBF1F201FB1200C5B22B4634
:102D300040F21922C9210420FFF778FD3A2340F21E
:102D40001922D9210420FFF761FD3C2094FBF0F10A
:102D500000FB11400A2190FBF1F0C5B22B4640F276
:102D60001922E9210420FFF761FD0A2094FBF0F10C
:102D700000FB1140C5B22B4640F21922F921042074
:102D8000FFF754FD70BD000008B500200090FDF76E
:102D9000EDFEFDF780FFFFF723FC4FF4165000F027
:102DA000A7F94FF4E13000F051F900214FF4E15060
:102DB000FFF790F84FF4C8612B48FFF764F900F073
:102DC00015F9462140F2E730FFF754F8FDF726FBEE
:102DD0004FF47A70FFF726FC4FF47A70FFF722FC6D
:102DE0004FF47A70FFF71EFC0720204908704FF659
:102DF000FF714FF47840FFF733FFFFF765FF0122C3
:102E000069461B48FEF71EFEBDF8000018B1002001
:102E1000FFF746FF02E00A20FFF742FF23E01348D6
:102E2000007808281DD2DFE800F0070A0D101316FD
:102E30000419FEF7A3FB15E0FEF77CF912E0FEF79C
:102E4000A7FA0FE0FDF7A6FF0CE0FEF729FC09E06A
:102E5000FEF796F806E0FEF7D1FB03E0FEF7A2F9D5
:102E600000E000BF00BFDAE70008004031000020AA
:102E700000F8000810B502200649087001217F20E3
:102E8000FFF728FE0448838842880121FFF7A4FC4D
:102E900010BD0000310000201632000808B50020E7
:102EA00000900E48007820F00100401C0B4908708B
:102EB00007200B49087001217F20FFF70BFE09480E
:102EC000838842880021FFF787FC0A20FFF7E8FE8D
:102ED000012269460448FEF7C9FD08BD3000002004
:102EE00031000020F831000800F8000810B50A4849
:102EF000007820F00100401C0749087004200749B1
:102F0000087001217F20FFF7E5FD0548838842888E
:102F10000121FFF761FC10BD3000002031000020CE
:102F20003432000808B57B2000900E48007820F06D
:102F30000100401C0B49087007200B490870012153
:102F40007F20FFF7C7FD0948838842880021FFF7EB
:102F500043FC0020FFF7A4FE012269460448FEF767
:102F600085FD08BD3000002031000020023200083D
:102F700000F8000810B507200649087001217F20DD
:102F8000FFF7A8FD0448838842880121FFF724FC4D
:102F900010BD0000310000202032000810B50120D3
:102FA0000649087001217F20FFF794FD04488388BB
:102FB00042880121FFF710FC10BD00003100002005
:102FC0000C32000810B503200649087001217F204B
:102FD000FFF780FD0448838842880121FFF7FCFB4E
:102FE00010BD0000310000202A32000810B5002476
:102FF00015E0AA20FFF720FE0020FFF71DFEFFF7D7
:1030000021FE0520FFF70EFBFFF77AFD742801D1A2
:10301000FF2406E0C820FFF705FB601CC4B20A2CA1
:10302000E7DB00BFFF2C0BD009E006480068C04377
:103030000549C1F88C014FF4FA70FFF7F3FAF4E791
:1030400010BD00008C8121420080214210B586B065
:10305000044601210420FEF76BFC01214804FEF721
:1030600047FC0420ADF8140018208DF8170005A9BE
:103070001D48FDF7C0FB0820ADF8140048208DF86E
:10308000170005A91848FDF7B6FB1848FFF710F917
:1030900026208DF8000003208DF801008DF8020035
:1030A00001208DF803006846FDF7FCFD0194002027
:1030B000ADF80800ADF80A00ADF80C00ADF810004E
:1030C0000C20ADF80E0001A90848FFF79BF901227A
:1030D00040F225510548FFF770F901210348FFF739
:1030E000DBF806B010BD00000008014000440040BD
:1030F00010B586B00446012144F20400FEF718FC26
:103100002348FFF7D5F84FF40070ADF81400032002
:103110008DF8160018208DF8170005A91D48FDF739
:103120006AFB4FF48060ADF8140048208DF817005A
:1031300005A91848FDF75FFB25208DF80000032046
:103140008DF8010002208DF8020001208DF80300A7
:103150006846FDF7A7FD01940020ADF80800ADF822
:103160000A00ADF80C00ADF810000C20ADF80E0010
:1031700001A90748FFF746F9012240F2255104480A
:10318000FFF71BF901210248FFF786F806B010BDD2
:10319000003801400008014010B5044600BF8021FE
:1031A0000848FFF7D3F80028F9D021460548FFF773
:1031B0009AF900BF40210348FFF7C8F80028F9D06A
:1031C00010BD00000038014010B5044600BF80214A
:1031D0000848FFF7BBF80028F9D021460548FFF75B
:1031E00082F900BF40210348FFF7B0F80028F9D06A
:1031F00010BD0000004400400500B500DF0057018D
:1032000045010500C701DF006C0245011100BC014A
:1032100007001F023700110035020700980237002F
:10322000110040010700A40137001100B10207009E
:103230001403370011006B02D501FF023B0211009D
:103240008402060008033F001100B8020B02F202DC
:10325000440211000B02FF01470238021100110065
:103260000D003C0037001100740014029F00410261
:103270001100220114024E0141021100BE01B601EB
:103280000402F80111006B02B601B102F80111004D
:10329000B2011602DB0140021100620216028B022B
:1032A0003F020C00BD021501F00248010C00CE01E6
:1032B0001401010249010E00BC0107001F02370082
:1032C0000E0035020700980237000E00400107008B
:1032D000A40137000E00B1020700140337000E00EE
:1032E000B8020B02F20244020E000B02FF01470279
:1032F00038020E0011000D003C0037000E00740073
:1033000014029F0041020E00220114024E014102EC
:103310000E00BE01B6010402F8010E006B02B601F8
:10332000B102F8010E00B2011602DB0140020E00EC
:10333000620216028B023F020500BD021501F00277
:1033400048010500CE011401010249010D001800D9
:103350001100600052000D006601FE01BC014D022B
:103360000000FC086009C409280A8C0AF00A540B02
:10337000B80B0000D007A00FA00FE80388130000CF
:10338000E803D007B80BE803FA006E009A01E803DF
:10339000F203C20B64009001F401E803B80B0000D3
:1033A000C0330008000000207C0000002801000855
:1033B0003C3400087C000020D40B000044010008CD
:1033C00000A24A0400000000000000000102030403
:1033D00006070809000000000102030401020304BB
:1033E00006070809020406080000000000000000AB
:1033F000000000000000A40608076C07D0077F0843
:10340000E3084709AB09F609410A0000550101002C
:10341000AA00000000000000000000000000000002
:103420000000000000000000000000000000FFFF9E
:0C34300000000000000000000000000090
:04000005080000ED02
:00000001FF
