:020000040800F2
:10000000E80C002089010008C10D0008070B00085A
:100010002D0D0008250600085F31000800000000D3
:10002000000000000000000000000000BF250008E4
:100030002906000800000000C521000871280008FA
:10004000A3010008A3010008A3010008A301000800
:10005000A3010008A3010008C1060008A3010008CD
:10006000F5060008290700085D070008A30100083D
:10007000A3010008A3010008A3010008A3010008D0
:10008000A3010008A3010008A3010008A3010008C0
:10009000A3010008A3010008A3010008A3010008B0
:1000A000A3010008A3010008A3010008A3010008A0
:1000B000A3010008D5280008A3010008A301000837
:1000C000A3010008A3010008A3010008A301000880
:1000D000A30100089D2E0008C12E0008E52E00088F
:1000E000A3010008A3010008A301000800F002F822
:1000F00000F03AF80AA090E8000C82448344AAF188
:100100000107DA4501D100F02FF8AFF2090EBAE885
:100110000F0013F0010F18BFFB1A43F0010318473B
:10012000F83E0000183F0000103A24BF78C878C19C
:10013000FAD8520724BF30C830C144BF04680C60ED
:10014000704700000023002400250026103A28BF35
:1001500078C1FBD8520728BF30C148BF0B60704739
:100160001FB51FBD10B510BD00F033F81146FFF7E5
:10017000F7FF03F0FDFB00F051F803B4FFF7F2FFC7
:1001800003BC03F051F800000948804709480047C4
:10019000FEE7FEE7FEE7FEE7FEE7FEE7FEE7FEE737
:1001A000FEE7FEE704480549054A064B7047000094
:1001B00075280008ED000008E8060020E80C002083
:1001C000E8080020E8080020704770477047704733
:1001D0007047754600F028F8AE460500694653465C
:1001E00020F00700854618B020B5FFF7DBFFBDE81B
:1001F00020404FF000064FF000074FF000084FF08E
:10020000000B21F00701AC46ACE8C009ACE8C0091E
:10021000ACE8C009ACE8C0098D4670470446AFF3AE
:1002200000802046FFF7A9FF0048704784060020A1
:1002300021B1826842F00102826003E0826822F00C
:10024000010282607047000010B5044612488442E3
:1002500008D10121401501F0F3FF0021601501F0E4
:10026000EFFF17E00D48844208D10121001501F08D
:10027000E7FF0021201501F0E3FF0BE0084884426E
:1002800008D10121C80301F0DBFF00214FF4004039
:1002900001F0D6FF10BD00000024014000280140FD
:1002A000003C0140014600208A6802F004020AB1C5
:1002B000012000E0002070470146C86C80B2704702
:1002C0000246002013680B400BB1012000E0002023
:1002D0007047014600208A6802F008020AB1012036
:1002E00000E000207047000030B5024600200023E7
:1002F00050680F4C20400D790C6844EA05242043D7
:10030000506090680B4C2040D1E902542C434D7949
:1003100044EA450420439060D06A20F470000C7CCD
:10032000641EE4B2234340EA0350D06230BD0000B3
:10033000FFFEF0FFFDF7F1FFF0B504460D4600208B
:100340000021092D11DDE068A5F10A0606EB46073C
:10035000072606FA07F18843A5F10A0606EB4606CA
:1003600003FA06F10843E0600CE0206905EB45075D
:10037000072606FA07F1884305EB450603FA06F15E
:1003800008432061072A0FDA606B561E06EB8607CA
:100390001F2606FA07F18843561E06EB860605FA65
:1003A00006F10843606322E00D2A0FDA206BD61FA6
:1003B00006EB86071F2606FA07F18843D61F06EBD1
:1003C000860605FA06F10843206310E0E06AA2F110
:1003D0000D0606EB86071F2606FA07F18843A2F1F1
:1003E0000D0606EB860605FA06F10843E062F0BD4D
:1003F000816841F008018160704721B1826842F450
:10040000A002826003E0826822F4A002826070474A
:10041000816841F0040181607047000000B587B039
:1004200001214FF4017001F0FBFE4FF4004001F098
:10043000CBFE8020ADF8040000208DF8070001A954
:10044000174800F04EFA1748FFF7FEFE0020029012
:100450008DF80C008DF80D004FF460200490002002
:10046000059001208DF8180002A90E48FFF73CFF07
:1004700001210C48FFF7DCFE0A48FFF7B9FF00BF77
:100480000848FFF726FF0028FAD10648FFF7C0FF0B
:1004900000BF0448FFF706FF0028FAD107B000BDEF
:1004A000000801400024014010B5E9B1134A128848
:1004B000521C92B2114B1A80114B124C247833F813
:1004C00014309A4204DB00220C4B1A800D4A107043
:1004D0000A4A1288022A03DA00220B4B1A600BE048
:1004E0000122094B1A6007E00022044B1A80074BD7
:1004F0001A800122044B1A6010BD00007200002017
:10050000E83F0008760000209C8121427400002012
:1005100049B3184A1278052A02D1821CD0B205E0EC
:10052000144A1278062A01D1021DD0B2124A12884A
:10053000521C92B2104B1A804B2A03DB00221A8005
:100540000E4A10700E4A0D4B1B7832F813200A4BDE
:100550001B889A4203DD01220A4B1A6008E0002240
:10056000084B1A6004E00022034B1A80054B1A6006
:10057000704700003F000020780000207A00002033
:10058000C03F0008988121420020044908700120E2
:100590000349087006200349087070476A0000206C
:1005A0006B0000203300002018480078002826DD6A
:1005B00017480088401C80B2154908801549164A22
:1005C000127831F81210884208DB002010490880A8
:1005D0000E480078401E0D49087015E00F480E497E
:1005E000097830F811000A490988884203DC0020A4
:1005F0000B49086008E001200949086004E0002078
:100600000349088006490860704700006B0000201D
:100610007E000020044000086A0000200E40000810
:100620009001214200BFFEE770472DE9F0410446EA
:100630000D4616460A2094FBF0F0C7B23B46324600
:100640002946052002F018FF0A2094FBF0F100FB78
:100650001140C7B205F1180081B23B463246052071
:1006600002F00AFFBDE8F08170B504460D4616465B
:1006700004F14000C3B232462946052002F0ECFEE8
:1006800070BD2DE9F04104460D4616460A2094FB44
:10069000F0F0C7B23B4632462946052002F0ECFE98
:1006A0000A2094FBF0F100FB1140C7B205F11800DD
:1006B00081B23B463246052002F0DEFEBDE8F08105
:1006C00010B50A2002F004FE0121084800F0DCF910
:1006D000012807D10648006808B9012000E0002081
:1006E00003490860012000F053F810BD00080140E4
:1006F0009401234210B50A2002F0EAFD04210848C3
:1007000000F0C2F938B90748006808B9012000E0D4
:10071000002004490860042000F03AF810BD0000F1
:10072000001801409481214210B50A2002F0D0FD4A
:100730000821084800F0A8F938B90748006808B946
:10074000012000E0002004490860082000F020F8A3
:1007500010BD0000001801409401234210B50A208A
:1007600002F0B6FD1021084800F08EF938B90748AC
:10077000006808B9012000E000200449086010204A
:1007800000F006F810BD00000018014094812142DD
:1007900001490860704700001404014008480078CF
:1007A00020F00100401C064908700520054908702A
:1007B00000200549087001200449087070470000B6
:1007C00032000020330000206A0000206B0000206F
:1007D00030B5044604254FF4302000F06FF805468C
:1007E000042D17D10C48006940F002000A49086145
:1007F00008464461006940F0400008614FF4302031
:1008000000F05CF805460448006941F6FD710840B7
:1008100001490861284630BD0020024004200B49F0
:10082000C96801F0010109B101200EE00749C9685A
:1008300001F0040109B1022007E00449C96801F090
:10084000100109B1032000E004207047002002409D
:100850000348006940F080000149086170470000CA
:100860000020024070B504460D460426F00200F058
:1008700025F80646042E11D10948006940F0010010
:10088000074908612580F00200F018F80646044880
:10089000006941F6FE71084001490861304670BDAB
:1008A00000200240024803494860034848607047FE
:1008B0002301674500200240AB89EFCD00B5024619
:1008C0000423FFF7ABFF034603E0FFF7A7FF034650
:1008D000521E012B01D1002AF7D102B90523184677
:1008E00000BD2DE9F041024600250026002000232E
:1008F0000024002791F803C00CF00F0591F803C005
:100900000CF0100CBCF1000F03D091F802C04CEABF
:10091000050591F800C0BCF1000F31D0146800202B
:100920002BE04FF0010C0CFA00F3B1F800C00CEA18
:1009300003069E4220D183004FF00F0C0CFA03F700
:10094000BC4305FA03FC4CEA040491F803C0BCF173
:10095000280F06D14FF0010C0CFA00FCC2F814C0AD
:100960000AE091F803C0BCF1480F05D14FF0010C2B
:100970000CFA00FCC2F810C0401C0828D1D3146047
:10098000B1F800C0BCF1FF0F34DD546800202EE048
:1009900000F1080C4FF0010808FA0CF3B1F800C0A0
:1009A0000CEA03069E4221D183004FF00F0C0CFA93
:1009B00003F7BC4305FA03FC4CEA040491F803C0B6
:1009C000BCF1280F05D100F1080C08FA0CF8C2F8A8
:1009D000148091F803C0BCF1480F07D100F1080C56
:1009E0004FF0010808FA0CF8C2F81080401C0828E3
:1009F000CED35460BDE8F081F0B50A460023002450
:100A00000021002500F00046B6F1004F02D11D4E36
:100A1000F16901E01B4E7168C0F3034583B200F435
:100A20004016B6F5401F08D121F07061154E76686A
:100A300026F07066134F7E6012E000F48016B6F563
:100A4000801F06D1032606FA05F4A14341F0706128
:100A500006E0460D360103FA06F6B14341F0706137
:100A600022B1460D360103FA06F6314300F0004686
:100A7000B6F1004F02D1034EF16101E0014E716009
:100A8000F0BD0000000001400246002093680B40CA
:100A90000BB1012000E00020704741617047016107
:100AA0007047000010B5044607230122214609487B
:100AB000FFF742FC01210748FFF79FFC00BF02211E
:100AC0000448FFF7FDFB0028F9D00248FFF7F4FBCC
:100AD00010BD0000002401402DE9F04107460C46FE
:100AE0000025002608E03846FFF7DCFF05446420B7
:100AF00002F014FC701CC6B2A642F4DBB5FBF4F0A5
:100B000080B2BDE8F08100BFFEE7000010B5002014
:100B100026490870012026490870264800780328D5
:100B200003D024480078042809D1234800780028FD
:100B300033DD21480078401E1F4908702DE01D4814
:100B4000007801280DD01B480078022809D01A48E7
:100B50000078012821DD18480078401E16490870E9
:100B60001BE015480078012817DD13480078401E67
:100B700011490870084600780A2804DC0846007805
:100B80000E49887006E00C4800780A21C1EB40004D
:100B90000A49887001200A4908700A4802880A48F0
:100BA000018805480078FFF740FD10BD6A0000206D
:100BB0006B000020330000203E00002036000020A3
:100BC000350000204C0000204A00002010B5002015
:100BD0002449087001202449087024480078092815
:100BE00009D1234800780F2833DA21480078401CC7
:100BF0001F4908702DE01D48007801280DD01B48C2
:100C00000078022809D01A480078082821DA184804
:100C10000078401C164908701BE0154800780F2822
:100C200017DA13480078401C11490870084600780C
:100C30000A2804DC084600780E49887006E00C4853
:100C400000780A21C1EB40000A49887001200A4956
:100C500008700A4802880A48018805480078FFF7AA
:100C6000E4FC10BD6A0000206B000020330000206F
:100C70003E00002036000020350000204C000020FF
:100C80004A00002008B501210D2001F0C9FA10200A
:100C90008DF8030003208DF802005020ADF800000D
:100CA00069460E48FFF71DFE50210C48FFF7F5FE80
:100CB00001210B48FFF7A0FE41F2FB20ADF8000038
:100CC00069460848FFF70DFE41F27B210548FFF712
:100CD000E4FE80210348FFF7E2FE08BD0008014062
:100CE00000023000000C014010B50E4800780128C9
:100CF00016D100200B4908700B49087803F0DCF886
:100D00000949487803F0D8F80749887803F0D4F8FF
:100D10000549C87803F0D0F80349087903F0CCF806
:100D200010BD0000350000203600002000BFFEE7A7
:100D300010B500200B49087001200B4908700B48C2
:100D40000078012804DD09480078401E0749087032
:100D5000074802880748018804480078FFF784FCA8
:100D600010BD00006A0000206B0000203F00002042
:100D7000500000204E00002010B500200B490870E4
:100D800001200B4908700B480078062804DA09484E
:100D90000078401C07490870074802880748018806
:100DA00004480078FFF760FC10BD00006A000020D6
:100DB0006B0000203F000020500000204E0000206B
:100DC000704710B54FF4A06000F03AF810BD000075
:100DD00070B5002100230F22C47804B3154C246899
:100DE00004F4E064C4F5E064210AC1F10403CA40DC
:100DF000447804FA03F184781440214309010E4C2D
:100E00000678A155047804F01F050124AC4005784C
:100E10006D11AD0005F1E025C5F8004109E0047849
:100E200004F01F050124AC40044D0678761145F806
:100E3000264070BD0CED00E000E400E080E100E041
:100E400002490143024A1160704700000000FA05A0
:100E50000CED00E010B5BAB10E4B1B885B1C9BB2C9
:100E60000C4C23804418A34202DB0023094C23804E
:100E7000084B1B88834203DA0023074C236008E0F9
:100E80000123054C236004E00023024C2380024C24
:100E9000236010BD700000209801214210B54FF46E
:100EA000E160624908800120614908706149087069
:100EB0006148007820F001005F4908704FF48870A5
:100EC0005E49088040F21F105D4908804FF496701B
:100ED0005C4908808E205C49088040F23F105B49E5
:100EE0000880D3205A490880102002F0E9FA5948B6
:100EF00083884288012102F095FA514802884F48C0
:100F000001884A48008802F0F1FC4F4802884D48A9
:100F1000018847480078FFF788FB4D4802884B4816
:100F2000018844480078FFF79FFB02F01DFA102269
:100F30000021494802F0A4FB12220021474802F098
:100F40009FFB11220021464802F09AFB1322002148
:100F5000444802F095FB14220021434802F090FB24
:100F600021220021414802F08BFB20220021404831
:100F700002F086FB312200213E4802F081FB322242
:100F800000213D4802F07CFB332200213B4802F067
:100F900077FB342200213A4802F072FB392200210B
:100FA000384802F06DFB3A220021374802F068FB16
:100FB00030E002F0FBFA35480078092810D01E48CE
:100FC000007820F00100401C1B490870084600789A
:100FD00020F0080008700846007820F02000087013
:100FE00002F0C0F814480078C0F3C00010B9052022
:100FF00002F06EF910480078C0F3001050B10E48AE
:10100000007820F010000C49087001202049087079
:10101000FFF76AFE0848007800F001000028C8D0F9
:1010200002F058FC02F0C2FA10BD00003C000020A3
:101030003E0000203F00002032000020460000203B
:10104000480000204A0000204C0000204E000020F4
:1010500050000020523F0008653B00089D3A000800
:10106000C53B0008953B00086D3A0008F5260008CE
:1010700019210008552E00080D2E0008CD0B000880
:101080000D0B0008790D0008310D00083300002019
:101090003500002010B500208C4908704FF4E16045
:1010A0008B49088001208B49087002208A494870CA
:1010B0008848007888700020C8708848007820F040
:1010C0000100864908704FF48870854908804FF404
:1010D0008170844908804FF4967083490880BB2052
:1010E000824908800E2002F0EBF98148838842880B
:1010F000012102F097F97B480288794801887448F9
:10110000008802F0F3FB794802887748018871482B
:101110000078FFF78AFA02F027F9102200217548BB
:1011200002F0AEFA12220021734802F0A9FA11224D
:101130000021724802F0A4FA13220021704802F044
:101140009FFA142200216F4802F09AFA212200210E
:101150006D4802F095FA202200216C4802F090FAC6
:10116000312200216A4802F08BFA322200216948BC
:1011700002F086FA33220021674802F081FA342215
:101180000021664802F07CFA94E002F00FFA64480D
:101190000078022817D001204C4908704F48007889
:1011A00020F00100401C4D49087000204A49C870D9
:1011B0004A48007820F0080048490870084600783E
:1011C00020F02000087001F0CDFF44480078C0F303
:1011D000001050B14148007820F010003F490870DD
:1011E00001203A490870FFF77FFD3C480078C0F3C2
:1011F000400000285ED03948007820F002003749CE
:10120000087048480078EE2823D10020464908702D
:10121000072046490870464883884288012102F029
:1012200001F9334883884288012102F0FBF800204D
:101230002949C8702948007820F00800274908701B
:101240000846007820F02000087001201F4908702F
:1012500030E034480078A02812D120480078C0F34C
:10126000C00068B11D48007820F0200020301B49E4
:10127000087000202C49087001202C49087019E0E2
:1012800028480078A12815D114480078C0F3C00080
:1012900080B112480078C0F3401058B10F48007870
:1012A00020F020000D49087000201F49087001201F
:1012B0001E4908700948007800F0010000283FF43A
:1012C00064AF02F007FB02F071F910BD3500002099
:1012D0003C0000203E0000203600002032000020AC
:1012E00046000020480000204A0000204C0000205A
:1012F000523F0008653B00089D3A0008C53B0008C6
:10130000953B00086D3A0008F526000819210008F1
:10131000552E00080D2E0008CD0B00080D0B0008FF
:1013200033000020610000206A0000206B000020D4
:10133000663F000810B500208A4908704FF4E1604C
:10134000894908800120894908708949487087487F
:10135000007888700020C8708648007820F001006E
:10136000844908704FF48870834908804FF4817075
:10137000824908804FF4967081490880BB208149DA
:101380000880814883884288012102F04BF87B481D
:101390000288794801887448008802F0A7FA7948E1
:1013A00002887748018871480078FFF73EF901F01C
:1013B000DBFF10220021754802F062F912220021A1
:1013C000734802F05DF911220021724802F058F9C9
:1013D00013220021704802F053F9142200216F48B3
:1013E00002F04EF9212200216D4802F049F9202235
:1013F00000216C4802F044F9312200216A4802F0D1
:101400003FF932220021694802F03AF933220021E3
:10141000674802F035F934220021664802F030F9BD
:1014200094E002F0C3F864480078072817D0012040
:101430004C4908704F48007820F00100401C4D498D
:10144000087000204A49C8704A48007820F0080017
:10145000484908700846007820F02000087001F024
:1014600081FE44480078C0F3001050B14148007834
:1014700020F010003F49087001203A490870FFF73A
:1014800033FC3C480078C0F3400000285ED0394867
:10149000007820F002003749087048480078EE28AC
:1014A00023D1002046490870072046490870464865
:1014B00083884288012101F0B5FF33488388428840
:1014C000012101F0AFFF00202949C87029480078A8
:1014D00020F00800274908700846007820F0200016
:1014E000087001201F49087030E034480078A028B7
:1014F00012D120480078C0F3C00068B11D480078C0
:1015000020F0200020301B49087000202C49087072
:1015100001202C49087019E028480078A12815D12D
:1015200014480078C0F3C00080B112480078C0F3BE
:10153000401058B10F48007820F020000D49087085
:1015400000201F49087001201E49087009480078D2
:1015500000F0010000283FF464AF02F0BBF902F094
:1015600025F810BD350000203C0000203E00002082
:1015700036000020320000204600002048000020F5
:101580004A0000204C000020523F0008653B000844
:101590009D3A0008C53B0008953B00086D3A0008DD
:1015A000F526000819210008552E00080D2E000808
:1015B000CD0B00080D0B0008330000206100002057
:1015C0006A0000206B000020663F000810B5002074
:1015D0008C4908704FF4E1608B49088001208B49E9
:1015E00008708B4948708948007888700020C8705E
:1015F0008848007820F00100864908704FF4887010
:10160000854908804FF48170844908804FF49670B2
:1016100083490880BB20834908800C2001F050FFDB
:10162000814883884288012101F0FCFE7B480288C2
:10163000794801887448008802F058F9794802888E
:101640007748018871480078FEF7EFFF01F08CFEC3
:1016500010220021754802F013F81222002174486C
:1016600002F00EF811220021724802F009F813224C
:101670000021714802F004F8142200216F4801F0A3
:10168000FFFF212200216E4801F0FAFF20220021F5
:101690006C4801F0F5FF312200216B4801F0F0FFAA
:1016A00032220021694801F0EBFF33220021684813
:1016B00001F0E6FF34220021664801F0E1FF94E0EA
:1016C00001F074FF64480078012817D001204D49CB
:1016D00008705048007820F00100401C4D49087007
:1016E00000204B49C8704B48007820F00800494959
:1016F00008700846007820F02000087001F032FDE4
:1017000044480078C0F3001050B14248007820F0FF
:1017100010004049087001203A490870FFF7E4FAC8
:101720003C480078C0F3400000285ED0394800787B
:1017300020F002003749087048480078EE2823D18D
:1017400000204749087007204649087046488388AA
:101750004288012101F066FE3348838842880121D6
:1017600001F060FE00202A49C8702A48007820F065
:101770000800284908700846007820F0200008700A
:1017800001202049087030E034480078A02812D1A8
:1017900020480078C0F3C00068B11E48007820F0EF
:1017A000200020301B49087000202D4908700120BE
:1017B0002C49087019E029480078A12815D115484E
:1017C0000078C0F3C00080B112480078C0F3401028
:1017D00058B11048007820F020000E490870002011
:1017E0001F49087001201F4908700A48007800F05E
:1017F000010000283FF464AF02F06CF801F0D6FE5F
:1018000010BD0000350000203C0000203E000020FC
:101810003600002032000020460000204800002052
:101820004A0000204C000020523F0008653B0008A1
:101830009D3A0008C53B0008953B00086D3A00083A
:10184000F526000819210008552E00080D2E000865
:10185000CD0B00080D0B00083300002061000020B4
:101860006A0000206B000020663F000810B5304879
:10187000007820F001002E490870562340F24922DA
:101880000221012001F0E8FD322340F24922082123
:10189000012001F0E1FD2E2340F249220E2101201A
:1018A00001F0DAFD332340F249221421012001F036
:1018B000D3FD2048007830B11F488388428800213A
:1018C00001F0B0FD05E01D4883884288002101F049
:1018D000A9FD01F049FD41220021194801F0D0FE87
:1018E00042220021174801F0CBFE45220021164874
:1018F00001F0C6FE11E001F059FE0D480078C0F37A
:10190000001050B10A48007820F010000849087013
:1019100001200E490870FFF7E7F90548007800F04C
:1019200001000028E7D001F0D5FF01F03FFE10BD17
:1019300032000020400000207A3F00085C3F000891
:10194000CD3A0008193B0008F53B0008350000209F
:1019500010B52748007820F001002549087001F0F3
:1019600003FD10220021234801F08AFE12220021EB
:10197000214801F085FE11220021204801F080FE5F
:10198000132200211E4801F07BFE142200211D4875
:1019900001F076FE442200211B4801F071FE1CE09C
:1019A00001F004FE19480078052806D01048007898
:1019B00020F00100401C0E4908700D480078C0F36B
:1019C000001050B10A48007820F010000849087053
:1019D00001200F490870FFF787F90548007800F0EB
:1019E00001000028DCD001F075FF01F0DFFD10BD23
:1019F00032000020653B00089D3A0008C53B000806
:101A0000953B00086D3A0008890500083300002066
:101A10003500002010B500207F4908604FF4E160D8
:101A20007E49088000207E49087001207D490870A9
:101A300005207D4908807D4908807D48007820F098
:101A400001007B4908704FF488707A49088040F2A1
:101A50003510794908804FF4967078490880EA205B
:101A6000774908804FF4967076490880A52076491A
:101A700008804FF49670754908805D20744908808D
:101A80000D2001F01DFD734883884288012101F07B
:101A9000C9FC69480288674801886048008801F0ED
:101AA00025FF67480288654801885D480078FEF791
:101AB000BCFD65480288634801885B480088FEF7E2
:101AC000E0FD634802886148018858480088FEF7B5
:101AD000D8FD01F049FC102200215F4801F0D0FD43
:101AE000122200215D4801F0CBFD112200215C484B
:101AF00001F0C6FD132200215A4801F0C1FD142255
:101B00000021594801F0BCFD21220021574801F075
:101B1000B7FD20220021564801F0B2FD31220021FC
:101B2000544801F0ADFD32220021534801F0A8FDD8
:101B300033220021514801F0A3FD342200215048F6
:101B400001F09EFD372200214E4801F099FD382218
:101B500000214D4801F094FD352200214B4801F051
:101B60008FFD362200214A4801F08AFD46E001F04F
:101B70001DFD48480078032810D02D48007820F03B
:101B80000100401C2A4908700846007820F008002F
:101B900008700846007820F02000087001F0E2FA92
:101BA00023480078C0F3C00060B106210720FEF78B
:101BB00093FF3949088001F06FF801201649083178
:101BC00008600BE000201449091F08603349C1F880
:101BD00098011149083108603149087014480078AB
:101BE000C0F3001050B11248007820F010001049E6
:101BF000087001202B490870FFF776F80C48007830
:101C000000F001000028B2D000200349086001F074
:101C100061FE01F0CBFC10BD848121423C0000201C
:101C20003E0000203F000020440000204200002031
:101C30003200002046000020480000204A0000201A
:101C40004C000020560000205800002052000020C8
:101C500054000020523F0008653B00089D3A0008F0
:101C6000C53B0008953B00086D3A0008F5260008C2
:101C700019210008552E00080D2E0008CD0B000874
:101C80000D0B000841240008F92300080128000872
:101C9000B9270008330000205A000020000021422C
:101CA0005C0000203500002038B50025002400200D
:101CB000C54908700120C54908604FF4E160C44976
:101CC00008800020C34908700120C349087005201E
:101CD000C2490880C2490880C248007820F001004B
:101CE000C04908704FF48870BF49088040F2351031
:101CF000BE4908804FF49670BD490880EA20BD496E
:101D000008804FF49670BC490880A520BB49088024
:101D10004FF49670BA4908805D20BA4908800F20B8
:101D200001F0CEFBB84883884288012101F07AFB9C
:101D3000AE480288AC480188A548008801F0D6FD6D
:101D4000AC480288AA480188A2480078FEF76DFCDA
:101D5000AA480288A8480188A0480088FEF791FC9C
:101D6000A8480288A64801889D480088FEF789FC9B
:101D700001F0FAFA10220021A44801F081FC12229D
:101D80000021A34801F07CFC11220021A14801F0B0
:101D900077FC13220021A04801F072FC14220021DC
:101DA0009E4801F06DFC212200219D4801F068FC55
:101DB000202200219B4801F063FC312200219A4837
:101DC00001F05EFC32220021984801F059FC3322D8
:101DD0000021974801F054FC34220021954801F07D
:101DE0004FFC37220021944801F04AFC38220021A0
:101DF000924801F045FC35220021914801F040FC59
:101E0000362200218F4801F03BFC00208DF80000B5
:101E10008DF80100684600F0D3FB642001F058FA09
:101E2000002069490870BFE001F0C0FB86480078D7
:101E300004281BD06B48007820F00100401C694941
:101E400008700846007820F00800087008460078FE
:101E500020F020000870642001F03AFA00208DF88C
:101E600000008DF80100684600F0AAFB01F07AF945
:101E70005C480078C0F3C00030B100F071FF012071
:101E80005249083108600BE00020504920310860B9
:101E90006E49C1F898014D49083108606C490870D5
:101EA00050480078C0F3801000B34E48007800F02E
:101EB0000100D8B94B48007820F04000494908702B
:101EC000681CC0B2054664281ADB00254448007827
:101ED0008DF80000414800788DF80100601CC0B208
:101EE0000446322803DC684600F06AFB08E0332C25
:101EF00005D100205749087007205749087064240D
:101F00003148007800283FD03648007800F00100C2
:101F100010BB00202C490870002408464078A028F7
:101F20002AD108468078032802D100F089FA2BE0F4
:101F300025488078042802D100F05EFA24E0224887
:101F40008078012802D100F05BFC1DE01E488078FB
:101F5000022802D100F030FC16E01B4880780528EA
:101F600012D120480078C0F3401010B100F0D4F82E
:101F70000AE000F0BFFB07E01348C07812498978F7
:101F800000EB01203549088016480078C0F30010A6
:101F900050B11448007820F0100012490870012058
:101FA0002F490870FEF7A0FE0E48007800F00100EF
:101FB00000283FF439AF00200449086001F08AFC92
:101FC00001F0F4FA38BD000066000020848121424F
:101FD0003C0000203E0000203F0000204400002084
:101FE000420000203200002046000020480000206F
:101FF0004A0000204C00002056000020580000201D
:102000005200002054000020523F0008653B0008A9
:102010009D3A0008C53B0008953B00086D3A000852
:10202000F526000819210008552E00080D2E00087D
:10203000CD0B00080D0B000841240008F92300080F
:1020400001280008B92700083300002000002142C1
:10205000600000206A0000206B0000205E0000206D
:10206000350000203EB533247825002001F01AFA0F
:102070002748007820F001002549087001F074F924
:1020800043220021234801F0FBFA35E001F08EFAEB
:102090001F48007800F0010030B1FA2001F018F973
:1020A0000B2001F00DFA27E03A2C0DDB4320FA213A
:1020B0004FF402724FF40773CDE9002102900246FB
:1020C000204601F057F90CE03620002140F2192299
:1020D00040F2F323CDE9002102900246204601F0B0
:1020E00049F9284601F0F4F8482C00D13A24412C53
:1020F00000D1C825601CC4B20548007800F001007A
:102100000028C3D001F0E6FB01F050FA3EBD00000C
:10211000320000209D07000810B5022021490870F8
:102120000320214908702148007801281BD01F484E
:102130000078022817D01E48007820F008001C49BB
:1021400008700846007820F020000870194883883D
:102150004288012101F066F91748838842880121ED
:1021600001F060F91CE000201449C87010480078A4
:1021700020F008000E4908700846007820F0200082
:10218000087001200E4908700A488388428801219E
:1021900001F048F9084883884288012101F042F99A
:1021A00010BD00006A0000206B00002033000020FA
:1021B00032000020663F0008523F00083600002031
:1021C000350000207047000001460020034A506897
:1021D00020F4404008435060704700000010024067
:1021E00029B1064AD2690243044BDA6104E0034A8A
:1021F000D2698243014BDA6170470000001002404F
:1022000029B1064A12690243044B1A6104E0034AE9
:1022100012698243014B1A617047000000100240AE
:1022200029B1064A92690243044B9A6104E0034AC9
:1022300092698243014B9A6170470000001002408E
:1022400029B1064AD2680243044BDA6004E0034A2B
:10225000D2688243014BDA607047000000100240F0
:1022600030B500210022002400232D4D6D6805F0BB
:102270000C0121B1042905D0082923D105E0294DFD
:10228000056022E0274D05601FE0254D6D6805F4CF
:102290007012234D6D6805F48034022505EB9242DF
:1022A0001CB9214D554305600BE01D4D6D6805F4CB
:1022B00000351DB11C4D5543056002E0194D5543D5
:1022C000056002E0174D056000BF00BF144D6D684A
:1022D00005F0F0010909154D6B5C0568DD404560AE
:1022E0000F4D6D6805F4E061090A104D6B5C45689F
:1022F000DD4085600A4D6D6805F46051C90A0B4DDB
:102300006B5C4568DD40C560054D6D6805F4404176
:10231000890B074D6B5CC568B5FBF3F5056130BDF6
:102320000010024000127A0000093D001400002055
:102330002400002000212E4A1278062A52D2DFE81B
:1023400002F0030B172A323AAA2804D1284A12783D
:10235000521C274B1A7049E0012805D1244A1278F3
:10236000521C234B1A7002E00022214B1A703DE0F0
:102370001F4A1278521C1E4B1A70A02802D11D4A07
:10238000507007E0A12802D11A4A507002E00022E2
:10239000174B1A702AE0174A9070154A1278521C8F
:1023A000134B1A7022E0134AD070114A1278521C53
:1023B0000F4B1A701AE00F4A5278AB320D4B9B78D4
:1023C0001A440C4BDB781A44D1B2814203D101226A
:1023D000084B1A7002E00022064B1A700022044BD0
:1023E0001A7003E00022024B1A7000BF00BF704752
:1023F0007C0000206600002010B500200B4908700A
:1024000001200B4908700B480088002804DD0948AA
:102410000088401E0749088007480288074801884D
:1024200004480088FEF72DF910BD00006A00002066
:102430006B000020440000205800002056000020BF
:1024400010B500200B49087001200B4908700B489B
:1024500000880A2804DA09480088401C07490880D7
:10246000074802880748018804480088FEF709F9F0
:1024700010BD00006A0000206B0000204400002016
:10248000580000205600002030B503460C46154683
:10249000002207E0184600F008F824F812009B1C00
:1024A000501C82B2AA42F5DB30BD01460888704755
:1024B0002DE9F05F80468A461746B8F1006F02D3D7
:1024C0003348804501D3BDE8F09FFEF7EBF9A8F152
:1024D000006B4FEA9B25CBF34809C9F50074A7426E
:1024E00000DC3C464DE04FF0006101EB85208A1492
:1024F0002849FFF7C9FF00260BE009EB0600254934
:1025000031F810004FF6FF71884200D003E0701CD4
:1025100086B2A642F1DB00BFA6421BDA4FF0006193
:1025200001EB8520FEF754F9002608E03AF8160082
:1025300006EB0901174A22F81100701C86B2A64268
:10254000F4DB4FF0006101EB85208A14114900F0A3
:1025500023F804E022465146404600F01DF8A74209
:1025600000D10FE06D1C4FF000090AEB440AA044B3
:10257000381B87B2B7F5007F02DD4FF4007400E02E
:102580003C46B0E700BFFEF763F900BF9BE70000E1
:1025900000000108980000202DE9F04105460E4694
:1025A0001746002407E036F814102846FEF75AF9BB
:1025B000AD1C601C84B2BC42F5DBBDE8F081704705
:1025C00070B50446207800F26B1061780844C5B2FB
:1025D00001200C490860AA2001F09EFC012001F0B6
:1025E0009BFCC02001F098FC207801F095FC6078FD
:1025F00001F092FC284601F08FFC00200249C1F84E
:10260000B00170BDB08121420080214210B500F0C0
:1026100001F810BD0CB5002001900090334800680F
:1026200040F480303149086000BF3048006800F451
:10263000003000900198401C0190009818B9019852
:10264000B0F5A06FF1D12948006800F4003010B156
:102650000120009001E0002000900098012843D163
:102660002348006840F010002149086008460068CF
:1026700020F0030008600846006840F0020008608F
:102680001A4840681949486008464068486008464A
:10269000406840F4806048600846406820F47C1040
:1026A00048600846406840F4E81048600846006802
:1026B00040F08070086000BF0C48006800F00070B7
:1026C0000028F9D00948406820F003000749486015
:1026D0000846406840F00200486000BF0348406878
:1026E00000F00C000828F9D10CBD000000100240D9
:1026F0000020024010B501202649087026490870C4
:1027000026480078012824D024480078022820D0C8
:102710002348007820F00800083021490870084656
:10272000007820F02000203008701E4883884288FE
:10273000012100F077FE1C4883884288012100F0C7
:1027400071FE1A48008818BB4FF4E16017490880F1
:102750001EE00120164908701649C870104800781C
:1027600020F0080008300E4908700E48838842881F
:10277000012100F057FE0C4883884288012100F0B7
:1027800051FE0A48008818B94FF4E16007490880F3
:1027900010BD00006A0000206B0000203300002004
:1027A00032000020483F0008703F00083C00002035
:1027B000350000203600002010B500200B490870BD
:1027C00001200B4908700B480088002804DD0948E7
:1027D0000088401E0749088007480288074801888A
:1027E00004480088FDF74DFF10BD00006A0000207E
:1027F0006B00002042000020540000205200002006
:1028000010B500200B49087001200B4908700B48D7
:1028100000880A2804DA09480088401C0749088013
:10282000074802880748018804480088FDF729FF07
:1028300010BD00006A0000206B0000204200002054
:102840005400002052000020042808D14FF0E0215D
:10285000096941F004014FF0E022116107E04FF0F7
:10286000E021096921F004014FF0E0221161704775
:102870007047000010B51348006840F0010011498E
:10288000086008464068104908400E4948600846FC
:1028900000680E4908400B4908600846006820F4AB
:1028A000802008600846406820F4FE0048604FF42D
:1028B0001F008860FFF7AAFE4FF00060044908601F
:1028C00010BD0000001002400000FFF8FFFFF6FE00
:1028D00008ED00E010B50121364800F014F9002899
:1028E00067D00121334800F0FFF833480078092809
:1028F0000FD132480078C0F3C00131480078FDF7AD
:10290000D3FD2E480078C0F3C0012E480078FDF7B3
:10291000FFFD2D480088401C80B22B490880B0F58F
:10292000FA6F08DB002008802448007820F01000AF
:1029300010302249087025480088401C80B2234985
:1029400008800A280ADB002008801C48007820F054
:102950004000403019490870FDF726FE1C480088E9
:10296000401C80B21A49088042F21071884220DB74
:1029700011480078032803D00F480078042809D1B3
:102980000E480078C0F3C00212480188124800883F
:10299000FEF760FA09480078C0F3401048B1002003
:1029A0000B4908800548007820F00400001D034909
:1029B000087010BD000400403300002032000020E9
:1029C0003F0000203E0000202E00002030000020AC
:1029D0002C00002044000020420000207FB5054666
:1029E0000C4601210220FFF7FBFBADF80850ADF8C3
:1029F00004400020ADF80A00ADF8060001A90E4819
:102A000000F0F8F8012211460B4800F08DF81D2067
:102A10008DF8000002208DF8010003208DF80200DF
:102A200001208DF803006846FEF7D2F90121024823
:102A300000F05DF87FBD00000004004030B589B0B3
:102A400005460C4601210420FFF7CAFB012108209E
:102A5000FFF7E6FB4FF48070ADF8200018208DF8EA
:102A6000230003208DF8220008A91748FDF739FF3D
:102A7000ADF81850ADF814400020ADF81A00ADF8CC
:102A8000160005A9114800F0B5F87020ADF8040053
:102A90000120ADF806000020ADF80A000220ADF8D4
:102AA0000C0001A9094800F049F80821074800F086
:102AB00095F80121054800F00BF80121034800F0CA
:102AC00016F809B030BD0000000C014000080040BD
:102AD00021B1028842F08002028004E002884FF6B1
:102AE0007F731A4002807047CA430282704721B147
:102AF000028842F00102028004E002884FF6FE7371
:102B00001A400280704730B502460020002300249E
:102B1000158A05EA0103958905EA010413B10CB190
:102B2000012000E0002030BD1AB183890B4383816E
:102B300002E083898B4383817047000070B50024D5
:102B400000220023058C4FF6FF6635400584028C79
:102B50008388848B4FF68F752C404FF6FC752C4084
:102B60000D882C434FF6FF552A400D894FF6FF760E
:102B700006EA05252A434D8806EA05252A43154D10
:102B8000A84202D0144DA8421DD14FF2FF752A4031
:102B90004D894FF6FF7606EA05252A434FF6FF35A5
:102BA0002A408D8806EA05252A434EF6FF752B40FC
:102BB0004DF6FF752B408D8906EA05152B43CD890F
:102BC00006EA05152B4383808483CD88858702849C
:102BD00070BD0000002C0140003401400A46002175
:102BE000818B4FF6F77319401143818370478187BA
:102BF00070470000002202881D4B98420ED01D4BEA
:102C000098420BD0B0F1804F08D01B4B984205D0B2
:102C10001A4B984202D01A4B984204D14FF68F7348
:102C20001A404B881A43174B984207D0164B9842CC
:102C300004D04FF6FF431A40CB881A4302808B889A
:102C400083850B8803850A4B98420BD0094B984229
:102C500008D00E4B984205D00D4B984202D00D4B38
:102C6000984201D10B7A03860123838270470000CA
:102C7000002C0140003401400004004000080040E6
:102C8000000C0040001000400014004000400140D3
:102C9000004401400048014029480088B0F57A6F9F
:102CA00003DA2748008864281CDC26480088401C7A
:102CB00080B22449088042F2107188423EDB084607
:102CC0002049088020480078002837D101201E497B
:102CD000087000201D4908601D49087007201D4923
:102CE00008702BE017480088192805DB1548008874
:102CF00019381449088002E0002012490880114860
:102D0000008810B900201049087013481349097849
:102D100030F8110010300A490988884202DC01208D
:102D20000A4908600C480D49097830F81100044937
:102D30000988884202DB00200449086070470000CF
:102D40005A0000206C0000205C000020808121429D
:102D50006A0000206B000020843F00083E00002035
:102D6000244800884FF6FF71884216D12248008817
:102D7000401C80B22049088042F21071884238DB42
:102D800008461D4908801D48007890BB01201B495A
:102D9000087000201A4908602BE01748008819289D
:102DA00005DB1548008819381349088002E0002027
:102DB000114908801048008810B900200F49087098
:102DC00010481149097830F811000A380949098872
:102DD000884202DB01200A4908600A480A4909784A
:102DE00030F8110003490988884202DC00200449B8
:102DF000086070475E0000206E0000206000002028
:102E0000A4812142963F00083E00002010B500201A
:102E10000B49087001200B4908700B4800883C28BA
:102E200004DD094800883C380749088007480288C3
:102E3000074801880448008800F058FD10BD0000D4
:102E40006A0000206B0000203C00002048000020A9
:102E50004600002010B500200B49087001200B49E6
:102E600008700B480088B0F5616F04DA08480088E4
:102E70003C30074908800748028807480188044811
:102E8000008800F033FD10BD6A0000206B000020B8
:102E90003C000020480000204600002010B540F211
:102EA0002551064800F097F830B1044800F04EF97B
:102EB000C4B2204600F0BCF910BD0000003801404B
:102EC00010B540F22551064800F085F830B10448AD
:102ED00000F03CF9C4B2204600F0FAFB10BD00003F
:102EE0000044004010B540F22551064800F073F848
:102EF00030B1044800F02AF9C4B22046FFF71AFAAC
:102F000010BD00000048004021B1828942F4005207
:102F1000828104E082894DF6FF731A4082817047F6
:102F200010B504462048844209D101218803FFF7E7
:102F300087F900214FF48040FFF782F932E01B4807
:102F4000844209D101214804FFF75AF900214FF4C6
:102F50000030FFF755F925E01548844209D10121D9
:102F60008804FFF74DF900214FF48020FFF748F95E
:102F700018E01048844209D10121C804FFF740F944
:102F800000214FF40020FFF73BF90BE00A48844290
:102F900008D101210805FFF733F900214FF4801013
:102FA000FFF72EF910BD000000380140004400403A
:102FB00000480040004C0040005000400246002005
:102FC000B1F5007F00D100BF13880B400BB1012089
:102FD00000E00020704770B5024600240023002561
:102FE000002040F66A16B14200D100BFC1F342157D
:102FF00001F01F03012606FA03F3012D02D1968981
:10300000334006E0022D02D1168A334001E0968A51
:1030100033400C12012606FA04F41688344013B12A
:103020000CB1012000E0002070BDF0B50346002483
:1030300000260025002040F66A17B94200D100BFE3
:103040001846C1F3421401F01F06012707FA06F5DE
:10305000012C01D10C3004E0022C01D1103000E031
:1030600014301AB107682F43076002E00768AF43C6
:103070000760F0BD2DE9F04786B005460E460024F6
:10308000A24600BFA1460027B08900B100BF2F466D
:103090002C8A4CF6FF700440F08804432C82AC89E3
:1030A0004EF6F3100440B088318908437189084313
:1030B0000443AC81AC8A4FF6FF400440B08904431E
:1030C000AC8201A8FFF7CCF81F48874202D1DDF897
:1030D00010A001E0DDF80CA0A88900F4004040B188
:1030E0000AEBCA0000EB0A1031684900B0FBF1F8A6
:1030F00007E00AEBCA0000EB0A1031688900B0FB58
:10310000F1F86420B8FBF0F004012009642101FB10
:103110001089A88900F4004040B1322000EBC900BA
:10312000B0FBF1F000F00700044308E0322000EBB0
:1031300009106421B0FBF1F000F00F0004432C8172
:1031400006B0BDE8F08700000038014001468888DD
:10315000C0F308007047C1F308028280704700BFC7
:10316000FEE7000010B526480078C0F340100028A4
:1031700044D023480078C0F3800000283ED0204887
:10318000007820F004001E4908701E4800880028BE
:1031900005DD1C480088401E1A49088026E00220F0
:1031A000194908700320194908704FF4E160154966
:1031B0000880174883884288012100F033F91548B8
:1031C00083884288012100F02DF90D48007820F015
:1031D00020000B4908700846007820F008000870AD
:1031E00000200D49C87001200C4908700C48028865
:1031F0000C4801880348008800F078FB10BD0000EF
:10320000320000203C0000206A0000206B000020FB
:10321000663F0008523F00083600002035000020BD
:103220004800002046000020014600BF7047000013
:103230001349097839B9AA2820D111490978491CBC
:103240000F4A11701AE00E49097802290ADA0C496E
:103250000978491E0B4A505409490978491C084A03
:1032600011700BE00021064A1170552806D106495D
:10327000097821F00201891C034A1170704700008F
:103280007B000020610000203200002010B56FF0AC
:103290000400FFF7D9FA0A4800680A49B0FBF1F0C8
:1032A000094908700846007800EB4001C1EBC010E6
:1032B0004FF6FF7101EAC0000449088010BD00000C
:1032C0000000002000127A00280000202A000020C0
:1032D0000146114A12884A434FF0E0235A61002206
:1032E0009A611A46126942F001021A6100BF4FF05A
:1032F000E022106900F001021AB100F48032002AC5
:10330000F5D04FF0E022126922F001024FF0E023E5
:103310001A6100229A6170472A0000200146114A72
:1033200012784A434FF0E0235A6100229A611A460C
:10333000126942F001021A6100BF4FF0E0221069E9
:1033400000F001021AB100F48032002AF5D04FF0EB
:10335000E022126922F001024FF0E0231A610022FC
:103360009A617047280000200020014908707047CA
:10337000850000202DE9F04782460C4615461E4682
:10338000DDE90989089FAA2000F048FA712000F0C1
:1033900045FA504600F042FA201200F03FFAE0B23F
:1033A00000F03CFA281200F039FAE8B200F036FAE0
:1033B000301200F033FAF0B200F030FA381200F0B8
:1033C0002DFAF8B200F02AFA4FEA282000F026FA87
:1033D00008F0FF0000F022FA4FEA292000F01EFA60
:1033E00009F0FF0000F01AFA00F01EFABDE8F087BD
:1033F0002DE9FE4F04460D4616461F46DDE90D9A9F
:10340000DDF8308006498DE8000709782144C8B20C
:103410003B4632462946FFF7ADFFBDE8FE8F000070
:1034200084000020FEB504460F4615461E464FB1E7
:1034300020898DE86100E388A28861882078FFF701
:10344000D7FF08E020898DE86100E388A2886188C1
:103450002078FFF78FFFFEBDF8B505460E461746EC
:103460001C46002000908DF800406B463A463146DD
:10347000284600F031F8F8BDF8B505460E46174667
:103480001C460A2C0DDA0020009004F13000C0B276
:103490008DF800006B463A463146284600F01CF88D
:1034A00000BFF8BD10B50446AA2000F0B7F970209F
:1034B00000F0B4F9204600F0B1F900F0B5F910BD04
:1034C00010B50446034909782144C8B2FFF7EAFF62
:1034D00010BD0000840000202DE9F04104460D4697
:1034E00016461F464FF00008AA2000F097F9062C58
:1034F0001CD2DFE804F003070B0F1317532000F072
:103500008DF913E06E2000F089F90FE0542000F0EF
:1035100085F90BE06F2000F081F907E0552000F0FD
:103520007DF903E0982000F079F900BF00BF281270
:1035300000F074F9E8B200F071F9301200F06EF9A1
:10354000F0B200F06BF9052C1AD1242000F066F9D6
:10355000812000F063F9052000F060F91149098825
:10356000081200F05BF90F49087800F057F90E498E
:103570000988081200F052F90B49087800F04EF95A
:1035800007E017F8080000F049F908F1010000F021
:10359000FF0817F808000028F3D100F045F9BDE84E
:1035A000F0810000860000208800002010B5002473
:1035B00000F088F8792839D12C480078B0BB012078
:1035C0002A4908702A4800792949C97800EB012066
:1035D00084B20020274908700DE027482549097862
:1035E00000EB01108089A04200D10AE02148007858
:1035F000401C204908701F480078204909788842FB
:10360000EBDB00BF1B4800781C49097888420DDAC3
:1036100019481849097800EB0110006830B11649C3
:10362000144A127801EB02110868804700F04AF84A
:1036300078281AD10D480078012816D100200B49AE
:1036400008700C4800780D49097888420DDA0A485C
:103650000849097800EB0110406830B10649054A75
:10366000127801EB02114868804710BD92000020DB
:103670009804002093000020A4040020850000206E
:1036800010B50E4B1B781E2B16DA0D4B0B4C247805
:1036900003EB041318600A4B084C247803EB041363
:1036A0005960074B054C247803EB04139A81034BB4
:1036B0001B785B1C014C237010BD000085000020AE
:1036C000A4040020014800787047000098040020FE
:1036D0004F4909780A2971D2DFE801F0050D444C01
:1036E000545C64717D89AA2804D149490978491C30
:1036F000474A117089E0732807D145490978491C68
:10370000434A1170434908702BE0722806D100210A
:103710003F4A11707221404A117022E0E42805D11D
:1037200004213B4A11703B4908701AE030B900216E
:10373000374A11707421384A117012E0792805D186
:103740000421334A1170334908700AE0782805D102
:1037500004212F4A11702F49087002E000212C4AE1
:10376000117052E02C49487029490978491C284AAF
:1037700011704AE02849887025490978491C244A73
:10378000117042E02449C87021490978491C204A37
:1037900011703AE0204908711D490978491C1C4AFA
:1037A000117032E0CC2805D119490978491C184A12
:1037B000117002E00021164A117026E021E0332842
:1037C00005D113490978491C114A117002E0002102
:1037D0000F4A117019E0C32805D10D490978491C19
:1037E0000B4A117002E00021094A11700DE03C28DB
:1037F00006D10021064A117006490978064A11705F
:1038000003E00021024A117000BF00BF70470000B2
:1038100094000020950000209804002010B5044674
:10382000204600F061FB10BD10B5CC20FFF7F6FF7D
:103830003320FFF7F3FFC320FFF7F0FF3C20FFF733
:10384000EDFF10BD70B504460D460C4804800C48D1
:103850000580AA20FFF7E2FF4020FFF7DFFF2012DC
:10386000FFF7DCFFE0B2FFF7D9FF2812FFF7D6FF22
:10387000E8B2FFF7D3FFFFF7D7FF70BD8600002047
:103880008800002018B90021074A11700AE01428A6
:1038900003D11421044A117004E0462802D14621C4
:1038A000014A1170704700008400002010B5AA2062
:1038B000FFF7B4FF3020FFF7B1FF0020FFF7AEFFA6
:1038C0000020FFF7ABFF0020FFF7A8FFFFF7ACFFDA
:1038D00010BD000000BF04480078722803D00248E1
:1038E00000787828F7D17047980400202DE9F0413E
:1038F00004460D4616464FF4167094FBF0F0C7B21E
:103900003B46324629460520FFF7B6FD3C2094FB96
:10391000F0F00A2190FBF1F201FB1200C7B205F1B1
:10392000180081B23B4632460520FFF7A5FD3C203A
:1039300094FBF0F100FB11400A2190FBF1F0C7B2BB
:1039400005F1480081B23B4632460520FFF794FD61
:103950000A2094FBF0F100FB1140C7B205F16000B2
:1039600081B23B4632460520FFF786FDBDE8F08177
:103970001CB5002001900090FDF784F9FDF721FAB5
:10398000FFF784FC4FF4165000F042FA4FF4E13098
:1039900000F096F94FF4E13000F0E4F900214FF423
:1039A000E150FFF74BF840F6B8312C48FFF71FF90C
:1039B00000F056F9FFF77AFF46216320FFF70EF873
:1039C000FCF72CFD0820264908704FF6FF714FF4D4
:1039D000FC60FFF737FF012269462248FEF754FDDD
:1039E000BDF8000020490870012201A91D48801E71
:1039F000FEF74AFDBDF8040018B11420FFF742FF9E
:103A000002E00020FFF73EFF27E0154800780A2873
:103A100021D2DFE800F0200B0E14171A081D051143
:103A2000FEF720FB18E0FDF721FF15E0FDF7CEFDC6
:103A300012E0FDF72FFB0FE0FDF730FA0CE0FDF789
:103A4000E9FF09E0FEF730F906E0FDF781FF03E04A
:103A5000FDF770FC00E000BF00BFD6E700080040A3
:103A60003300002002F800084000002007480078DA
:103A7000C0F3C00040B9092005490870002005497D
:103A800008700120044908707047000032000020CF
:103A9000330000206A0000206B00002007480078F7
:103AA000C0F3C00040B90220054908700020054954
:103AB000087001200449087070470000320000209F
:103AC000330000206A0000206B00002008B50020B1
:103AD00000900C48007820F00100401C0949087053
:103AE000052009490870002008490870012008498C
:103AF00008700020FFF7C6FE012269460548FEF760
:103B0000D7FC08BD32000020330000206A000020EE
:103B10006B00002000F8000808B57B2000900C48DE
:103B2000007820F00100401C09490870052009496F
:103B30000870002008490870012008490870142006
:103B4000FFF7A0FE012269460548FEF7B1FC08BD5B
:103B500032000020330000206A0000206B000020AB
:103B600000F8000807480078C0F3C00040B9012001
:103B700005490870002005490870012004490870B3
:103B80007047000032000020330000206A0000204F
:103B90006B00002007480078C0F3C00040B9042043
:103BA0000549087000200549087001200449087083
:103BB0007047000032000020330000206A0000201F
:103BC0006B00002007480078C0F3C00040B9032014
:103BD0000549087000200549087001200449087053
:103BE0007047000032000020330000206A000020EF
:103BF0006B00002008B500200090134908700120D8
:103C0000124908701248007808B9012000E000202D
:103C10000F490870084600780090012269460D4857
:103C2000FEF746FC0A48007830B10B48838842888A
:103C30000021FFF7F7FB05E0084883884288002150
:103C4000FFF7F0FB08BD00006A0000206B000020B9
:103C50004000002002F800087A3F00085C3F00089E
:103C600010B5002415E0AA20FFF7D8FD0020FFF7CB
:103C7000D5FDFFF7D9FD0520FFF72AFBFFF722FD51
:103C8000742801D1FF2406E0C820FFF721FB601C47
:103C9000C4B2192CE7DB00BFFF2C0BD009E00648AB
:103CA0000068C0430549C1F890014FF4FA70FFF76E
:103CB0000FFBF4E710BD00009001214200002142FB
:103CC00010B586B0044601210420FEF7A9FA0121AF
:103CD0004804FEF785FA0420ADF8140018208DF88A
:103CE000170005A91D48FCF7FCFD0820ADF81400DD
:103CF00048208DF8170005A91848FCF7F2FD184870
:103D0000FFF70EF926208DF8000003208DF8010042
:103D10008DF8020001208DF803006846FDF758F881
:103D200001940020ADF80800ADF80A00ADF80C00D1
:103D3000ADF810000C20ADF80E0001A90848FFF7FF
:103D400099F9012240F225510548FFF76EF901214A
:103D50000348FFF7D9F806B010BD00000008014085
:103D60000044004010B586B0044601210820FEF74B
:103D700057FA01218804FEF733FA4FF48060ADF85A
:103D8000140002208DF8160018208DF8170005A9E0
:103D90001D48FCF7A6FD4FF40060ADF81400482064
:103DA0008DF8170005A91848FCF79BFD1748FFF789
:103DB000B7F827208DF8000003208DF801008DF85A
:103DC000020001208DF803006846FDF701F8019418
:103DD0000020ADF80800ADF80A00ADF80C00ADF811
:103DE00010000C20ADF80E0001A90848FFF742F9B9
:103DF000012240F225510548FFF717F90121034838
:103E0000FFF782F806B010BD000C014000480040EA
:103E100010B586B00446012144F20400FEF700FA12
:103E20002348FFF77DF84FF40070ADF8140003202D
:103E30008DF8160018208DF8170005A91D48FCF70D
:103E400050FD4FF48060ADF8140048208DF8170045
:103E500005A91848FCF745FD25208DF80000032032
:103E60008DF8010002208DF8020001208DF803007A
:103E70006846FCF7ADFF01940020ADF80800ADF8EE
:103E80000A00ADF80C00ADF810000C20ADF80E00E3
:103E900001A90748FFF7EEF8012240F22551044836
:103EA000FFF7C3F801210248FFF72EF806B010BD56
:103EB000003801400008014010B5044600BF8021D1
:103EC0000848FFF77BF80028F9D021460548FFF79E
:103ED00042F900BF40210348FFF770F80028F9D0ED
:103EE00010BD00000038014010B5044600BF80211D
:103EF0000848FFF763F80028F9D021460548FFF786
:103F00002AF900BF40210348FFF758F80028F9D0EC
:103F100010BD00000044004010B5044600BF8021E1
:103F20000848FFF74BF80028F9D021460548FFF76D
:103F300012F900BF40210348FFF740F80028F9D0EC
:103F400010BD0000004800401600A40285001203C6
:103F5000D6001600A2021A010F036C010100CA026A
:103F60000A00050345000C00A40285001203D600D8
:103F70000C00A2021A010F036C010200CA020A001F
:103F800005034500FF0F74051005AC044804E40365
:103F90001C035402F2010000580271028A02A302BB
:103FA000BC02D502EE021B030000D007A00FA00F39
:103FB000E80388130000E803D007B80BE803FA0011
:103FC00000002200230024002500260027002800EE
:103FD00029002A002B002C002C002D002E002E0082
:103FE0002F002F003000300000004A01BE00B40056
:103FF000BE004A01BE000000102756132805500AD3
:10400000500A56136E009A01E803F203C20B6400D3
:104010009001F401E803B80B3840000800000020CC
:104020009800000028010008D040000898000020F7
:10403000500C00004401000800A24A0400000000E7
:104040000000000001020304060708090000000048
:10405000010203040102030406070809020406081A
:1040600000000000000000000000000000005501FA
:104070000100AA0000000000000000000000000095
:104080000000000000000000000000000000000030
:104090000000000000000000000000000000000020
:1040A0000000000000000000000000000000000010
:1040B0000000000000000000000000000000FFFF02
:1040C00000000000000000000000000000000000F0
:04000005080000ED02
:00000001FF
