:020000040800F2
:10000000D80C002089010008D50C00088B0A0008D4
:10001000590C0008190600086F29000800000000AC
:10002000000000000000000000000000C71F0008E2
:100030001D06000800000000211D00089121000895
:10004000A3010008A3010008A3010008A301000800
:10005000A3010008A301000879060008A301000815
:10006000AD060008E106000815070008A301000816
:10007000A3010008A3010008A3010008A3010008D0
:10008000A3010008A3010008A3010008A3010008C0
:10009000A3010008A3010008A3010008A3010008B0
:1000A000A3010008A3010008A3010008A3010008A0
:1000B000A3010008F5210008A3010008A30100081E
:1000C000A3010008A3010008A3010008A301000880
:1000D000A3010008D1260008F5260008A3010008A6
:1000E000A3010008A3010008A301000800F002F822
:1000F00000F03AF80AA090E8000C82448344AAF188
:100100000107DA4501D100F02FF8AFF2090EBAE885
:100110000F0013F0010F18BFFB1A43F0010318473B
:1001200080350000A0350000103A24BF78C878C19F
:10013000FAD8520724BF30C830C144BF04680C60ED
:10014000704700000023002400250026103A28BF35
:1001500078C1FBD8520728BF30C148BF0B60704739
:100160001FB51FBD10B510BD00F033F81146FFF7E5
:10017000F7FF03F023F800F051F803B4FFF7F2FFA4
:1001800003BC02F053FC00000948804709480047BF
:10019000FEE7FEE7FEE7FEE7FEE7FEE7FEE7FEE737
:1001A000FEE7FEE704480549054A064B7047000094
:1001B00095210008ED000008D8060020D80C00208A
:1001C000D8080020D8080020704770477047704753
:1001D0007047754600F028F8AE460500694653465C
:1001E00020F00700854618B020B5FFF7DBFFBDE81B
:1001F00020404FF000064FF000074FF000084FF08E
:10020000000B21F00701AC46ACE8C009ACE8C0091E
:10021000ACE8C009ACE8C0098D4670470446AFF3AE
:1002200000802046FFF7A9FF0048704774060020B1
:1002300021B1826842F00102826003E0826822F00C
:10024000010282607047000010B5044612488442E3
:1002500008D10121401501F0A1FD0021601501F038
:100260009DFD17E00D48844208D10121001501F0E1
:1002700095FD0021201501F091FD0BE00848844216
:1002800008D10121C80301F089FD00214FF400408D
:1002900001F084FD10BD0000002401400028014051
:1002A000003C0140014600208A6802F004020AB1C5
:1002B000012000E0002070470146C86C80B2704702
:1002C0000246002013680B400BB1012000E0002023
:1002D0007047014600208A6802F008020AB1012036
:1002E00000E000207047000030B5024600200023E7
:1002F00050680F4C20400D790C6844EA05242043D7
:10030000506090680B4C2040D1E902542C434D7949
:1003100044EA450420439060D06A20F470000C7CCD
:10032000641EE4B2234340EA0350D06230BD0000B3
:10033000FFFEF0FFFDF7F1FFF0B504460D4600208B
:100340000021092D11DDE068A5F10A0606EB46073C
:10035000072606FA07F18843A5F10A0606EB4606CA
:1003600003FA06F10843E0600CE0206905EB45075D
:10037000072606FA07F1884305EB450603FA06F15E
:1003800008432061072A0FDA606B561E06EB8607CA
:100390001F2606FA07F18843561E06EB860605FA65
:1003A00006F10843606322E00D2A0FDA206BD61FA6
:1003B00006EB86071F2606FA07F18843D61F06EBD1
:1003C000860605FA06F10843206310E0E06AA2F110
:1003D0000D0606EB86071F2606FA07F18843A2F1F1
:1003E0000D0606EB860605FA06F10843E062F0BD4D
:1003F000816841F008018160704721B1826842F450
:10040000A002826003E0826822F4A002826070474A
:10041000816841F0040181607047000000B587B039
:1004200001214FF4017001F0A9FC4FF4004001F0EC
:1004300079FC8020ADF8040000208DF8070001A9A8
:10044000174800F010FA1748FFF7FEFE0020029050
:100450008DF80C008DF80D004FF460200490002002
:10046000059001208DF8180002A90E48FFF73CFF07
:1004700001210C48FFF7DCFE0A48FFF7B9FF00BF77
:100480000848FFF726FF0028FAD10648FFF7C0FF0B
:1004900000BF0448FFF706FF0028FAD107B000BDEF
:1004A000000801400024014010B511B3144A12881D
:1004B000521C92B2124B1A80124B134C247833F810
:1004C00014309A4204DB00220D4B1A800E4A107041
:1004D0000E4A0D4B1B7832F81320094B1B889A42A9
:1004E00003DD00220A4B1A6009E00122084B1A6062
:1004F00005E00022024B1A800122054B1A6010BD54
:10050000640000207836000866000020823600086B
:100510009C812142E1B1114A1288521C92B20F4BC8
:100520001A804B2A03DB00221A800D4A10700D4AF4
:100530000B4B1B7832F81320084B1B889A4203DDC3
:100540000122094B1A6008E00022074B1A6004E000
:100550000022024B1A80044B1A607047680000208A
:100560006A000020663600089881214210B50948CB
:100570000078C0F3C00020B10121052002F0A4FCE6
:1005800006E00121002002F09FFC062002490870CD
:1005900010BD000032000020330000201848007811
:1005A000002826DD17480088401C80B215490880C5
:1005B0001549164A127831F81210884208DB0020DB
:1005C000104908800E480078401E0D49087015E05B
:1005D0000F480E49097830F811000A490988884205
:1005E00003DC00200B49086008E00120094908608D
:1005F00004E00020034908800649086070470000B5
:100600005D0000206C0000208C3600085C0000209B
:10061000963600089001214200BFFEE770472DE9A1
:10062000F04104460D4616460A2094FBF0F0C7B28E
:100630003B4632462946052002F020FB0A2094FB67
:10064000F0F100FB1140C7B205F1180081B23B4642
:100650003246052002F012FBBDE8F08170B5044679
:100660000D46164604F14000C3B232462946052025
:1006700002F0F4FA70BD000010B50A2002F02AFA68
:100680000121084800F0C2F9012807D10648006896
:1006900008B9012000E0002003490860012000F0B3
:1006A00053F810BD000801409401234210B50A2000
:1006B00002F010FA0421084800F0A8F938B90748F8
:1006C000006808B9012000E0002004490860042007
:1006D00000F03AF810BD000000180140948121425A
:1006E00010B50A2002F0F6F90821084800F08EF94A
:1006F00038B90748006808B9012000E00020044923
:100700000860082000F020F810BD0000001801402B
:100710009401234210B50A2002F0DCF910210848A8
:1007200000F074F938B90748006808B9012000E002
:10073000002004490860102000F006F810BD0000F9
:10074000001801409481214201490860704700006F
:100750001404014030B5044604254FF4302000F065
:100760006FF80546042D17D10C48006940F00200CF
:100770000A49086108464461006940F04000086188
:100780004FF4302000F05CF805460448006941F65B
:10079000FD71084001490861284630BD0020024033
:1007A00004200B49C96801F0010109B101200EE0E4
:1007B0000749C96801F0040109B1022007E00449B2
:1007C000C96801F0100109B1032000E0042070475E
:1007D000002002400348006940F0800001490861A0
:1007E000704700000020024070B504460D46042604
:1007F000F00200F025F80646042E11D109480069E0
:1008000040F00100074908612580F00200F018F867
:1008100006460448006941F6FE7108400149086136
:10082000304670BD0020024002480349486003483A
:10083000486070472301674500200240AB89EFCD37
:1008400000B502460423FFF7ABFF034603E0FFF7C2
:10085000A7FF0346521E012B01D1002AF7D102B98E
:100860000523184600BD2DE9F0410246002500266B
:10087000002000230024002791F803C00CF00F058E
:1008800091F803C00CF0100CBCF1000F03D091F8EC
:1008900002C04CEA050591F800C0BCF1000F31D050
:1008A000146800202BE04FF0010C0CFA00F3B1F8B3
:1008B00000C00CEA03069E4220D183004FF00F0CCB
:1008C0000CFA03F7BC4305FA03FC4CEA040491F864
:1008D00003C0BCF1280F06D14FF0010C0CFA00FC4C
:1008E000C2F814C00AE091F803C0BCF1480F05D16A
:1008F0004FF0010C0CFA00FCC2F810C0401C082894
:10090000D1D31460B1F800C0BCF1FF0F34DD5468DE
:1009100000202EE000F1080C4FF0010808FA0CF35B
:10092000B1F800C00CEA03069E4221D183004FF0CB
:100930000F0C0CFA03F7BC4305FA03FC4CEA040461
:1009400091F803C0BCF1280F05D100F1080C08FA9A
:100950000CF8C2F8148091F803C0BCF1480F07D11D
:1009600000F1080C4FF0010808FA0CF8C2F81080EA
:10097000401C0828CED35460BDE8F081F0B50A468B
:10098000002300240021002500F00046B6F1004FAE
:1009900002D11D4EF16901E01B4E7168C0F30345A1
:1009A00083B200F44016B6F5401F08D121F0706103
:1009B000154E766826F07066134F7E6012E000F4E4
:1009C0008016B6F5801F06D1032606FA05F4A1436A
:1009D00041F0706106E0460D360103FA06F6B143B8
:1009E00041F0706122B1460D360103FA06F631433B
:1009F00000F00046B6F1004F02D1034EF16101E074
:100A0000014E7160F0BD0000000001400246002070
:100A100093680B400BB1012000E00020704741615A
:100A2000704701617047000010B50446072301229A
:100A300021460948FFF780FC01210748FFF7DDFC4C
:100A400000BF02210448FFF73BFC0028F9D0024810
:100A5000FFF732FC10BD0000002401402DE9F041F9
:100A600007460C460025002608E03846FFF7DCFF65
:100A70000544642002F054F8701CC6B2A642F4DBB0
:100A8000B5FBF4F080B2BDE8F08100BFFEE70000E6
:100A900010B50121002002F017FA1B480078012848
:100AA0000DD019480078022809D01848007801288C
:100AB00021DD16480078401E144908701BE01348D9
:100AC0000078012817DD11480078401E0F49087092
:100AD000084600780A2804DC084600780C4988702B
:100AE00006E00A4800780A21C1EB400008498870F6
:100AF000012008490870084802880848018803480E
:100B00000078FFF78CFD10BD330000203E00002070
:100B10003600002035000020460000204400002060
:100B200010B50121002002F0CFF91B480078012800
:100B30000DD019480078022809D0184800780828F4
:100B400021DA16480078401C144908701BE013484D
:100B500000780F2817DA11480078401C0F490870F8
:100B6000084600780A2804DC084600780C4988709A
:100B700006E00A4800780A21C1EB40000849887065
:100B8000012008490870084802880848018803487D
:100B90000078FFF744FD10BD330000203E00002028
:100BA00036000020350000204600002044000020D0
:100BB00008B501210D2001F0E1F810208DF80300A7
:100BC00003208DF802001020ADF8000069460E48A1
:100BD000FFF749FE10210C48FFF721FF01210B48C8
:100BE000FFF7CCFE41F2FB20ADF800006946084853
:100BF000FFF739FE41F27B210548FFF710FF802106
:100C00000348FFF70EFF08BD000801400002300056
:100C1000000C014010B50E480078012816D10020C4
:100C20000B4908700B49087802F0C4FC0949487860
:100C300002F0C0FC0749887802F0BCFC0549C8787E
:100C400002F0B8FC0349087902F0B4FC10BD0000C2
:100C5000350000203600002000BFFEE710B501215E
:100C6000002002F031F909480078012804DD074826
:100C70000078401E0549087005480288054801882B
:100C800002480078FFF7EAFC10BD00003F0000209A
:100C90004A0000204800002010B50121002002F089
:100CA00013F909480078042804DA07480078401C42
:100CB00005490870054802880548018802480078FF
:100CC000FFF7CCFC10BD00003F0000204A000020D0
:100CD00048000020704710B54FF4A06000F03AF8CB
:100CE00010BD000070B5002100230F22C47804B3AA
:100CF000154C246804F4E064C4F5E064210AC1F1F1
:100D00000403CA40447804FA03F184781440214370
:100D100009010E4C0678A155047804F01F05012442
:100D2000AC4005786D11AD0005F1E025C5F8004136
:100D300009E0047804F01F050124AC40044D067856
:100D4000761145F8264070BD0CED00E000E400E0AF
:100D500080E100E002490143024A1160704700004F
:100D60000000FA050CED00E010B511B3144A107044
:100D7000144A1288521C92B2124B1A80124B104C19
:100D8000247833F814309A4202DB00220D4B1A808B
:100D90000E4A0B4B1B7832F813200A4B1B889A42E1
:100DA00003DD00220A4B1A6008E00122084B1A609A
:100DB00004E00022034B1A80054B1A6010BD0000AE
:100DC00062000020600000204E3600085A360008FD
:100DD0008081214210B54FF4E16060490880012014
:100DE0005F4908705F4908705F48007820F0010093
:100DF0005D4908704FF488705C4908804FF4817039
:100E00005B4908804FF496705A490880BB205A49C4
:100E1000088040F23F1059490880DA20584908807C
:100E2000584883884288012101F0FEFE504802881C
:100E30004E4801884948008802F07EF94E480288F1
:100E40004C48018846480078FFF7E9FB4C48028887
:100E50004A48018843480078FFF700FC01F086FE0D
:100E600010220021484802F00DF8122200214748C4
:100E700002F008F811220021454802F003F813227D
:100E80000021444801F0FEFF14220021424801F0F5
:100E9000F9FF21220021414801F0F4FF2022002126
:100EA0003F4801F0EFFF312200213E4801F0EAFF08
:100EB000322200213C4801F0E5FF332200213B486B
:100EC00001F0E0FF34220021394801F0DBFF392234
:100ED0000021384801F0D6FF3A220021364801F0BF
:100EE000D1FF30E001F064FF34480078092810D0C9
:100EF0001D48007820F00100401C1B49087008467E
:100F0000007820F0080008700846007820F02000E3
:100F1000087001F02FFD14480078C0F3C00010B92C
:100F2000052001F0D7FD10480078C0F3001050B143
:100F30000D48007820F010000B490870012020496E
:100F40000870FFF767FE0848007800F001000028ED
:100F5000C8D002F0E5F801F02BFF10BD3C000020E6
:100F60003E0000203F000020320000204000002012
:100F700042000020440000204600002048000020DD
:100F80004A0000201E36000879330008C9320008E4
:100F9000D9330008A933000899320008B1200008AD
:100FA000811C00089526000859260008210B00081E
:100FB000910A0008990C00085D0C0008330000201D
:100FC0003500002010B50020884908704FF4E1601A
:100FD00087490880012087490870022086494870A7
:100FE0008448007888700020C8708448007820F019
:100FF0000100824908704FF48870814908804FF4DD
:101000008170804908804FF496707F490880BB202A
:101010007E4908807E4883884288012101F004FED1
:1010200078480288764801887148008802F084F880
:1010300076480288744801886E480078FFF7EFFA16
:1010400001F094FD10220021724801F01BFF1222D2
:101050000021714801F016FF112200216F4801F0B4
:1010600011FF132200216E4801F00CFF1422002111
:101070006C4801F007FF212200216B4801F002FFBC
:1010800020220021694801F0FDFE3122002168483C
:1010900001F0F8FE32220021664801F0F3FE33220F
:1010A0000021654801F0EEFE34220021634801F082
:1010B000E9FE8EE001F07CFE61480078022817D03E
:1010C00001204A4908704D48007820F00100401C7A
:1010D0004A49087000204849C8704848007820F004
:1010E0000800464908700846007820F02000087083
:1010F00001F040FC41480078C0F3001050B13F4877
:10110000007820F010003D49087001203749087030
:10111000FFF780FD39480078C0F34000002858D020
:101120003648007820F002003449087045480078BD
:10113000EE2821D10121042001F0C6FE4248838817
:101140004288012101F070FD3148838842880121E5
:1011500001F06AFD00202849C8702848007820F076
:101160000800264908700846007820F02000087022
:1011700001201E4908702CE032480078A02810D1C8
:101180001E480078C0F3C00058B11C48007820F019
:1011900020002030194908700121002001F094FE40
:1011A00017E028480078A12813D114480078C0F32C
:1011B000C00070B111480078C0F3401048B10F482A
:1011C000007820F020000D4908700121002001F076
:1011D0007BFE0A48007800F0010000283FF46AAF67
:1011E00001F09EFF01F0E4FD10BD0000350000207D
:1011F0003C0000203E00002036000020320000208D
:101200004000002042000020440000204600002052
:101210001E36000879330008C9320008D9330008A7
:10122000A933000899320008B1200008811C000889
:101230009526000859260008210B0008910A00088D
:1012400033000020570000202836000810B5002089
:10125000874908704FF4E16086490880012086497B
:101260000870864948708448007888700020C870EB
:101270008348007820F00100814908704FF488709D
:10128000804908804FF481707F4908804FF4967040
:101290007E490880BB207E4908807E48838842883A
:1012A000012101F0C1FC7848028876480188714824
:1012B000008801F041FF76480288744801886E4832
:1012C0000078FFF7ACF901F051FC102200217248C0
:1012D00001F0D8FD12220021704801F0D3FD112247
:1012E00000216F4801F0CEFD132200216D4801F06E
:1012F000C9FD142200216C4801F0C4FD2122002107
:101300006A4801F0BFFD20220021694801F0BAFDC2
:1013100031220021674801F0B5FD322200216648E4
:1013200001F0B0FD33220021644801F0ABFD34220E
:101330000021634801F0A6FD8EE001F039FD61480F
:101340000078072817D00120494908704C480078D8
:1013500020F00100401C4A49087000204749C8702D
:101360004748007820F00800454908700846007892
:1013700020F02000087001F0FDFA41480078C0F329
:10138000001050B13E48007820F010003C49087031
:10139000012037490870FFF73DFC39480078C0F359
:1013A0004000002858D03648007820F00200344928
:1013B000087045480078EE2821D10121042001F071
:1013C00083FD424883884288012101F02DFC314889
:1013D00083884288012101F027FC00202749C8703A
:1013E0002748007820F00800254908700846007852
:1013F00020F02000087001201D4908702CE03248C0
:101400000078A02810D11E480078C0F3C00058B161
:101410001B48007820F02000203019490870012175
:10142000002001F051FD17E027480078A12813D1D2
:1014300013480078C0F3C00070B111480078C0F3C1
:10144000401048B10E48007820F020000C49087088
:101450000121002001F038FD0948007800F001006A
:1014600000283FF46AAF01F05BFE01F0A1FC10BD63
:10147000350000203C0000203E0000203600002007
:1014800032000020400000204200002044000020E4
:10149000460000201E36000879330008C9320008D3
:1014A000D9330008A933000899320008B120000898
:1014B000811C00089526000859260008210B000809
:1014C000910A000833000020570000202836000849
:1014D00010B50020874908704FF4E1608649088004
:1014E00001208649087086494870844800788870D1
:1014F0000020C8708348007820F0010081490870FE
:101500004FF48870804908804FF481707F490880CB
:101510004FF496707E490880BB207E4908807E4843
:1015200083884288012101F07FFB78480288764851
:1015300001887148008801F0FFFD764802887448F0
:1015400001886E480078FFF76AF801F00FFB10225F
:101550000021724801F096FC12220021704801F02F
:1015600091FC112200216F4801F08CFC1322002114
:101570006D4801F087FC142200216C4801F082FCC8
:10158000212200216A4801F07DFC202200216948C7
:1015900001F078FC31220021674801F073FC32220F
:1015A0000021664801F06EFC33220021644801F0FE
:1015B00069FC34220021634801F064FC8EE001F0F4
:1015C000F7FB61480078012817D0012049490870CD
:1015D0004C48007820F00100401C4A490870002067
:1015E0004749C8704748007820F00800454908700E
:1015F0000846007820F02000087001F0BBF941484F
:101600000078C0F3001050B13E48007820F0100080
:101610003C490870012037490870FFF7FBFA394848
:101620000078C0F34000002858D03648007820F0F9
:1016300002003449087045480078EE2821D1012184
:10164000042001F041FC424883884288012101F0D6
:10165000EBFA314883884288012101F0E5FA002045
:101660002749C8702748007820F0080025490870ED
:101670000846007820F02000087001201D490870FD
:101680002CE032480078A02810D11E480078C0F322
:10169000C00058B11B48007820F0200020301949C4
:1016A00008700121002001F00FFC17E027480078A6
:1016B000A12813D113480078C0F3C00070B11148BD
:1016C0000078C0F3401048B10E48007820F02000A8
:1016D0000C4908700121002001F0F6FB0948007850
:1016E00000F0010000283FF46AAF01F019FD01F09D
:1016F0005FFB10BD350000203C0000203E000020B4
:10170000360000203200002040000020420000206F
:1017100044000020460000201E36000879330008EF
:10172000C9320008D9330008A933000899320008EB
:10173000B1200008811C00089526000859260008E1
:10174000210B0008910A00083300002057000020F8
:101750002836000810B52648007820F001002449FA
:101760000870562340F249220221012001F076FA46
:10177000322340F249220821012001F06FFA2E2382
:1017800040F249220E21012001F068FA332340F291
:1017900049221421012001F061FA01F0E7F9412208
:1017A0000021144801F06EFB42220021124801F092
:1017B00069FB11E001F0FCFA0D480078C0F300105D
:1017C00050B10B48007820F0100009490870012042
:1017D0000A490870FFF71EFA0548007800F001007A
:1017E0000028E7D001F09CFC01F0E2FA10BD0000F7
:1017F00032000020F932000839330008350000209B
:1018000010B52748007820F001002549087001F044
:10181000ADF910220021234801F034FB12220021EF
:10182000214801F02FFB11220021204801F02AFB62
:10183000132200211E4801F025FB142200211D481F
:1018400001F020FB442200211B4801F01BFB1CE09F
:1018500001F0AEFA19480078052806D01048007843
:1018600020F00100401C0E4908700D480078C0F3BC
:10187000001050B10A48007820F0100008490870A4
:1018800001200F490870FFF7C5F90548007800F0FE
:1018900001000028DCD001F043FC01F089FA10BD02
:1018A0003200002079330008C9320008D93300081B
:1018B000A9330008993200086D05000833000020A4
:1018C0003500002010B54FF4E16064490880012024
:1018D00063490870634908706348007820F001008C
:1018E000614908704FF4907060490880C01D6049DC
:1018F0000880401D5F49088095205F49088040F2BC
:101900003F105E490880DA205D4908805D48838881
:101910004288012101F088F955480288534801881E
:101920004E48008801F008FC53480288514801885D
:101930004B480078FEF773FE514802884F480188F3
:1019400048480078FEF78AFE01F010F910220021C5
:101950004D4801F097FA122200214C4801F092FA0A
:10196000112200214A4801F08DFA13220021494832
:1019700001F088FA14220021474801F083FA21225D
:101980000021464801F07EFA20220021444801F05F
:1019900079FA31220021434801F074FA3222002101
:1019A000414801F06FFA33220021404801F06AFA01
:1019B000342200213E4801F065FA44E001F0F8F9D4
:1019C0003C480078032810D02748007820F0010018
:1019D000401C254908700846007820F0080008706F
:1019E0000846007820F02000087000F0C3FF1E4871
:1019F0000078C0F3C00058B106210720FFF72EF889
:101A00002D49088000F0C8FD01202C4908600AE03B
:101A100000202A49183108602949C1F88001274966
:101A200008602849087010480078C0F3001050B1D1
:101A30000D48007820F010000B4908700120224961
:101A40000870FFF7E7F80848007800F00100002868
:101A5000B4D001F065FB01F0ABF910BD3C000020F3
:101A60003E0000203F000020320000204000002007
:101A700042000020440000204600002048000020D2
:101A80004A0000201E36000879330008C9320008D9
:101A9000D9330008A933000899320008B1200008A2
:101AA000811C00089526000859260008210B000813
:101AB000910A000833000020540000208C8121424C
:101AC00000802142560000203500002010B54FF460
:101AD000E1603C49088001203B4908703B4908709F
:101AE0003B48007820F00100394908704FF49070AD
:101AF00038490880C01D38490880401D3749088092
:101B000095203749088040F23F1036490880DA2096
:101B100035490880354883884288012101F084F8DE
:101B20002D4802882B4801882648008801F004FBD4
:101B30002B4802882948018823480078FEF76FFD6A
:101B4000294802882748018820480078FEF786FD4A
:101B500001F00CF810220021254801F093F912221F
:101B60000021244801F08EF911220021224801F0C1
:101B700089F913220021214801F084F9142200215F
:101B80001F4801F07FF9212200211E4801F07AF957
:101B9000202200211C4801F075F9312200211B4848
:101BA00001F070F932220021194801F06BF933225B
:101BB0000021184801F066F934220021164801F08E
:101BC00061F910BD3C0000203E0000203F000020D5
:101BD000320000204000002042000020440000208D
:101BE00046000020480000204A0000201E36000861
:101BF00079330008C9320008D9330008A933000836
:101C000099320008B1200008811C000895260008C0
:101C100059260008210B0008910A00083EB500244F
:101C2000002001F041F81448007820F0010012492A
:101C30000870332411E000204FF40572CDE9002034
:101C40004FF43F73024601460290204600F094FF95
:101C5000642000F03FFF601CC4B2432CEBDD01F0B8
:101C60004BFA0520054908704FF4FA7000F032FF76
:101C70000B2001F027F83EBD320000203300002089
:101C800010B50121032001F01FF91F480078012839
:101C90001BD01D480078022817D01C48007820F07F
:101CA00008001A4908700846007820F020000870E3
:101CB000174883884288012100F0B6FF15488388C1
:101CC0004288012100F0B0FF1CE000201249C870DA
:101CD0000E48007820F008000C490870084600788B
:101CE00020F02000087001200C4908700848838803
:101CF0004288012100F098FF06488388428801212C
:101D000000F092FF10BD00003300002032000020E0
:101D1000283600081E360008360000203500002056
:101D20007047000001460020034A506820F44040FC
:101D300008435060704700000010024029B1064A75
:101D4000D2690243044BDA6104E0034AD269824358
:101D5000014BDA61704700000010024029B1064AC9
:101D600012690243044B1A6104E0034A1269824378
:101D7000014B1A61704700000010024029B1064A69
:101D800092690243044B9A6104E0034A92698243D8
:101D9000014B9A61704700000010024029B1064AC9
:101DA000D2680243044BDA6004E0034AD2688243FB
:101DB000014BDA60704700000010024030B500218E
:101DC0000022002400232D4D6D6805F00C0121B187
:101DD000042905D0082923D105E0294D056022E01A
:101DE000274D05601FE0254D6D6805F47012234DE9
:101DF0006D6805F48034022505EB92421CB9214D33
:101E0000554305600BE01D4D6D6805F400351DB1AF
:101E10001C4D5543056002E0194D5543056002E035
:101E2000174D056000BF00BF144D6D6805F0F0014F
:101E30000909154D6B5C0568DD4045600F4D6D6807
:101E400005F4E061090A104D6B5C4568DD40856072
:101E50000A4D6D6805F46051C90A0B4D6B5C45680D
:101E6000DD40C560054D6D6805F44041890B074DA7
:101E70006B5CC568B5FBF3F5056130BD0010024031
:101E800000127A0000093D00140000202400002008
:101E900030B503460C461546002207E0184600F010
:101EA00008F824F812009B1C501C82B2AA42F5DBF1
:101EB00030BD0146088870472DE9F05F80468A46AC
:101EC0001746B8F1006F02D33348804501D3BDE80F
:101ED000F09FFEF7A9FCA8F1006B4FEA9B25CBF31E
:101EE0004809C9F50074A74200DC3C464DE04FF0BC
:101EF000006101EB85208A142849FFF7C9FF0026FD
:101F00000BE009EB0600254931F810004FF6FF7190
:101F1000884200D003E0701C86B2A642F1DB00BF0D
:101F2000A6421BDA4FF0006101EB8520FEF712FCA0
:101F3000002608E03AF8160006EB0901174A22F8D5
:101F40001100701C86B2A642F4DB4FF0006101EB79
:101F500085208A14114900F023F804E022465146F6
:101F6000404600F01DF8A74200D10FE06D1C4FF075
:101F700000090AEB440AA044381B87B2B7F5007F7A
:101F800002DD4FF4007400E03C46B0E700BFFEF70E
:101F900021FC00BF9BE70000000001088800002032
:101FA0002DE9F04105460E461746002407E036F8B5
:101FB00014102846FEF718FCAD1C601C84B2BC420D
:101FC000F5DBBDE8F081704710B500F001F810BDF9
:101FD0000CB50020019000903348006840F4803038
:101FE0003149086000BF3048006800F400300090BC
:101FF0000198401C0190009818B90198B0F5A06FA5
:10200000F1D12948006800F4003010B1012000909F
:1020100001E0002000900098012843D12348006887
:1020200040F01000214908600846006820F00300D5
:1020300008600846006840F0020008601A484068DE
:10204000194948600846406848600846406840F4BE
:10205000806048600846406820F47C10486008466C
:10206000406840F4E81048600846006840F080701E
:10207000086000BF0C48006800F000700028F9D02C
:102080000948406820F00300074948600846406856
:1020900040F00200486000BF0348406800F00C00B8
:1020A0000828F9D10CBD00000010024000200240B9
:1020B00010B50121022000F007FF24480078012814
:1020C00024D022480078022820D02148007820F02F
:1020D000080008301E4908700846007820F02000EB
:1020E000203008701B4883884288012100F09CFD45
:1020F000194883884288012100F096FD174800881E
:1021000018BB4FF4E160154908801EE00120144916
:1021100008701449C8700E48007820F00800083094
:102120000B4908700B4883884288012100F07CFD30
:10213000094883884288012100F076FD074800881D
:1021400018B94FF4E1600549088010BD3300002044
:102150003200002014360008323600083C0000200F
:102160003500002036000020042808D14FF0E0217F
:10217000096941F004014FF0E022116107E04FF0DE
:10218000E021096921F004014FF0E022116170475C
:102190007047000010B51348006840F00100114975
:1021A000086008464068104908400E4948600846E3
:1021B00000680E4908400B4908600846006820F492
:1021C000802008600846406820F4FE0048604FF414
:1021D0001F008860FFF7F8FE4FF0006004490860B8
:1021E00010BD0000001002400000FFF8FFFFF6FEE7
:1021F00008ED00E010B50121304800F004F9002896
:102200005AD001212D4800F0EFF82D48007803281E
:102210000FD12C480078C0F3C0012B480078FEF79E
:1022200043F928480078C0F3C00128480078FEF739
:1022300071F927480088401C80B225490880B0F514
:10224000FA6F08DB002008801E48007820F010009C
:1022500010301C4908701F480088401C80B21D497E
:1022600008800A280FDB00200880FEF797F9144841
:102270000078032807D113480078C0F3C001124842
:102280000078FEF771FD0F480078C0F3401098B158
:1022900011480088401C80B20F49088042F210713A
:1022A000884209DB00200C4908800648007820F0AD
:1022B0000400001D0349087010BD00000004004028
:1022C00033000020320000203F0000203E000020AC
:1022D0002E000020300000202C0000207FB5054695
:1022E0000C4601210220FFF729FDADF80850ADF89A
:1022F00004400020ADF80A00ADF8060001A90E4820
:1023000000F0F8F8012211460B4800F08DF81D206E
:102310008DF8000002208DF8010003208DF80200E6
:1023200001208DF803006846FEF7DCFC012102481D
:1023300000F05DF87FBD00000004004030B589B0BA
:1023400005460C4601210420FFF7F8FC0121082076
:10235000FFF714FD4FF48070ADF8200018208DF8C1
:10236000230003208DF8220008A91748FEF77BFA06
:10237000ADF81850ADF814400020ADF81A00ADF8D3
:10238000160005A9114800F0B5F87020ADF804005A
:102390000120ADF806000020ADF80A000220ADF8DB
:1023A0000C0001A9094800F049F80821074800F08D
:1023B00095F80121054800F00BF80121034800F0D1
:1023C00016F809B030BD0000000C014000080040C4
:1023D00021B1028842F08002028004E002884FF6B8
:1023E0007F731A4002807047CA430282704721B14E
:1023F000028842F00102028004E002884FF6FE7378
:102400001A400280704730B50246002000230024A5
:10241000158A05EA0103958905EA010413B10CB197
:10242000012000E0002030BD1AB183890B43838175
:1024300002E083898B4383817047000070B50024DC
:1024400000220023058C4FF6FF6635400584028C80
:102450008388848B4FF68F752C404FF6FC752C408B
:102460000D882C434FF6FF552A400D894FF6FF7615
:1024700006EA05252A434D8806EA05252A43154D17
:10248000A84202D0144DA8421DD14FF2FF752A4038
:102490004D894FF6FF7606EA05252A434FF6FF35AC
:1024A0002A408D8806EA05252A434EF6FF752B4003
:1024B0004DF6FF752B408D8906EA05152B43CD8916
:1024C00006EA05152B4383808483CD8885870284A3
:1024D00070BD0000002C0140003401400A4600217C
:1024E000818B4FF6F77319401143818370478187C1
:1024F00070470000002202881D4B98420ED01D4BF1
:1025000098420BD0B0F1804F08D01B4B984205D0B9
:102510001A4B984202D01A4B984204D14FF68F734F
:102520001A404B881A43174B984207D0164B9842D3
:1025300004D04FF6FF431A40CB881A4302808B88A1
:1025400083850B8803850A4B98420BD0094B984230
:1025500008D00E4B984205D00D4B984202D00D4B3F
:10256000984201D10B7A03860123838270470000D1
:10257000002C0140003401400004004000080040ED
:10258000000C0040001000400014004000400140DA
:10259000004401400048014010B529480088B0F5CA
:1025A0007A6F03DA2648008864281BDC25480088F7
:1025B000401C80B22349088042F2107188423DDB02
:1025C00008462049088020480078002836D101209C
:1025D0001D49087000201D4908600121042000F0F9
:1025E00073FC2BE017480088192805DB1548008884
:1025F00019381449088002E0002012490880114867
:10260000008810B900201049087011481149097854
:1026100030F8110010300A490988884202DC012094
:102620000A4908600A480B49097830F81100044942
:102630000988884202DB00200449086010BD0000C0
:10264000540000205E00002056000020A48121429A
:102650003C3600083E00002010B50121002000F0AB
:1026600033FC094800883C2804DD074800883C38D2
:102670000549088005480288054801880248008805
:1026800000F05AFD10BD00003C0000204200002078
:102690004000002010B50121002000F015FC094881
:1026A0000088B0F5616F04DA064800883C300549BF
:1026B000088005480288054801880248008800F023
:1026C0003BFD10BD3C0000204200002040000020E7
:1026D00010B540F22551064800F085F830B10448A5
:1026E00000F03CF9C4B2204600F0A4F910BD00008F
:1026F0000038014010B540F22551064800F073F84B
:1027000030B1044800F02AF9C4B2204600F006FCBB
:1027100010BD00000044004021B1828942F4005203
:10272000828104E082894DF6FF731A4082817047EE
:1027300010B504462048844209D101218803FFF7DF
:102740002DFB00214FF48040FFF728FB32E01B48AF
:10275000844209D101214804FFF700FB00214FF416
:102760000030FFF7FBFA25E01548844209D101212A
:102770008804FFF7F3FA00214FF48020FFF7EEFA08
:1027800018E01048844209D10121C804FFF7E6FA95
:1027900000214FF40020FFF7E1FA0BE00A488442E1
:1027A00008D101210805FFF7D9FA00214FF4801064
:1027B000FFF7D4FA10BD000000380140004400408B
:1027C00000480040004C00400050004002460020FD
:1027D000B1F5007F00D100BF13880B400BB1012081
:1027E00000E00020704770B5024600240023002559
:1027F000002040F66A16B14200D100BFC1F3421575
:1028000001F01F03012606FA03F3012D02D1968978
:10281000334006E0022D02D1168A334001E0968A49
:1028200033400C12012606FA04F41688344013B122
:102830000CB1012000E0002070BDF0B5034600247B
:1028400000260025002040F66A17B94200D100BFDB
:102850001846C1F3421401F01F06012707FA06F5D6
:10286000012C01D10C3004E0022C01D1103000E029
:1028700014301AB107682F43076002E00768AF43BE
:102880000760F0BD2DE9F04786B005460E460024EE
:10289000A24600BFA1460027B08900B100BF2F4665
:1028A0002C8A4CF6FF700440F08804432C82AC89DB
:1028B0004EF6F3100440B08831890843718908430B
:1028C0000443AC81AC8A4FF6FF400440B089044316
:1028D000AC8201A8FFF772FA1F48874202D1DDF8E7
:1028E00010A001E0DDF80CA0A88900F4004040B180
:1028F0000AEBCA0000EB0A1031684900B0FBF1F89E
:1029000007E00AEBCA0000EB0A1031688900B0FB4F
:10291000F1F86420B8FBF0F004012009642101FB08
:102920001089A88900F4004040B1322000EBC900B2
:10293000B0FBF1F000F00700044308E0322000EBA8
:1029400009106421B0FBF1F000F00F0004432C816A
:1029500006B0BDE8F08700000038014001468888D5
:10296000C0F308007047C1F308028280704700BFBF
:10297000FEE7000010B525480078C0F3401000289D
:1029800042D022480078C0F3800000283CD01F4885
:10299000007820F004001D4908701D4800880028B8
:1029A00005DD1B480088401E1949088024E00121EC
:1029B000032000F089FA4FF4E160154908801548BA
:1029C00083884288012100F02FF9134883884288C8
:1029D000012100F029F90D48007820F020000B4972
:1029E00008700846007820F00800087000200B49A5
:1029F000C87001200A4908700A4802880A480188FC
:102A00000348008800F098FB10BD00003200002051
:102A10003C000020283600081E3600083600002042
:102A2000350000204200002040000020014600BF89
:102A3000704700001349097839B9AA2820D11149F3
:102A40000978491C0F4A11701AE00E4909780229C9
:102A50000ADA0C490978491E0B4A50540949097889
:102A6000491C084A11700BE00021064A11705528D4
:102A700006D10649097821F00201891C034A117028
:102A8000704700006B00002057000020320000203B
:102A900010B56FF00400FFF767FB0A4800680A49A9
:102AA000B0FBF1F0094908700846007800EB4001DE
:102AB000C1EBC0104FF6FF7101EAC0000449088065
:102AC00010BD00000000002000127A002800002045
:102AD0002A0000200146114A12884A434FF0E023A1
:102AE0005A6100229A611A46126942F001021A6183
:102AF00000BF4FF0E022106900F001021AB100F4AB
:102B00008032002AF5D04FF0E022126922F0010253
:102B10004FF0E0231A6100229A6170472A000020DA
:102B20000146114A12784A434FF0E0235A610022CD
:102B30009A611A46126942F001021A6100BF4FF011
:102B4000E022106900F001021AB100F48032002A7C
:102B5000F5D04FF0E022126922F001024FF0E0239D
:102B60001A6100229A617047280000200020014964
:102B700008707047750000202DE9F04782460C462A
:102B800015461E46DDE90989089FAA2000F06CFA67
:102B9000712000F069FA504600F066FA201200F049
:102BA00063FAE0B200F060FA281200F05DFAE8B2D1
:102BB00000F05AFA301200F057FAF0B200F054FA6E
:102BC000381200F051FAF8B200F04EFA4FEA28201D
:102BD00000F04AFA08F0FF0000F046FA4FEA292018
:102BE00000F042FA09F0FF0000F03EFA00F042FA6D
:102BF000BDE8F0872DE9FE4F04460D4616461F46F8
:102C0000DDE90D9ADDF8308006498DE80007097886
:102C10002144C8B23B4632462946FFF7ADFFBDE826
:102C2000FE8F000074000020FEB504460F461546D6
:102C30001E464FB120898DE86100E388A288618833
:102C40002078FFF7D7FF08E020898DE86100E3884E
:102C5000A28861882078FFF78FFFFEBDF8B5054692
:102C60000E4617461C46002000908DF800406B462B
:102C70003A463146284600F031F8F8BDF8B5054629
:102C80000E4617461C460A2C0DDA0020009004F16F
:102C90003000C0B28DF800006B463A4631462846F7
:102CA00000F01CF800BFF8BD10B50446AA2000F0E3
:102CB000DBF9702000F0D8F9204600F0D5F900F0DB
:102CC000D9F910BD10B50446034909782144C8B2AA
:102CD000FFF7EAFF10BD0000740000202DE9F0416D
:102CE00004460D4616461F464FF00008AA2000F085
:102CF000BBF9062C1CD2DFE804F003070B0F1317F7
:102D0000532000F0B1F913E06E2000F0ADF90FE0B0
:102D1000542000F0A9F90BE06F2000F0A5F907E0BE
:102D2000552000F0A1F903E0982000F09DF900BFC4
:102D300000BF281200F098F9E8B200F095F93012BF
:102D400000F092F9F0B200F08FF9052C1AD124208E
:102D500000F08AF9812000F087F9052000F084F95D
:102D600011490988081200F07FF90F49087800F02E
:102D70007BF90E490988081200F076F90B490878AA
:102D800000F072F907E017F8080000F06DF908F19B
:102D9000010000F0FF0817F808000028F3D100F048
:102DA00069F9BDE8F081000076000020780000207D
:102DB00010B5002400F0ACF8792839D12C480078FF
:102DC000B0BB01202A4908702A4800792949C978EE
:102DD00000EB012084B20020274908700DE027484D
:102DE0002549097800EB01108089A04200D10AE052
:102DF00021480078401C204908701F48007820496D
:102E000009788842EBDB00BF1B4800781C49097831
:102E100088420DDA19481849097800EB011000685A
:102E200030B11649144A127801EB02110868804744
:102E300000F06EF878281AD10D480078012816D1D4
:102E400000200B4908700C4800780D490978884229
:102E50000DDA0A480849097800EB0110406830B1E2
:102E60000649054A127801EB02114868804710BDF7
:102E700082000020880400208300002094040020A9
:102E80007500002010B50E4B1B781E2B16DA0D4B6B
:102E90000B4C247803EB041318600A4B084C24787D
:102EA00003EB04135960074B054C247803EB041320
:102EB0009A81034B1B785B1C014C237010BD0000F2
:102EC000750000209404002070B505460C46AA2029
:102ED00000F0CAF8302000F0C7F8284600F0C4F827
:102EE000204600F0C1F8A02000F0BEF800F0C2F8C3
:102EF00070BD10B50446AA2000F0B6F8322000F0EC
:102F0000B3F8204600F0B0F800F0B4F810BD0000AF
:102F10000148007870470000880400204F49097874
:102F20000A2971D2DFE801F0050D444C545C64714C
:102F30007D89AA2804D149490978491C474A11705A
:102F400089E0732807D145490978491C434A117023
:102F5000434908702BE0722806D100213F4A1170C6
:102F60007221404A117022E0E42805D104213B4A35
:102F700011703B4908701AE030B90021374A1170CE
:102F80007421384A117012E0792805D10421334A9E
:102F90001170334908700AE0782805D104212F4ABE
:102FA00011702F49087002E000212C4A117052E084
:102FB0002C49487029490978491C284A11704AE06F
:102FC0002849887025490978491C244A117042E033
:102FD0002449C87021490978491C204A11703AE0F7
:102FE000204908711D490978491C1C4A117032E0BA
:102FF000CC2805D119490978491C184A117002E0FA
:103000000021164A117026E021E0332805D113492A
:103010000978491C114A117002E000210F4A117011
:1030200019E0C32805D10D490978491C0B4A1170D4
:1030300002E00021094A11700DE03C2806D1002170
:10304000064A117006490978064A117003E000210A
:10305000024A117000BF00BF7047000084000020CA
:10306000850000208804002010B50446204600F0AA
:10307000B9FA10BD10B5CC20FFF7F6FF3320FFF7EB
:10308000F3FFC320FFF7F0FF3C20FFF7EDFF10BD7B
:1030900070B504460D460C4804800C480580AA20F3
:1030A000FFF7E2FF4020FFF7DFFF2012FFF7DCFF12
:1030B000E0B2FFF7D9FF2812FFF7D6FFE8B2FFF71B
:1030C000D3FFFFF7D7FF70BD760000207800002007
:1030D0000A2803D10A21074A117009E018B9002112
:1030E000044A117004E0462802D14621014A1170B9
:1030F000704700007400002010B5AA20FFF7B4FF4D
:103100003020FFF7B1FF0020FFF7AEFF0020FFF7F0
:10311000ABFF0020FFF7A8FFFFF7ACFF10BD0000DA
:1031200000BF04480078722803D00248007878284D
:10313000F7D17047880400202DE9F04104460D4680
:1031400016464FF4167094FBF0F0C7B23B46324679
:1031500029460520FFF792FD3C2094FBF0F00A2160
:1031600090FBF1F201FB1200C7B205F1180081B229
:103170003B4632460520FFF781FD3C2094FBF0F1F1
:1031800000FB11400A2190FBF1F0C7B205F14800A5
:1031900081B23B4632460520FFF770FD0A2094FBC2
:1031A000F0F100FB1140C7B205F1600081B23B466F
:1031B00032460520FFF762FDBDE8F08108B500202A
:1031C0000090FDF7F5FCFDF786FDFFF761FC4FF47D
:1031D000165000F09BF94FF4E13000F045F9002162
:1031E0004FF4E150FFF7AAF840F6B8312748FFF74F
:1031F0007EF900F009F9FF20FFF77BFE46216320EE
:10320000FFF76CF8FDF70AF90820214908704FF61E
:10321000FF714FF4FC60FFF73BFF012269461D4838
:10322000FEF736FEBDF8000018B10020FFF750FF92
:1032300002E00A20FFF74CFF27E0154800780A2833
:1032400021D2DFE800F0200B0E14171A081D05111B
:10325000FEF7E4FC18E0FEF77DFA15E0FEF738F91A
:1032600012E0FDF7AFFE0FE0FDF7B4FD0CE0FEF756
:1032700029FB09E0FEF72AFC06E0FEF7C1FA03E0AD
:10328000FDF7E4FF00E000BF00BFD6E70008004004
:103290003300002000F8000810B509480078C0F39A
:1032A000C00020B101210520FFF70EFE06E0092035
:1032B0000449087001210020FFF706FE10BD000040
:1032C000320000203300002010B509480078C0F318
:1032D000C00020B101210520FFF7F6FD06E0022025
:1032E0000449087001210020FFF7EEFD10BD000029
:1032F000320000203300002008B5002000900B4869
:10330000007820F00100401C084908700520084999
:10331000087001210020FFF7D7FD0A20FFF7D8FE33
:10332000012269460348FEF7C7FD08BD32000020B0
:103330003300002000F8000808B57B2000900B48FF
:10334000007820F00100401C084908700520084959
:10335000087001210020FFF7B7FD0020FFF7B8FE3D
:10336000012269460348FEF7A7FD08BD3200002090
:103370003300002000F8000810B509480078C0F3B9
:10338000C00020B101210520FFF79EFD06E00120CD
:103390000449087001210020FFF796FD10BD0000D0
:1033A000320000203300002010B509480078C0F337
:1033B000C00020B101210520FFF786FD06E00420B2
:1033C0000449087001210020FFF77EFD10BD0000B8
:1033D000320000203300002010B509480078C0F307
:1033E000C00020B101210520FFF76EFD06E003209B
:1033F0000449087001210020FFF766FD10BD0000A0
:10340000320000203300002010B5002415E0AA206F
:10341000FFF72AFE0020FFF727FEFFF72BFE05200F
:10342000FFF758FBFFF774FD742801D1FF2406E075
:10343000C820FFF74FFB601CC4B20A2CE7DB00BFBB
:10344000FF2C0BD009E006480068C0430549C1F8CD
:1034500090014FF4FA70FFF73DFBF4E710BD000058
:10346000900121420000214210B586B0044601219E
:103470000420FEF783FC01214804FEF75FFC0420D2
:10348000ADF8140018208DF8170005A91D48FDF7A8
:10349000EAF90820ADF8140048208DF8170005A9B6
:1034A0001848FDF7E0F91848FFF742F926208DF893
:1034B000000003208DF801008DF8020001208DF836
:1034C00003006846FDF70EFC01940020ADF80800EB
:1034D000ADF80A00ADF80C00ADF810000C20ADF806
:1034E0000E0001A90848FFF7CDF9012240F225514D
:1034F0000548FFF7A2F901210348FFF70DF906B0CF
:1035000010BD0000000801400044004010B586B026
:103510000446012144F20400FEF730FC2348FFF783
:1035200007F94FF40070ADF8140003208DF8160071
:1035300018208DF8170005A91D48FDF794F94FF4E0
:103540008060ADF8140048208DF8170005A91848D0
:10355000FDF789F925208DF8000003208DF8010082
:1035600002208DF8020001208DF803006846FDF767
:10357000B9FB01940020ADF80800ADF80A00ADF8E1
:103580000C00ADF810000C20ADF80E0001A90748A2
:10359000FFF778F9012240F225510448FFF74DF971
:1035A00001210248FFF7B8F806B010BD003801400D
:1035B0000008014010B5044600BF80210848FFF70D
:1035C00005F90028F9D021460548FFF7CCF900BFDE
:1035D00040210348FFF7FAF80028F9D010BD000099
:1035E0000038014010B5044600BF80210848FFF7AD
:1035F000EDF80028F9D021460548FFF7B4F900BFDF
:1036000040210348FFF7E2F80028F9D010BD000080
:10361000004400401600A40285001203D6001600E4
:10362000A2021A010F036C010C00A4028500120310
:10363000D6000C00A2021A010F036C0100007405F1
:103640001005AC044804E4031C035402F20100001A
:10365000D007A00FA00FE80388130000E803D007ED
:10366000B80BE803FA0000002400260028002A0016
:103670002C002E003000320000000B004A019001A7
:103680008403000003000200F000F4016E009A01C0
:10369000E803F203C20B64009001F401E803B80BE5
:1036A000C036000800000020880000002801000843
:1036B0004837000888000020500C00004401000832
:1036C00000A24A0400000000000000000102030400
:1036D00006070809000000000102030401020304B8
:1036E00006070809020406080000000000000000A8
:1036F00000000000000055010100AA0000000000C9
:1037000000000000000000000000000000000000B9
:1037100000000000000000000000000000000000A9
:103720000000000000000000000000000000000099
:10373000000000000000FFFF00000000000000008B
:08374000000000000000000081
:04000005080000ED02
:00000001FF
