:020000040800F2
:10000000D80C0020890100084D0D0008030B0008E2
:10001000D10C000839060008EB2C00080000000095
:10002000000000000000000000000000972200080F
:100030003D06000800000000751F0008DD240008D0
:10004000A3010008A3010008A3010008A301000800
:10005000A3010008A3010008F1060008A30100089D
:1000600025070008590700088D070008A3010008AC
:10007000A3010008A3010008A3010008A3010008D0
:10008000A3010008A3010008A3010008A3010008C0
:10009000A3010008A3010008A3010008A3010008B0
:1000A000A3010008A3010008A3010008A3010008A0
:1000B000A301000841250008A3010008A3010008CE
:1000C000A3010008A3010008A3010008A301000880
:1000D000A3010008312A0008552A0008792A0008DF
:1000E000A3010008A3010008A301000800F002F822
:1000F00000F03AF80AA090E8000C82448344AAF188
:100100000107DA4501D100F02FF8AFF2090EBAE885
:100110000F0013F0010F18BFFB1A43F0010318473B
:10012000D4390000F4390000103A24BF78C878C1EF
:10013000FAD8520724BF30C830C144BF04680C60ED
:10014000704700000023002400250026103A28BF35
:1001500078C1FBD8520728BF30C148BF0B60704739
:100160001FB51FBD10B510BD00F033F81146FFF7E5
:10017000F7FF03F0E7F900F051F803B4FFF7F2FFDF
:1001800003BC02F011FE00000948804709480047FF
:10019000FEE7FEE7FEE7FEE7FEE7FEE7FEE7FEE737
:1001A000FEE7FEE704480549054A064B7047000094
:1001B000E1240008ED000008D8060020D80C00203B
:1001C000D8080020D8080020704770477047704753
:1001D0007047754600F028F8AE460500694653465C
:1001E00020F00700854618B020B5FFF7DBFFBDE81B
:1001F00020404FF000064FF000074FF000084FF08E
:10020000000B21F00701AC46ACE8C009ACE8C0091E
:10021000ACE8C009ACE8C0098D4670470446AFF3AE
:1002200000802046FFF7A9FF0048704778060020AD
:1002300021B1826842F00102826003E0826822F00C
:10024000010282607047000010B5044612488442E3
:1002500008D10121401501F0CBFE0021601501F00D
:10026000C7FE17E00D48844208D10121001501F0B6
:10027000BFFE0021201501F0BBFE0BE008488442C0
:1002800008D10121C80301F0B3FE00214FF4004062
:1002900001F0AEFE10BD0000002401400028014026
:1002A000003C0140014600208A6802F004020AB1C5
:1002B000012000E0002070470146C86C80B2704702
:1002C0000246002013680B400BB1012000E0002023
:1002D0007047014600208A6802F008020AB1012036
:1002E00000E000207047000030B5024600200023E7
:1002F00050680F4C20400D790C6844EA05242043D7
:10030000506090680B4C2040D1E902542C434D7949
:1003100044EA450420439060D06A20F470000C7CCD
:10032000641EE4B2234340EA0350D06230BD0000B3
:10033000FFFEF0FFFDF7F1FFF0B504460D4600208B
:100340000021092D11DDE068A5F10A0606EB46073C
:10035000072606FA07F18843A5F10A0606EB4606CA
:1003600003FA06F10843E0600CE0206905EB45075D
:10037000072606FA07F1884305EB450603FA06F15E
:1003800008432061072A0FDA606B561E06EB8607CA
:100390001F2606FA07F18843561E06EB860605FA65
:1003A00006F10843606322E00D2A0FDA206BD61FA6
:1003B00006EB86071F2606FA07F18843D61F06EBD1
:1003C000860605FA06F10843206310E0E06AA2F110
:1003D0000D0606EB86071F2606FA07F18843A2F1F1
:1003E0000D0606EB860605FA06F10843E062F0BD4D
:1003F000816841F008018160704721B1826842F450
:10040000A002826003E0826822F4A002826070474A
:10041000816841F0040181607047000000B587B039
:1004200001214FF4017001F0D3FD4FF4004001F0C1
:10043000A3FD8020ADF8040000208DF8070001A97D
:10044000174800F04CFA1748FFF7FEFE0020029014
:100450008DF80C008DF80D004FF460200490002002
:10046000059001208DF8180002A90E48FFF73CFF07
:1004700001210C48FFF7DCFE0A48FFF7B9FF00BF77
:100480000848FFF726FF0028FAD10648FFF7C0FF0B
:1004900000BF0448FFF706FF0028FAD107B000BDEF
:1004A000000801400024014010B5002938D0214A3D
:1004B0001288521C92B21F4B1A801F4B1F4C24787B
:1004C00033F814309A4204DB00221A4B1A801B4A7C
:1004D00010701B4A194B1B7832F81320154B1B88E0
:1004E0009A4216DD174A1288521C92B2154B1A8096
:1004F000B2F5A57F01DB00221A80124A1288022A77
:1005000003DA0022104B1A6012E001220E4B1A602F
:100510000EE001220C4B1A6000220A4B1A8007E001
:100520000022084B1A80034B1A800122064B1A60E6
:1005300010BD00006A000020CC3A00086C000020CA
:10054000D63A0008680000209C812142E1B1114A9E
:100550001288521C92B20F4B1A804B2A03DB0022E6
:100560001A800D4A10700D4A0B4B1B7832F813207D
:10057000084B1B889A4203DD0122094B1A6008E0F0
:100580000022074B1A6004E00022024B1A80044B41
:100590001A6070476E00002070000020BA3A000810
:1005A0009881214210B50121002002F04BFE062067
:1005B0000149087010BD0000330000201848007881
:1005C000002826DD17480088401C80B215490880A5
:1005D0001549164A127831F81210884208DB0020BB
:1005E000104908800E480078401E0D49087015E03B
:1005F0000F480E49097830F811000A4909888842E5
:1006000003DC00200B49086008E00120094908606C
:1006100004E0002003490880064908607047000094
:100620006300002072000020E03A00086200002011
:10063000EA3A00089001214200BFFEE770472DE929
:10064000F04104460D4616460A2094FBF0F0C7B26E
:100650003B4632462946052002F0CEFC0A2094FB98
:10066000F0F100FB1140C7B205F1180081B23B4622
:100670003246052002F0C0FCBDE8F08170B50446AA
:100680000D46164604F14000C3B232462946052005
:1006900002F0A2FC70BD2DE9F04105460C4617465C
:1006A000642095FBF0F0C6B20A2096FBF0F000F053
:1006B000FF0843463A462146052002F09DFC04F11E
:1006C000180081B22E233A46052002F085FC0A204C
:1006D00096FBF0F100FB116000F0FF0804F1300020
:1006E00081B243463A46052002F086FCBDE8F0811F
:1006F00010B50A2002F0ACFB0121084800F0C2F955
:10070000012807D10648006808B9012000E0002050
:1007100003490860012000F053F810BD00080140B3
:100720009401234210B50A2002F092FB04210848EC
:1007300000F0A8F938B90748006808B9012000E0BE
:10074000002004490860042000F03AF810BD0000C1
:10075000001801409481214210B50A2002F078FB74
:100760000821084800F08EF938B90748006808B930
:10077000012000E0002004490860082000F020F873
:1007800010BD0000001801409401234210B50A205A
:1007900002F05EFB1021084800F074F938B90748F0
:1007A000006808B9012000E000200449086010201A
:1007B00000F006F810BD00000018014094812142AD
:1007C00001490860704700001404014030B5044638
:1007D00004254FF4302000F06FF80546042D17D1A2
:1007E0000C48006940F002000A490861084644616B
:1007F000006940F0400008614FF4302000F05CF8E0
:1008000005460448006941F6FD7108400149086148
:10081000284630BD0020024004200B49C96801F081
:10082000010109B101200EE00749C96801F0040186
:1008300009B1022007E00449C96801F0100109B1BB
:10084000032000E0042070470020024003480069B4
:1008500040F080000149086170470000002002401C
:1008600070B504460D460426F00200F025F8064651
:10087000042E11D10948006940F0010007490861C0
:100880002580F00200F018F806460448006941F699
:10089000FE71084001490861304670BD00200240E9
:1008A0000248034948600348486070472301674590
:1008B00000200240AB89EFCD00B502460423FFF7CC
:1008C000ABFF034603E0FFF7A7FF0346521E012BD1
:1008D00001D1002AF7D102B90523184600BD2DE940
:1008E000F0410246002500260020002300240027B6
:1008F00091F803C00CF00F0591F803C00CF0100C38
:10090000BCF1000F03D091F802C04CEA050591F844
:1009100000C0BCF1000F31D0146800202BE04FF074
:10092000010C0CFA00F3B1F800C00CEA03069E4279
:1009300020D183004FF00F0C0CFA03F7BC4305FAEB
:1009400003FC4CEA040491F803C0BCF1280F06D163
:100950004FF0010C0CFA00FCC2F814C00AE091F848
:1009600003C0BCF1480F05D14FF0010C0CFA00FC9C
:10097000C2F810C0401C0828D1D31460B1F800C0E0
:10098000BCF1FF0F34DD546800202EE000F1080CAC
:100990004FF0010808FA0CF3B1F800C00CEA0306A6
:1009A0009E4221D183004FF00F0C0CFA03F7BC4399
:1009B00005FA03FC4CEA040491F803C0BCF1280FCB
:1009C00005D100F1080C08FA0CF8C2F8148091F86F
:1009D00003C0BCF1480F07D100F1080C4FF001082B
:1009E00008FA0CF8C2F81080401C0828CED35460D6
:1009F000BDE8F081F0B50A4600230024002100255F
:100A000000F00046B6F1004F02D11D4EF16901E041
:100A10001B4E7168C0F3034583B200F44016B6F56F
:100A2000401F08D121F07061154E766826F070667F
:100A3000134F7E6012E000F48016B6F5801F06D1D9
:100A4000032606FA05F4A14341F0706106E0460D65
:100A5000360103FA06F6B14341F0706122B1460D4A
:100A6000360103FA06F6314300F00046B6F1004FB6
:100A700002D1034EF16101E0014E7160F0BD000052
:100A8000000001400246002093680B400BB101209A
:100A900000E000207047416170470161704700002D
:100AA00010B504460723012221460948FFF744FCFC
:100AB00001210748FFF7A1FC00BF02210448FFF70E
:100AC000FFFB0028F9D00248FFF7F6FB10BD00003D
:100AD000002401402DE9F04107460C460025002680
:100AE00008E03846FFF7DCFF0544642002F0D6F941
:100AF000701CC6B2A642F4DBB5FBF4F080B2BDE8D0
:100B0000F08100BFFEE7000010B50121002002F0D7
:100B100099FB1B48007801280DD01948007802285D
:100B200009D018480078012821DD16480078401EB9
:100B3000144908701BE013480078012817DD11489C
:100B40000078401E0F490870084600780A2804DC27
:100B5000084600780C49887006E00A4800780A21A7
:100B6000C1EB400008498870012008490870084816
:100B700002880848018803480078FFF760FD10BD2F
:100B8000330000203E000020360000203500002009
:100B90004C0000204A00002010B50121002002F086
:100BA00051FB1B48007801280DD019480078022815
:100BB00009D018480078082821DA16480078401C27
:100BC000144908701BE0134800780F2817DA114801
:100BD0000078401C0F490870084600780A2804DC99
:100BE000084600780C49887006E00A4800780A2117
:100BF000C1EB400008498870012008490870084886
:100C000002880848018803480078FFF718FD10BDE6
:100C1000330000203E000020360000203500002078
:100C20004C0000204A00002008B501210D2001F0F1
:100C3000CFF910208DF8030003208DF8020010205A
:100C4000ADF8000069460E48FFF749FE10210C4838
:100C5000FFF721FF01210B48FFF7CCFE41F2FB20FB
:100C6000ADF8000069460848FFF739FE41F27B21E4
:100C70000548FFF710FF80210348FFF70EFF08BD6E
:100C80000008014000023000000C014010B50E4881
:100C90000078012816D100200B4908700B4908780C
:100CA00002F0A8FE0949487802F0A4FE07498878B6
:100CB00002F0A0FE0549C87802F09CFE03490879BD
:100CC00002F098FE10BD0000350000203600002024
:100CD00000BFFEE710B50121002002F0B3FA094879
:100CE0000078012804DD07480078401E0549087097
:100CF000054802880548018802480078FFF7BEFCD5
:100D000010BD00003F000020500000204E000020D9
:100D100010B50121002002F095FA09480078042856
:100D200004DA07480078401C054908700548028825
:100D30000548018802480078FFF7A0FC10BD0000BC
:100D40003F000020500000204E000020704710B5EA
:100D50004FF4A06000F03AF810BD000070B500211B
:100D600000230F22C47804B3154C246804F4E06413
:100D7000C4F5E064210AC1F10403CA40447804FACE
:100D800003F184781440214309010E4C0678A155E3
:100D9000047804F01F050124AC4005786D11AD0006
:100DA00005F1E025C5F8004109E0047804F01F05CD
:100DB0000124AC40044D0678761145F8264070BDFC
:100DC0000CED00E000E400E080E100E002490143B6
:100DD000024A1160704700000000FA050CED00E0C7
:100DE00010B5BAB10E4B1B885B1C9BB20C4C238018
:100DF0004418A34202DB0023094C2380084B1B88C4
:100E0000834203DA0023074C236008E00123054CEA
:100E1000236004E00023024C2380024C236010BDB9
:100E2000660000208081214210B54FF4E1606049E6
:100E3000088001205F4908705F4908705F480078AA
:100E400020F001005D4908704FF488705C4908800B
:100E500040F21F105B4908804FF496705A49088091
:100E60008E205A49088040F23F1059490880D3200B
:100E700058490880584883884288012102F092F836
:100E8000504802884E4801884948008802F018FB03
:100E90004E4802884C48018846480078FFF7CFFB4F
:100EA0004C4802884A48018843480078FFF7E6FB2F
:100EB00002F01AF810220021484802F0A1F912228B
:100EC0000021474802F09CF911220021454802F018
:100ED00097F913220021444802F092F914220021CC
:100EE000424802F08DF921220021414802F088F9A0
:100EF000202200213F4802F083F9312200213E48A0
:100F000002F07EF9322200213C4802F079F93322C6
:100F100000213B4802F074F934220021394802F0E4
:100F20006FF939220021384802F06AF93A2200218B
:100F3000364802F065F930E002F0F8F834480078FD
:100F4000092810D01D48007820F00100401C1B49E2
:100F500008700846007820F00800087008460078FD
:100F600020F02000087001F0C3FE14480078C0F3A0
:100F7000C00010B9052001F06BFF10480078C0F3E5
:100F8000001050B10D48007820F010000B49087097
:100F9000012020490870FFF779FE0848007800F02A
:100FA00001000028C8D002F07FFA02F0BFF810BD9F
:100FB0003C0000203E0000203F00002032000020C6
:100FC00046000020480000204A0000204C0000207D
:100FD0004E000020500000205E3A0008F536000860
:100FE0005D360008253700080D3700084536000833
:100FF00081230008D51E0008F5290008B92900083A
:10100000990B0008090B0008110D0008D50C000809
:10101000330000203500002010B5002088490870FA
:101020004FF4E16087490880012087490870022059
:10103000864948708448007888700020C8708448C9
:10104000007820F00100824908704FF488708149CF
:1010500008804FF48170804908804FF496707F4972
:101060000880BB207E4908807E4883884288012111
:1010700001F098FF78480288764801887148008816
:1010800002F01EFA76480288744801886E4800789B
:10109000FFF7D5FA01F028FF10220021724802F074
:1010A000AFF812220021714802F0AAF811220021A3
:1010B0006F4802F0A5F8132200216E4802F0A0F854
:1010C000142200216C4802F09BF8212200216B4879
:1010D00002F096F820220021694802F091F83122AE
:1010E0000021684802F08CF832220021664802F0A4
:1010F00087F833220021654802F082F8342200216B
:10110000634802F07DF88EE002F010F86148007844
:10111000022817D001204A4908704D48007820F075
:101120000100401C4A49087000204849C8704848DE
:10113000007820F00800464908700846007820F042
:101140002000087001F0D4FD41480078C0F3001081
:1011500050B13F48007820F010003D490870012050
:1011600037490870FFF792FD39480078C0F3400016
:10117000002858D03648007820F002003449087022
:1011800045480078EE2821D10121042002F05AF8C8
:10119000424883884288012101F004FF3148838856
:1011A0004288012101F0FEFE00202849C87028482D
:1011B000007820F00800264908700846007820F0E2
:1011C0002000087001201E4908702CE03248007889
:1011D000A02810D11E480078C0F3C00058B11C48A8
:1011E000007820F0200020301949087001210020EB
:1011F00002F028F817E028480078A12813D11448F5
:101200000078C0F3C00070B111480078C0F34010FE
:1012100048B10F48007820F020000D4908700121E6
:10122000002002F00FF80A48007800F001000028C2
:101230003FF46AAF02F038F901F078FF10BD00000A
:10124000350000203C0000203E0000203600002039
:101250003200002046000020480000204A00002004
:101260004C0000205E3A0008F53600085D360008A4
:10127000253700080D37000845360008812300088F
:10128000D51E0008F5290008B9290008990B0008A7
:10129000090B0008330000205D000020723A0008AE
:1012A00010B50020874908704FF4E1608649088036
:1012B0000120864908708649487084480078887003
:1012C0000020C8708348007820F001008149087030
:1012D0004FF48870804908804FF481707F490880FE
:1012E0004FF496707E490880BB207E4908807E4876
:1012F00083884288012101F055FE784802887648AB
:1013000001887148008802F0DBF87648028874484A
:1013100001886E480078FFF792F901F0E5FD102290
:101320000021724801F06CFF12220021704801F088
:1013300067FF112200216F4801F062FF1322002194
:101340006D4801F05DFF142200216C4801F058FF48
:10135000212200216A4801F053FF20220021694820
:1013600001F04EFF31220021674801F049FF32228F
:101370000021664801F044FF33220021644801F057
:101380003FFF34220021634801F03AFF8EE001F074
:10139000CDFE61480078072817D001204949087020
:1013A0004C48007820F00100401C4A490870002099
:1013B0004749C8704748007820F008004549087040
:1013C0000846007820F02000087001F091FC4148A8
:1013D0000078C0F3001050B13E48007820F01000B3
:1013E0003C490870012037490870FFF74FFC394825
:1013F0000078C0F34000002858D03648007820F02C
:1014000002003449087045480078EE2821D10121B6
:10141000042001F017FF424883884288012101F02F
:10142000C1FD314883884288012101F0BBFD0020C5
:101430002749C8702748007820F00800254908701F
:101440000846007820F02000087001201D4908702F
:101450002CE032480078A02810D11E480078C0F354
:10146000C00058B11B48007820F0200020301949F6
:1014700008700121002001F0E5FE17E02748007800
:10148000A12813D113480078C0F3C00070B11148EF
:101490000078C0F3401048B10E48007820F02000DA
:1014A0000C4908700121002001F0CCFE09480078A9
:1014B00000F0010000283FF46AAF01F0F5FF01F0F1
:1014C00035FE10BD350000203C0000203E0000200D
:1014D0003600002032000020460000204800002096
:1014E0004A0000204C0000205E3A0008F536000853
:1014F0005D360008253700080D370008453600081E
:1015000081230008D51E0008F5290008B929000824
:10151000990B0008090B0008330000205D00002033
:10152000723A000810B50020874908704FF4E16056
:101530008649088001208649087086494870844899
:10154000007888700020C8708348007820F001007F
:10155000814908704FF48870804908804FF4817089
:101560007F4908804FF496707E490880BB207E49F1
:1015700008807E4883884288012101F013FD784865
:101580000288764801887148008801F099FF764802
:101590000288744801886E480078FFF750F801F01F
:1015A000A3FC10220021724801F02AFE1222002121
:1015B000704801F025FE112200216F4801F020FE45
:1015C000132200216D4801F01BFE142200216C48FB
:1015D00001F016FE212200216A4801F011FE2022AE
:1015E0000021694801F00CFE31220021674801F01A
:1015F00007FE32220021664801F002FE332200215C
:10160000644801F0FDFD34220021634801F0F8FD3B
:101610008EE001F08BFD61480078012817D0012091
:10162000494908704C48007820F00100401C4A49A4
:10163000087000204749C8704748007820F008002B
:10164000454908700846007820F02000087001F035
:101650004FFB41480078C0F3001050B13E4800787D
:1016600020F010003C490870012037490870FFF74E
:101670000DFB39480078C0F34000002858D03648A8
:10168000007820F002003449087045480078EE28C0
:1016900021D10121042001F0D5FD424883884288F0
:1016A000012101F07FFC314883884288012101F04B
:1016B00079FC00202749C8702748007820F00800EE
:1016C000254908700846007820F0200008700120A5
:1016D0001D4908702CE032480078A02810D11E481F
:1016E0000078C0F3C00058B11B48007820F02000FB
:1016F0002030194908700121002001F0A3FD17E0F6
:1017000027480078A12813D113480078C0F3C000FF
:1017100070B111480078C0F3401048B10E4800780D
:1017200020F020000C4908700121002001F08AFD02
:101730000948007800F0010000283FF46AAF01F08A
:10174000B3FE01F0F3FC10BD350000203C0000208A
:101750003E0000203600002032000020460000201D
:10176000480000204A0000204C0000205E3A00089B
:10177000F53600085D360008253700080D370008EB
:101780004536000881230008D51E0008F529000809
:10179000B9290008990B0008090B00083300002044
:1017A0005D000020723A000810B53048007820F043
:1017B00001002E490870562340F2492202210120DF
:1017C00001F00AFC322340F249220821012001F0F5
:1017D00003FC2E2340F249220E21012001F0FCFBE4
:1017E000332340F249221421012001F0F5FB204867
:1017F000007830B11F4883884288002101F0D2FB75
:1018000005E01D4883884288002101F0CBFB01F0F0
:101810006BFB41220021194801F0F2FC4222002119
:10182000174801F0EDFC45220021164801F0E8FCC4
:1018300011E001F07BFC0D480078C0F3001050B1BE
:101840000A48007820F010000849087001200E496D
:101850000870FFF71BFA0548007800F00100002827
:10186000E7D001F021FE01F061FC10BD3200002044
:1018700040000020863A0008683A000875360008E3
:10188000B53600083D3700083500002010B5274860
:10189000007820F001002549087001F025FB102296
:1018A0000021234801F0ACFC12220021214801F064
:1018B000A7FC11220021204801F0A2FC13220021E4
:1018C0001E4801F09DFC142200211D4801F098FCE7
:1018D000442200211B4801F093FC1CE001F026FC8F
:1018E00019480078052806D01048007820F001003B
:1018F000401C0E4908700D480078C0F3001050B12C
:101900000A48007820F010000849087001200F49AB
:101910000870FFF7BBF90548007800F001000028C7
:10192000DCD001F0C1FD01F001FC10BD320000204F
:10193000F53600085D360008253700080D37000829
:1019400045360008A50500083300002035000020BA
:1019500010B500207E4908604FF4E1607D490880A1
:1019600001207D4908707D4908704FF47A707C49E8
:1019700008807C4908807C48007820F001007A4982
:1019800008704FF488707949088040F23510784922
:1019900008804FF4967077490880EA2076490880DD
:1019A00040F2251075490880A5207549088040F24D
:1019B0002510744908805D20734908807348838826
:1019C0004288012101F0EEFA6948028867480188DF
:1019D0006048008801F074FD674802886548018806
:1019E0005D480078FEF72BFE654802886348018851
:1019F0005B480088FEF74FFE634802886148018813
:101A000058480088FEF747FE01F06EFA10220021C8
:101A10005F4801F0F5FB122200215E4801F0F0FB67
:101A2000112200215C4801F0EBFB132200215B48EE
:101A300001F0E6FB14220021594801F0E1FB2122CC
:101A40000021584801F0DCFB20220021564801F01B
:101A5000D7FB31220021554801F0D2FB3222002170
:101A6000534801F0CDFB33220021524801F0C8FB5E
:101A700034220021504801F0C3FB372200214F4897
:101A800001F0BEFB382200214D4801F0B9FB3522A0
:101A900000214C4801F0B4FB362200214A4801F0F5
:101AA000AFFB46E001F042FB48480078032810D025
:101AB0002D48007820F00100401C2B490870084692
:101AC000007820F0080008700846007820F0200018
:101AD000087001F00DF924480078C0F3C00060B12F
:101AE00006210720FEF7F6FF3949088000F004FFC1
:101AF00001201749083108600BE00020144920310B
:101B000008603449C1F88001114908310860324940
:101B1000087015480078C0F3001050B112480078E2
:101B200020F010001049087001202C490870FFF7C0
:101B3000ADF80D48007800F001000028B2D0002078
:101B40000349086001F0B0FC01F0F0FA10BD00009C
:101B5000848121423C0000203E0000203F00002004
:101B600044000020420000203200002046000020F7
:101B7000480000204A0000204C00002056000020B1
:101B80005800002052000020540000205E3A000857
:101B9000F53600085D360008253700080D370008C7
:101BA0004536000881230008D51E0008F5290008E5
:101BB000B9290008990B0008090B00082121000829
:101BC000E5200008752400083924000833000020AF
:101BD0005A000020008021425C00002035000020D7
:101BE00010B501207E4908604FF4E1607D4908800E
:101BF00001207D4908707D4908704FF47A707C4956
:101C000008807C4908807C48007820F001007A49EF
:101C100008704FF488707949088040F2351078498F
:101C200008804FF4967077490880EA20764908804A
:101C300040F2251075490880A5207549088040F2BA
:101C40002510744908805D20734908807348838893
:101C50004288012101F0A6F9694802886748018895
:101C60006048008801F02CFC6748028865480188BC
:101C70005D480078FEF7E3FC654802886348018808
:101C80005B480088FEF707FD6348028861480188C9
:101C900058480088FEF7FFFC01F026F910220021C9
:101CA0005F4801F0ADFA122200215E4801F0A8FA67
:101CB000112200215C4801F0A3FA132200215B48A5
:101CC00001F09EFA14220021594801F099FA2122CC
:101CD0000021584801F094FA20220021564801F0D2
:101CE0008FFA31220021554801F08AFA3222002170
:101CF000534801F085FA33220021524801F080FA5E
:101D000034220021504801F07BFA372200214F484D
:101D100001F076FA382200214D4801F071FA35229F
:101D200000214C4801F06CFA362200214A4801F0AB
:101D300067FA46E001F0FAF948480078042810D024
:101D40002D48007820F00100401C2B4908700846FF
:101D5000007820F0080008700846007820F0200085
:101D6000087000F0C5FF24480078C0F3C00060B1DF
:101D700006210720FEF7AEFE3949088000F0BCFDC1
:101D800001201749083108600BE000201449203178
:101D900008603449C1F880011149083108603249AE
:101DA000087015480078C0F3001050B11248007850
:101DB00020F010001049087001202C490870FEF72F
:101DC00065FF0D48007800F001000028B2D0002027
:101DD0000349086001F068FB01F0A8F910BD00009C
:101DE000848121423C0000203E0000203F00002072
:101DF0004400002042000020320000204600002065
:101E0000480000204A0000204C000020560000201E
:101E10005800002052000020540000205E3A0008C4
:101E2000F53600085D360008253700080D37000834
:101E30004536000881230008D51E0008F529000852
:101E4000B9290008990B0008090B00082121000896
:101E5000E52000087524000839240008330000201C
:101E60005A000020008021425C0000203500002044
:101E70003EB50024002001F0D5F81448007820F089
:101E8000010012490870332411E000204FF405725C
:101E9000CDE900204FF43F730246014602902046F0
:101EA00001F028F8642000F0D3FF601CC4B2432C7A
:101EB000EBDD01F0E5FA0520054908704FF4FA70F2
:101EC00000F0C6FF0B2001F0BBF83EBD3200002041
:101ED0003300002010B50121032001F0B3F91F48A1
:101EE000007801281BD01D480078022817D01C4814
:101EF000007820F008001A4908700846007820F0A1
:101F000020000870174883884288012101F04AF8B0
:101F1000154883884288012101F044F81CE0002024
:101F20001249C8700E48007820F008000C4908706B
:101F30000846007820F02000087001200C49087045
:101F4000084883884288012101F02CF806488388DC
:101F50004288012101F026F810BD00003300002066
:101F600032000020723A00085E3A00083600002075
:101F7000350000207047000001460020034A5068E9
:101F800020F44040084350607047000000100240B9
:101F900029B1064AD2690243044BDA6104E0034ADC
:101FA000D2698243014BDA617047000000100240A1
:101FB00029B1064A12690243044B1A6104E0034A3C
:101FC00012698243014B1A61704700000010024001
:101FD00029B1064A92690243044B9A6104E0034A1C
:101FE00092698243014B9A617047000000100240E1
:101FF00029B1064AD2680243044BDA6004E0034A7E
:10200000D2688243014BDA60704700000010024042
:1020100030B500210022002400232D4D6D6805F00D
:102020000C0121B1042905D0082923D105E0294D4F
:10203000056022E0274D05601FE0254D6D6805F421
:102040007012234D6D6805F48034022505EB924231
:102050001CB9214D554305600BE01D4D6D6805F41D
:1020600000351DB11C4D5543056002E0194D554327
:10207000056002E0174D056000BF00BF144D6D689C
:1020800005F0F0010909154D6B5C0568DD40456000
:102090000F4D6D6805F4E061090A104D6B5C4568F1
:1020A000DD4085600A4D6D6805F46051C90A0B4D2D
:1020B0006B5C4568DD40C560054D6D6805F44041C9
:1020C000890B074D6B5CC568B5FBF3F5056130BD49
:1020D0000010024000127A0000093D0014000020A8
:1020E0002400002010B50121002001F0ABF80948C0
:1020F0000088642804DD07480088643805490880A2
:10210000054802880548018802480088FEF7C3FA9E
:1021100010BD0000440000205800002056000020A0
:1021200010B50121002001F08DF80A48008840F622
:10213000B831884204DA07480088643005490880CD
:10214000054802880548018802480088FEF7A3FA7E
:1021500010BD000044000020580000205600002060
:1021600030B503460C461546002207E0184600F03D
:1021700008F824F812009B1C501C82B2AA42F5DB1E
:1021800030BD0146088870472DE9F05F80468A46D9
:102190001746B8F1006F02D33348804501D3BDE83C
:1021A000F09FFEF77DFBA8F1006B4FEA9B25CBF378
:1021B0004809C9F50074A74200DC3C464DE04FF0E9
:1021C000006101EB85208A142849FFF7C9FF00262A
:1021D0000BE009EB0600254931F810004FF6FF71BE
:1021E000884200D003E0701C86B2A642F1DB00BF3B
:1021F000A6421BDA4FF0006101EB8520FEF7E6FAFC
:10220000002608E03AF8160006EB0901174A22F802
:102210001100701C86B2A642F4DB4FF0006101EBA6
:1022200085208A14114900F023F804E02246514623
:10223000404600F01DF8A74200D10FE06D1C4FF0A2
:1022400000090AEB440AA044381B87B2B7F5007FA7
:1022500002DD4FF4007400E03C46B0E700BFFEF73B
:10226000F5FA00BF9BE70000000001088C00002089
:102270002DE9F04105460E461746002407E036F8E2
:1022800014102846FEF7ECFAAD1C601C84B2BC4268
:10229000F5DBBDE8F081704710B500F001F810BD26
:1022A0000CB50020019000903348006840F4803065
:1022B0003149086000BF3048006800F400300090E9
:1022C0000198401C0190009818B90198B0F5A06FD2
:1022D000F1D12948006800F4003010B101200090CD
:1022E00001E0002000900098012843D123480068B5
:1022F00040F01000214908600846006820F0030003
:1023000008600846006840F0020008601A4840680B
:10231000194948600846406848600846406840F4EB
:10232000806048600846406820F47C104860084699
:10233000406840F4E81048600846006840F080704B
:10234000086000BF0C48006800F000700028F9D059
:102350000948406820F00300074948600846406883
:1023600040F00200486000BF0348406800F00C00E5
:102370000828F9D10CBD00000010024000200240E6
:1023800010B50121022000F05DFF244800780128EB
:1023900024D022480078022820D02148007820F05C
:1023A000080008301E4908700846007820F0200018
:1023B000203008701B4883884288012100F0F2FD1C
:1023C000194883884288012100F0ECFD17480088F5
:1023D00018BB4FF4E160154908801EE00120144944
:1023E00008701449C8700E48007820F008000830C2
:1023F0000B4908700B4883884288012100F0D2FD08
:10240000094883884288012100F0CCFD07480088F4
:1024100018B94FF4E1600549088010BD3300002071
:1024200032000020543A00087C3A00083C000020AA
:10243000350000203600002010B50121002000F0FA
:1024400001FF09480088642804DD074800886438D3
:102450000549088005480288054801880248008827
:10246000FEF719F910BD00004200002054000020C2
:102470005200002010B50121002000F0E3FE0A48C0
:10248000008840F6B831884204DA07480088643092
:1024900005490880054802880548018802480088E7
:1024A000FEF7F9F810BD00004200002054000020A3
:1024B00052000020042808D14FF0E021096941F0C2
:1024C00004014FF0E022116107E04FF0E0210969BB
:1024D00021F004014FF0E0221161704770470000C5
:1024E00010B51348006840F0010011490860084623
:1024F0004068104908400E494860084600680E4987
:1025000008400B4908600846006820F480200860F5
:102510000846406820F4FE0048604FF41F008860C1
:10252000FFF7BAFE4FF000600449086010BD0000DC
:10253000001002400000FFF8FFFFF6FE08ED00E08B
:1025400010B50121334800F00EF9002860D00121B8
:10255000304800F0F9F83048007809280FD12F48AA
:102560000078C0F3C0012E480078FDF79DFF2B488E
:102570000078C0F3C0012B480078FDF7E7FF2A4838
:102580000088401C80B228490880B0F5FA6F08DB4B
:10259000002008802148007820F0100010301F49EA
:1025A000087022480088401C80B2204908800A2810
:1025B00015DB00200880FEF701F817480078032893
:1025C00003D015480078042809D114480078C0F3D6
:1025D000C0021748018817480088FEF701FC0F4821
:1025E0000078C0F3401098B113480088401C80B2B6
:1025F0001149088042F21071884209DB00200E491F
:1026000008800648007820F00400001D0349087087
:1026100010BD000000040040330000203200002004
:102620003F0000203E0000202E000020300000204F
:1026300044000020420000202C0000207FB5054609
:102640000C4601210220FFF7A3FCADF80850ADF8BD
:1026500004400020ADF80A00ADF8060001A90E48BC
:1026600000F0F8F8012211460B4800F08DF81D200B
:102670008DF8000002208DF8010003208DF8020083
:1026800001208DF803006846FEF768FB012102482F
:1026900000F05DF87FBD00000004004030B589B057
:1026A00005460C4601210420FFF772FC0121082099
:1026B000FFF78EFC4FF48070ADF8200018208DF8E5
:1026C000230003208DF8220008A91748FEF707F918
:1026D000ADF81850ADF814400020ADF81A00ADF870
:1026E000160005A9114800F0B5F87020ADF80400F7
:1026F0000120ADF806000020ADF80A000220ADF878
:102700000C0001A9094800F049F80821074800F029
:1027100095F80121054800F00BF80121034800F06D
:1027200016F809B030BD0000000C01400008004060
:1027300021B1028842F08002028004E002884FF654
:102740007F731A4002807047CA430282704721B1EA
:10275000028842F00102028004E002884FF6FE7314
:102760001A400280704730B5024600200023002442
:10277000158A05EA0103958905EA010413B10CB134
:10278000012000E0002030BD1AB183890B43838112
:1027900002E083898B4383817047000070B5002479
:1027A00000220023058C4FF6FF6635400584028C1D
:1027B0008388848B4FF68F752C404FF6FC752C4028
:1027C0000D882C434FF6FF552A400D894FF6FF76B2
:1027D00006EA05252A434D8806EA05252A43154DB4
:1027E000A84202D0144DA8421DD14FF2FF752A40D5
:1027F0004D894FF6FF7606EA05252A434FF6FF3549
:102800002A408D8806EA05252A434EF6FF752B409F
:102810004DF6FF752B408D8906EA05152B43CD89B2
:1028200006EA05152B4383808483CD88858702843F
:1028300070BD0000002C0140003401400A46002118
:10284000818B4FF6F773194011438183704781875D
:1028500070470000002202881D4B98420ED01D4B8D
:1028600098420BD0B0F1804F08D01B4B984205D056
:102870001A4B984202D01A4B984204D14FF68F73EC
:102880001A404B881A43174B984207D0164B984270
:1028900004D04FF6FF431A40CB881A4302808B883E
:1028A00083850B8803850A4B98420BD0094B9842CD
:1028B00008D00E4B984205D00D4B984202D00D4BDC
:1028C000984201D10B7A038601238382704700006E
:1028D000002C01400034014000040040000800408A
:1028E000000C004000100040001400400040014077
:1028F000004401400048014010B529480088B0F567
:102900007A6F03DA2648008864281BDC2548008893
:10291000401C80B22349088042F2107188423DDB9E
:1029200008462049088020480078002836D1012038
:102930001D49087000201D4908600121042000F095
:1029400081FC2BE017480088192805DB1548008812
:1029500019381449088002E0002012490880114803
:10296000008810B9002010490870114811490978F1
:1029700030F8110010300A490988884202DC012031
:102980000A4908600A480B49097830F811000449DF
:102990000988884202DB00200449086010BD00005D
:1029A0005A000020640000205C000020A481214225
:1029B000903A00083E00002010B50121002000F0F0
:1029C00041FC094800883C2804DD074800883C3861
:1029D00005490880054802880548018802480088A2
:1029E00000F06EFD10BD00003C00002048000020FB
:1029F0004600002010B50121002000F023FC09480A
:102A00000088B0F5616F04DA064800883C3005495B
:102A1000088005480288054801880248008800F0BF
:102A20004FFD10BD3C000020480000204600002063
:102A300010B540F22551064800F093F830B1044833
:102A400000F04AF9C4B2204600F0B2F910BD00000F
:102A50000038014010B540F22551064800F081F8D9
:102A600030B1044800F038F9C4B2204600F01AFC36
:102A700010BD00000044004010B540F2255104484C
:102A800000F06FF810B1024800F026F910BD000008
:102A90000048004021B1828942F40052828104E062
:102AA00082894DF6FF731A408281704710B5044643
:102AB0002048844209D101218803FFF799FA0021B7
:102AC0004FF48040FFF794FA32E01B48844209D16A
:102AD00001214804FFF76CFA00214FF40030FFF7A2
:102AE00067FA25E01548844209D101218804FFF7DF
:102AF0005FFA00214FF48020FFF75AFA18E01048DF
:102B0000844209D10121C804FFF752FA00214FF491
:102B10000020FFF74DFA0BE00A48844208D101215A
:102B20000805FFF745FA00214FF48010FFF740FA3F
:102B300010BD000000380140004400400048004043
:102B4000004C00400050004002460020B1F5007FDC
:102B500000D100BF13880B400BB1012000E0002022
:102B6000704770B50246002400230025002040F67F
:102B70006A16B14200D100BFC1F3421501F01F0334
:102B8000012606FA03F3012D02D19689334006E0AF
:102B9000022D02D1168A334001E0968A33400C128E
:102BA000012606FA04F41688344013B10CB1012052
:102BB00000E0002070BDF0B503460024002600258B
:102BC000002040F66A17B94200D100BF1846C1F391
:102BD000421401F01F06012707FA06F5012C01D166
:102BE0000C3004E0022C01D1103000E014301AB196
:102BF00007682F43076002E00768AF430760F0BD36
:102C00002DE9F04786B005460E460024A24600BFD7
:102C1000A1460027B08900B100BF2F462C8A4CF690
:102C2000FF700440F08804432C82AC894EF6F31008
:102C30000440B08831890843718908430443AC815A
:102C4000AC8A4FF6FF400440B0890443AC8201A82F
:102C5000FFF7DEF91F48874202D1DDF810A001E03E
:102C6000DDF80CA0A88900F4004040B10AEBCA00CE
:102C700000EB0A1031684900B0FBF1F807E00AEBFD
:102C8000CA0000EB0A1031688900B0FBF1F864203B
:102C9000B8FBF0F004012009642101FB1089A88928
:102CA00000F4004040B1322000EBC900B0FBF1F06D
:102CB00000F00700044308E0322000EB0910642113
:102CC000B0FBF1F000F00F0004432C8106B0BDE82A
:102CD000F08700000038014001468888C0F30800F2
:102CE0007047C1F308028280704700BFFEE7000012
:102CF00010B525480078C0F34010002842D0224883
:102D00000078C0F3800000283CD01F48007820F0F5
:102D100004001D4908701D480088002805DD1B4877
:102D20000088401E1949088024E00121032000F09A
:102D300089FA4FF4E1601549088015488388428874
:102D4000012100F02FF9134883884288012100F007
:102D500029F90D48007820F020000B49087008463A
:102D6000007820F00800087000200B49C87001208E
:102D70000A4908700A4802880A48018803480088FE
:102D800000F09EFB10BD0000320000203C0000203F
:102D9000723A00085E3A0008360000203500002034
:102DA0004800002046000020014600BF7047000098
:102DB0001349097839B9AA2820D111490978491C41
:102DC0000F4A11701AE00E49097802290ADA0C49F3
:102DD0000978491E0B4A505409490978491C084A88
:102DE00011700BE00021064A1170552806D10649E2
:102DF000097821F00201891C034A11707047000014
:102E0000710000205D0000203200002010B56FF03E
:102E10000400FFF74FFB0A4800680A49B0FBF1F0D5
:102E2000094908700846007800EB4001C1EBC0106A
:102E30004FF6FF7101EAC0000449088010BD000090
:102E40000000002000127A00280000202A00002044
:102E50000146114A12884A434FF0E0235A6100228A
:102E60009A611A46126942F001021A6100BF4FF0DE
:102E7000E022106900F001021AB100F48032002A49
:102E8000F5D04FF0E022126922F001024FF0E0236A
:102E90001A6100229A6170472A0000200146114AF7
:102EA00012784A434FF0E0235A6100229A611A4691
:102EB000126942F001021A6100BF4FF0E02210696E
:102EC00000F001021AB100F48032002AF5D04FF070
:102ED000E022126922F001024FF0E0231A61002281
:102EE0009A6170472800002000200149087070474F
:102EF000790000202DE9F04782460C4615461E4613
:102F0000DDE90989089FAA2000F072FA712000F01B
:102F10006FFA504600F06CFA201200F069FAE0B245
:102F200000F066FA281200F063FAE8B200F060FAE6
:102F3000301200F05DFAF0B200F05AFA381200F0E8
:102F400057FAF8B200F054FA4FEA282000F050FA8D
:102F500008F0FF0000F04CFA4FEA292000F048FA90
:102F600009F0FF0000F044FA00F048FABDE8F087ED
:102F70002DE9FE4F04460D4616461F46DDE90D9A23
:102F8000DDF8308006498DE8000709782144C8B291
:102F90003B4632462946FFF7ADFFBDE8FE8F0000F5
:102FA00078000020FEB504460F4615461E464FB178
:102FB00020898DE86100E388A28861882078FFF786
:102FC000D7FF08E020898DE86100E388A288618846
:102FD0002078FFF78FFFFEBDF8B505460E46174671
:102FE0001C46002000908DF800406B463A46314662
:102FF000284600F031F8F8BDF8B505460E461746EC
:103000001C460A2C0DDA0020009004F13000C0B2FA
:103010008DF800006B463A463146284600F01CF811
:1030200000BFF8BD10B50446AA2000F0E1F97020F9
:1030300000F0DEF9204600F0DBF900F0DFF910BD0A
:1030400010B50446034909782144C8B2FFF7EAFFE6
:1030500010BD0000780000202DE9F04104460D4627
:1030600016461F464FF00008AA2000F0C1F9062CB2
:103070001CD2DFE804F003070B0F1317532000F0F6
:10308000B7F913E06E2000F0B3F90FE0542000F020
:10309000AFF90BE06F2000F0ABF907E0552000F02E
:1030A000A7F903E0982000F0A3F900BF00BF2812A1
:1030B00000F09EF9E8B200F09BF9301200F098F9A8
:1030C000F0B200F095F9052C1AD1242000F090F907
:1030D000812000F08DF9052000F08AF91149098856
:1030E000081200F085F90F49087800F081F90E49BF
:1030F0000988081200F07CF90B49087800F078F98B
:1031000007E017F8080000F073F908F1010000F07B
:10311000FF0817F808000028F3D100F06FF9BDE8A8
:10312000F08100007A0000207C00002010B500240F
:1031300000F0B2F8792839D12C480078B0BB0120D2
:103140002A4908702A4800792949C97800EB0120EA
:1031500084B20020274908700DE0274825490978E6
:1031600000EB01108089A04200D10AE021480078DC
:10317000401C204908701F4800782049097888427F
:10318000EBDB00BF1B4800781C49097888420DDA48
:1031900019481849097800EB0110006830B1164948
:1031A000144A127801EB02110868804700F074F8A5
:1031B00078281AD10D480078012816D100200B4933
:1031C00008700C4800780D49097888420DDA0A48E1
:1031D0000849097800EB0110406830B10649054AFA
:1031E000127801EB02114868804710BD860000206C
:1031F0008C04002087000020980400207900002023
:1032000010B50E4B1B781E2B16DA0D4B0B4C247889
:1032100003EB041318600A4B084C247803EB0413E7
:103220005960074B054C247803EB04139A81034B38
:103230001B785B1C014C237010BD0000790000203E
:103240009804002070B505460C460B48007800B184
:1032500070BDAA2000F0CCF8302000F0C9F8284654
:1032600000F0C6F8204600F0C3F8A02000F0C0F837
:1032700000F0C4F800BFEBE74000002010B50446A2
:10328000AA2000F0B5F8322000F0B2F8204600F095
:10329000AFF800F0B3F810BD0148007870470000A7
:1032A0008C0400204F4909780A2971D2DFE801F027
:1032B000050D444C545C64717D89AA2804D14949A8
:1032C0000978491C474A117089E0732807D145499C
:1032D0000978491C434A1170434908702BE0722851
:1032E00006D100213F4A11707221404A117022E03C
:1032F000E42805D104213B4A11703B4908701AE0CB
:1033000030B90021374A11707421384A117012E027
:10331000792805D10421334A1170334908700AE035
:10332000782805D104212F4A11702F49087002E036
:1033300000212C4A117052E02C4948702949097823
:10334000491C284A11704AE02849887025490978A3
:10335000491C244A117042E02449C8702149097867
:10336000491C204A11703AE0204908711D4909782A
:10337000491C1C4A117032E0CC2805D11949097842
:10338000491C184A117002E00021164A117026E00B
:1033900021E0332805D113490978491C114A1170DD
:1033A00002E000210F4A117019E0C32805D10D4930
:1033B0000978491C0B4A117002E00021094A11707A
:1033C0000DE03C2806D10021064A11700649097813
:1033D000064A117003E00021024A117000BF00BFCD
:1033E0007047000088000020890000208C04002025
:1033F00010B50446204600F015FB10BD10B5CC20DA
:10340000FFF7F6FF3320FFF7F3FFC320FFF7F0FFCE
:103410003C20FFF7EDFF10BD70B504460D460C488B
:1034200004800C480580AA20FFF7E2FF4020FFF748
:10343000DFFF2012FFF7DCFFE0B2FFF7D9FF281211
:10344000FFF7D6FFE8B2FFF7D3FFFFF7D7FF70BD56
:103450007A0000207C00002018B90021074A117072
:103460000AE0142803D11421044A117004E046280C
:1034700002D14621014A11707047000078000020F7
:1034800010B5AA20FFF7B4FF3020FFF7B1FF0020EE
:10349000FFF7AEFF0020FFF7ABFF0020FFF7A8FF0C
:1034A000FFF7ACFF10BD000000BF04480078722891
:1034B00003D0024800787828F7D170478C040020A8
:1034C0002DE9F04104460D4616464FF4167094FB64
:1034D000F0F0C7B23B46324629460520FFF78CFD87
:1034E0003C2094FBF0F00A2190FBF1F201FB12006A
:1034F000C7B205F1180081B23B4632460520FFF7FE
:103500007BFD3C2094FBF0F100FB11400A2190FB75
:10351000F1F0C7B205F1480081B23B4632460520C2
:10352000FFF76AFD0A2094FBF0F100FB1140C7B2DF
:1035300005F1600081B23B4632460520FFF75CFD95
:10354000BDE8F0811CB5002001900090FDF76CFBF8
:10355000FDF7FDFBFFF75AFC4FF4165000F0F6F9AB
:103560004FF4E13000F04AF94FF4165000F098F9AA
:1035700000214FF4E150FFF791F840F6B8312D48A3
:10358000FFF765F900F00AF9FF20FFF777FE462103
:103590006320FFF753F8FCF741FF08202649087025
:1035A0004FF6FF714FF4FC60FFF736FF01226946CA
:1035B0002248FEF7D5FDBDF8000021490870012220
:1035C00001A91E48801EFEF7CBFDBDF8040018B10E
:1035D0001420FFF741FF02E00020FFF73DFF27E046
:1035E000154800780A2821D2DFE800F0200B0E14DD
:1035F000171A081D0511FEF73BFC18E0FEF7D4F87A
:1036000015E0FDF78FFF12E0FDF706FD0FE0FDF777
:103610000BFC0CE0FEF79CF909E0FEF7E1FA06E08E
:10362000FEF734F903E0FDF73BFE00E000BF00BF0A
:10363000D6E70000000800403300002002F8000830
:103640004000002010B50920034908700121002026
:10365000FFF7F8FD10BD00003300002010B5022078
:103660000349087001210020FFF7ECFD10BD0000A8
:103670003300002008B5002000900B48007820F0AF
:103680000100401C08490870052008490870012104
:103690000020FFF7D7FD0020FFF7DEFE012269467C
:1036A0000348FEF771FD08BD320000203300002002
:1036B00000F8000808B57B2000900B48007820F047
:1036C0000100401C084908700520084908700121C4
:1036D0000020FFF7B7FD1420FFF7BEFE0122694668
:1036E0000348FEF751FD08BD3200002033000020E2
:1036F00000F8000810B501200349087001210020DE
:10370000FFF7A0FD10BD00003300002010B504201D
:103710000349087001210020FFF794FD10BD00004F
:103720003300002010B50320034908700121002058
:10373000FFF788FD10BD00003300002008B5002011
:1037400000900121FFF77EFD1048007808B90120A4
:1037500000E000200D490870084600780090012222
:1037600069460B48FEF710FD0848007830B109485B
:10377000838842880021FFF715FC05E0064883880E
:1037800042880021FFF70EFC08BD00004000002029
:1037900002F80008863A0008683A000810B50024CC
:1037A00015E0AA20FFF724FE0020FFF721FEFFF717
:1037B00025FE0520FFF74CFBFFF76EFD742801D1B5
:1037C000FF2406E0C820FFF743FB601CC4B2192C9D
:1037D000E7DB00BFFF2C0BD009E006480068C043C0
:1037E0000549C1F890014FF4FA70FFF731FBF4E797
:1037F00010BD0000900121420000214210B586B0AA
:10380000044601210420FEF7E3FB01214804FEF7F2
:10381000BFFB0420ADF8140018208DF8170005A98F
:103820001D48FDF75CF80820ADF8140048208DF81D
:10383000170005A91848FDF752F81848FFF736F9A0
:1038400026208DF8000003208DF801008DF802007D
:1038500001208DF803006846FDF780FA01940020EE
:10386000ADF80800ADF80A00ADF80C00ADF8100096
:103870000C20ADF80E0001A90848FFF7C1F901229C
:1038800040F225510548FFF796F901210348FFF75B
:1038900001F906B010BD00000008014000440040DE
:1038A00010B586B0044601210820FEF791FB0121E6
:1038B0008804FEF76DFB4FF48060ADF81400022021
:1038C0008DF8160018208DF8170005A91D48FDF782
:1038D00006F84FF40060ADF8140048208DF817008A
:1038E00005A91848FCF7FBFF1748FFF7DFF827206A
:1038F0008DF8000003208DF801008DF802000120F2
:103900008DF803006846FDF729FA01940020ADF810
:103910000800ADF80A00ADF80C00ADF810000C205E
:10392000ADF80E0001A90848FFF76AF9012240F23C
:1039300025510548FFF73FF901210348FFF7AAF891
:1039400006B010BD000C01400048004010B586B024
:103950000446012144F20400FEF73AFB2348FFF736
:10396000A5F84FF40070ADF8140003208DF8160090
:1039700018208DF8170005A91D48FCF7B0FF4FF47B
:103980008060ADF8140048208DF8170005A918488C
:10399000FCF7A5FF25208DF8000003208DF801001D
:1039A00002208DF8020001208DF803006846FDF723
:1039B000D5F901940020ADF80800ADF80A00ADF883
:1039C0000C00ADF810000C20ADF80E0001A907485E
:1039D000FFF716F9012240F225510448FFF7EBF8F2
:1039E00001210248FFF756F806B010BD003801402B
:1039F0000008014010B5044600BF80210848FFF7C9
:103A0000A3F80028F9D021460548FFF76AF900BF5E
:103A100040210348FFF798F80028F9D010BD0000B6
:103A20000038014010B5044600BF80210848FFF768
:103A30008BF80028F9D021460548FFF752F900BF5E
:103A400040210348FFF780F80028F9D010BD00009E
:103A5000004400401600A40285001203D6001600A0
:103A6000A2021A010F036C010100CA020A00050339
:103A700045000C00A40285001203D6000C00A2022F
:103A80001A010F036C010200CA020A000503450077
:103A9000000074051005AC044804E4031C03540240
:103AA000F2010000D007A00FA00FE8038813000068
:103AB000E803D007B80BE803FA0000002300240055
:103AC0002600270029002A002C002E0000001027C5
:103AD000AC265613500A000010275613500A28052A
:103AE0006E009A01E803F203C20B64009001F40136
:103AF000E803B80B143B0008000000208C00000015
:103B000028010008A03B00088C0000204C0C00009D
:103B10004401000800A24A04000000000000000068
:103B20000102030406070809000000000102030463
:103B30000102030406070809020406080000000049
:103B40000000000000000000000055010100AA0074
:103B50000000000000000000000000000000000065
:103B60000000000000000000000000000000000055
:103B70000000000000000000000000000000000045
:103B80000000000000000000000000000000FFFF37
:103B90000000000000000000000000000000000025
:04000005080000ED02
:00000001FF
