:020000040800F2
:10000000500C002089010008F10C0008730A000858
:100010004D0C0008810500089F2500080000000025
:100020000000000000000000000000002B1C000881
:10003000850500080000000085190008251E00083D
:10004000A3010008A3010008A3010008A301000800
:10005000A3010008A3010008C9050008A3010008C6
:10006000FD0500083106000865060008A301000828
:10007000A3010008A3010008A3010008A3010008D0
:10008000A3010008A3010008A3010008A3010008C0
:10009000A3010008A3010008A3010008A3010008B0
:1000A000A3010008A3010008A3010008A3010008A0
:1000B000A3010008891E0008A3010008A30100088D
:1000C000A3010008A3010008A3010008A301000880
:1000D000A30100080123000825230008A30100084C
:1000E000A3010008A3010008A301000800F002F822
:1000F00000F03AF80AA090E8000C82448344AAF188
:100100000107DA4501D100F02FF8AFF2090EBAE885
:100110000F0013F0010F18BFFB1A43F0010318473B
:100120007033000090330000103A24BF78C878C1C3
:10013000FAD8520724BF30C830C144BF04680C60ED
:10014000704700000023002400250026103A28BF35
:1001500078C1FBD8520728BF30C148BF0B60704739
:100160001FB51FBD10B510BD00F033F81146FFF7E5
:10017000F7FF02F06FFE00F051F803B4FFF7F2FF53
:1001800003BC02F053FA00000948804709480047C1
:10019000FEE7FEE7FEE7FEE7FEE7FEE7FEE7FEE737
:1001A000FEE7FEE704480549054A064B7047000094
:1001B000291E0008ED00000850060020500C002009
:1001C0005008002050080020704770477047704763
:1001D0007047754600F028F8AE460500694653465C
:1001E00020F00700854618B020B5FFF7DBFFBDE81B
:1001F00020404FF000064FF000074FF000084FF08E
:10020000000B21F00701AC46ACE8C009ACE8C0091E
:10021000ACE8C009ACE8C0098D4670470446AFF3AE
:1002200000802046FFF7A9FF00487047F005002036
:1002300021B1826842F00102826003E0826822F00C
:10024000010282607047000010B5044612488442E3
:1002500008D10121401501F0D3FB0021601501F008
:10026000CFFB17E00D48844208D10121001501F0B1
:10027000C7FB0021201501F0C3FB0BE008488442B6
:1002800008D10121C80301F0BBFB00214FF400405D
:1002900001F0B6FB10BD0000002401400028014021
:1002A000003C0140014600208A6802F004020AB1C5
:1002B000012000E0002070470146C86C80B2704702
:1002C0000246002013680B400BB1012000E0002023
:1002D0007047014600208A6802F008020AB1012036
:1002E00000E000207047000030B5024600200023E7
:1002F00050680F4C20400D790C6844EA05242043D7
:10030000506090680B4C2040D1E902542C434D7949
:1003100044EA450420439060D06A20F470000C7CCD
:10032000641EE4B2234340EA0350D06230BD0000B3
:10033000FFFEF0FFFDF7F1FFF0B504460D4600208B
:100340000021092D11DDE068A5F10A0606EB46073C
:10035000072606FA07F18843A5F10A0606EB4606CA
:1003600003FA06F10843E0600CE0206905EB45075D
:10037000072606FA07F1884305EB450603FA06F15E
:1003800008432061072A0FDA606B561E06EB8607CA
:100390001F2606FA07F18843561E06EB860605FA65
:1003A00006F10843606322E00D2A0FDA206BD61FA6
:1003B00006EB86071F2606FA07F18843D61F06EBD1
:1003C000860605FA06F10843206310E0E06AA2F110
:1003D0000D0606EB86071F2606FA07F18843A2F1F1
:1003E0000D0606EB860605FA06F10843E062F0BD4D
:1003F000816841F008018160704721B1826842F450
:10040000A002826003E0826822F4A002826070474A
:10041000816841F0040181607047000000B587B039
:1004200001214FF4017001F0DBFA4FF4004001F0BC
:10043000ABFA1020ADF8040000208DF8070001A9E8
:10044000174800F006FA1748FFF7FEFE002002905A
:100450008DF80C008DF80D004FF460200490002002
:10046000059001208DF8180002A90E48FFF73CFF07
:1004700001210C48FFF7DCFE0A48FFF7B9FF00BF77
:100480000848FFF726FF0028FAD10648FFF7C0FF0B
:1004900000BF0448FFF706FF0028FAD107B000BDEF
:1004A000000801400024014010B507480078C0F35F
:1004B000C00020B10121052002F064FB02E006200B
:1004C0000249087010BD00003000002031000020FB
:1004D00010B50A480078C0F3C00020B10121052002
:1004E00002F050FB09E00121002002F04BFB044820
:1004F00083884288012102F0C7F910BD3000002036
:10050000B233000818480078002826DD1748008814
:10051000401C80B2154908801549164A127831F8F6
:100520001210884208DB0020104908800E4800782D
:10053000401E0D49087015E00F480E49097830F843
:1005400011000A490988884203DC00200B49086031
:1005500008E001200949086004E000200349088000
:1005600006490860704700005F000020640000201A
:100570007C3400085E00002086340008900121428F
:1005800000BFFEE770473EB504468F204FF4E07190
:100590004FF4C072CDE90021029004F11E01C8B2EF
:1005A00040F2AF238F224FF4E07102F015F93EBD07
:1005B00010B5044604F14000C3B240F219221146BE
:1005C000042002F07BF910BD10B50A2002F082F879
:1005D0000121084800F010FA012807D106480068F8
:1005E00008B9012000E0002003490860012000F064
:1005F00053F810BD000801409401234210B50A20B1
:1006000002F068F80421084800F0F6F938B9074804
:10061000006808B9012000E00020044908600420B7
:1006200000F03AF810BD000000180140948121420A
:1006300010B50A2002F04EF80821084800F0DCF955
:1006400038B90748006808B9012000E000200449D3
:100650000860082000F020F810BD000000180140DC
:100660009401234210B50A2002F034F81021084802
:1006700000F0C2F938B90748006808B9012000E065
:10068000002004490860102000F006F810BD0000AA
:100690000018014094812142014908607047000020
:1006A0001404014010B50748007820F00100401CF8
:1006B000044908700720044908700121002002F055
:1006C00061FA10BD300000203100002010B507484D
:1006D000007820F00100401C0449087005200449FE
:1006E00008700121002002F04DFA10BD30000020FA
:1006F0003100002010B507480078032806DC0549C2
:1007000009780D31C8B202F00DF902E00320014969
:10071000087010BD4A00002010B508480078401C41
:10072000C0B206490870032804DC0121002002F051
:1007300029FA02E003200149087010BD4A00002098
:1007400030B5044604254FF4302000F06FF805461C
:10075000042D17D10C48006940F002000A490861D5
:1007600008464461006940F0400008614FF43020C1
:1007700000F05CF805460448006941F6FD71084048
:1007800001490861284630BD0020024004200B4981
:10079000C96801F0010109B101200EE00749C968EB
:1007A00001F0040109B1022007E00449C96801F021
:1007B000100109B1032000E004207047002002402E
:1007C0000348006940F0800001490861704700005B
:1007D0000020024070B504460D460426F00200F0E9
:1007E00025F80646042E11D10948006940F00100A1
:1007F000074908612580F00200F018F80646044811
:10080000006941F6FE71084001490861304670BD3B
:10081000002002400248034948600348486070478E
:100820002301674500200240AB89EFCD00B50246A9
:100830000423FFF7ABFF034603E0FFF7A7FF0346E0
:10084000521E012B01D1002AF7D102B90523184607
:1008500000BD2DE9F04102460025002600200023BE
:100860000024002791F803C00CF00F0591F803C095
:100870000CF0100CBCF1000F03D091F802C04CEA50
:10088000050591F800C0BCF1000F31D014680020BC
:100890002BE04FF0010C0CFA00F3B1F800C00CEAA9
:1008A00003069E4220D183004FF00F0C0CFA03F791
:1008B000BC4305FA03FC4CEA040491F803C0BCF104
:1008C000280F06D14FF0010C0CFA00FCC2F814C03E
:1008D0000AE091F803C0BCF1480F05D14FF0010CBC
:1008E0000CFA00FCC2F810C0401C0828D1D31460D8
:1008F000B1F800C0BCF1FF0F34DD546800202EE0D9
:1009000000F1080C4FF0010808FA0CF3B1F800C030
:100910000CEA03069E4221D183004FF00F0C0CFA23
:1009200003F7BC4305FA03FC4CEA040491F803C046
:10093000BCF1280F05D100F1080C08FA0CF8C2F838
:10094000148091F803C0BCF1480F07D100F1080CE6
:100950004FF0010808FA0CF8C2F81080401C082873
:10096000CED35460BDE8F081F0B50A4600230024E0
:100970000021002500F00046B6F1004F02D11D4EC7
:10098000F16901E01B4E7168C0F3034583B200F4C6
:100990004016B6F5401F08D121F07061154E7668FB
:1009A00026F07066134F7E6012E000F48016B6F5F4
:1009B000801F06D1032606FA05F4A14341F07061B9
:1009C00006E0460D360103FA06F6B14341F07061C8
:1009D00022B1460D360103FA06F6314300F0004617
:1009E000B6F1004F02D1034EF16101E0014E71609A
:1009F000F0BD0000000001400246002093680B405B
:100A00000BB1012000E000207047416170470000F9
:100A100010B504460723012221460948FFF78CFC44
:100A200001210748FFF7E9FC00BF02210448FFF756
:100A300047FC0028F9D00248FFF73EFC10BD00003B
:100A4000002401402DE9F04107460C460025002610
:100A500008E03846FFF7DCFF0544642001F060FE43
:100A6000701CC6B2A642F4DBB5FBF4F080B2BDE860
:100A7000F08100BFFEE7000010B50348838842887C
:100A8000012101F001FF10BD1634000810B501214D
:100A9000002002F077F81D4883884288012101F088
:100AA000F3FE1B48007803280FD11A48007801286C
:100AB00004DD18480078401E164908701549097869
:100AC0001431C8B2FFF75FFD1FE01248007801281B
:100AD00017DD10480078401E0E490870084600785F
:100AE0000A2804DC084600780B49887006E00948AB
:100AF00000780A21C1EB40000749887001200749AE
:100B0000087004480078FFF73EFD10BDD0330008A0
:100B100031000020540000204C0000204B00002039
:100B200010B5034883884288012101F0ADFE10BD55
:100B30002034000810B50121002002F023F81D48E0
:100B400083884288012101F09FFE1B48007803281A
:100B50000FD11A480078082804DA18480078401C99
:100B600016490870154909781431C8B2FFF70BFD12
:100B70001FE0124800780F2817DA10480078401C50
:100B80000E490870084600780A2804DC08460078F8
:100B90000B49887006E0094800780A21C1EB400043
:100BA0000749887001200749087004480078FFF75A
:100BB000EAFC10BDDA3300083100002054000020A8
:100BC0004C0000204B00002008B501210D2000F052
:100BD00007FF10208DF8030003208DF8020001218B
:100BE0000748FFF7C1FE1B20ADF800006946054825
:100BF000FFF72FFE1B210348FFF707FF08BD00008A
:100C000000023000000C014010B50E4800780128A9
:100C100016D100200B4908700B49087802F062FBDE
:100C20000949487802F05EFB0749887802F05AFBD0
:100C30000549C87802F056FB0349087902F052FBD7
:100C400010BD00004B0000204C00002000BFFEE75C
:100C500010B5034883884288012101F015FE10BDBC
:100C60002A34000810B50121002001F08BFF0A484A
:100C700083884288012101F007FE08480078012896
:100C800004DD06480078401E0449087003480078D7
:100C9000FFF78EFC10BD0000E43300085500002073
:100CA00010B5034883884288012101F0EDFD10BD95
:100CB0003434000810B50121002001F063FF0A4818
:100CC00083884288012101F0DFFD0848007804286C
:100CD00004DA06480078401C04490870034800788C
:100CE000FFF766FC10BD0000EE3300085500002041
:100CF000704710B54FF4A06000F03AF810BD000046
:100D000070B5002100230F22C47804B3154C246869
:100D100004F4E064C4F5E064210AC1F10403CA40AC
:100D2000447804FA03F184781440214309010E4CFD
:100D30000678A155047804F01F050124AC4005781D
:100D40006D11AD0005F1E025C5F8004109E004781A
:100D500004F01F050124AC40044D0678761145F8D7
:100D6000264070BD0CED00E000E400E080E100E012
:100D700002490143024A1160704700000000FA0571
:100D80000CED00E010B511B3144A1070144A12882B
:100D9000521C92B2124B1A80124B104C247833F82A
:100DA00014309A4202DB00220D4B1A800E4A0B4B84
:100DB0001B7832F813200A4B1B889A4203DD00226D
:100DC0000A4B1A6008E00122084B1A6004E0002276
:100DD000034B1A80054B1A6010BD00006200002012
:100DE00060000020643400087034000880812142D3
:100DF00010B50020584908704FF4E1605749088049
:100E0000012057490870022056494870544800781C
:100E100088700020C8705448007820F001005249C2
:100E200008700D2001F07EFD4C48008801F0CEFFD7
:100E30004B480078FFF7A7FB01F098FC4B4A0021D4
:100E40004B4801F07BFE4B4A00214B4801F076FEF7
:100E50004A4A00214A4801F071FE4A4A00214A48A4
:100E600001F06CFE494A0021494801F067FE494AF9
:100E700049494A4801F062FE494A4A494A4801F054
:100E80005DFE4A4A4A494B4801F058FE4A4A4B49DE
:100E90004B4801F053FE4B4A4B494C4801F04EFE83
:100EA0004FE001F0F9FD4A480078022812D00120F5
:100EB000294908702C48007820F00100401C2A497C
:100EC000087000202749C8702748007820F00800E3
:100ED0002549087001F066FB23480078C0F3001034
:100EE00050B12148007820F010001F4908700120FF
:100EF00019490870FFF788FE1B480078C0F34000CE
:100F0000F8B11948007820F00200174908703148FC
:100F10000078EE2815D10121042001F033FE2E487F
:100F200083884288012101F0AFFC00200D49C87080
:100F30000D48007820F008000B4908700120064990
:100F400008700948007800F001000028A9D001F0DD
:100F500035FF01F0A1FD10BD4B0000205200002024
:100F6000540000204C0000203000002062330008B4
:100F7000B93000086C3300084D2F000876330008A4
:100F80007930000880330008F93000089E330008EB
:100F9000191D0008B2330008A9040008D104000894
:100FA000C6330008B1220008C5220008BC3300087F
:100FB0006122000875220008DA330008210B0008BE
:100FC000350B0008D0330008790A00088D0A0008A4
:100FD0003100002059000020F833000810B54FF40C
:100FE000E1604E49088001204D4908704D48007865
:100FF00020F001004B4908704FF6FF714FF4784024
:1010000001F094FE062001F08DFC4448008801F0B8
:10101000DDFE434800780A2190FBF1F0C4B223467C
:1010200040F25D1240F24521052001F057FC3C489A
:1010300000780A2190FBF1F201FB1200C4B22346B2
:1010400040F25D1240F25D21052001F047FC364878
:1010500083884288012101F017FC01F087FB334AA5
:101060003349344801F06AFD2F4A3349334801F0CF
:1010700065FD334A3349344801F060FD334A344951
:10108000344801F05BFD344A3449354801F056FDDF
:10109000344A3549354801F051FD354A354936481D
:1010A00001F04CFD01F08AFE2DE001F0F5FC01F0AD
:1010B00079FA1C480078C0F3C00070B101202F49B4
:1010C00008602F49C1F890012E48154A127830F86F
:1010D00012102D4801F02FF805E000202749086084
:1010E0002749C1F890010F480078C0F3001050B1B3
:1010F0000C48007820F010000A49087001202349AC
:101100000870FFF781FD0748007800F00100002813
:10111000CBD001F053FE01F0BFFC10BD5200002007
:101120005400002030000020A83300089E3300083F
:10113000151D0008191D0008451900085919000857
:10114000B2330008A9040008D1040008C63300081F
:10115000B1220008C5220008BC3300086122000843
:1011600075220008DA330008210B0008350B00084F
:10117000D0330008790A00088D0A000884812142D2
:101180000080214234000020000800404B00002075
:1011900010B50020134908701348007820F00100B2
:1011A000114908700D2001F0BDFB01F0DFFA0F4A74
:1011B00000210F4801F0C2FC0E4A0F490F4801F010
:1011C000BDFC01F0FBFD01E001F066FC0648007883
:1011D00000F001000028F7D001F0F0FD01F05CFC08
:1011E00010BD00004A000020300000203E340008FE
:1011F000CD06000848340008F50600081907000865
:1012000010B50020584908704FF4E1605749088034
:101210000120574908705749487055480078887030
:101220000020C8705448007820F00100524908702E
:101230000B2001F077FB4D48008801F0C7FD4C48BA
:101240000078FFF7A0F901F091FA4C4A00214C48D0
:1012500001F074FC4B4A00214B4801F06FFC4B4AF3
:1012600000214B4801F06AFC4A4A00214A4801F03B
:1012700065FC4A4A00214A4801F060FC494A4A4953
:101280004A4801F05BFC4A4A4A494B4801F056FC87
:101290004A4A4B494B4801F051FC4B4A4B494C4898
:1012A00001F04CFC4B4A4C494C4801F047FC4FE0E4
:1012B00001F0F2FB4A480078072812D001202A49A1
:1012C00008702D48007820F00100401C2A49087061
:1012D00000202849C8702848007820F008002649D6
:1012E000087001F05FF924480078C0F3001050B195
:1012F0002148007820F010001F49087001201A4989
:101300000870FFF781FC1C480078C0F34000F8B17A
:101310001948007820F00200174908703148007819
:10132000EE2815D10121042001F02CFC2E488388E1
:101330004288012101F0A8FA00200E49C8700E4829
:10134000007820F008000C49087001200649087058
:101350000948007800F001000028A9D001F02EFD16
:1013600001F09AFB10BD00004B000020520000204D
:10137000540000204C0000203000002062330008A0
:10138000B93000086C3300084D2F00087633000890
:101390007930000880330008F93000089E330008D7
:1013A000191D0008B2330008A9040008D104000880
:1013B000C6330008B1220008C5220008BC3300086B
:1013C0006122000875220008DA330008210B0008AA
:1013D000350B0008D0330008790A00088D0A000890
:1013E0003100002059000020F833000810B500201B
:1013F000584908704FF4E160574908800120574967
:101400000870574948705548007888700020C870A7
:101410005448007820F00100524908700C2001F077
:1014200081FA4D48008801F0D1FC4C480078FFF764
:10143000AAF801F09BF94C4A00214C4801F07EFBD0
:101440004B4A00214B4801F079FB4B4A00214B48A5
:1014500001F074FB4A4A00214A4801F06FFB4A4AF6
:1014600000214A4801F06AFB494A4A494A4801F0CA
:1014700065FB4A4A4A494B4801F060FB4A4A4B49DE
:101480004B4801F05BFB4B4A4B494C4801F056FB83
:101490004B4A4C494C4801F051FB4FE001F0FCFA3B
:1014A0004A480078012812D001202A4908702D48A6
:1014B000007820F00100401C2A49087000202849CB
:1014C000C8702848007820F008002649087001F00C
:1014D00069F824480078C0F3001050B12148007822
:1014E00020F010001F49087001201A490870FFF70A
:1014F0008BFB1C480078C0F34000F8B11948007815
:1015000020F002001749087031480078EE2815D104
:101510000121042001F036FB2E48838842880121F6
:1015200001F0B2F900200E49C8700E48007820F092
:1015300008000C4908700120064908700948007825
:1015400000F001000028A9D001F038FC01F0A4FA55
:1015500010BD00004B00002052000020540000206D
:101560004C0000203000002062330008B930000831
:101570006C3300084D2F00087633000879300008DE
:1015800080330008F93000089E330008191D000858
:10159000B2330008A9040008D1040008C6330008CB
:1015A000B1220008C5220008BC33000861220008EF
:1015B00075220008DA330008210B0008350B0008FB
:1015C000D0330008790A00088D0A00083100002095
:1015D00059000020F833000810B51948007820F0B1
:1015E000010017490870062001F08EF901F0BEF8DD
:1015F000144A0021144801F0A1FA144A00211448A9
:1016000001F09CFA11E001F047FA0D480078C0F3B0
:10161000001050B10A48007820F010000849087006
:1016200001200C490870FFF7EFFA0548007800F038
:1016300001000028E7D001F0C1FB01F02DFA10BD38
:10164000300000204E3300088D2F0008583300086A
:10165000293000084B00002010B51E48007820F00B
:1016600001001C4908700E2001F05CF901F07EF8C1
:10167000194A0021194801F061FA194A0021194854
:1016800001F05CFA184A0021184801F057FA184A8C
:101690000021184801F052FA11E001F0FDF90D485F
:1016A0000078C0F3001050B10A48007820F0100014
:1016B00008490870012010490870FFF7A5FA05488D
:1016C000007800F001000028E7D001F077FB01F07E
:1016D000E3F910BD3000002062330008B930000883
:1016E0006C3300084D2F000880330008F9300008E3
:1016F0008A330008DD2F00084B00002010B54FF49E
:10170000E16054490880012053490870534908702A
:101710005348007820F00100514908700E2001F074
:1017200001F94C48008801F051FB4B49097814310C
:10173000C8B2FEF728FF49480078FEF739FF01F0EC
:1017400015F8484A0021484801F0F8F9474A0021B5
:10175000474801F0F3F9474A0021474801F0EEF904
:10176000464A0021464801F0E9F9464A0021464828
:1017700001F0E4F9454A4649464801F0DFF9464A96
:101780004649474801F0DAF9464A4749474801F0D7
:10179000D5F9474A4749484801F0D0F9474A4849EE
:1017A000484801F0CBF9484A4849494801F0C6F990
:1017B000484A4949494801F0C1F93FE001F06CF954
:1017C0004748007803280BD02548007820F0010016
:1017D000401C234908700846007820F00800087073
:1017E00000F0E0FE1E480078C0F3C00058B10621AA
:1017F0000420FFF727F93B49088000F0F1FC0120A5
:10180000394908600AE0002037490839086037493B
:10181000C1F88001344908603549087010480078E3
:10182000C0F3001050B10E48007820F010000C49B1
:10183000087001202F490870FFF7E6F90848007882
:1018400000F001000028B9D001F0B8FA01F024F945
:1018500010BD000052000020540000205500002060
:101860003000002062330008B93000086C330008F3
:101870004D2F0008763300087930000880330008C7
:10188000F93000089E330008191D0008B233000823
:10189000A9040008D1040008C6330008B1220008DA
:1018A000C5220008BC330008612200087522000828
:1018B000DA330008210B0008350B0008D03300088C
:1018C000790A00088D0A0008EE330008A10C000810
:1018D000B50C0008E4330008510C0008650C000842
:1018E00031000020560000208C81214200802142DE
:1018F000580000204B00002010B5002001F004F833
:101900000D48007820F001000B49087000F02EFF10
:101910000A4A00210A4801F011F901E001F0BCF87F
:101920000548007800F001000028F7D001F046FAE1
:1019300001F0B2F810BD0000300000204433000870
:10194000A50600080348007820F008000149087047
:10195000704700003000002010B50121002001F088
:1019600011F9064883884288012100F08DFF044860
:1019700083884288012100F087FF10BDF8330008FA
:10198000A83300087047000001460020034A506851
:1019900020F44040084350607047000000100240AF
:1019A00029B1064AD2690243044BDA6104E0034AD2
:1019B000D2698243014BDA61704700000010024097
:1019C00029B1064A12690243044B1A6104E0034A32
:1019D00012698243014B1A617047000000100240F7
:1019E00029B1064A92690243044B9A6104E0034A12
:1019F00092698243014B9A617047000000100240D7
:101A000029B1064AD2680243044BDA6004E0034A73
:101A1000D2688243014BDA60704700000010024038
:101A200030B500210022002400232D4D6D6805F003
:101A30000C0121B1042905D0082923D105E0294D45
:101A4000056022E0274D05601FE0254D6D6805F417
:101A50007012234D6D6805F48034022505EB924227
:101A60001CB9214D554305600BE01D4D6D6805F413
:101A700000351DB11C4D5543056002E0194D55431D
:101A8000056002E0174D056000BF00BF144D6D6892
:101A900005F0F0010909154D6B5C0568DD404560F6
:101AA0000F4D6D6805F4E061090A104D6B5C4568E7
:101AB000DD4085600A4D6D6805F46051C90A0B4D23
:101AC0006B5C4568DD40C560054D6D6805F44041BF
:101AD000890B074D6B5CC568B5FBF3F5056130BD3F
:101AE0000010024000127A0000093D00140000209E
:101AF0002400002030B503460C461546002207E0BE
:101B0000184600F008F824F812009B1C501C82B202
:101B1000AA42F5DB30BD0146088870472DE9F05F29
:101B200080468A461746B8F1006F02D33348804595
:101B300001D3BDE8F09FFEF76DFEA8F1006B4FEA00
:101B40009B25CBF34809C9F50074A74200DC3C464D
:101B50004DE04FF0006101EB85208A142849FFF722
:101B6000C9FF00260BE009EB0600254931F81000FB
:101B70004FF6FF71884200D003E0701C86B2A64287
:101B8000F1DB00BFA6421BDA4FF0006101EB8520BC
:101B9000FEF7D6FD002608E03AF8160006EB09012C
:101BA000174A22F81100701C86B2A642F4DB4FF0EF
:101BB000006101EB85208A14114900F023F804E04C
:101BC00022465146404600F01DF8A74200D10FE0E2
:101BD0006D1C4FF000090AEB440AA044381B87B281
:101BE000B7F5007F02DD4FF4007400E03C46B0E73B
:101BF00000BFFEF7E5FD00BF9BE700000000010805
:101C00007C0000202DE9F04105460E4617460024D1
:101C100007E036F814102846FEF7DCFDAD1C601C0A
:101C200084B2BC42F5DBBDE8F081704710B500F02E
:101C300001F810BD0CB500200190009033480068F9
:101C400040F480303149086000BF3048006800F43B
:101C5000003000900198401C0190009818B901983C
:101C6000B0F5A06FF1D12948006800F4003010B140
:101C70000120009001E0002000900098012843D14D
:101C80002348006840F010002149086008460068B9
:101C900020F0030008600846006840F00200086079
:101CA0001A48406819494860084640684860084634
:101CB000406840F4806048600846406820F47C102A
:101CC00048600846406840F4E810486008460068EC
:101CD00040F08070086000BF0C48006800F00070A1
:101CE0000028F9D00948406820F0030007494860FF
:101CF0000846406840F00200486000BF0348406862
:101D000000F00C000828F9D10CBD000000100240C2
:101D1000002002407047000010B50121022000F0B1
:101D200031FF2F480078032826D12E480078C0F3D1
:101D3000C00060B12B48007820F0080029490870E5
:101D4000294883884288012100F09EFD13E0254840
:101D5000007820F008000830224908702348838862
:101D60004288012100F090FD2148008818B94FF405
:101D7000E1601F49088031E01A480078C0F3C000D4
:101D800090B100201B49C8701648007820F0080068
:101D90001449087001201849087013488388428844
:101DA000012100F071FD18E001201349087011496C
:101DB000C8700C48007820F0080008300949087005
:101DC0000A4883884288012100F05EFD08480088A7
:101DD00018B94FF4E1600649088000BF00BF10BD8C
:101DE0003100002030000020F83300089E33000846
:101DF000520000204C0000204B000020042808D195
:101E00004FF0E021096941F004014FF0E022116137
:101E100007E04FF0E021096921F004014FF0E022D2
:101E2000116170477047000010B51348006840F01A
:101E300001001149086008464068104908400E49F1
:101E40004860084600680E4908400B49086008468B
:101E5000006820F4802008600846406820F4FE00F6
:101E600048604FF41F008860FFF7E0FE4FF000600D
:101E70000449086010BD0000001002400000FFF897
:101E8000FFFFF6FE08ED00E010B501211F4800F04D
:101E9000DEF8002839D001211C4800F0C9F81C48A0
:101EA0000078032807D11B480078C0F3C0011A4806
:101EB0000078FEF767FF19480088401C80B2174978
:101EC0000880C82808DB002008801248007820F02D
:101ED000100010300F490870FEF714FB0D48007811
:101EE000C0F3C00088B10E480088401C80B20C4985
:101EF0000880B0F57A7F08DB00200880054800786C
:101F000020F00400001D0349087010BD00040040CB
:101F10003100002030000020550000202E0000205D
:101F20002C0000207FB505460C4601210220FFF75A
:101F300037FDADF80850ADF804400020ADF80A00B8
:101F4000ADF8060001A90E4800F0F8F8012211468C
:101F50000B4800F08DF81D208DF8000002208DF850
:101F6000010003208DF8020001208DF8030068466F
:101F7000FEF7C6FE0121024800F05DF87FBD0000BB
:101F80000004004030B589B005460C46012104200C
:101F9000FFF706FD01210820FFF722FD4FF48070B6
:101FA000ADF8200018208DF8230003208DF82200C2
:101FB00008A91748FEF74DFCADF81850ADF81440CD
:101FC0000020ADF81A00ADF8160005A9114800F080
:101FD000B5F87020ADF804000120ADF8060000202F
:101FE000ADF80A000220ADF80C0001A9094800F084
:101FF00049F80821074800F095F80121054800F04C
:102000000BF80121034800F016F809B030BD0000BC
:10201000000C01400008004021B1028842F080021B
:10202000028004E002884FF67F731A4002807047F6
:10203000CA430282704721B1028842F00102028045
:1020400004E002884FF6FE731A400280704730B5F4
:102050000246002000230024158A05EA0103958921
:1020600005EA010413B10CB1012000E0002030BDED
:102070001AB183890B43838102E083898B43838177
:102080007047000070B5002400220023058C4FF635
:10209000FF6635400584028C8388848B4FF68F75EC
:1020A0002C404FF6FC752C400D882C434FF6FF5505
:1020B0002A400D894FF6FF7606EA05252A434D880A
:1020C00006EA05252A43154DA84202D0144DA84220
:1020D0001DD14FF2FF752A404D894FF6FF7606EA73
:1020E00005252A434FF6FF352A408D8806EA052547
:1020F0002A434EF6FF752B404DF6FF752B408D8918
:1021000006EA05152B43CD8906EA05152B43838086
:102110008483CD888587028470BD0000002C014037
:10212000003401400A460021818B4FF6F7731940B5
:102130001143818370478187704700000022028825
:102140001D4B98420ED01D4B98420BD0B0F1804FE2
:1021500008D01B4B984205D01A4B984202D01A4B1C
:10216000984204D14FF68F731A404B881A43174B8D
:10217000984207D0164B984204D04FF6FF431A40BE
:10218000CB881A4302808B8883850B8803850A4B92
:1021900098420BD0094B984208D00E4B984205D07C
:1021A0000D4B984202D00D4B984201D10B7A038619
:1021B0000123838270470000002C0140003401405D
:1021C0000004004000080040000C004000100040E7
:1021D000001400400040014000440140004801401C
:1021E00010B51A480088B0F57A6F03DA17480088EE
:1021F00064280DDC1648007830BB012014490870B3
:102200000020144908600121042000F0BBFC1BE001
:1022100000200F49087010481049097830F8110063
:1022200010380A490988884202DB01200949086000
:1022300009480A49097830F8110004490988884298
:1022400002DC00200349086010BD00005600002099
:10225000580000208481214252340008540000209C
:1022600010B5034883884288012100F00DFB10BDA2
:102270000234000810B50121002000F083FC0A4858
:1022800083884288012100F0FFFA084800883C2832
:1022900004DD064800883C3804490880034800886B
:1022A00000F094FD10BD0000BC3300085200002077
:1022B00010B5034883884288012100F0E5FA10BD7B
:1022C0000C34000810B50121002000F05BFC0A4826
:1022D00083884288012100F0D7FA08480088B0F5C9
:1022E000616F04DA054800883C30044908800348DF
:1022F000008800F06BFD10BDC633000852000020BE
:1023000010B540F22551064800F085F830B1044878
:1023100000F03CF9C4B2204600F08CF910BD00007A
:102320000038014010B540F22551064800F073F81E
:1023300030B1044800F02AF9C4B2204600F04CFC49
:1023400010BD00000044004021B1828942F40052D7
:10235000828104E082894DF6FF731A4082817047C2
:1023600010B504462048844209D101218803FFF7B3
:1023700047FB00214FF48040FFF742FB32E01B484F
:10238000844209D101214804FFF71AFB00214FF4D0
:102390000030FFF715FB25E01548844209D10121E3
:1023A0008804FFF70DFB00214FF48020FFF708FBA6
:1023B00018E01048844209D10121C804FFF700FB4E
:1023C00000214FF40020FFF7FBFA0BE00A4884429B
:1023D00008D101210805FFF7F3FA00214FF480101E
:1023E000FFF7EEFA10BD0000003801400044004045
:1023F00000480040004C00400050004002460020D1
:10240000B1F5007F00D100BF13880B400BB1012054
:1024100000E00020704770B502460024002300252C
:10242000002040F66A16B14200D100BFC1F3421548
:1024300001F01F03012606FA03F3012D02D196894C
:10244000334006E0022D02D1168A334001E0968A1D
:1024500033400C12012606FA04F41688344013B1F6
:102460000CB1012000E0002070BDF0B5034600244F
:1024700000260025002040F66A17B94200D100BFAF
:102480001846C1F3421401F01F06012707FA06F5AA
:10249000012C01D10C3004E0022C01D1103000E0FD
:1024A00014301AB107682F43076002E00768AF4392
:1024B0000760F0BD2DE9F04786B005460E460024C2
:1024C000A24600BFA1460027B08900B100BF2F4639
:1024D0002C8A4CF6FF700440F08804432C82AC89AF
:1024E0004EF6F3100440B0883189084371890843DF
:1024F0000443AC81AC8A4FF6FF400440B0890443EA
:10250000AC8201A8FFF78CFA1F48874202D1DDF8A0
:1025100010A001E0DDF80CA0A88900F4004040B153
:102520000AEBCA0000EB0A1031684900B0FBF1F871
:1025300007E00AEBCA0000EB0A1031688900B0FB23
:10254000F1F86420B8FBF0F004012009642101FBDC
:102550001089A88900F4004040B1322000EBC90086
:10256000B0FBF1F000F00700044308E0322000EB7C
:1025700009106421B0FBF1F000F00F0004432C813E
:1025800006B0BDE8F08700000038014001468888A9
:10259000C0F308007047C1F308028280704700BF93
:1025A000FEE7000010B51C480078C0F3C00090B3EF
:1025B00019480078C0F3800068B31748007820F00D
:1025C00004001549087015480088002805DD1348E7
:1025D0000088401E1149088019E00121032000F005
:1025E000D1FA4FF4E1600D4908800D488388428894
:1025F000012100F049F90848007820F00800064958
:10260000087000200749C870012007490870034876
:10261000008800F0DBFB10BD3000002052000020DD
:10262000F83300084C0000204B000020014600BF9A
:10263000704700001349097839B9AA2820D11149F7
:102640000978491C0F4A11701AE00E4909780229CD
:102650000ADA0C490978491E0B4A5054094909788D
:10266000491C084A11700BE00021064A11705528D8
:1026700006D10649097821F00201891C034A11702C
:102680007047000063000020590000203000002047
:1026900010B56FF00400FFF7B1FB0A4800680A4963
:1026A000B0FBF1F0094908700846007800EB4001E2
:1026B000C1EBC0104FF6FF7101EAC0000449088069
:1026C00010BD00000000002000127A002800002049
:1026D0002A0000200146114A12884A434FF0E023A5
:1026E0005A6100229A611A46126942F001021A6187
:1026F00000BF4FF0E022106900F001021AB100F4AF
:102700008032002AF5D04FF0E022126922F0010257
:102710004FF0E0231A6100229A6170472A000020DE
:102720000146114A12784A434FF0E0235A610022D1
:102730009A611A46126942F001021A6100BF4FF015
:10274000E022106900F001021AB100F48032002A80
:10275000F5D04FF0E022126922F001024FF0E023A1
:102760001A6100229A617047280000200020014968
:10277000087070476D00002000201449088014483C
:1027800040780880084600884FF6FF7101EA002073
:102790000E4908800E488078098808440B49088053
:1027A00000200C4908800A48C07808800846008844
:1027B0004FF6FF7101EA00200649088004480079BD
:1027C0000988084403490880704700006800002019
:1027D0007C0400206A0000202DE9F04782460C4668
:1027E00015461E46DDE90989089FAA2000F08AFAED
:1027F000712000F087FA504600F084FA201200F0B1
:1028000081FAE0B200F07EFA281200F07BFAE8B21A
:1028100000F078FA301200F075FAF0B200F072FAB7
:10282000381200F06FFAF8B200F06CFA4FEA282084
:1028300000F068FA08F0FF0000F064FA4FEA29207F
:1028400000F060FA09F0FF0000F05CFA00F060FAB6
:10285000BDE8F0872DE9FE4F04460D4616461F469B
:10286000DDE90D9ADDF8308006498DE8000709782A
:102870002144C8B23B4632462946FFF7ADFFBDE8CA
:10288000FE8F00006C000020FEB504460F46154682
:102890001E464FB120898DE86100E388A2886188D7
:1028A0002078FFF7D7FF08E020898DE86100E388F2
:1028B000A28861882078FFF78FFFFEBDF8B5054636
:1028C0000E4617461C46002000908DF800406B46CF
:1028D0003A463146284600F031F8F8BDF8B50546CD
:1028E0000E4617461C460A2C0DDA0020009004F113
:1028F0003000C0B28DF800006B463A46314628469B
:1029000000F01CF800BFF8BD10B50446AA2000F086
:10291000F9F9702000F0F6F9204600F0F3F900F024
:10292000F7F910BD10B50446034909782144C8B22F
:10293000FFF7EAFF10BD00006C0000202DE9F04118
:1029400004460D4616461F464FF00008AA2000F028
:10295000D9F9062C1CD2DFE804F003070B0F13177C
:10296000532000F0CFF913E06E2000F0CBF90FE018
:10297000542000F0C7F90BE06F2000F0C3F907E026
:10298000552000F0BFF903E0982000F0BBF900BF2C
:1029900000BF281200F0B6F9E8B200F0B3F9301227
:1029A00000F0B0F9F0B200F0ADF9052C1AD12420F6
:1029B00000F0A8F9812000F0A5F9052000F0A2F9A7
:1029C00011490988081200F09DF90F49087800F0B4
:1029D00099F90E490988081200F094F90B49087812
:1029E00000F090F907E017F8080000F08BF908F103
:1029F000010000F0FF0817F808000028F3D100F0EC
:102A000087F9BDE8F08100006E0000207000002012
:102A100000B5FFF7B1FE00222EE002EB42001A499A
:102A200001EB80008068408818490988884221DCD1
:102A300002EB4200144901EB80008068C088134912
:102A40000988884216DB02EB42000F4901EB800047
:102A5000806880880E49098888420BDC02EB4200BE
:102A6000094901EB8000806800890949098888428A
:102A700000DB05E0501CC2B2064800788242CCDB85
:102A800000BF104600BD0000880400206800002040
:102A90006A0000206D00002010B500F097F8732840
:102AA0001FD122480078E0B9012020490870FFF7C3
:102AB000AFFF1F490870084600781E490978884210
:102AC0000FDA1B48007800EB40001B4951F820004A
:102AD00038B11749097801EB4101174A52F8210032
:102AE000804700F073F872281ED110480078012842
:102AF0001AD100200D4908700D4800780D49097859
:102B0000884211DA0A48007800EB40000A4901EBDC
:102B10008000406840B10649097801EB4101064A4E
:102B200002EB81014868804710BD0000780000205A
:102B3000790000206D0000208804002010B50F4BA4
:102B40001B781E2B19DA0D4B1B7803EB43030C4C3F
:102B500044F82300094B1B7803EB430304EB830386
:102B60005960064B1B7803EB430304EB83039A6025
:102B7000024B1B785B1C014C237010BD6D000020C4
:102B80008804002070B505460C46AA2000F0BAF86B
:102B9000302000F0B7F8284600F0B4F8204600F0E6
:102BA000B1F8A02000F0AEF800F0B2F870BD10B59A
:102BB0000446AA2000F0A6F8322000F0A3F8204630
:102BC00000F0A0F800F0A4F810BD00000148007863
:102BD000704700007C040020474909780A2975D213
:102BE000DFE801F0050D343C444C54606C79AA28B0
:102BF00004D141490978491C3F4A117079E0732892
:102C000007D13D490978491C3B4A11703B4908707E
:102C10001BE0722806D10021374A11707221384A10
:102C2000117012E0E42805D10421334A11703349B0
:102C300008700AE030B900212F4A11707421304A1F
:102C4000117002E000212C4A117052E02C494870AA
:102C500029490978491C284A11704AE02849887096
:102C600025490978491C244A117042E02449C8705A
:102C700021490978491C204A11703AE0204908711D
:102C80001D490978491C1C4A117032E0CC2805D135
:102C900019490978491C184A117002E00021164AA6
:102CA000117026E0332805D113490978491C124ACE
:102CB000117002E00021104A11701AE0C32806D1F9
:102CC0000D490978491C0C4A117003E00DE0002100
:102CD000094A11700DE03C2806D10021064A117006
:102CE00006490978064A117003E00021024A117072
:102CF00000BF00BF704700007A0000207B0000206A
:102D00007C04002010B50446204600F003FB10BDF3
:102D100010B5CC20FFF7F6FF3320FFF7F3FFC320F9
:102D2000FFF7F0FF3C20FFF7EDFF10BD70B5044644
:102D30000D460C4804800C480580AA20FFF7E2FFEE
:102D40004020FFF7DFFF2012FFF7DCFFE0B2FFF7C4
:102D5000D9FF2812FFF7D6FFE8B2FFF7D3FFFFF73E
:102D6000D7FF70BD6E000020700000200A2803D13C
:102D70000A21074A117009E018B90021044A1170AC
:102D800004E0462802D14621014A11707047000034
:102D90006C00002010B5AA20FFF7B4FF3020FFF729
:102DA000B1FF0020FFF7AEFF0020FFF7ABFF0020D0
:102DB000FFF7A8FFFFF7ACFF10BD000000BF0248FF
:102DC00000787228FBD170477C04002070B504465F
:102DD0004FF4167094FBF0F0C5B22B4640F2192266
:102DE000B9210420FFF77AFD3C2094FBF0F00A2182
:102DF00090FBF1F201FB1200C5B22B4640F2192202
:102E0000C9210420FFF76AFD3A2340F21922D92193
:102E10000420FFF753FD3C2094FBF0F100FB114030
:102E20000A2190FBF1F0C5B22B4640F21922E921AC
:102E30000420FFF753FD0A2094FBF0F100FB114042
:102E4000C5B22B4640F21922F9210420FFF746FDB6
:102E500070BD000008B500200090FDF7B5FEFDF73D
:102E600048FFFFF715FC4FF4165000F0E7F94FF458
:102E7000E13000F091F900214FF4E150FFF782F8C2
:102E800040F6B8312E48FFF756F900F055F9FF200B
:102E9000FFF78DFE462140F2E730FFF743F8FDF7DC
:102EA000BDFA4FF47A70FFF715FC4FF47A70FFF714
:102EB00011FCFA20FFF70EFC0820224908704FF69B
:102EC000FF714FF47840FFF731FFFFF763FF0122F6
:102ED00069461D48FEF70EFEBDF8000018B100203F
:102EE000FFF744FF02E00A20FFF740FF27E0154804
:102EF0000078092821D2DFE800F00B0E1114171A10
:102F0000081D0500FEF7F8FC18E0FEF765FB15E06C
:102F1000FEF73EF912E0FEF769FA0FE0FDF768FFF1
:102F20000CE0FEF7EBFB09E0FEF758F806E0FEF7D1
:102F300093FB03E0FEF764F900E000BF00BFD6E7B3
:102F4000000800403100002000F8000810B50C48CF
:102F50000078C0F3C00020B101210520FFF712FE68
:102F60000CE002200749087001210020FFF70AFE4B
:102F70000548838842880121FFF786FC10BD0000C8
:102F800030000020310000206C33000808B500201C
:102F900000900E48007820F00100401C0B4908709A
:102FA00007200B49087001210020FFF7EBFD0948BD
:102FB000838842880021FFF767FC0A20FFF7D6FECE
:102FC000012269460448FEF7A9FD08BD3000002033
:102FD000310000204E33000800F8000810B50F48FB
:102FE0000078C0F3C00020B101210520FFF7CAFD21
:102FF00013E00A48007820F00100401C07490870DF
:1030000004200749087001210020FFF7BBFD054897
:10301000838842880121FFF737FC10BD3000002073
:10302000310000208A33000808B57B2000900E484C
:10303000007820F00100401C0B49087007200B4964
:10304000087001210020FFF79DFD09488388428810
:103050000021FFF719FC0020FFF788FE01226946D6
:103060000448FEF75BFD08BD300000203100002061
:103070005833000800F8000810B50C480078C0F379
:10308000C00020B101210520FFF77CFD0CE00720E6
:103090000749087001210020FFF774FD0548838867
:1030A00042880121FFF7F0FB10BD00003000002036
:1030B000310000207633000810B50C480078C0F3CA
:1030C000C00020B101210520FFF75CFD0CE00120CC
:1030D0000749087001210020FFF754FD0548838847
:1030E00042880121FFF7D0FB10BD00003000002016
:1030F000310000206233000810B50C480078C0F39E
:10310000C00020B101210520FFF73CFD0CE00320A9
:103110000749087001210020FFF734FD0548838826
:1031200042880121FFF7B0FB10BD000030000020F5
:10313000310000208033000810B5002415E0AA20DB
:10314000FFF7E0FD0020FFF7DDFDFFF7E1FD0520C3
:10315000FFF7C0FAFFF73AFD742801D1FF2406E01B
:10316000C820FFF7B7FA601CC4B20A2CE7DB00BF27
:10317000FF2C0BD009E006480068C0430549C1F8A0
:103180008C014FF4FA70FFF7A5FAF4E710BD0000C8
:103190008C8121420080214210B586B00446012175
:1031A0000420FEF71DFC01214804FEF7F9FB042072
:1031B000ADF8140018208DF8170005A91D48FDF77B
:1031C00048FB0820ADF8140048208DF8170005A929
:1031D0001848FDF73EFB1848FFF7C2F826208DF887
:1031E000000003208DF801008DF8020001208DF809
:1031F00003006846FDF784FD01940020ADF8080047
:10320000ADF80A00ADF80C00ADF810000C20ADF8D8
:103210000E0001A90848FFF74DF9012240F225519F
:103220000548FFF722F901210348FFF78DF806B0A2
:1032300010BD0000000801400044004010B586B0F9
:103240000446012144F20400FEF7CAFB2348FFF7BD
:1032500087F84FF40070ADF8140003208DF81600C5
:1032600018208DF8170005A91D48FDF7F2FA4FF454
:103270008060ADF8140048208DF8170005A91848A3
:10328000FDF7E7FA25208DF8000003208DF80100F6
:1032900002208DF8020001208DF803006846FDF73A
:1032A0002FFD01940020ADF80800ADF80A00ADF83C
:1032B0000C00ADF810000C20ADF80E0001A9074875
:1032C000FFF7F8F8012240F225510448FFF7CDF846
:1032D00001210248FFF738F806B010BD0038014060
:1032E0000008014010B5044600BF80210848FFF7E0
:1032F00085F80028F9D021460548FFF74CF900BFB2
:1033000040210348FFF77AF80028F9D010BD0000EB
:103310000038014010B5044600BF80210848FFF77F
:103320006DF80028F9D021460548FFF734F900BFB1
:1033300040210348FFF762F80028F9D010BD0000D3
:10334000004400401100000000001F035702050068
:10335000B500DF00570145010500C701DF006C0221
:1033600045011100BC0107001F02370011003502A2
:10337000070098023700110040010700A401370040
:103380001100B10207001403370011006B02D501D0
:10339000FF023B0211008402060008033F001100F7
:1033A000B8020B02F202440211000B02FF014702B5
:1033B0003802110011000D003C00370011007400AC
:1033C00014029F0041021100220114024E01410229
:1033D0001100BE01B6010402F80111006B02B60132
:1033E000B102F8011100B2011602DB014002110026
:1033F000620216028B023F020E00B8020B02F202BA
:1034000044020E00740014029F0041020E002201CB
:1034100014024E0141020E00BE01B6010402F80181
:103420000E006B02B601B102F8010E00B2011602E5
:10343000DB0140020E00620216028B023F020D0009
:1034400018001100600052000D006601FE01BC0171
:103450004D0200008C0AF00A540BB80B1C0CE40C53
:10346000AC0D100E0000D007A00FA00FE8038813CA
:103470000000E803D007B80BE803FA006E009A01D9
:10348000E803F203C20B64009001F401E803B80BF7
:10349000B0340008000000207C0000002801000873
:1034A0002C3500087C000020D40B000044010008EB
:1034B00000A24A0400000000000000000102030412
:1034C00006070809000000000102030401020304CA
:1034D00006070809020406080000000000000000BA
:1034E000000000000000A40608076C07D0077F0852
:1034F000E3084709AB09F609410A0000550101003C
:10350000AA00000000000000000000000000000011
:103510000000000000000000000000000000FFFFAD
:0C3520000000000000000000000000009F
:04000005080000ED02
:00000001FF
