:020000040800F2
:10000000B00D0020890100081D0E00083F0B0008FC
:10001000410D000841060008FF3400080000000000
:10002000000000000000000000000000532900084C
:10003000450600080000000059250008052C0008AE
:10004000A3010008A3010008A3010008A301000800
:10005000A3010008A3010008F9060008A301000895
:100060002D0700086107000895070008A301000894
:10007000A3010008A3010008A3010008A3010008D0
:10008000A3010008A3010008A3010008A3010008C0
:10009000A3010008A3010008A3010008A3010008B0
:1000A000A3010008A3010008A3010008A3010008A0
:1000B000A3010008692C0008A3010008A30100089F
:1000C000A3010008A3010008A3010008A301000880
:1000D000A3010008313200086132000885320008AF
:1000E000A3010008A3010008A301000800F002F822
:1000F00000F03AF80AA090E8000C82448344AAF188
:100100000107DA4501D100F02FF8AFF2090EBAE885
:100110000F0013F0010F18BFFB1A43F0010318473B
:100120007042000090420000103A24BF78C878C1A5
:10013000FAD8520724BF30C830C144BF04680C60ED
:10014000704700000023002400250026103A28BF35
:1001500078C1FBD8520728BF30C148BF0B60704739
:100160001FB51FBD10B510BD00F033F81146FFF7E5
:10017000F7FF03F0E9FD00F051F803B4FFF7F2FFD9
:1001800003BC03F021FA00000948804709480047F2
:10019000FEE7FEE7FEE7FEE7FEE7FEE7FEE7FEE737
:1001A000FEE7FEE704480549054A064B7047000094
:1001B000092C0008ED000008B0070020B00D002059
:1001C000B0090020B00900207047704770477047A1
:1001D0007047754600F028F8AE460500694653465C
:1001E00020F00700854618B020B5FFF7DBFFBDE81B
:1001F00020404FF000064FF000074FF000084FF08E
:10020000000B21F00701AC46ACE8C009ACE8C0091E
:10021000ACE8C009ACE8C0098D4670470446AFF3AE
:1002200000802046FFF7A9FF004870474C070020D8
:1002300021B1826842F00102826003E0826822F00C
:10024000010282607047000010B5044612488442E3
:1002500008D10121401502F0BDF90021601502F01E
:10026000B9F917E00D48844208D10121001502F0C8
:10027000B1F90021201502F0ADF90BE008488442E5
:1002800008D10121C80302F0A5F900214FF4004074
:1002900002F0A0F910BD0000002401400028014038
:1002A000003C0140014600208A6802F004020AB1C5
:1002B000012000E0002070470146C86C80B2704702
:1002C0000246002013680B400BB1012000E0002023
:1002D0007047014600208A6802F008020AB1012036
:1002E00000E000207047000030B5024600200023E7
:1002F00050680F4C20400D790C6844EA05242043D7
:10030000506090680B4C2040D1E902542C434D7949
:1003100044EA450420439060D06A20F470000C7CCD
:10032000641EE4B2234340EA0350D06230BD0000B3
:10033000FFFEF0FFFDF7F1FFF0B504460D4600208B
:100340000021092D11DDE068A5F10A0606EB46073C
:10035000072606FA07F18843A5F10A0606EB4606CA
:1003600003FA06F10843E0600CE0206905EB45075D
:10037000072606FA07F1884305EB450603FA06F15E
:1003800008432061072A0FDA606B561E06EB8607CA
:100390001F2606FA07F18843561E06EB860605FA65
:1003A00006F10843606322E00D2A0FDA206BD61FA6
:1003B00006EB86071F2606FA07F18843D61F06EBD1
:1003C000860605FA06F10843206310E0E06AA2F110
:1003D0000D0606EB86071F2606FA07F18843A2F1F1
:1003E0000D0606EB860605FA06F10843E062F0BD4D
:1003F000816841F008018160704721B1826842F450
:10040000A002826003E0826822F4A002826070474A
:10041000816841F0040181607047000000B587B039
:1004200001214FF4017002F0C5F84FF4004002F0D2
:1004300095F88020ADF8040000208DF8070001A990
:10044000174800F06AFA1748FFF7FEFE00200290F6
:100450008DF80C008DF80D004FF460200490002002
:10046000059001208DF8180002A90E48FFF73CFF07
:1004700001210C48FFF7DCFE0A48FFF7B9FF00BF77
:100480000848FFF726FF0028FAD10648FFF7C0FF0B
:1004900000BF0448FFF706FF0028FAD107B000BDEF
:1004A000000801400024014010B5002938D0214A3D
:1004B0001288521C92B21F4B1A801F4B1F4C24787B
:1004C00033F814309A4204DB00221A4B1A801B4A7C
:1004D00010701B4A194B1B7832F81320154B1B88E0
:1004E0009A4216DD174A1288521C92B2154B1A8096
:1004F000B2F5A57F01DB00221A80124A1288022A77
:1005000003DA0022104B1A6012E001220E4B1A602F
:100510000EE001220C4B1A6000220A4B1A8007E001
:100520000022084B1A80034B1A800122064B1A60E6
:1005300010BD000074000020504300087600002029
:100540005A430008720000209C812142E1B1114A07
:100550001288521C92B20F4B1A804B2A03DB0022E6
:100560001A800D4A10700D4A0B4B1B7832F813207D
:10057000084B1B889A4203DD0122094B1A6008E0F0
:100580000022074B1A6004E00022024B1A80044B41
:100590001A607047780000207A000020304300087D
:1005A0009881214200200449087001200349087005
:1005B00006200349087070476A0000206B00002085
:1005C0003300002018480078002826DD17480088EE
:1005D000401C80B2154908801549164A127831F836
:1005E0001210884208DB0020104908800E4800786D
:1005F000401E0D49087015E00F480E49097830F883
:1006000011000A490988884203DC00200B49086070
:1006100008E001200949086004E00020034908803F
:1006200006490860704700006B0000207E00002033
:10063000644300086A0000206E43000890012142D4
:1006400000BFFEE770472DE9F04104460D4616460F
:100650000A2094FBF0F0C7B23B46324629460520FB
:1006600003F0DAF80A2094FBF0F100FB1140C7B266
:1006700005F1180081B23B463246052003F0CCF864
:10068000BDE8F08170B504460D46164604F1400001
:10069000C3B232462946052003F0AEF870BD2DE9FD
:1006A000F04105460C461746642095FBF0F0C6B2B3
:1006B0000A2096FBF0F000F0FF0843463A46214638
:1006C000052003F0A9F804F1180081B22E233A4660
:1006D000052003F091F80A2096FBF0F100FB116071
:1006E00000F0FF0804F1300081B243463A4605208D
:1006F00003F092F8BDE8F08110B50A2002F0B8FFCF
:100700000121084800F0DCF9012807D106480068FB
:1007100008B9012000E0002003490860012000F032
:1007200053F810BD000801409401234210B50A207F
:1007300002F09EFF0421084800F0C2F938B90748CA
:10074000006808B9012000E0002004490860042086
:1007500000F03AF810BD00000018014094812142D9
:1007600010B50A2002F084FF0821084800F0A8F91B
:1007700038B90748006808B9012000E000200449A2
:100780000860082000F020F810BD000000180140AB
:100790009401234210B50A2002F06AFF1021084894
:1007A00000F08EF938B90748006808B9012000E068
:1007B000002004490860102000F006F810BD000079
:1007C00000180140948121420149086070470000EF
:1007D000140401400848007820F00100401C06493C
:1007E000087005200549087000200549087001209F
:1007F00004490870704700003200002033000020D8
:100800006A0000206B00002030B5044604254FF438
:10081000302000F06FF80546042D17D10C48006910
:1008200040F002000A49086108464461006940F04E
:10083000400008614FF4302000F05CF805460448A1
:10084000006941F6FD71084001490861284630BD44
:100850000020024004200B49C96801F0010109B1E0
:1008600001200EE00749C96801F0040109B1022026
:1008700007E00449C96801F0100109B1032000E054
:1008800004207047002002400348006940F08000C7
:1008900001490861704700000020024070B504461D
:1008A0000D460426F00200F025F80646042E11D16C
:1008B0000948006940F00100074908612580F002FD
:1008C00000F018F806460448006941F6FE71084039
:1008D00001490861304670BD0020024002480349CA
:1008E0004860034848607047230167450020024084
:1008F000AB89EFCD00B502460423FFF7ABFF0346FB
:1009000003E0FFF7A7FF0346521E012B01D1002A87
:10091000F7D102B90523184600BD2DE9F041024682
:1009200000250026002000230024002791F803C0A2
:100930000CF00F0591F803C00CF0100CBCF1000F87
:1009400003D091F802C04CEA050591F800C0BCF153
:10095000000F31D0146800202BE04FF0010C0CFA8E
:1009600000F3B1F800C00CEA03069E4220D18300D8
:100970004FF00F0C0CFA03F7BC4305FA03FC4CEAEA
:10098000040491F803C0BCF1280F06D14FF0010C0C
:100990000CFA00FCC2F814C00AE091F803C0BCF1E4
:1009A000480F05D14FF0010C0CFA00FCC2F810C042
:1009B000401C0828D1D31460B1F800C0BCF1FF0F6F
:1009C00034DD546800202EE000F1080C4FF00108DF
:1009D00008FA0CF3B1F800C00CEA03069E4221D1DC
:1009E00083004FF00F0C0CFA03F7BC4305FA03FC2D
:1009F0004CEA040491F803C0BCF1280F05D100F1C2
:100A0000080C08FA0CF8C2F8148091F803C0BCF185
:100A1000480F07D100F1080C4FF0010808FA0CF854
:100A2000C2F81080401C0828CED35460BDE8F08185
:100A3000F0B50A46002300240021002500F00046FE
:100A4000B6F1004F02D11D4EF16901E01B4E7168F5
:100A5000C0F3034583B200F44016B6F5401F08D139
:100A600021F07061154E766826F07066134F7E6037
:100A700012E000F48016B6F5801F06D1032606FAB0
:100A800005F4A14341F0706106E0460D360103FA1A
:100A900006F6B14341F0706122B1460D360103FA0A
:100AA00006F6314300F00046B6F1004F02D1034E86
:100AB000F16101E0014E7160F0BD000000000140F5
:100AC0000246002093680B400BB1012000E000209B
:100AD00070474161704701617047000010B50446DE
:100AE0000723012221460948FFF726FC0121074878
:100AF000FFF783FC00BF02210448FFF7E1FB002859
:100B0000F9D00248FFF7D8FB10BD000000240140D7
:100B10002DE9F04107460C460025002608E038463E
:100B2000FFF7DCFF0544642002F0C8FD701CC6B26C
:100B3000A642F4DBB5FBF4F080B2BDE8F08100BF63
:100B4000FEE7000010B500201D49087001201D4976
:100B500008701D48007801280DD01B480078022835
:100B600009D01A480078012821DD18480078401E75
:100B7000164908701BE015480078012817DD134856
:100B80000078401E11490870084600780A2804DCE5
:100B9000084600780E49887006E00C4800780A2163
:100BA000C1EB40000A49887001200A4908700A48D0
:100BB00002880A48018805480078FFF744FD10BD07
:100BC0006A0000206B000020330000203E0000205F
:100BD00036000020350000204C0000204A00002094
:100BE00010B50020244908700120244908702448C9
:100BF0000078092809D1234800780F2833DA2148E2
:100C00000078401C1F4908702DE01D48007801281D
:100C10000DD01B480078022809D01A48007808280F
:100C200021DA18480078401C164908701BE0154866
:100C300000780F2817DA13480078401C1149087013
:100C4000084600780A2804DC084600780E498870B7
:100C500006E00C4800780A21C1EB40000A49887080
:100C600001200A4908700A4802880A480188054894
:100C70000078FFF7E8FC10BD6A0000206B00002040
:100C8000330000203E000020360000203500002008
:100C90004C0000204A00002008B501210D2001F081
:100CA00089FC10208DF8030003208DF802005020ED
:100CB000ADF8000069460E48FFF72FFE50210C48A2
:100CC000FFF707FF01210B48FFF7B2FE41F2FB20BF
:100CD000ADF8000069460848FFF71FFE41F27B218E
:100CE0000548FFF7F6FE80210348FFF7F4FE08BD34
:100CF0000008014000023000000C014010B50E4811
:100D00000078012816D100200B4908700B4908789B
:100D100003F08AFA0949487803F086FA0749887887
:100D200003F082FA0549C87803F07EFA034908798E
:100D300003F07AFA10BD00003500002036000020D4
:100D400000BFFEE710B500200B49087001200B49D9
:100D500008700B480078012804DD09480078401E1F
:100D60000749087007480288074801880448007846
:100D7000FFF788FC10BD00006A0000206B00002017
:100D80003F000020500000204E00002010B50E480B
:100D90000078042805DA0C480078401C0A490870DD
:100DA00008E009480078012804DD07480078401E63
:100DB00005490870054802880548018802480078FE
:100DC000FFF760FC10BD00003F0000205000002035
:100DD0004E00002010B500200B49087001200B497F
:100DE00008700B480078042804DA09480078401C91
:100DF00007490870074802880748018804480078B6
:100E0000FFF740FC10BD00006A0000206B000020CE
:100E10003F000020500000204E00002070470000DE
:100E200000200149087070479B00002010B5012484
:100E30002F480078A12845D100202D490870084688
:100E4000407838B900202B4908800121062002F0A3
:100E500009FE10BD32E004EB4400274901EB80009D
:100E60008068407822494978884225D12148008805
:100E700042F2107188421EDA00201E49088004EBFD
:100E800044001D4951F8200028B104EB44011A4ADE
:100E900052F82100804704EB4400174901EB800021
:100EA000007940B104EB4401134A02EB8101087957
:100EB000012102F0D7FDCCE7601CC4B20F480078D6
:100EC0008442C8DD0B48008842F2107188420ADB78
:100ED0000B48007850B100200949087002211E20FB
:100EE00002F0C0FD02E001200549087000BFB0E734
:100EF00098000020960000208C0600209B00002017
:100F00009D00002010B50F4B1B785B1C0D4C23700F
:100F100023461B78102B14DA23461B7803EB43037C
:100F2000094C44F82300074B1B7803EB430304EB05
:100F300083031971034B1B7803EB430304EB830317
:100F40009A6010BD9B0000208C060020164909788D
:100F500021B101290AD0022920D10FE0FA2804D1B9
:100F600011490978491C104A11701BE00F4948705B
:100F70000D490978491C0C4A117013E00B4988701F
:100F80000021094A117009494978084A92781144A8
:100F9000FF2902D1A121054A117003E00021024A74
:100FA000117000BF00BF70479C0000209800002017
:100FB00010B54FF4A06000F039F810BD70B50021F5
:100FC00000230F22C47804B3154C246804F4E064B1
:100FD000C4F5E064210AC1F10403CA40447804FA6C
:100FE00003F184781440214309010E4C0678A15581
:100FF000047804F01F050124AC4005786D11AD00A4
:1010000005F1E025C5F8004109E0047804F01F056A
:101010000124AC40044D0678761145F8264070BD99
:101020000CED00E000E400E080E100E00249014353
:10103000024A1160704700000000FA050CED00E064
:1010400010B5BAB10E4B1B885B1C9BB20C4C2380B5
:101050004418A34202DB0023094C2380084B1B8861
:10106000834203DA0023074C236008E00123054C88
:10107000236004E00023024C2380024C236010BD57
:10108000700000209801214210B54FF4E1607749CB
:101090000880012076490870764908707648007803
:1010A00020F00100744908704FF48870734908807B
:1010B00040F21F10724908804FF496707149088001
:1010C0008E207149088040F23F1070490880D3207B
:1010D0006F4908806F4883884288012102F072FBC3
:1010E00067480288654801886048008802F0EAFD88
:1010F00065480288634801885D480078FFF7A3FAD5
:1011000063480288614801885A480078FFF7BAFAB4
:1011100002F0FAFA102200215F4802F081FC12224C
:1011200000215E4802F07CFC112200215C4802F0A4
:1011300077FC132200215B4802F072FC142200218C
:10114000594802F06DFC21220021584802F068FC49
:1011500020220021564802F063FC3122002155482C
:1011600002F05EFC32220021534802F059FC332287
:101170000021524802F054FC34220021504802F071
:101180004FFC392200214F4802F04AFC3A2200214C
:101190004D4802F045FCFFF743FE4C4A0921454803
:1011A000FFF7B0FE494AD21C0A214348FFF7AAFEC6
:1011B000464A921F07214148FFF7A4FE434AD21E28
:1011C00008213F48FFF79EFE404A09320C2137486C
:1011D000FFF798FE3D4A0C320D213548FFF792FE8D
:1011E0003A4A921D0B213A48FFF78CFE32E0FFF796
:1011F0001DFE02F0ABFB37480078092810D01E48CE
:10120000007820F00100401C1B4908700846007857
:1012100020F0080008700846007820F020000870D0
:1012200002F070F914480078C0F3C00010B905202E
:1012300002F01EFA10480078C0F3001050B10E48BA
:10124000007820F010000C49087001202249087035
:10125000FFF754FD0848007800F001000028C6D0D0
:1012600002F024FD02F072FB10BD00003C000020E3
:101270003E0000203F0000203200002046000020F9
:10128000480000204A0000204C0000204E000020B2
:1012900050000020C2420008053F00084D3E0008F3
:1012A000453F0008253F00082D3E0008892A000818
:1012B000AD240008E9310008A1310008E10B000865
:1012C000450B0008D50D0008450D000881430008B6
:1012D0008D0D0008330000203500002010B50020DF
:1012E0009E4908704FF4E1609D49088001209D49A6
:1012F000087002209C4948709A4800788870002045
:10130000C8709A48007820F00100984908704FF49E
:101310008870974908804FF48170964908804FF48F
:10132000967095490880BB2094490880944883882A
:101330004288012102F046FA8E4802888C480188D2
:101340008748008802F0BEFC8C4802888A480188E1
:1013500084480078FFF777F902F0D6F910220021CF
:10136000884802F05DFB12220021874802F058FBFA
:1013700011220021854802F053FB132200218448EA
:1013800002F04EFB14220021824802F049FB212288
:101390000021814802F044FB202200217F4802F016
:1013A0003FFB312200217E4802F03AFB322200212D
:1013B0007C4802F035FB332200217B4802F030FBF1
:1013C00034220021794802F02BFBFFF729FD784AEF
:1013D00009217348FFF796FD754AD21C0A2171480E
:1013E000FFF790FD724A921F07216F48FFF78AFDB1
:1013F0006F4AD21E08216D48FFF784FD6C4A0932FE
:101400000C216548FFF77EFD694A0C320D216348C7
:10141000FFF778FD96E0FFF709FD02F097FA6548BF
:101420000078022817D001204C4908704F480078F6
:1014300020F00100401C4D49087000204A49C87046
:101440004A48007820F008004849087008460078AB
:1014500020F02000087002F055F844480078C0F3EE
:10146000001050B14148007820F010003F4908704A
:1014700001203A490870FFF741FC3C480078C0F36E
:10148000400000285ED03948007820F0020037493B
:10149000087049480078EE2823D100204749087099
:1014A000072047490870474883884288012102F095
:1014B00089F9334883884288012102F083F90020AA
:1014C0002949C8702948007820F008002749087089
:1014D0000846007820F02000087001201F4908709D
:1014E00030E035480078A02812D120480078C0F3B9
:1014F000C00068B11D48007820F0200020301B4952
:10150000087000202D49087001202D49087019E04D
:1015100029480078A12815D114480078C0F3C000EC
:1015200080B112480078C0F3401058B10F480078DD
:1015300020F020000D49087000202049087001208B
:101540001F4908700948007800F0010000283FF4A6
:1015500062AF02F0ABFB02F0F9F910BD35000020DC
:101560003C0000203E000020360000203200002019
:1015700046000020480000204A0000204C000020C7
:10158000C2420008053F00084D3E0008453F0008E4
:10159000253F00082D3E0008892A0008AD240008D8
:1015A000E9310008A1310008E10B0008450B0008F3
:1015B0008143000833000020610000206A00002001
:1015C0006B000020D642000810B500208A49087040
:1015D0004FF4E160894908800120894908708949F0
:1015E00048708748007888700020C8708648007866
:1015F00020F00100844908704FF488708349088006
:101600004FF48170824908804FF4967081490880B8
:10161000BB2081490880814883884288012102F0EB
:10162000D1F87B480288794801887448008802F024
:1016300049FB794802887748018871480078FFF7AC
:1016400002F802F061F810220021754802F0E8F972
:1016500012220021734802F0E3F91122002172489E
:1016600002F0DEF913220021704802F0D9F91422A9
:1016700000216F4802F0D4F9212200216D4802F0C8
:10168000CFF9202200216C4802F0CAF93122002152
:101690006A4802F0C5F932220021694802F0C0F917
:1016A00033220021674802F0BBF93422002166484A
:1016B00002F0B6F994E002F049F96448007807288E
:1016C00017D001204C4908704F48007820F00100E5
:1016D000401C4D49087000204A49C8704A480078AB
:1016E00020F00800484908700846007820F02000E3
:1016F000087001F007FF44480078C0F3001050B1B3
:101700004148007820F010003F49087001203A4914
:101710000870FFF7F3FA3C480078C0F34000002857
:101720005ED03948007820F00200374908704848F8
:101730000078EE2823D1002046490870072046494A
:101740000870464883884288012102F03BF83348FC
:1017500083884288012102F035F800202949C870A9
:101760002948007820F008002749087008460078CA
:1017700020F02000087001201F49087030E0344834
:101780000078A02812D120480078C0F3C00068B1CA
:101790001D48007820F0200020301B4908700020F0
:1017A0002C49087001202C49087019E0284800785D
:1017B000A12815D114480078C0F3C00080B11248A8
:1017C0000078C0F3401058B10F48007820F0200096
:1017D0000D49087000201F49087001201E4908703B
:1017E0000948007800F0010000283FF464AF02F0DF
:1017F0005DFA02F0ABF810BD350000203C0000207F
:101800003E0000203600002032000020460000206C
:10181000480000204A0000204C000020C24200087E
:10182000053F00084D3E0008453F0008253F0008E1
:101830002D3E0008892A0008AD240008E93100087F
:10184000A1310008E10B0008450B0008330000201F
:10185000610000206A0000206B000020D6420008D2
:1018600010B500209E4908704FF4E1609D49088042
:1018700001209D4908709D4948709B4800788870F8
:101880000020C8709A48007820F00100984908703C
:101890004FF48870974908804FF48170964908800A
:1018A0004FF4967095490880BB209549088095486B
:1018B00083884288012101F085FF8F4802888D4886
:1018C00001888848008802F0FDF98D4802888B481D
:1018D000018885480078FEF7B6FE01F015FF10225A
:1018E0000021894802F09CF812220021874802F06A
:1018F00097F811220021864802F092F81322002165
:10190000844802F08DF814220021834802F088F800
:1019100021220021814802F083F820220021804802
:1019200002F07EF8312200217E4802F079F832225E
:1019300000217D4802F074F8332200217B4802F038
:101940006FF8342200217A4802F06AF8FFF768FA4B
:10195000784A09217348FFF7D5FA764AD21C0A2142
:101960007148FFF7CFFA734A921F07216F48FFF7BC
:10197000C9FA704AD21E08216D48FFF7C3FA6D4AB2
:1019800009320C216548FFF7BDFA6A4A0C320D2175
:101990006348FFF7B7FA96E0FFF748FA01F0D6FF81
:1019A00065480078012817D001204D49087050483B
:1019B000007820F00100401C4D49087000204B4980
:1019C000C8704B48007820F0080049490870084664
:1019D000007820F02000087001F094FD4448007861
:1019E000C0F3001050B14248007820F01000404988
:1019F000087001203A490870FFF780F93C480078E8
:101A0000C0F3400000285ED03948007820F0020082
:101A10003749087049480078EE2823D1002048490A
:101A20000870072047490870474883884288012189
:101A300001F0C8FE334883884288012101F0C2FECC
:101A400000202A49C8702A48007820F00800284958
:101A500008700846007820F0200008700120204916
:101A6000087030E035480078A02812D1204800786E
:101A7000C0F3C00068B11E48007820F0200020307C
:101A80001B49087000202E49087001202D4908705C
:101A900019E02A480078A12815D115480078C0F32C
:101AA000C00080B112480078C0F3401058B110480F
:101AB000007820F020000E490870002020490870AE
:101AC0000120204908700A48007800F00100002831
:101AD0003FF462AF02F0EAF801F038FF10BD0000F9
:101AE000350000203C0000203E0000203600002091
:101AF0003200002046000020480000204A0000205C
:101B00004C000020C2420008053F00084D3E00087E
:101B1000453F0008253F00082D3E0008892A00089F
:101B2000AD240008E9310008A1310008E10B0008EC
:101B3000450B0008814300083300002061000020AD
:101B40006A0000206B000020D642000810B5304823
:101B5000007820F001002E490870562340F24922F7
:101B60000221012001F048FE322340F249220821DF
:101B7000012001F041FE2E2340F249220E210120D6
:101B800001F03AFE332340F249221421012001F0F2
:101B900033FE2048007830B11F48838842880021F6
:101BA00001F010FE05E01D4883884288002101F005
:101BB00009FE01F0A9FD41220021194801F030FF82
:101BC00042220021174801F02BFF45220021164830
:101BD00001F026FF11E001F0B9FE0D480078C0F3D6
:101BE000001050B10A48007820F010000849087031
:101BF00001200E490870FFF781F80548007800F0D1
:101C000001000028E7D002F051F801F09FFE10BD5E
:101C10003200002040000020EA420008CC420008C8
:101C20006D3E0008B93E0008653F00083500002001
:101C300010B52748007820F001002549087001F010
:101C400063FD10220021234801F0EAFE1222002148
:101C5000214801F0E5FE11220021204801F0E0FEBC
:101C6000132200211E4801F0DBFE142200211D4832
:101C700001F0D6FE442200211B4801F0D1FE1CE0F9
:101C800001F064FE19480078052806D01048007855
:101C900020F00100401C0E4908700D480078C0F388
:101CA000001050B10A48007820F010000849087070
:101CB00001200F490870FFF721F80548007800F06F
:101CC00001000028DCD001F0F1FF01F03FFE10BD63
:101CD00032000020053F00084D3E0008453F000847
:101CE000253F00082D3E0008A50500083300002010
:101CF0003500002010B50020914908604FF4E160E4
:101D000090490880012090490870904908704FF46C
:101D10007A708F4908808F4908808F48007820F0BA
:101D200001008D4908704FF488708C49088040F29A
:101D300035108B4908804FF496708A490880EA2054
:101D40008949088040F2251088490880A5208849E3
:101D5000088040F22510874908805D208649088068
:101D6000864883884288012101F02CFD7C48028846
:101D70007A4801887348008801F0A4FF7A480288F5
:101D80007848018870480078FEF75DFC7848028842
:101D9000764801886E480088FEF781FC7648028804
:101DA000744801886B480088FEF779FC01F0ACFCB0
:101DB00010220021724801F033FE122200217148E6
:101DC00001F02EFE112200216F4801F029FE13229E
:101DD00000216E4801F024FE142200216C4801F01D
:101DE0001FFE212200216B4801F01AFE2022002153
:101DF000694801F015FE31220021684801F010FE0B
:101E000032220021664801F00BFE33220021654892
:101E100001F006FE34220021634801F001FE372262
:101E20000021624801F0FCFD38220021604801F0E9
:101E3000F7FD352200215F4801F0F2FD3622002136
:101E40005D4801F0EDFDFEF7EBFF5C4A09215348C8
:101E5000FFF758F8594AD21C0A215148FFF752F8A7
:101E6000564A921F07214F48FFF74CF8534AD21E9B
:101E700008214D48FFF746F8504A09320C214548E1
:101E8000FFF740F84D4A0C320D214348FFF73AF86E
:101E900048E0FEF7CBFF01F059FD494800780328E0
:101EA00010D02D48007820F00100401C2A4908700D
:101EB0000846007820F0080008700846007820F0F6
:101EC0002000087001F01EFB23480078C0F3C0001A
:101ED00060B106210720FEF71BFE3A49088001F099
:101EE000A5F801201649083108600BE000201449CC
:101EF000091F08603449C1F8980111490831086088
:101F00003249087014480078C0F3001050B11248EC
:101F1000007820F010001049087001202C4908704A
:101F2000FEF7ECFE0C48007800F001000028B0D06D
:101F300000200349086001F0B9FE01F007FD10BD63
:101F4000848121423C0000203E0000203F00002010
:101F50004400002042000020320000204600002003
:101F6000480000204A0000204C00002056000020BD
:101F7000580000205200002054000020C2420008F7
:101F8000053F00084D3E0008453F0008253F00087A
:101F90002D3E0008892A0008AD240008E931000818
:101FA000A1310008E10B0008450B0008D527000807
:101FB0008D270008952B00084D2B00088143000851
:101FC000330000205A000020000021425C00002065
:101FD0003500002038B5002500240020DA490870BB
:101FE0000120DA4908604FF4E160D94908800120F6
:101FF000D8490870D84908704FF47A70D7490880DA
:10200000D7490880D748007820F00100D5490870EA
:102010004FF48870D449088040F23510D3490880C5
:102020004FF49670D2490880EA20D249088040F2E5
:102030002510D1490880A520D049088040F22510FC
:10204000CF4908805D20CF490880CF4883884288E7
:10205000012101F0B7FBC5480288C3480188BC488C
:10206000008801F02FFEC3480288C1480188B948A2
:102070000078FEF7E8FAC1480288BF480188B748EF
:102080000088FEF70CFBBF480288BD480188B448B1
:102090000088FEF704FB01F037FB10220021BB484B
:1020A00001F0BEFC12220021B94801F0B9FC112256
:1020B0000021B84801F0B4FC13220021B64801F019
:1020C000AFFC14220021B54801F0AAFC2122002116
:1020D000B34801F0A5FC20220021B24801F0A0FC89
:1020E00031220021B04801F09BFC32220021AF4890
:1020F00001F096FC33220021AD4801F091FC34221E
:102100000021AC4801F08CFC37220021AA4801F0E4
:1021100087FC38220021A94801F082FC35220021E9
:10212000A74801F07DFC36220021A64801F078FC8A
:10213000FEF776FEA44A09219B48FEF7E3FEA24A79
:10214000D21C0A219948FEF7DDFE9F4A921F072103
:102150009748FEF7D7FE9C4AD21E08219548FEF705
:10216000D1FE994A09320C218D48FEF7CBFE964AE2
:102170000C320D218B48FEF7C5FE00208DF80000C3
:102180008DF80100684600F0E5FB642001F070FA6C
:1021900000206D490870C8E0FEF748FE01F0D6FB4C
:1021A0008A48007804281BD06E48007820F001008F
:1021B000401C6C4908700846007820F00800087040
:1021C0000846007820F020000870642001F050FAE2
:1021D00000208DF800008DF80100684600F0BAFB81
:1021E00001F090F95F480078C0F3C00030B100F012
:1021F00081FF01205549083108600BE00020534958
:10220000203108607249C1F89801504908310860CE
:102210007049087053480078C0F3801038B35148B3
:10222000007800F0010010BB4E48007820F040001C
:102230004C490870681CC0B20546642821DB0025A3
:1022400047480088C82190FBF1F0C0B28DF800002B
:102250004248008890FBF1F0C0B28DF80100601C8C
:10226000C0B20446322803DC684600F073FB08E085
:10227000332C05D1002058490870072057490870B1
:1022800064243148007800283FD03648007800F0B8
:10229000010010BB00202C4908700024084640783B
:1022A000A0282AD108468078032802D100F092FAAB
:1022B0002BE025488078042802D100F067FA24E05A
:1022C00021488078012802D100F064FC1DE01E48FE
:1022D0008078022802D100F039FC16E01A48807894
:1022E000052812D11F480078C0F3401010B100F04B
:1022F000DDF80AE000F0C8FB07E01348C078124997
:10230000897800EB01203649088016480078C0F330
:10231000001050B11348007820F0100011490870E7
:10232000012030490870FEF7E9FC0E48007800F003
:10233000010000283FF430AF00200449086001F09C
:10234000B5FC01F003FB38BD66000020848121420A
:102350003C0000203E0000203F0000204400002000
:1023600042000020320000204600002048000020EB
:102370004A0000204C000020560000205800002099
:102380005200002054000020C2420008053F00080F
:102390004D3E0008453F0008253F00082D3E00083F
:1023A000892A0008AD240008E9310008A13100089D
:1023B000E10B0008450B0008D52700088D27000811
:1023C000952B00084D2B00088143000833000020A6
:1023D00000002142600000206A0000206B00002005
:1023E0005E00002035000020FEB533240025642661
:1023F000002001F027FA2B48007820F0010029493D
:10240000087001F081F943220021274801F008FB00
:102410003DE001F09BFA2348007800F0010030B164
:10242000FA2001F025F90B2001F01AFA2FE03C2CDC
:102430000DDB4320FA214FF402724FF40773CDE90C
:10244000002102900246204601F064F90CE00020D1
:102450004FF40572CDE900204FF43F730246014668
:102460000290204601F056F9304601F001F9012DA5
:1024700006D13C2C01D1002509E0601EC4B206E063
:10248000432C02D1C826012501E0601CC4B20548D6
:10249000007800F001000028BBD001F007FC01F03B
:1024A00055FAFEBD32000020D507000810B5022005
:1024B000214908700320214908702148007801282B
:1024C0001BD01F480078022817D01E48007820F043
:1024D00008001C4908700846007820F020000870A9
:1024E000194883884288012101F06CF917488388D4
:1024F0004288012101F066F91CE000201449C870EF
:102500001048007820F008000E490870084600784E
:1025100020F02000087001200E4908700A488388C6
:102520004288012101F04EF9084883884288012140
:1025300001F048F910BD00006A0000206B00002087
:102540003300002032000020D6420008C2420008BA
:1025500036000020350000207047000001460020B2
:10256000034A506820F44040084350607047000020
:102570000010024029B1064AD2690243044BDA61D5
:1025800004E0034AD2698243014BDA6170470000DC
:102590000010024029B1064A12690243044B1A6135
:1025A00004E0034A12698243014B1A61704700003C
:1025B0000010024029B1064A92690243044B9A6115
:1025C00004E0034A92698243014B9A61704700001C
:1025D0000010024029B1064AD2680243044BDA6077
:1025E00004E0034AD2688243014BDA60704700007E
:1025F0000010024030B500210022002400232D4DA0
:102600006D6805F00C0121B1042905D0082923D1FA
:1026100005E0294D056022E0274D05601FE0254DAE
:102620006D6805F47012234D6D6805F48034022541
:1026300005EB92421CB9214D554305600BE01D4D41
:102640006D6805F400351DB11C4D5543056002E071
:10265000194D5543056002E0174D056000BF00BFEE
:10266000144D6D6805F0F0010909154D6B5C0568A6
:10267000DD4045600F4D6D6805F4E061090A104DBD
:102680006B5C4568DD4085600A4D6D6805F46051FE
:10269000C90A0B4D6B5C4568DD40C560054D6D6832
:1026A00005F44041890B074D6B5CC568B5FBF3F53C
:1026B000056130BD0010024000127A0000093D00A3
:1026C000140000202400002000212E4A1278062A3F
:1026D00052D2DFE802F0030B172A323AAA2804D1BB
:1026E000284A1278521C274B1A7049E0012805D15C
:1026F000244A1278521C234B1A7002E00022214B0C
:102700001A703DE01F4A1278521C1E4B1A70A02806
:1027100002D11D4A507007E0A12802D11A4A507018
:1027200002E00022174B1A702AE0174A9070154AEF
:102730001278521C134B1A7022E0134AD070114ABF
:102740001278521C0F4B1A701AE00F4A5278AB32B3
:102750000D4B9B781A440C4BDB781A44D1B2814262
:1027600003D10122084B1A7002E00022064B1A70B6
:102770000022044B1A7003E00022024B1A7000BFC3
:1027800000BF70477C0000206600002010B50020CC
:102790000B49087001200B4908700B480088C828B5
:1027A00004DD09480088C8380749088007480288BE
:1027B0000748018804480088FDF771FF10BD00003C
:1027C0006A0000206B000020440000205800002018
:1027D0005600002010B500200B49087001200B495D
:1027E00008700B480088B0F5FA6F04DA08480088D2
:1027F000C83007490880074802880748018804480C
:102800000088FDF74CFF10BD6A0000206B0000201F
:1028100044000020580000205600002030B5034638
:102820000C461546002207E0184600F008F824F888
:1028300012009B1C501C82B2AA42F5DB30BD01463F
:10284000088870472DE9F05F80468A461746B8F140
:10285000006F02D33348804501D3BDE8F09FFEF7F7
:102860003DF8A8F1006B4FEA9B25CBF34809C9F569
:102870000074A74200DC3C464DE04FF0006101EBE4
:1028800085208A142849FFF7C9FF00260BE009EBD1
:102890000600254931F810004FF6FF71884200D03C
:1028A00003E0701C86B2A642F1DB00BFA6421BDA31
:1028B0004FF0006101EB8520FDF7A6FF002608E040
:1028C0003AF8160006EB0901174A22F81100701CAD
:1028D00086B2A642F4DB4FF0006101EB85208A143A
:1028E000114900F023F804E022465146404600F02A
:1028F0001DF8A74200D10FE06D1C4FF000090AEB54
:10290000440AA044381B87B2B7F5007F02DD4FF4BC
:10291000007400E03C46B0E700BFFDF7B5FF00BF24
:102920009BE7000000000108A00000202DE9F04115
:1029300005460E461746002407E036F814102846D0
:10294000FDF7ACFFAD1C601C84B2BC42F5DBBDE8FA
:10295000F081704770B50446207800F26B10617802
:102960000844C5B201200C490860AA2001F08CFC83
:10297000012001F089FCC02001F086FC207801F0E4
:1029800083FC607801F080FC284601F07DFC00208B
:102990000249C1F8B00170BDB081214200802142DE
:1029A00010B500F001F810BD0CB5002001900090AA
:1029B0003348006840F480303149086000BF304837
:1029C000006800F4003000900198401C01900098CD
:1029D00018B90198B0F5A06FF1D12948006800F44A
:1029E000003010B10120009001E00020009000981C
:1029F000012843D12348006840F0100021490860B5
:102A00000846006820F0030008600846006840F0AF
:102A1000020008601A484068194948600846406842
:102A200048600846406840F4806048600846406856
:102A300020F47C1048600846406840F4E810486084
:102A40000846006840F08070086000BF0C480068CD
:102A500000F000700028F9D00948406820F0030019
:102A6000074948600846406840F00200486000BFDF
:102A70000348406800F00C000828F9D10CBD0000A4
:102A8000001002400020024010B5012026490870C5
:102A90002649087026480078012824D02448007868
:102AA000022820D02348007820F00800083021496F
:102AB00008700846007820F02000203008701E487A
:102AC00083884288012100F07DFE1C48838842886B
:102AD000012100F077FE1A48008818BB4FF4E1602E
:102AE000174908801EE00120164908701649C87071
:102AF0001048007820F0080008300E4908700E4891
:102B000083884288012100F05DFE0C48838842885A
:102B1000012100F057FE0A48008818B94FF4E1601F
:102B20000749088010BD00006A0000206B000020EB
:102B30003300002032000020B8420008E0420008C4
:102B40003C000020350000203600002010B5002099
:102B50000B49087001200B4908700B480088C828F1
:102B600004DD09480088C8380749088007480288FA
:102B70000748018804480088FDF791FD10BD00005A
:102B80006A0000206B00002042000020540000205A
:102B90005200002010B500200B49087001200B499D
:102BA00008700B480088B0F5FA6F04DA084800880E
:102BB000C830074908800748028807480188044848
:102BC0000088FDF76CFD10BD6A0000206B0000203E
:102BD000420000205400002052000020042808D1A8
:102BE0004FF0E021096941F004014FF0E02211614A
:102BF00007E04FF0E021096921F004014FF0E022E5
:102C0000116170477047000010B51348006840F02C
:102C100001001149086008464068104908400E4903
:102C20004860084600680E4908400B49086008469D
:102C3000006820F4802008600846406820F4FE0008
:102C400048604FF41F008860FFF7AAFE4FF0006055
:102C50000449086010BD0000001002400000FFF8A9
:102C6000FFFFF6FE08ED00E010B50121364800F048
:102C700014F9002867D00121334800F0FFF83348E9
:102C8000007809280FD132480078C0F3C0013148DC
:102C90000078FDF709FC2E480078C0F3C0012E48EB
:102CA0000078FDF753FC2D480088401C80B22B496A
:102CB0000880B0F5FA6F08DB00200880244800780F
:102CC00020F0100010302249087025480088401C70
:102CD00080B2234908800A281CDB002008801C4899
:102CE000007820F04000403019490870FDF76AFC78
:102CF00016480078032803D014480078042809D126
:102D000013480078C0F3C0021648018816480088AE
:102D1000FEF796F90E480078C0F3401098B11348BA
:102D20000088401C80B21149088042F2107188422C
:102D300009DB00200D4908800548007820F00400D8
:102D4000001D0349087010BD00040040330000203E
:102D5000320000203F0000203E0000202E00002016
:102D60003000002044000020420000202C00002001
:102D70007FB505460C4601210220FFF7FBFBADF8AD
:102D80000850ADF804400020ADF80A00ADF8060088
:102D900001A90E4800F0F8F8012211460B4800F096
:102DA0008DF81D208DF8000002208DF80100032011
:102DB0008DF8020001208DF803006846FEF7FEF84A
:102DC0000121024800F05DF87FBD000000040040D2
:102DD00030B589B005460C4601210420FFF7CAFB37
:102DE00001210820FFF7E6FB4FF48070ADF82000CA
:102DF00018208DF8230003208DF8220008A9174819
:102E0000FDF78BFDADF81850ADF814400020ADF87B
:102E10001A00ADF8160005A9114800F0B5F87020A9
:102E2000ADF804000120ADF806000020ADF80A005E
:102E30000220ADF80C0001A9094800F049F808216A
:102E4000074800F095F80121054800F00BF8012132
:102E5000034800F016F809B030BD0000000C014036
:102E60000008004021B1028842F08002028004E0A4
:102E700002884FF67F731A4002807047CA4302826D
:102E8000704721B1028842F00102028004E002880A
:102E90004FF6FE731A400280704730B5024600209C
:102EA00000230024158A05EA0103958905EA010437
:102EB00013B10CB1012000E0002030BD1AB18389AC
:102EC0000B43838102E083898B4383817047000039
:102ED00070B5002400220023058C4FF6FF663540B4
:102EE0000584028C8388848B4FF68F752C404FF6B7
:102EF000FC752C400D882C434FF6FF552A400D8958
:102F00004FF6FF7606EA05252A434D8806EA052591
:102F10002A43154DA84202D0144DA8421DD14FF2AC
:102F2000FF752A404D894FF6FF7606EA05252A43AC
:102F30004FF6FF352A408D8806EA05252A434EF6CE
:102F4000FF752B404DF6FF752B408D8906EA051560
:102F50002B43CD8906EA05152B4383808483CD88D6
:102F60008587028470BD0000002C014000340140C0
:102F70000A460021818B4FF6F77319401143818374
:102F80007047818770470000002202881D4B9842DD
:102F90000ED01D4B98420BD0B0F1804F08D01B4B88
:102FA000984205D01A4B984202D01A4B984204D14D
:102FB0004FF68F731A404B881A43174B984207D02D
:102FC000164B984204D04FF6FF431A40CB881A4361
:102FD00002808B8883850B8803850A4B98420BD02F
:102FE000094B984208D00E4B984205D00D4B9842A1
:102FF00002D00D4B984201D10B7A038601238382C4
:1030000070470000002C01400034014000040040E3
:1030100000080040000C0040001000400014004078
:103020000040014000440140004801402948008818
:10303000B0F57A6F03DA2748008864281CDC26483C
:103040000088401C80B22449088042F210718842F6
:103050003EDB08462049088020480078002837D108
:1030600001201E49087000201D4908601D49087094
:1030700007201D4908702BE017480088192805DB38
:103080001548008819381449088002E000201249C8
:1030900008801148008810B90020104908701348B2
:1030A0001349097830F8110010300A49098888421C
:1030B00002DC01200A4908600C480D49097830F803
:1030C000110004490988884202DB00200449086095
:1030D000704700005A0000206C0000205C000020B7
:1030E000808121426A0000206B000020F442000829
:1030F0003E000020244800884FF6FF71884216D118
:1031000022480088401C80B22049088042F2107199
:10311000884238DB08461D4908801D48007890BB6E
:1031200001201B49087000201A4908602BE017484D
:103130000088192805DB15480088193813490880CC
:1031400002E00020114908801048008810B90020D2
:103150000F49087010481149097830F811000A38F1
:1031600009490988884202DB01200A4908600A48A7
:103170000A49097830F8110003490988884202DCBD
:1031800000200449086070475E0000206E000020A7
:1031900060000020A4812142064300083E00002078
:1031A00010B500200B49087001200B4908700B482E
:1031B00000883C2804DD094800883C38074908801D
:1031C00007480288074801880448008800F07AFD13
:1031D00010BD00006A0000206B0000203C000020B1
:1031E000480000204600002010B500200B49087060
:1031F00001200B4908700B480088B0F5616F04DAB4
:10320000084800883C30074908800748028807487A
:1032100001880448008800F055FD10BD6A000020B8
:103220006B0000203C0000204800002046000020E9
:1032300010B540F22551094800F09DF868B10748E3
:1032400000F054F9C4B2204600F0C2F9034800F07F
:103250004DF9C4B22046FDF779FE10BD003801409B
:1032600010B540F22551064800F085F830B1044809
:1032700000F03CF9C4B2204600F016FC10BD00007E
:103280000044004010B540F22551064800F073F8A4
:1032900030B1044800F02AF9C4B22046FFF714FA0E
:1032A00010BD00000048004021B1828942F4005264
:1032B000828104E082894DF6FF731A408281704753
:1032C00010B504462048844209D101218803FFF744
:1032D00081F900214FF48040FFF77CF932E01B4870
:1032E000844209D101214804FFF754F900214FF429
:1032F0000030FFF74FF925E01548844209D101213C
:103300008804FFF747F900214FF48020FFF742F9C6
:1033100018E01048844209D10121C804FFF73AF9A6
:1033200000214FF40020FFF735F90BE00A488442F2
:1033300008D101210805FFF72DF900214FF4801075
:10334000FFF728F910BD000000380140004400409C
:1033500000480040004C0040005000400246002061
:10336000B1F5007F00D100BF13880B400BB10120E5
:1033700000E00020704770B50246002400230025BD
:10338000002040F66A16B14200D100BFC1F34215D9
:1033900001F01F03012606FA03F3012D02D19689DD
:1033A000334006E0022D02D1168A334001E0968AAE
:1033B00033400C12012606FA04F41688344013B187
:1033C0000CB1012000E0002070BDF0B503460024E0
:1033D00000260025002040F66A17B94200D100BF40
:1033E0001846C1F3421401F01F06012707FA06F53B
:1033F000012C01D10C3004E0022C01D1103000E08E
:1034000014301AB107682F43076002E00768AF4322
:103410000760F0BD2DE9F04786B005460E46002452
:10342000A24600BFA1460027B08900B100BF2F46C9
:103430002C8A4CF6FF700440F08804432C82AC893F
:103440004EF6F3100440B08831890843718908436F
:103450000443AC81AC8A4FF6FF400440B08904437A
:10346000AC8201A8FFF7C6F81F48874202D1DDF8F9
:1034700010A001E0DDF80CA0A88900F4004040B1E4
:103480000AEBCA0000EB0A1031684900B0FBF1F802
:1034900007E00AEBCA0000EB0A1031688900B0FBB4
:1034A000F1F86420B8FBF0F004012009642101FB6D
:1034B0001089A88900F4004040B1322000EBC90017
:1034C000B0FBF1F000F00700044308E0322000EB0D
:1034D00009106421B0FBF1F000F00F0004432C81CF
:1034E00006B0BDE8F087000000380140014688883A
:1034F000C0F308007047C1F308028280704700BF24
:10350000FEE7000010B526480078C0F34010002800
:1035100044D023480078C0F3800000283ED02048E3
:10352000007820F004001E4908701E48008800281A
:1035300005DD1C480088401E1A49088026E002204C
:10354000194908700320194908704FF4E1601549C2
:103550000880174883884288012100F033F9154814
:1035600083884288012100F02DF90D48007820F071
:1035700020000B4908700846007820F00800087009
:1035800000200D49C87001200C4908700C480288C1
:103590000C4801880348008800F094FB10BD00002F
:1035A000320000203C0000206A0000206B00002058
:1035B000D6420008C2420008360000203500002034
:1035C0004800002046000020014600BF7047000070
:1035D0001349097839B9AA2820D111490978491C19
:1035E0000F4A11701AE00E49097802290ADA0C49CB
:1035F0000978491E0B4A505409490978491C084A60
:1036000011700BE00021064A1170552806D10649B9
:10361000097821F00201891C034A117070470000EB
:103620007B000020610000203200002010B56FF008
:103630000400FFF7D3FA0A4800680A49B0FBF1F02A
:10364000094908700846007800EB4001C1EBC01042
:103650004FF6FF7101EAC0000449088010BD000068
:103660000000002000127A00280000202A0000201C
:103670000146114A12884A434FF0E0235A61002262
:103680009A611A46126942F001021A6100BF4FF0B6
:10369000E022106900F001021AB100F48032002A21
:1036A000F5D04FF0E022126922F001024FF0E02342
:1036B0001A6100229A6170472A0000200146114ACF
:1036C00012784A434FF0E0235A6100229A611A4669
:1036D000126942F001021A6100BF4FF0E022106946
:1036E00000F001021AB100F48032002AF5D04FF048
:1036F000E022126922F001024FF0E0231A61002259
:103700009A61704728000020002001490870704726
:10371000850000202DE9F04782460C4615461E46DE
:10372000DDE90989089FAA2000F064FA712000F001
:1037300061FA504600F05EFA201200F05BFAE0B247
:1037400000F058FA281200F055FAE8B200F052FAE8
:10375000301200F04FFAF0B200F04CFA381200F0DC
:1037600049FAF8B200F046FA4FEA282000F042FA8F
:1037700008F0FF0000F03EFA4FEA292000F03AFA84
:1037800009F0FF0000F036FA00F03AFABDE8F087E1
:103790002DE9FE4F04460D4616461F46DDE90D9AFB
:1037A000DDF8308006498DE8000709782144C8B269
:1037B0003B4632462946FFF7ADFFBDE8FE8F0000CD
:1037C00084000020FEB504460F4615461E464FB144
:1037D00020898DE86100E388A28861882078FFF75E
:1037E000D7FF08E020898DE86100E388A28861881E
:1037F0002078FFF78FFFFEBDF8B505460E46174649
:103800001C46002000908DF800406B463A46314639
:10381000284600F031F8F8BDF8B505460E461746C3
:103820001C460A2C0DDA0020009004F13000C0B2D2
:103830008DF800006B463A463146284600F01CF8E9
:1038400000BFF8BD10B50446AA2000F0D3F97020DF
:1038500000F0D0F9204600F0CDF900F0D1F910BD0C
:1038600010B50446034909782144C8B2FFF7EAFFBE
:1038700010BD0000840000202DE9F04104460D46F3
:1038800016461F464FF00008AA2000F0B3F9062C98
:103890001CD2DFE804F003070B0F1317532000F0CE
:1038A000A9F913E06E2000F0A5F90FE0542000F014
:1038B000A1F90BE06F2000F09DF907E0552000F022
:1038C00099F903E0982000F095F900BF00BF281295
:1038D00000F090F9E8B200F08DF9301200F08AF9AA
:1038E000F0B200F087F9052C1AD1242000F082F9FB
:1038F000812000F07FF9052000F07CF9114909884A
:10390000081200F077F90F49087800F073F90E49B2
:103910000988081200F06EF90B49087800F06AF97E
:1039200007E017F8080000F065F908F1010000F061
:10393000FF0817F808000028F3D100F061F9BDE88E
:10394000F0810000860000208800002010B50024CF
:1039500000F0A4F8792839D12C480078B0BB0120B8
:103960002A4908702A4800792949C97800EB0120C2
:1039700084B20020274908700DE0274825490978BE
:1039800000EB01108089A04200D10AE021480078B4
:10399000401C204908701F48007820490978884257
:1039A000EBDB00BF1B4800781C49097888420DDA20
:1039B00019481849097800EB0110006830B1164920
:1039C000144A127801EB02110868804700F066F88B
:1039D00078281AD10D480078012816D100200B490B
:1039E00008700C4800780D49097888420DDA0A48B9
:1039F0000849097800EB0110406830B10649054AD2
:103A0000127801EB02114868804710BD9200002037
:103A1000A004002093000020AC04002085000020BA
:103A200010B50E4B1B781E2B16DA0D4B0B4C247861
:103A300003EB041318600A4B084C247803EB0413BF
:103A40005960074B054C247803EB04139A81034B10
:103A50001B785B1C014C237010BD0000850000200A
:103A6000AC04002070B505460C460B48007800B148
:103A700070BDAA2000F0BEF8302000F0BBF8284648
:103A800000F0B8F8204600F0B5F8A02000F0B2F839
:103A900000F0B6F800BFEBE74000002001480078D6
:103AA00070470000A00400204F4909780A2971D20C
:103AB000DFE801F0050D444C545C64717D89AA284F
:103AC00004D149490978491C474A117089E0732893
:103AD00007D145490978491C434A11704349087088
:103AE0002BE0722806D100213F4A11707221404A12
:103AF000117022E0E42805D104213B4A11703B49B2
:103B000008701AE030B90021374A11707421384A20
:103B1000117012E0792805D10421334A117033491C
:103B200008700AE0782805D104212F4A11702F4926
:103B3000087002E000212C4A117052E02C494870B4
:103B400029490978491C284A11704AE02849887097
:103B500025490978491C244A117042E02449C8705B
:103B600021490978491C204A11703AE0204908711E
:103B70001D490978491C1C4A117032E0CC2805D136
:103B800019490978491C184A117002E00021164AA7
:103B9000117026E021E0332805D113490978491C2A
:103BA000114A117002E000210F4A117019E0C32878
:103BB00005D10D490978491C0B4A117002E000211A
:103BC000094A11700DE03C2806D10021064A117007
:103BD00006490978064A117003E00021024A117073
:103BE00000BF00BF70470000940000209500002037
:103BF000A004002010B50446204600F02DFB10BDA7
:103C000010B5CC20FFF7F6FF3320FFF7F3FFC320FA
:103C1000FFF7F0FF3C20FFF7EDFF10BD70B5044645
:103C20000D460C4804800C480580AA20FFF7E2FFEF
:103C30004020FFF7DFFF2012FFF7DCFFE0B2FFF7C5
:103C4000D9FF2812FFF7D6FFE8B2FFF7D3FFFFF73F
:103C5000D7FF70BD860000208800002018B9002121
:103C6000074A11700AE0142803D11421044A117084
:103C700004E0462802D14621014A11707047000035
:103C80008400002010B5AA20FFF7B4FF3020FFF712
:103C9000B1FF0020FFF7AEFF0020FFF7ABFF0020D1
:103CA000FFF7A8FFFFF7ACFF10BD000000BF0448FE
:103CB0000078722803D0024800787828F7D170473E
:103CC000A00400202DE9F04104460D4616464FF4AD
:103CD000167094FBF0F0C7B23B46324629460520E9
:103CE000FFF79AFD3C2094FBF0F00A2190FBF1F2E3
:103CF00001FB1200C7B205F1180081B23B46324603
:103D00000520FFF789FD3C2094FBF0F100FB1140FA
:103D10000A2190FBF1F0C7B205F1480081B23B46A1
:103D200032460520FFF778FD0A2094FBF0F100FBF6
:103D30001140C7B205F1600081B23B463246052012
:103D4000FFF76AFDBDE8F08108B50020009000BFD4
:103D5000FCF7A2FFFDF72CF9FFF768FC4FF41650B3
:103D600000F00EFA4FF4E13000F062F94FF4E13068
:103D700000F0B0F900214FF4E150FFF729F840F6C8
:103D8000B8312748FFF7FDF800F022F9FFF77AFF76
:103D900046216320FEF7ECFFFCF740FB0820214999
:103DA00008704FF6FF714FF4FC60FFF737FF0122F8
:103DB00069461D48FEF732FDBDF8000018B1142019
:103DC000FFF74CFF02E00020FFF748FF27E015480F
:103DD00000780A2821D2DFE800F0200B0E14171A11
:103DE000081D0511FEF700FB18E0FDF7AFFE15E01A
:103DF000FDF736FD12E0FDF771FA0FE0FDF744F92B
:103E00000CE0FDF777FF09E0FEF7E4F806E0FDF7C8
:103E10000FFF03E0FDF7D8FB00E000BF00BFD6E7CF
:103E2000000800403300002000F800080920044981
:103E3000087000200349087001200349087070478A
:103E4000330000206A0000206B000020022004499B
:103E5000087000200349087001200349087070476A
:103E6000330000206A0000206B00002008B500200D
:103E700000900C48007820F00100401C09490870AF
:103E800005200949087000200849087001200849E8
:103E900008700020FFF7E2FE012269460548FEF7A0
:103EA000D1FC08BD32000020330000206A00002051
:103EB0006B00002000F8000808B57B2000900C483B
:103EC000007820F00100401C0949087005200949CC
:103ED0000870002008490870012008490870142063
:103EE000FFF7BCFE012269460548FEF7ABFC08BDA2
:103EF00032000020330000206A0000206B00002008
:103F000000F80008012004490870002003490870E7
:103F10000120034908707047330000206A00002028
:103F20006B00002004200449087000200349087039
:103F30000120034908707047330000206A00002008
:103F40006B0000200320044908700020034908701A
:103F50000120034908707047330000206A000020E8
:103F60006B00002008B50020009013490870012064
:103F7000124908701248007808B9012000E00020BA
:103F80000F490870084600780090012269460D48E4
:103F9000FEF758FC0A48007830B10B488388428805
:103FA0000021FFF70FFC05E00848838842880021C4
:103FB000FFF708FC08BD00006A0000206B0000202D
:103FC0004000002002F80008EA420008CC42000845
:103FD00010B5002415E0AA20FFF70CFE0020FFF723
:103FE00009FEFFF70DFE0520FFF742FBFFF756FD28
:103FF000742801D1FF2406E0C820FFF739FB601CBC
:10400000C4B2192CE7DB00BFFF2C0BD009E0064837
:104010000068C0430549C1F890014FF4FA70FFF7FA
:1040200027FBF4E710BD000090012142000021426F
:1040300010B586B0044601210420FEF7BBFA012129
:104040004804FEF797FA0420ADF8140018208DF804
:10405000170005A91D48FCF760FC0820ADF8140006
:1040600048208DF8170005A91848FCF756FC184899
:10407000FFF726F926208DF8000003208DF80100B7
:104080008DF8020001208DF803006846FCF796FFCA
:1040900001940020ADF80800ADF80A00ADF80C005E
:1040A000ADF810000C20ADF80E0001A90848FFF78C
:1040B000B1F9012240F225510548FFF786F90121A7
:1040C0000348FFF7F1F806B010BD000000080140FA
:1040D0000044004010B586B0044601210820FEF7D8
:1040E00069FA01218804FEF745FA4FF48060ADF8C3
:1040F000140002208DF8160018208DF8170005A96D
:104100001D48FCF70AFC4FF40060ADF8140048208D
:104110008DF8170005A91848FCF7FFFB1748FFF7B3
:10412000CFF827208DF8000003208DF801008DF8CE
:10413000020001208DF803006846FCF73FFF019460
:104140000020ADF80800ADF80A00ADF80C00ADF89D
:1041500010000C20ADF80E0001A90848FFF75AF92D
:10416000012240F225510548FFF72FF901210348AC
:10417000FFF79AF806B010BD000C0140004800405F
:1041800010B586B00446012144F20400FEF712FA8D
:104190002348FFF795F84FF40070ADF814000320A2
:1041A0008DF8160018208DF8170005A91D48FCF79A
:1041B000B4FB4FF48060ADF8140048208DF8170070
:1041C00005A91848FCF7A9FB25208DF8000003205D
:1041D0008DF8010002208DF8020001208DF8030007
:1041E0006846FCF7EBFE01940020ADF80800ADF83E
:1041F0000A00ADF80C00ADF810000C20ADF80E0070
:1042000001A90748FFF706F9012240F225510448A9
:10421000FFF7DBF801210248FFF746F806B010BDB2
:10422000003801400008014010B5044600BF80215D
:104230000848FFF793F80028F9D021460548FFF712
:104240005AF900BF40210348FFF788F80028F9D049
:1042500010BD00000038014010B5044600BF8021A9
:104260000848FFF77BF80028F9D021460548FFF7FA
:1042700042F900BF40210348FFF770F80028F9D049
:1042800010BD00000044004010B5044600BF80216E
:104290000848FFF763F80028F9D021460548FFF7E2
:1042A0002AF900BF40210348FFF758F80028F9D049
:1042B00010BD0000004800401600A4028500120353
:1042C000D6001600A2021A010F036C010100CA02F7
:1042D0000A00050345000C00A40285001203D60065
:1042E0000C00A2021A010F036C010200CA020A00AC
:1042F00005034500000074051005AC044804E40300
:104300001C035402F2010000580271028A02A30247
:10431000BC02D502EE021B030000D007A00FA00FC5
:10432000E80388130000E803D007B80BE803FA009D
:10433000000022002300240025002600270028007A
:1043400029002A002B002C002C002D002E002E000E
:1043500000001027AC265613500A000010275613F1
:10436000500A28056E009A01E803F203C20B6400AC
:104370009001F401E803B80BFA00FFFA01FEFA021B
:10438000FDFA03FCFA04FBFA05FAFA06F9FA07F853
:10439000B043000800000020A00000002801000831
:1043A00050440008A0000020100D00004401000847
:1043B00000A24A0400000000000000000102030403
:1043C00006070809000000000102030401020304BB
:1043D00006070809020406080000000000000000AB
:1043E00000000000000055010100AA0000000000CC
:1043F00000000000000000000000000000000000BD
:1044000000000000000000000000000000000000AC
:10441000000000000000000000000000000000009C
:10442000000000000000000000000000000000008C
:10443000000000000000FFFF00000000000000007E
:104440000000000000001027000000000000000035
:04000005080000ED02
:00000001FF
